{
	"contracts/MyWork.sol": {
		"MyWork": {
			"abi": [
				{
					"inputs": [],
					"stateMutability": "nonpayable",
					"type": "constructor"
				},
				{
					"inputs": [],
					"name": "owner",
					"outputs": [
						{
							"internalType": "address",
							"name": "",
							"type": "address"
						}
					],
					"stateMutability": "view",
					"type": "function"
				},
				{
					"inputs": [],
					"name": "paySchoolFee",
					"outputs": [],
					"stateMutability": "payable",
					"type": "function"
				},
				{
					"inputs": [
						{
							"internalType": "uint256",
							"name": "",
							"type": "uint256"
						}
					],
					"name": "payers",
					"outputs": [
						{
							"internalType": "address",
							"name": "",
							"type": "address"
						}
					],
					"stateMutability": "view",
					"type": "function"
				},
				{
					"inputs": [],
					"name": "schoolFee",
					"outputs": [
						{
							"internalType": "uint256",
							"name": "",
							"type": "uint256"
						}
					],
					"stateMutability": "view",
					"type": "function"
				},
				{
					"inputs": [],
					"name": "withdraw",
					"outputs": [],
					"stateMutability": "nonpayable",
					"type": "function"
				}
			],
			"devdoc": {
				"kind": "dev",
				"methods": {},
				"version": 1
			},
			"evm": {
				"assembly": "    /* \"contracts/MyWork.sol\":102:1048  contract MyWork {... */\n  mstore(0x40, 0x80)\n    /* \"contracts/MyWork.sol\":192:201  20 * 1e18 */\n  0x01158e460913d00000\n    /* \"contracts/MyWork.sol\":164:201  uint256 public  schoolFee = 20 * 1e18 */\n  0x00\n  sstore\n    /* \"contracts/MyWork.sol\":319:367  constructor() {... */\n  callvalue\n  dup1\n  iszero\n  tag_1\n  jumpi\n  0x00\n  dup1\n  revert\ntag_1:\n  pop\n    /* \"contracts/MyWork.sol\":350:360  msg.sender */\n  caller\n    /* \"contracts/MyWork.sol\":342:347  owner */\n  0x02\n  0x00\n    /* \"contracts/MyWork.sol\":342:360  owner = msg.sender */\n  0x0100\n  exp\n  dup2\n  sload\n  dup2\n  0xffffffffffffffffffffffffffffffffffffffff\n  mul\n  not\n  and\n  swap1\n  dup4\n  0xffffffffffffffffffffffffffffffffffffffff\n  and\n  mul\n  or\n  swap1\n  sstore\n  pop\n    /* \"contracts/MyWork.sol\":102:1048  contract MyWork {... */\n  dataSize(sub_0)\n  dup1\n  dataOffset(sub_0)\n  0x00\n  codecopy\n  0x00\n  return\nstop\n\nsub_0: assembly {\n        /* \"contracts/MyWork.sol\":102:1048  contract MyWork {... */\n      mstore(0x40, 0x80)\n      jumpi(tag_1, lt(calldatasize, 0x04))\n      shr(0xe0, calldataload(0x00))\n      dup1\n      0x3ccfbd03\n      eq\n      tag_2\n      jumpi\n      dup1\n      0x3ccfd60b\n      eq\n      tag_3\n      jumpi\n      dup1\n      0x8da5cb5b\n      eq\n      tag_4\n      jumpi\n      dup1\n      0x968f1455\n      eq\n      tag_5\n      jumpi\n      dup1\n      0x96d52aac\n      eq\n      tag_6\n      jumpi\n    tag_1:\n      0x00\n      dup1\n      revert\n        /* \"contracts/MyWork.sol\":208:231  address[] public payers */\n    tag_2:\n      callvalue\n      dup1\n      iszero\n      tag_7\n      jumpi\n      0x00\n      dup1\n      revert\n    tag_7:\n      pop\n      tag_8\n      0x04\n      dup1\n      calldatasize\n      sub\n      dup2\n      add\n      swap1\n      tag_9\n      swap2\n      swap1\n      tag_10\n      jump\t// in\n    tag_9:\n      tag_11\n      jump\t// in\n    tag_8:\n      mload(0x40)\n      tag_12\n      swap2\n      swap1\n      tag_13\n      jump\t// in\n    tag_12:\n      mload(0x40)\n      dup1\n      swap2\n      sub\n      swap1\n      return\n        /* \"contracts/MyWork.sol\":590:1045  function withdraw() public {... */\n    tag_3:\n      callvalue\n      dup1\n      iszero\n      tag_14\n      jumpi\n      0x00\n      dup1\n      revert\n    tag_14:\n      pop\n      tag_15\n      tag_16\n      jump\t// in\n    tag_15:\n      stop\n        /* \"contracts/MyWork.sol\":240:260  address public owner */\n    tag_4:\n      callvalue\n      dup1\n      iszero\n      tag_17\n      jumpi\n      0x00\n      dup1\n      revert\n    tag_17:\n      pop\n      tag_18\n      tag_19\n      jump\t// in\n    tag_18:\n      mload(0x40)\n      tag_20\n      swap2\n      swap1\n      tag_13\n      jump\t// in\n    tag_20:\n      mload(0x40)\n      dup1\n      swap2\n      sub\n      swap1\n      return\n        /* \"contracts/MyWork.sol\":164:201  uint256 public  schoolFee = 20 * 1e18 */\n    tag_5:\n      callvalue\n      dup1\n      iszero\n      tag_21\n      jumpi\n      0x00\n      dup1\n      revert\n    tag_21:\n      pop\n      tag_22\n      tag_23\n      jump\t// in\n    tag_22:\n      mload(0x40)\n      tag_24\n      swap2\n      swap1\n      tag_25\n      jump\t// in\n    tag_24:\n      mload(0x40)\n      dup1\n      swap2\n      sub\n      swap1\n      return\n        /* \"contracts/MyWork.sol\":375:582  function paySchoolFee() public payable {... */\n    tag_6:\n      tag_26\n      tag_27\n      jump\t// in\n    tag_26:\n      stop\n        /* \"contracts/MyWork.sol\":208:231  address[] public payers */\n    tag_11:\n      0x01\n      dup2\n      dup2\n      sload\n      dup2\n      lt\n      tag_28\n      jumpi\n      0x00\n      dup1\n      revert\n    tag_28:\n      swap1\n      0x00\n      mstore\n      keccak256(0x00, 0x20)\n      add\n      0x00\n      swap2\n      pop\n      sload\n      swap1\n      0x0100\n      exp\n      swap1\n      div\n      0xffffffffffffffffffffffffffffffffffffffff\n      and\n      dup2\n      jump\t// out\n        /* \"contracts/MyWork.sol\":590:1045  function withdraw() public {... */\n    tag_16:\n        /* \"contracts/MyWork.sol\":650:655  owner */\n      0x02\n      0x00\n      swap1\n      sload\n      swap1\n      0x0100\n      exp\n      swap1\n      div\n      0xffffffffffffffffffffffffffffffffffffffff\n      and\n        /* \"contracts/MyWork.sol\":636:655  msg.sender == owner */\n      0xffffffffffffffffffffffffffffffffffffffff\n      and\n        /* \"contracts/MyWork.sol\":636:646  msg.sender */\n      caller\n        /* \"contracts/MyWork.sol\":636:655  msg.sender == owner */\n      0xffffffffffffffffffffffffffffffffffffffff\n      and\n      eq\n        /* \"contracts/MyWork.sol\":628:681  require(msg.sender == owner, \"you are not the owner\") */\n      tag_31\n      jumpi\n      mload(0x40)\n      0x08c379a000000000000000000000000000000000000000000000000000000000\n      dup2\n      mstore\n      0x04\n      add\n      tag_32\n      swap1\n      tag_33\n      jump\t// in\n    tag_32:\n      mload(0x40)\n      dup1\n      swap2\n      sub\n      swap1\n      revert\n    tag_31:\n        /* \"contracts/MyWork.sol\":715:716  0 */\n      0x00\n        /* \"contracts/MyWork.sol\":701:717  new address[](0) */\n      0xffffffffffffffff\n      dup2\n      gt\n      iszero\n      tag_34\n      jumpi\n      tag_35\n      tag_36\n      jump\t// in\n    tag_35:\n    tag_34:\n      mload(0x40)\n      swap1\n      dup1\n      dup3\n      mstore\n      dup1\n      0x20\n      mul\n      0x20\n      add\n      dup3\n      add\n      0x40\n      mstore\n      dup1\n      iszero\n      tag_37\n      jumpi\n      dup2\n      0x20\n      add\n      0x20\n      dup3\n      mul\n      dup1\n      calldatasize\n      dup4\n      calldatacopy\n      dup1\n      dup3\n      add\n      swap2\n      pop\n      pop\n      swap1\n      pop\n    tag_37:\n      pop\n        /* \"contracts/MyWork.sol\":692:698  payers */\n      0x01\n        /* \"contracts/MyWork.sol\":692:717  payers = new address[](0) */\n      swap1\n      dup1\n      mload\n      swap1\n      0x20\n      add\n      swap1\n      tag_38\n      swap3\n      swap2\n      swap1\n      tag_39\n      jump\t// in\n    tag_38:\n      pop\n        /* \"contracts/MyWork.sol\":732:741  uint256 i */\n      0x00\n        /* \"contracts/MyWork.sol\":728:860  for(uint256 i = 0; i<payers.length;i++){... */\n    tag_40:\n        /* \"contracts/MyWork.sol\":749:755  payers */\n      0x01\n        /* \"contracts/MyWork.sol\":749:762  payers.length */\n      dup1\n      sload\n      swap1\n      pop\n        /* \"contracts/MyWork.sol\":747:748  i */\n      dup2\n        /* \"contracts/MyWork.sol\":747:762  i<payers.length */\n      lt\n        /* \"contracts/MyWork.sol\":728:860  for(uint256 i = 0; i<payers.length;i++){... */\n      iszero\n      tag_41\n      jumpi\n        /* \"contracts/MyWork.sol\":782:795  address payer */\n      0x00\n        /* \"contracts/MyWork.sol\":798:804  payers */\n      0x01\n        /* \"contracts/MyWork.sol\":805:806  i */\n      dup3\n        /* \"contracts/MyWork.sol\":798:807  payers[i] */\n      dup2\n      sload\n      dup2\n      lt\n      tag_43\n      jumpi\n      tag_44\n      tag_45\n      jump\t// in\n    tag_44:\n    tag_43:\n      swap1\n      0x00\n      mstore\n      keccak256(0x00, 0x20)\n      add\n      0x00\n      swap1\n      sload\n      swap1\n      0x0100\n      exp\n      swap1\n      div\n      0xffffffffffffffffffffffffffffffffffffffff\n      and\n        /* \"contracts/MyWork.sol\":782:807  address payer = payers[i] */\n      swap1\n      pop\n        /* \"contracts/MyWork.sol\":847:848  0 */\n      0x00\n        /* \"contracts/MyWork.sol\":822:837  studentFeesPaid */\n      0x03\n        /* \"contracts/MyWork.sol\":822:844  studentFeesPaid[payer] */\n      0x00\n        /* \"contracts/MyWork.sol\":838:843  payer */\n      dup4\n        /* \"contracts/MyWork.sol\":822:844  studentFeesPaid[payer] */\n      0xffffffffffffffffffffffffffffffffffffffff\n      and\n      0xffffffffffffffffffffffffffffffffffffffff\n      and\n      dup2\n      mstore\n      0x20\n      add\n      swap1\n      dup2\n      mstore\n      0x20\n      add\n      0x00\n      keccak256\n        /* \"contracts/MyWork.sol\":822:848  studentFeesPaid[payer] = 0 */\n      dup2\n      swap1\n      sstore\n      pop\n        /* \"contracts/MyWork.sol\":767:860  {... */\n      pop\n        /* \"contracts/MyWork.sol\":763:766  i++ */\n      dup1\n      dup1\n      0x01\n      add\n      swap2\n      pop\n      pop\n        /* \"contracts/MyWork.sol\":728:860  for(uint256 i = 0; i<payers.length;i++){... */\n      jump(tag_40)\n    tag_41:\n      pop\n        /* \"contracts/MyWork.sol\":895:896  0 */\n      0x00\n        /* \"contracts/MyWork.sol\":881:897  new address[](0) */\n      0xffffffffffffffff\n      dup2\n      gt\n      iszero\n      tag_47\n      jumpi\n      tag_48\n      tag_36\n      jump\t// in\n    tag_48:\n    tag_47:\n      mload(0x40)\n      swap1\n      dup1\n      dup3\n      mstore\n      dup1\n      0x20\n      mul\n      0x20\n      add\n      dup3\n      add\n      0x40\n      mstore\n      dup1\n      iszero\n      tag_49\n      jumpi\n      dup2\n      0x20\n      add\n      0x20\n      dup3\n      mul\n      dup1\n      calldatasize\n      dup4\n      calldatacopy\n      dup1\n      dup3\n      add\n      swap2\n      pop\n      pop\n      swap1\n      pop\n    tag_49:\n      pop\n        /* \"contracts/MyWork.sol\":872:878  payers */\n      0x01\n        /* \"contracts/MyWork.sol\":872:897  payers = new address[](0) */\n      swap1\n      dup1\n      mload\n      swap1\n      0x20\n      add\n      swap1\n      tag_50\n      swap3\n      swap2\n      swap1\n      tag_39\n      jump\t// in\n    tag_50:\n      pop\n        /* \"contracts/MyWork.sol\":911:927  bool callSuccess */\n      0x00\n        /* \"contracts/MyWork.sol\":941:951  msg.sender */\n      caller\n        /* \"contracts/MyWork.sol\":932:957  payable (msg.sender).call */\n      0xffffffffffffffffffffffffffffffffffffffff\n      and\n        /* \"contracts/MyWork.sol\":965:986  address(this).balance */\n      selfbalance\n        /* \"contracts/MyWork.sol\":932:991  payable (msg.sender).call{value: address(this).balance}(\"\") */\n      mload(0x40)\n      tag_51\n      swap1\n      tag_52\n      jump\t// in\n    tag_51:\n      0x00\n      mload(0x40)\n      dup1\n      dup4\n      sub\n      dup2\n      dup6\n      dup8\n      gas\n      call\n      swap3\n      pop\n      pop\n      pop\n      returndatasize\n      dup1\n      0x00\n      dup2\n      eq\n      tag_55\n      jumpi\n      mload(0x40)\n      swap2\n      pop\n      and(add(returndatasize, 0x3f), not(0x1f))\n      dup3\n      add\n      0x40\n      mstore\n      returndatasize\n      dup3\n      mstore\n      returndatasize\n      0x00\n      0x20\n      dup5\n      add\n      returndatacopy\n      jump(tag_54)\n    tag_55:\n      0x60\n      swap2\n      pop\n    tag_54:\n      pop\n        /* \"contracts/MyWork.sol\":910:991  (bool callSuccess,) = payable (msg.sender).call{value: address(this).balance}(\"\") */\n      pop\n      swap1\n      pop\n        /* \"contracts/MyWork.sol\":1010:1021  callSuccess */\n      dup1\n        /* \"contracts/MyWork.sol\":1002:1037  require(callSuccess, \"call failed\") */\n      tag_56\n      jumpi\n      mload(0x40)\n      0x08c379a000000000000000000000000000000000000000000000000000000000\n      dup2\n      mstore\n      0x04\n      add\n      tag_57\n      swap1\n      tag_58\n      jump\t// in\n    tag_57:\n      mload(0x40)\n      dup1\n      swap2\n      sub\n      swap1\n      revert\n    tag_56:\n        /* \"contracts/MyWork.sol\":617:1045  {... */\n      pop\n        /* \"contracts/MyWork.sol\":590:1045  function withdraw() public {... */\n      jump\t// out\n        /* \"contracts/MyWork.sol\":240:260  address public owner */\n    tag_19:\n      0x02\n      0x00\n      swap1\n      sload\n      swap1\n      0x0100\n      exp\n      swap1\n      div\n      0xffffffffffffffffffffffffffffffffffffffff\n      and\n      dup2\n      jump\t// out\n        /* \"contracts/MyWork.sol\":164:201  uint256 public  schoolFee = 20 * 1e18 */\n    tag_23:\n      sload(0x00)\n      dup2\n      jump\t// out\n        /* \"contracts/MyWork.sol\":375:582  function paySchoolFee() public payable {... */\n    tag_27:\n        /* \"contracts/MyWork.sol\":466:475  schoolFee */\n      sload(0x00)\n        /* \"contracts/MyWork.sol\":433:462  msg.value.getConversionRate() */\n      tag_60\n        /* \"contracts/MyWork.sol\":433:442  msg.value */\n      callvalue\n        /* \"contracts/MyWork.sol\":433:460  msg.value.getConversionRate */\n      tag_61\n        /* \"contracts/MyWork.sol\":433:462  msg.value.getConversionRate() */\n      jump\t// in\n    tag_60:\n        /* \"contracts/MyWork.sol\":433:475  msg.value.getConversionRate() >= schoolFee */\n      lt\n      iszero\n        /* \"contracts/MyWork.sol\":425:490  require(msg.value.getConversionRate() >= schoolFee, \"not enough\") */\n      tag_62\n      jumpi\n      mload(0x40)\n      0x08c379a000000000000000000000000000000000000000000000000000000000\n      dup2\n      mstore\n      0x04\n      add\n      tag_63\n      swap1\n      tag_64\n      jump\t// in\n    tag_63:\n      mload(0x40)\n      dup1\n      swap2\n      sub\n      swap1\n      revert\n    tag_62:\n        /* \"contracts/MyWork.sol\":501:507  payers */\n      0x01\n        /* \"contracts/MyWork.sol\":513:523  msg.sender */\n      caller\n        /* \"contracts/MyWork.sol\":501:524  payers.push(msg.sender) */\n      swap1\n      dup1\n      0x01\n      dup2\n      sload\n      add\n      dup1\n      dup3\n      sstore\n      dup1\n      swap2\n      pop\n      pop\n      0x01\n      swap1\n      sub\n      swap1\n      0x00\n      mstore\n      keccak256(0x00, 0x20)\n      add\n      0x00\n      swap1\n      swap2\n      swap1\n      swap2\n      swap1\n      swap2\n      0x0100\n      exp\n      dup2\n      sload\n      dup2\n      0xffffffffffffffffffffffffffffffffffffffff\n      mul\n      not\n      and\n      swap1\n      dup4\n      0xffffffffffffffffffffffffffffffffffffffff\n      and\n      mul\n      or\n      swap1\n      sstore\n      pop\n        /* \"contracts/MyWork.sol\":565:574  msg.value */\n      callvalue\n        /* \"contracts/MyWork.sol\":535:550  studentFeesPaid */\n      0x03\n        /* \"contracts/MyWork.sol\":535:562  studentFeesPaid[msg.sender] */\n      0x00\n        /* \"contracts/MyWork.sol\":551:561  msg.sender */\n      caller\n        /* \"contracts/MyWork.sol\":535:562  studentFeesPaid[msg.sender] */\n      0xffffffffffffffffffffffffffffffffffffffff\n      and\n      0xffffffffffffffffffffffffffffffffffffffff\n      and\n      dup2\n      mstore\n      0x20\n      add\n      swap1\n      dup2\n      mstore\n      0x20\n      add\n      0x00\n      keccak256\n        /* \"contracts/MyWork.sol\":535:574  studentFeesPaid[msg.sender] = msg.value */\n      dup2\n      swap1\n      sstore\n      pop\n        /* \"contracts/MyWork.sol\":375:582  function paySchoolFee() public payable {... */\n      jump\t// out\n        /* \"contracts/PriceConverter.sol\":777:992  function getConversionRate(uint256 ethAmount) internal view returns(uint256) {... */\n    tag_61:\n        /* \"contracts/PriceConverter.sol\":845:852  uint256 */\n      0x00\n        /* \"contracts/PriceConverter.sol\":863:879  uint256 ethPrice */\n      dup1\n        /* \"contracts/PriceConverter.sol\":882:892  getPrice() */\n      tag_67\n        /* \"contracts/PriceConverter.sol\":882:890  getPrice */\n      tag_68\n        /* \"contracts/PriceConverter.sol\":882:892  getPrice() */\n      jump\t// in\n    tag_67:\n        /* \"contracts/PriceConverter.sol\":863:892  uint256 ethPrice = getPrice() */\n      swap1\n      pop\n        /* \"contracts/PriceConverter.sol\":901:923  uint256 ethAmountInUsd */\n      0x00\n        /* \"contracts/PriceConverter.sol\":951:955  1e18 */\n      0x0de0b6b3a7640000\n        /* \"contracts/PriceConverter.sol\":938:947  ethAmount */\n      dup5\n        /* \"contracts/PriceConverter.sol\":927:935  ethPrice */\n      dup4\n        /* \"contracts/PriceConverter.sol\":927:947  ethPrice * ethAmount */\n      tag_69\n      swap2\n      swap1\n      tag_70\n      jump\t// in\n    tag_69:\n        /* \"contracts/PriceConverter.sol\":926:955  (ethPrice * ethAmount) / 1e18 */\n      tag_71\n      swap2\n      swap1\n      tag_72\n      jump\t// in\n    tag_71:\n        /* \"contracts/PriceConverter.sol\":901:955  uint256 ethAmountInUsd = (ethPrice * ethAmount) / 1e18 */\n      swap1\n      pop\n        /* \"contracts/PriceConverter.sol\":971:985  ethAmountInUsd */\n      dup1\n        /* \"contracts/PriceConverter.sol\":964:985  return ethAmountInUsd */\n      swap3\n      pop\n      pop\n      pop\n        /* \"contracts/PriceConverter.sol\":777:992  function getConversionRate(uint256 ethAmount) internal view returns(uint256) {... */\n      swap2\n      swap1\n      pop\n      jump\t// out\n        /* \"contracts/PriceConverter.sol\":208:553  function getPrice() internal  view returns (uint256){... */\n    tag_68:\n        /* \"contracts/PriceConverter.sol\":252:259  uint256 */\n      0x00\n        /* \"contracts/PriceConverter.sol\":347:378  AggregatorV3Interface priceFeed */\n      dup1\n        /* \"contracts/PriceConverter.sol\":403:445  0x694AA1769357215DE4FAC081bf1f309aDC325306 */\n      0x694aa1769357215de4fac081bf1f309adc325306\n        /* \"contracts/PriceConverter.sol\":347:446  AggregatorV3Interface priceFeed = AggregatorV3Interface(0x694AA1769357215DE4FAC081bf1f309aDC325306) */\n      swap1\n      pop\n        /* \"contracts/PriceConverter.sol\":457:470  int256 answer */\n      0x00\n        /* \"contracts/PriceConverter.sol\":477:486  priceFeed */\n      dup2\n        /* \"contracts/PriceConverter.sol\":477:502  priceFeed.latestRoundData */\n      0xffffffffffffffffffffffffffffffffffffffff\n      and\n      0xfeaf968c\n        /* \"contracts/PriceConverter.sol\":477:504  priceFeed.latestRoundData() */\n      mload(0x40)\n      dup2\n      0xffffffff\n      and\n      0xe0\n      shl\n      dup2\n      mstore\n      0x04\n      add\n      0xa0\n      mload(0x40)\n      dup1\n      dup4\n      sub\n      dup2\n      dup7\n      gas\n      staticcall\n      iszero\n      dup1\n      iszero\n      tag_75\n      jumpi\n      returndatasize\n      0x00\n      dup1\n      returndatacopy\n      revert(0x00, returndatasize)\n    tag_75:\n      pop\n      pop\n      pop\n      pop\n      mload(0x40)\n      returndatasize\n      not(0x1f)\n      0x1f\n      dup3\n      add\n      and\n      dup3\n      add\n      dup1\n      0x40\n      mstore\n      pop\n      dup2\n      add\n      swap1\n      tag_76\n      swap2\n      swap1\n      tag_77\n      jump\t// in\n    tag_76:\n        /* \"contracts/PriceConverter.sol\":455:504  (,int256 answer,,,) = priceFeed.latestRoundData() */\n      pop\n      pop\n      pop\n      swap2\n      pop\n      pop\n        /* \"contracts/PriceConverter.sol\":539:543  1e10 */\n      0x02540be400\n        /* \"contracts/PriceConverter.sol\":530:536  answer */\n      dup2\n        /* \"contracts/PriceConverter.sol\":530:543  answer * 1e10 */\n      tag_78\n      swap2\n      swap1\n      tag_79\n      jump\t// in\n    tag_78:\n        /* \"contracts/PriceConverter.sol\":515:544  return uint256(answer * 1e10) */\n      swap3\n      pop\n      pop\n      pop\n        /* \"contracts/PriceConverter.sol\":208:553  function getPrice() internal  view returns (uint256){... */\n      swap1\n      jump\t// out\n    tag_39:\n      dup3\n      dup1\n      sload\n      dup3\n      dup3\n      sstore\n      swap1\n      0x00\n      mstore\n      keccak256(0x00, 0x20)\n      swap1\n      dup2\n      add\n      swap3\n      dup3\n      iszero\n      tag_80\n      jumpi\n      swap2\n      0x20\n      mul\n      dup3\n      add\n    tag_81:\n      dup3\n      dup2\n      gt\n      iszero\n      tag_82\n      jumpi\n      dup3\n      mload\n      dup3\n      exp(0x0100, 0x00)\n      dup2\n      sload\n      dup2\n      0xffffffffffffffffffffffffffffffffffffffff\n      mul\n      not\n      and\n      swap1\n      dup4\n      0xffffffffffffffffffffffffffffffffffffffff\n      and\n      mul\n      or\n      swap1\n      sstore\n      pop\n      swap2\n      0x20\n      add\n      swap2\n      swap1\n      0x01\n      add\n      swap1\n      jump(tag_81)\n    tag_82:\n    tag_80:\n      pop\n      swap1\n      pop\n      tag_83\n      swap2\n      swap1\n      tag_84\n      jump\t// in\n    tag_83:\n      pop\n      swap1\n      jump\t// out\n    tag_84:\n    tag_85:\n      dup1\n      dup3\n      gt\n      iszero\n      tag_86\n      jumpi\n      0x00\n      dup2\n      0x00\n      swap1\n      sstore\n      pop\n      0x01\n      add\n      jump(tag_85)\n    tag_86:\n      pop\n      swap1\n      jump\t// out\n        /* \"#utility.yul\":88:205   */\n    tag_88:\n        /* \"#utility.yul\":197:198   */\n      0x00\n        /* \"#utility.yul\":194:195   */\n      dup1\n        /* \"#utility.yul\":187:199   */\n      revert\n        /* \"#utility.yul\":334:411   */\n    tag_90:\n        /* \"#utility.yul\":371:378   */\n      0x00\n        /* \"#utility.yul\":400:405   */\n      dup2\n        /* \"#utility.yul\":389:405   */\n      swap1\n      pop\n        /* \"#utility.yul\":334:411   */\n      swap2\n      swap1\n      pop\n      jump\t// out\n        /* \"#utility.yul\":417:539   */\n    tag_91:\n        /* \"#utility.yul\":490:514   */\n      tag_122\n        /* \"#utility.yul\":508:513   */\n      dup2\n        /* \"#utility.yul\":490:514   */\n      tag_90\n      jump\t// in\n    tag_122:\n        /* \"#utility.yul\":483:488   */\n      dup2\n        /* \"#utility.yul\":480:515   */\n      eq\n        /* \"#utility.yul\":470:533   */\n      tag_123\n      jumpi\n        /* \"#utility.yul\":529:530   */\n      0x00\n        /* \"#utility.yul\":526:527   */\n      dup1\n        /* \"#utility.yul\":519:531   */\n      revert\n        /* \"#utility.yul\":470:533   */\n    tag_123:\n        /* \"#utility.yul\":417:539   */\n      pop\n      jump\t// out\n        /* \"#utility.yul\":545:684   */\n    tag_92:\n        /* \"#utility.yul\":591:596   */\n      0x00\n        /* \"#utility.yul\":629:635   */\n      dup2\n        /* \"#utility.yul\":616:636   */\n      calldataload\n        /* \"#utility.yul\":607:636   */\n      swap1\n      pop\n        /* \"#utility.yul\":645:678   */\n      tag_125\n        /* \"#utility.yul\":672:677   */\n      dup2\n        /* \"#utility.yul\":645:678   */\n      tag_91\n      jump\t// in\n    tag_125:\n        /* \"#utility.yul\":545:684   */\n      swap3\n      swap2\n      pop\n      pop\n      jump\t// out\n        /* \"#utility.yul\":690:1019   */\n    tag_10:\n        /* \"#utility.yul\":749:755   */\n      0x00\n        /* \"#utility.yul\":798:800   */\n      0x20\n        /* \"#utility.yul\":786:795   */\n      dup3\n        /* \"#utility.yul\":777:784   */\n      dup5\n        /* \"#utility.yul\":773:796   */\n      sub\n        /* \"#utility.yul\":769:801   */\n      slt\n        /* \"#utility.yul\":766:885   */\n      iszero\n      tag_127\n      jumpi\n        /* \"#utility.yul\":804:883   */\n      tag_128\n      tag_88\n      jump\t// in\n    tag_128:\n        /* \"#utility.yul\":766:885   */\n    tag_127:\n        /* \"#utility.yul\":924:925   */\n      0x00\n        /* \"#utility.yul\":949:1002   */\n      tag_129\n        /* \"#utility.yul\":994:1001   */\n      dup5\n        /* \"#utility.yul\":985:991   */\n      dup3\n        /* \"#utility.yul\":974:983   */\n      dup6\n        /* \"#utility.yul\":970:992   */\n      add\n        /* \"#utility.yul\":949:1002   */\n      tag_92\n      jump\t// in\n    tag_129:\n        /* \"#utility.yul\":939:1002   */\n      swap2\n      pop\n        /* \"#utility.yul\":895:1012   */\n      pop\n        /* \"#utility.yul\":690:1019   */\n      swap3\n      swap2\n      pop\n      pop\n      jump\t// out\n        /* \"#utility.yul\":1025:1151   */\n    tag_93:\n        /* \"#utility.yul\":1062:1069   */\n      0x00\n        /* \"#utility.yul\":1102:1144   */\n      0xffffffffffffffffffffffffffffffffffffffff\n        /* \"#utility.yul\":1095:1100   */\n      dup3\n        /* \"#utility.yul\":1091:1145   */\n      and\n        /* \"#utility.yul\":1080:1145   */\n      swap1\n      pop\n        /* \"#utility.yul\":1025:1151   */\n      swap2\n      swap1\n      pop\n      jump\t// out\n        /* \"#utility.yul\":1157:1253   */\n    tag_94:\n        /* \"#utility.yul\":1194:1201   */\n      0x00\n        /* \"#utility.yul\":1223:1247   */\n      tag_132\n        /* \"#utility.yul\":1241:1246   */\n      dup3\n        /* \"#utility.yul\":1223:1247   */\n      tag_93\n      jump\t// in\n    tag_132:\n        /* \"#utility.yul\":1212:1247   */\n      swap1\n      pop\n        /* \"#utility.yul\":1157:1253   */\n      swap2\n      swap1\n      pop\n      jump\t// out\n        /* \"#utility.yul\":1259:1377   */\n    tag_95:\n        /* \"#utility.yul\":1346:1370   */\n      tag_134\n        /* \"#utility.yul\":1364:1369   */\n      dup2\n        /* \"#utility.yul\":1346:1370   */\n      tag_94\n      jump\t// in\n    tag_134:\n        /* \"#utility.yul\":1341:1344   */\n      dup3\n        /* \"#utility.yul\":1334:1371   */\n      mstore\n        /* \"#utility.yul\":1259:1377   */\n      pop\n      pop\n      jump\t// out\n        /* \"#utility.yul\":1383:1605   */\n    tag_13:\n        /* \"#utility.yul\":1476:1480   */\n      0x00\n        /* \"#utility.yul\":1514:1516   */\n      0x20\n        /* \"#utility.yul\":1503:1512   */\n      dup3\n        /* \"#utility.yul\":1499:1517   */\n      add\n        /* \"#utility.yul\":1491:1517   */\n      swap1\n      pop\n        /* \"#utility.yul\":1527:1598   */\n      tag_136\n        /* \"#utility.yul\":1595:1596   */\n      0x00\n        /* \"#utility.yul\":1584:1593   */\n      dup4\n        /* \"#utility.yul\":1580:1597   */\n      add\n        /* \"#utility.yul\":1571:1577   */\n      dup5\n        /* \"#utility.yul\":1527:1598   */\n      tag_95\n      jump\t// in\n    tag_136:\n        /* \"#utility.yul\":1383:1605   */\n      swap3\n      swap2\n      pop\n      pop\n      jump\t// out\n        /* \"#utility.yul\":1611:1729   */\n    tag_96:\n        /* \"#utility.yul\":1698:1722   */\n      tag_138\n        /* \"#utility.yul\":1716:1721   */\n      dup2\n        /* \"#utility.yul\":1698:1722   */\n      tag_90\n      jump\t// in\n    tag_138:\n        /* \"#utility.yul\":1693:1696   */\n      dup3\n        /* \"#utility.yul\":1686:1723   */\n      mstore\n        /* \"#utility.yul\":1611:1729   */\n      pop\n      pop\n      jump\t// out\n        /* \"#utility.yul\":1735:1957   */\n    tag_25:\n        /* \"#utility.yul\":1828:1832   */\n      0x00\n        /* \"#utility.yul\":1866:1868   */\n      0x20\n        /* \"#utility.yul\":1855:1864   */\n      dup3\n        /* \"#utility.yul\":1851:1869   */\n      add\n        /* \"#utility.yul\":1843:1869   */\n      swap1\n      pop\n        /* \"#utility.yul\":1879:1950   */\n      tag_140\n        /* \"#utility.yul\":1947:1948   */\n      0x00\n        /* \"#utility.yul\":1936:1945   */\n      dup4\n        /* \"#utility.yul\":1932:1949   */\n      add\n        /* \"#utility.yul\":1923:1929   */\n      dup5\n        /* \"#utility.yul\":1879:1950   */\n      tag_96\n      jump\t// in\n    tag_140:\n        /* \"#utility.yul\":1735:1957   */\n      swap3\n      swap2\n      pop\n      pop\n      jump\t// out\n        /* \"#utility.yul\":1963:2132   */\n    tag_97:\n        /* \"#utility.yul\":2047:2058   */\n      0x00\n        /* \"#utility.yul\":2081:2087   */\n      dup3\n        /* \"#utility.yul\":2076:2079   */\n      dup3\n        /* \"#utility.yul\":2069:2088   */\n      mstore\n        /* \"#utility.yul\":2121:2125   */\n      0x20\n        /* \"#utility.yul\":2116:2119   */\n      dup3\n        /* \"#utility.yul\":2112:2126   */\n      add\n        /* \"#utility.yul\":2097:2126   */\n      swap1\n      pop\n        /* \"#utility.yul\":1963:2132   */\n      swap3\n      swap2\n      pop\n      pop\n      jump\t// out\n        /* \"#utility.yul\":2138:2309   */\n    tag_98:\n        /* \"#utility.yul\":2278:2301   */\n      0x796f7520617265206e6f7420746865206f776e65720000000000000000000000\n        /* \"#utility.yul\":2274:2275   */\n      0x00\n        /* \"#utility.yul\":2266:2272   */\n      dup3\n        /* \"#utility.yul\":2262:2276   */\n      add\n        /* \"#utility.yul\":2255:2302   */\n      mstore\n        /* \"#utility.yul\":2138:2309   */\n      pop\n      jump\t// out\n        /* \"#utility.yul\":2315:2681   */\n    tag_99:\n        /* \"#utility.yul\":2457:2460   */\n      0x00\n        /* \"#utility.yul\":2478:2545   */\n      tag_144\n        /* \"#utility.yul\":2542:2544   */\n      0x15\n        /* \"#utility.yul\":2537:2540   */\n      dup4\n        /* \"#utility.yul\":2478:2545   */\n      tag_97\n      jump\t// in\n    tag_144:\n        /* \"#utility.yul\":2471:2545   */\n      swap2\n      pop\n        /* \"#utility.yul\":2554:2647   */\n      tag_145\n        /* \"#utility.yul\":2643:2646   */\n      dup3\n        /* \"#utility.yul\":2554:2647   */\n      tag_98\n      jump\t// in\n    tag_145:\n        /* \"#utility.yul\":2672:2674   */\n      0x20\n        /* \"#utility.yul\":2667:2670   */\n      dup3\n        /* \"#utility.yul\":2663:2675   */\n      add\n        /* \"#utility.yul\":2656:2675   */\n      swap1\n      pop\n        /* \"#utility.yul\":2315:2681   */\n      swap2\n      swap1\n      pop\n      jump\t// out\n        /* \"#utility.yul\":2687:3106   */\n    tag_33:\n        /* \"#utility.yul\":2853:2857   */\n      0x00\n        /* \"#utility.yul\":2891:2893   */\n      0x20\n        /* \"#utility.yul\":2880:2889   */\n      dup3\n        /* \"#utility.yul\":2876:2894   */\n      add\n        /* \"#utility.yul\":2868:2894   */\n      swap1\n      pop\n        /* \"#utility.yul\":2940:2949   */\n      dup2\n        /* \"#utility.yul\":2934:2938   */\n      dup2\n        /* \"#utility.yul\":2930:2950   */\n      sub\n        /* \"#utility.yul\":2926:2927   */\n      0x00\n        /* \"#utility.yul\":2915:2924   */\n      dup4\n        /* \"#utility.yul\":2911:2928   */\n      add\n        /* \"#utility.yul\":2904:2951   */\n      mstore\n        /* \"#utility.yul\":2968:3099   */\n      tag_147\n        /* \"#utility.yul\":3094:3098   */\n      dup2\n        /* \"#utility.yul\":2968:3099   */\n      tag_99\n      jump\t// in\n    tag_147:\n        /* \"#utility.yul\":2960:3099   */\n      swap1\n      pop\n        /* \"#utility.yul\":2687:3106   */\n      swap2\n      swap1\n      pop\n      jump\t// out\n        /* \"#utility.yul\":3112:3292   */\n    tag_36:\n        /* \"#utility.yul\":3160:3237   */\n      0x4e487b7100000000000000000000000000000000000000000000000000000000\n        /* \"#utility.yul\":3157:3158   */\n      0x00\n        /* \"#utility.yul\":3150:3238   */\n      mstore\n        /* \"#utility.yul\":3257:3261   */\n      0x41\n        /* \"#utility.yul\":3254:3255   */\n      0x04\n        /* \"#utility.yul\":3247:3262   */\n      mstore\n        /* \"#utility.yul\":3281:3285   */\n      0x24\n        /* \"#utility.yul\":3278:3279   */\n      0x00\n        /* \"#utility.yul\":3271:3286   */\n      revert\n        /* \"#utility.yul\":3298:3478   */\n    tag_45:\n        /* \"#utility.yul\":3346:3423   */\n      0x4e487b7100000000000000000000000000000000000000000000000000000000\n        /* \"#utility.yul\":3343:3344   */\n      0x00\n        /* \"#utility.yul\":3336:3424   */\n      mstore\n        /* \"#utility.yul\":3443:3447   */\n      0x32\n        /* \"#utility.yul\":3440:3441   */\n      0x04\n        /* \"#utility.yul\":3433:3448   */\n      mstore\n        /* \"#utility.yul\":3467:3471   */\n      0x24\n        /* \"#utility.yul\":3464:3465   */\n      0x00\n        /* \"#utility.yul\":3457:3472   */\n      revert\n        /* \"#utility.yul\":3484:3631   */\n    tag_100:\n        /* \"#utility.yul\":3585:3596   */\n      0x00\n        /* \"#utility.yul\":3622:3625   */\n      dup2\n        /* \"#utility.yul\":3607:3625   */\n      swap1\n      pop\n        /* \"#utility.yul\":3484:3631   */\n      swap3\n      swap2\n      pop\n      pop\n      jump\t// out\n        /* \"#utility.yul\":3637:3751   */\n    tag_101:\n      pop\n      jump\t// out\n        /* \"#utility.yul\":3757:4155   */\n    tag_102:\n        /* \"#utility.yul\":3916:3919   */\n      0x00\n        /* \"#utility.yul\":3937:4020   */\n      tag_153\n        /* \"#utility.yul\":4018:4019   */\n      0x00\n        /* \"#utility.yul\":4013:4016   */\n      dup4\n        /* \"#utility.yul\":3937:4020   */\n      tag_100\n      jump\t// in\n    tag_153:\n        /* \"#utility.yul\":3930:4020   */\n      swap2\n      pop\n        /* \"#utility.yul\":4029:4122   */\n      tag_154\n        /* \"#utility.yul\":4118:4121   */\n      dup3\n        /* \"#utility.yul\":4029:4122   */\n      tag_101\n      jump\t// in\n    tag_154:\n        /* \"#utility.yul\":4147:4148   */\n      0x00\n        /* \"#utility.yul\":4142:4145   */\n      dup3\n        /* \"#utility.yul\":4138:4149   */\n      add\n        /* \"#utility.yul\":4131:4149   */\n      swap1\n      pop\n        /* \"#utility.yul\":3757:4155   */\n      swap2\n      swap1\n      pop\n      jump\t// out\n        /* \"#utility.yul\":4161:4540   */\n    tag_52:\n        /* \"#utility.yul\":4345:4348   */\n      0x00\n        /* \"#utility.yul\":4367:4514   */\n      tag_156\n        /* \"#utility.yul\":4510:4513   */\n      dup3\n        /* \"#utility.yul\":4367:4514   */\n      tag_102\n      jump\t// in\n    tag_156:\n        /* \"#utility.yul\":4360:4514   */\n      swap2\n      pop\n        /* \"#utility.yul\":4531:4534   */\n      dup2\n        /* \"#utility.yul\":4524:4534   */\n      swap1\n      pop\n        /* \"#utility.yul\":4161:4540   */\n      swap2\n      swap1\n      pop\n      jump\t// out\n        /* \"#utility.yul\":4546:4707   */\n    tag_103:\n        /* \"#utility.yul\":4686:4699   */\n      0x63616c6c206661696c6564000000000000000000000000000000000000000000\n        /* \"#utility.yul\":4682:4683   */\n      0x00\n        /* \"#utility.yul\":4674:4680   */\n      dup3\n        /* \"#utility.yul\":4670:4684   */\n      add\n        /* \"#utility.yul\":4663:4700   */\n      mstore\n        /* \"#utility.yul\":4546:4707   */\n      pop\n      jump\t// out\n        /* \"#utility.yul\":4713:5079   */\n    tag_104:\n        /* \"#utility.yul\":4855:4858   */\n      0x00\n        /* \"#utility.yul\":4876:4943   */\n      tag_159\n        /* \"#utility.yul\":4940:4942   */\n      0x0b\n        /* \"#utility.yul\":4935:4938   */\n      dup4\n        /* \"#utility.yul\":4876:4943   */\n      tag_97\n      jump\t// in\n    tag_159:\n        /* \"#utility.yul\":4869:4943   */\n      swap2\n      pop\n        /* \"#utility.yul\":4952:5045   */\n      tag_160\n        /* \"#utility.yul\":5041:5044   */\n      dup3\n        /* \"#utility.yul\":4952:5045   */\n      tag_103\n      jump\t// in\n    tag_160:\n        /* \"#utility.yul\":5070:5072   */\n      0x20\n        /* \"#utility.yul\":5065:5068   */\n      dup3\n        /* \"#utility.yul\":5061:5073   */\n      add\n        /* \"#utility.yul\":5054:5073   */\n      swap1\n      pop\n        /* \"#utility.yul\":4713:5079   */\n      swap2\n      swap1\n      pop\n      jump\t// out\n        /* \"#utility.yul\":5085:5504   */\n    tag_58:\n        /* \"#utility.yul\":5251:5255   */\n      0x00\n        /* \"#utility.yul\":5289:5291   */\n      0x20\n        /* \"#utility.yul\":5278:5287   */\n      dup3\n        /* \"#utility.yul\":5274:5292   */\n      add\n        /* \"#utility.yul\":5266:5292   */\n      swap1\n      pop\n        /* \"#utility.yul\":5338:5347   */\n      dup2\n        /* \"#utility.yul\":5332:5336   */\n      dup2\n        /* \"#utility.yul\":5328:5348   */\n      sub\n        /* \"#utility.yul\":5324:5325   */\n      0x00\n        /* \"#utility.yul\":5313:5322   */\n      dup4\n        /* \"#utility.yul\":5309:5326   */\n      add\n        /* \"#utility.yul\":5302:5349   */\n      mstore\n        /* \"#utility.yul\":5366:5497   */\n      tag_162\n        /* \"#utility.yul\":5492:5496   */\n      dup2\n        /* \"#utility.yul\":5366:5497   */\n      tag_104\n      jump\t// in\n    tag_162:\n        /* \"#utility.yul\":5358:5497   */\n      swap1\n      pop\n        /* \"#utility.yul\":5085:5504   */\n      swap2\n      swap1\n      pop\n      jump\t// out\n        /* \"#utility.yul\":5510:5670   */\n    tag_105:\n        /* \"#utility.yul\":5650:5662   */\n      0x6e6f7420656e6f75676800000000000000000000000000000000000000000000\n        /* \"#utility.yul\":5646:5647   */\n      0x00\n        /* \"#utility.yul\":5638:5644   */\n      dup3\n        /* \"#utility.yul\":5634:5648   */\n      add\n        /* \"#utility.yul\":5627:5663   */\n      mstore\n        /* \"#utility.yul\":5510:5670   */\n      pop\n      jump\t// out\n        /* \"#utility.yul\":5676:6042   */\n    tag_106:\n        /* \"#utility.yul\":5818:5821   */\n      0x00\n        /* \"#utility.yul\":5839:5906   */\n      tag_165\n        /* \"#utility.yul\":5903:5905   */\n      0x0a\n        /* \"#utility.yul\":5898:5901   */\n      dup4\n        /* \"#utility.yul\":5839:5906   */\n      tag_97\n      jump\t// in\n    tag_165:\n        /* \"#utility.yul\":5832:5906   */\n      swap2\n      pop\n        /* \"#utility.yul\":5915:6008   */\n      tag_166\n        /* \"#utility.yul\":6004:6007   */\n      dup3\n        /* \"#utility.yul\":5915:6008   */\n      tag_105\n      jump\t// in\n    tag_166:\n        /* \"#utility.yul\":6033:6035   */\n      0x20\n        /* \"#utility.yul\":6028:6031   */\n      dup3\n        /* \"#utility.yul\":6024:6036   */\n      add\n        /* \"#utility.yul\":6017:6036   */\n      swap1\n      pop\n        /* \"#utility.yul\":5676:6042   */\n      swap2\n      swap1\n      pop\n      jump\t// out\n        /* \"#utility.yul\":6048:6467   */\n    tag_64:\n        /* \"#utility.yul\":6214:6218   */\n      0x00\n        /* \"#utility.yul\":6252:6254   */\n      0x20\n        /* \"#utility.yul\":6241:6250   */\n      dup3\n        /* \"#utility.yul\":6237:6255   */\n      add\n        /* \"#utility.yul\":6229:6255   */\n      swap1\n      pop\n        /* \"#utility.yul\":6301:6310   */\n      dup2\n        /* \"#utility.yul\":6295:6299   */\n      dup2\n        /* \"#utility.yul\":6291:6311   */\n      sub\n        /* \"#utility.yul\":6287:6288   */\n      0x00\n        /* \"#utility.yul\":6276:6285   */\n      dup4\n        /* \"#utility.yul\":6272:6289   */\n      add\n        /* \"#utility.yul\":6265:6312   */\n      mstore\n        /* \"#utility.yul\":6329:6460   */\n      tag_168\n        /* \"#utility.yul\":6455:6459   */\n      dup2\n        /* \"#utility.yul\":6329:6460   */\n      tag_106\n      jump\t// in\n    tag_168:\n        /* \"#utility.yul\":6321:6460   */\n      swap1\n      pop\n        /* \"#utility.yul\":6048:6467   */\n      swap2\n      swap1\n      pop\n      jump\t// out\n        /* \"#utility.yul\":6473:6653   */\n    tag_107:\n        /* \"#utility.yul\":6521:6598   */\n      0x4e487b7100000000000000000000000000000000000000000000000000000000\n        /* \"#utility.yul\":6518:6519   */\n      0x00\n        /* \"#utility.yul\":6511:6599   */\n      mstore\n        /* \"#utility.yul\":6618:6622   */\n      0x11\n        /* \"#utility.yul\":6615:6616   */\n      0x04\n        /* \"#utility.yul\":6608:6623   */\n      mstore\n        /* \"#utility.yul\":6642:6646   */\n      0x24\n        /* \"#utility.yul\":6639:6640   */\n      0x00\n        /* \"#utility.yul\":6632:6647   */\n      revert\n        /* \"#utility.yul\":6659:7069   */\n    tag_70:\n        /* \"#utility.yul\":6699:6706   */\n      0x00\n        /* \"#utility.yul\":6722:6742   */\n      tag_171\n        /* \"#utility.yul\":6740:6741   */\n      dup3\n        /* \"#utility.yul\":6722:6742   */\n      tag_90\n      jump\t// in\n    tag_171:\n        /* \"#utility.yul\":6717:6742   */\n      swap2\n      pop\n        /* \"#utility.yul\":6756:6776   */\n      tag_172\n        /* \"#utility.yul\":6774:6775   */\n      dup4\n        /* \"#utility.yul\":6756:6776   */\n      tag_90\n      jump\t// in\n    tag_172:\n        /* \"#utility.yul\":6751:6776   */\n      swap3\n      pop\n        /* \"#utility.yul\":6811:6812   */\n      dup3\n        /* \"#utility.yul\":6808:6809   */\n      dup3\n        /* \"#utility.yul\":6804:6813   */\n      mul\n        /* \"#utility.yul\":6833:6863   */\n      tag_173\n        /* \"#utility.yul\":6851:6862   */\n      dup2\n        /* \"#utility.yul\":6833:6863   */\n      tag_90\n      jump\t// in\n    tag_173:\n        /* \"#utility.yul\":6822:6863   */\n      swap2\n      pop\n        /* \"#utility.yul\":7012:7013   */\n      dup3\n        /* \"#utility.yul\":7003:7010   */\n      dup3\n        /* \"#utility.yul\":6999:7014   */\n      div\n        /* \"#utility.yul\":6996:6997   */\n      dup5\n        /* \"#utility.yul\":6993:7015   */\n      eq\n        /* \"#utility.yul\":6973:6974   */\n      dup4\n        /* \"#utility.yul\":6966:6975   */\n      iszero\n        /* \"#utility.yul\":6946:7029   */\n      or\n        /* \"#utility.yul\":6923:7062   */\n      tag_174\n      jumpi\n        /* \"#utility.yul\":7042:7060   */\n      tag_175\n      tag_107\n      jump\t// in\n    tag_175:\n        /* \"#utility.yul\":6923:7062   */\n    tag_174:\n        /* \"#utility.yul\":6707:7069   */\n      pop\n        /* \"#utility.yul\":6659:7069   */\n      swap3\n      swap2\n      pop\n      pop\n      jump\t// out\n        /* \"#utility.yul\":7075:7255   */\n    tag_108:\n        /* \"#utility.yul\":7123:7200   */\n      0x4e487b7100000000000000000000000000000000000000000000000000000000\n        /* \"#utility.yul\":7120:7121   */\n      0x00\n        /* \"#utility.yul\":7113:7201   */\n      mstore\n        /* \"#utility.yul\":7220:7224   */\n      0x12\n        /* \"#utility.yul\":7217:7218   */\n      0x04\n        /* \"#utility.yul\":7210:7225   */\n      mstore\n        /* \"#utility.yul\":7244:7248   */\n      0x24\n        /* \"#utility.yul\":7241:7242   */\n      0x00\n        /* \"#utility.yul\":7234:7249   */\n      revert\n        /* \"#utility.yul\":7261:7446   */\n    tag_72:\n        /* \"#utility.yul\":7301:7302   */\n      0x00\n        /* \"#utility.yul\":7318:7338   */\n      tag_178\n        /* \"#utility.yul\":7336:7337   */\n      dup3\n        /* \"#utility.yul\":7318:7338   */\n      tag_90\n      jump\t// in\n    tag_178:\n        /* \"#utility.yul\":7313:7338   */\n      swap2\n      pop\n        /* \"#utility.yul\":7352:7372   */\n      tag_179\n        /* \"#utility.yul\":7370:7371   */\n      dup4\n        /* \"#utility.yul\":7352:7372   */\n      tag_90\n      jump\t// in\n    tag_179:\n        /* \"#utility.yul\":7347:7372   */\n      swap3\n      pop\n        /* \"#utility.yul\":7391:7392   */\n      dup3\n        /* \"#utility.yul\":7381:7416   */\n      tag_180\n      jumpi\n        /* \"#utility.yul\":7396:7414   */\n      tag_181\n      tag_108\n      jump\t// in\n    tag_181:\n        /* \"#utility.yul\":7381:7416   */\n    tag_180:\n        /* \"#utility.yul\":7438:7439   */\n      dup3\n        /* \"#utility.yul\":7435:7436   */\n      dup3\n        /* \"#utility.yul\":7431:7440   */\n      div\n        /* \"#utility.yul\":7426:7440   */\n      swap1\n      pop\n        /* \"#utility.yul\":7261:7446   */\n      swap3\n      swap2\n      pop\n      pop\n      jump\t// out\n        /* \"#utility.yul\":7452:7557   */\n    tag_109:\n        /* \"#utility.yul\":7488:7495   */\n      0x00\n        /* \"#utility.yul\":7528:7550   */\n      0xffffffffffffffffffff\n        /* \"#utility.yul\":7521:7526   */\n      dup3\n        /* \"#utility.yul\":7517:7551   */\n      and\n        /* \"#utility.yul\":7506:7551   */\n      swap1\n      pop\n        /* \"#utility.yul\":7452:7557   */\n      swap2\n      swap1\n      pop\n      jump\t// out\n        /* \"#utility.yul\":7563:7683   */\n    tag_110:\n        /* \"#utility.yul\":7635:7658   */\n      tag_184\n        /* \"#utility.yul\":7652:7657   */\n      dup2\n        /* \"#utility.yul\":7635:7658   */\n      tag_109\n      jump\t// in\n    tag_184:\n        /* \"#utility.yul\":7628:7633   */\n      dup2\n        /* \"#utility.yul\":7625:7659   */\n      eq\n        /* \"#utility.yul\":7615:7677   */\n      tag_185\n      jumpi\n        /* \"#utility.yul\":7673:7674   */\n      0x00\n        /* \"#utility.yul\":7670:7671   */\n      dup1\n        /* \"#utility.yul\":7663:7675   */\n      revert\n        /* \"#utility.yul\":7615:7677   */\n    tag_185:\n        /* \"#utility.yul\":7563:7683   */\n      pop\n      jump\t// out\n        /* \"#utility.yul\":7689:7830   */\n    tag_111:\n        /* \"#utility.yul\":7745:7750   */\n      0x00\n        /* \"#utility.yul\":7776:7782   */\n      dup2\n        /* \"#utility.yul\":7770:7783   */\n      mload\n        /* \"#utility.yul\":7761:7783   */\n      swap1\n      pop\n        /* \"#utility.yul\":7792:7824   */\n      tag_187\n        /* \"#utility.yul\":7818:7823   */\n      dup2\n        /* \"#utility.yul\":7792:7824   */\n      tag_110\n      jump\t// in\n    tag_187:\n        /* \"#utility.yul\":7689:7830   */\n      swap3\n      swap2\n      pop\n      pop\n      jump\t// out\n        /* \"#utility.yul\":7836:7912   */\n    tag_112:\n        /* \"#utility.yul\":7872:7879   */\n      0x00\n        /* \"#utility.yul\":7901:7906   */\n      dup2\n        /* \"#utility.yul\":7890:7906   */\n      swap1\n      pop\n        /* \"#utility.yul\":7836:7912   */\n      swap2\n      swap1\n      pop\n      jump\t// out\n        /* \"#utility.yul\":7918:8038   */\n    tag_113:\n        /* \"#utility.yul\":7990:8013   */\n      tag_190\n        /* \"#utility.yul\":8007:8012   */\n      dup2\n        /* \"#utility.yul\":7990:8013   */\n      tag_112\n      jump\t// in\n    tag_190:\n        /* \"#utility.yul\":7983:7988   */\n      dup2\n        /* \"#utility.yul\":7980:8014   */\n      eq\n        /* \"#utility.yul\":7970:8032   */\n      tag_191\n      jumpi\n        /* \"#utility.yul\":8028:8029   */\n      0x00\n        /* \"#utility.yul\":8025:8026   */\n      dup1\n        /* \"#utility.yul\":8018:8030   */\n      revert\n        /* \"#utility.yul\":7970:8032   */\n    tag_191:\n        /* \"#utility.yul\":7918:8038   */\n      pop\n      jump\t// out\n        /* \"#utility.yul\":8044:8185   */\n    tag_114:\n        /* \"#utility.yul\":8100:8105   */\n      0x00\n        /* \"#utility.yul\":8131:8137   */\n      dup2\n        /* \"#utility.yul\":8125:8138   */\n      mload\n        /* \"#utility.yul\":8116:8138   */\n      swap1\n      pop\n        /* \"#utility.yul\":8147:8179   */\n      tag_193\n        /* \"#utility.yul\":8173:8178   */\n      dup2\n        /* \"#utility.yul\":8147:8179   */\n      tag_113\n      jump\t// in\n    tag_193:\n        /* \"#utility.yul\":8044:8185   */\n      swap3\n      swap2\n      pop\n      pop\n      jump\t// out\n        /* \"#utility.yul\":8191:8334   */\n    tag_115:\n        /* \"#utility.yul\":8248:8253   */\n      0x00\n        /* \"#utility.yul\":8279:8285   */\n      dup2\n        /* \"#utility.yul\":8273:8286   */\n      mload\n        /* \"#utility.yul\":8264:8286   */\n      swap1\n      pop\n        /* \"#utility.yul\":8295:8328   */\n      tag_195\n        /* \"#utility.yul\":8322:8327   */\n      dup2\n        /* \"#utility.yul\":8295:8328   */\n      tag_91\n      jump\t// in\n    tag_195:\n        /* \"#utility.yul\":8191:8334   */\n      swap3\n      swap2\n      pop\n      pop\n      jump\t// out\n        /* \"#utility.yul\":8340:9311   */\n    tag_77:\n        /* \"#utility.yul\":8443:8449   */\n      0x00\n        /* \"#utility.yul\":8451:8457   */\n      dup1\n        /* \"#utility.yul\":8459:8465   */\n      0x00\n        /* \"#utility.yul\":8467:8473   */\n      dup1\n        /* \"#utility.yul\":8475:8481   */\n      0x00\n        /* \"#utility.yul\":8524:8527   */\n      0xa0\n        /* \"#utility.yul\":8512:8521   */\n      dup7\n        /* \"#utility.yul\":8503:8510   */\n      dup9\n        /* \"#utility.yul\":8499:8522   */\n      sub\n        /* \"#utility.yul\":8495:8528   */\n      slt\n        /* \"#utility.yul\":8492:8612   */\n      iszero\n      tag_197\n      jumpi\n        /* \"#utility.yul\":8531:8610   */\n      tag_198\n      tag_88\n      jump\t// in\n    tag_198:\n        /* \"#utility.yul\":8492:8612   */\n    tag_197:\n        /* \"#utility.yul\":8651:8652   */\n      0x00\n        /* \"#utility.yul\":8676:8739   */\n      tag_199\n        /* \"#utility.yul\":8731:8738   */\n      dup9\n        /* \"#utility.yul\":8722:8728   */\n      dup3\n        /* \"#utility.yul\":8711:8720   */\n      dup10\n        /* \"#utility.yul\":8707:8729   */\n      add\n        /* \"#utility.yul\":8676:8739   */\n      tag_111\n      jump\t// in\n    tag_199:\n        /* \"#utility.yul\":8666:8739   */\n      swap6\n      pop\n        /* \"#utility.yul\":8622:8749   */\n      pop\n        /* \"#utility.yul\":8788:8790   */\n      0x20\n        /* \"#utility.yul\":8814:8877   */\n      tag_200\n        /* \"#utility.yul\":8869:8876   */\n      dup9\n        /* \"#utility.yul\":8860:8866   */\n      dup3\n        /* \"#utility.yul\":8849:8858   */\n      dup10\n        /* \"#utility.yul\":8845:8867   */\n      add\n        /* \"#utility.yul\":8814:8877   */\n      tag_114\n      jump\t// in\n    tag_200:\n        /* \"#utility.yul\":8804:8877   */\n      swap5\n      pop\n        /* \"#utility.yul\":8759:8887   */\n      pop\n        /* \"#utility.yul\":8926:8928   */\n      0x40\n        /* \"#utility.yul\":8952:9016   */\n      tag_201\n        /* \"#utility.yul\":9008:9015   */\n      dup9\n        /* \"#utility.yul\":8999:9005   */\n      dup3\n        /* \"#utility.yul\":8988:8997   */\n      dup10\n        /* \"#utility.yul\":8984:9006   */\n      add\n        /* \"#utility.yul\":8952:9016   */\n      tag_115\n      jump\t// in\n    tag_201:\n        /* \"#utility.yul\":8942:9016   */\n      swap4\n      pop\n        /* \"#utility.yul\":8897:9026   */\n      pop\n        /* \"#utility.yul\":9065:9067   */\n      0x60\n        /* \"#utility.yul\":9091:9155   */\n      tag_202\n        /* \"#utility.yul\":9147:9154   */\n      dup9\n        /* \"#utility.yul\":9138:9144   */\n      dup3\n        /* \"#utility.yul\":9127:9136   */\n      dup10\n        /* \"#utility.yul\":9123:9145   */\n      add\n        /* \"#utility.yul\":9091:9155   */\n      tag_115\n      jump\t// in\n    tag_202:\n        /* \"#utility.yul\":9081:9155   */\n      swap3\n      pop\n        /* \"#utility.yul\":9036:9165   */\n      pop\n        /* \"#utility.yul\":9204:9207   */\n      0x80\n        /* \"#utility.yul\":9231:9294   */\n      tag_203\n        /* \"#utility.yul\":9286:9293   */\n      dup9\n        /* \"#utility.yul\":9277:9283   */\n      dup3\n        /* \"#utility.yul\":9266:9275   */\n      dup10\n        /* \"#utility.yul\":9262:9284   */\n      add\n        /* \"#utility.yul\":9231:9294   */\n      tag_111\n      jump\t// in\n    tag_203:\n        /* \"#utility.yul\":9221:9294   */\n      swap2\n      pop\n        /* \"#utility.yul\":9175:9304   */\n      pop\n        /* \"#utility.yul\":8340:9311   */\n      swap3\n      swap6\n      pop\n      swap3\n      swap6\n      swap1\n      swap4\n      pop\n      jump\t// out\n        /* \"#utility.yul\":9317:9873   */\n    tag_79:\n        /* \"#utility.yul\":9356:9363   */\n      0x00\n        /* \"#utility.yul\":9379:9398   */\n      tag_205\n        /* \"#utility.yul\":9396:9397   */\n      dup3\n        /* \"#utility.yul\":9379:9398   */\n      tag_112\n      jump\t// in\n    tag_205:\n        /* \"#utility.yul\":9374:9398   */\n      swap2\n      pop\n        /* \"#utility.yul\":9412:9431   */\n      tag_206\n        /* \"#utility.yul\":9429:9430   */\n      dup4\n        /* \"#utility.yul\":9412:9431   */\n      tag_112\n      jump\t// in\n    tag_206:\n        /* \"#utility.yul\":9407:9431   */\n      swap3\n      pop\n        /* \"#utility.yul\":9466:9467   */\n      dup3\n        /* \"#utility.yul\":9463:9464   */\n      dup3\n        /* \"#utility.yul\":9459:9468   */\n      mul\n        /* \"#utility.yul\":9488:9517   */\n      tag_207\n        /* \"#utility.yul\":9505:9516   */\n      dup2\n        /* \"#utility.yul\":9488:9517   */\n      tag_112\n      jump\t// in\n    tag_207:\n        /* \"#utility.yul\":9477:9517   */\n      swap2\n      pop\n        /* \"#utility.yul\":9575:9641   */\n      0x8000000000000000000000000000000000000000000000000000000000000000\n        /* \"#utility.yul\":9572:9573   */\n      dup5\n        /* \"#utility.yul\":9569:9642   */\n      eq\n        /* \"#utility.yul\":9565:9566   */\n      0x00\n        /* \"#utility.yul\":9562:9563   */\n      dup5\n        /* \"#utility.yul\":9558:9567   */\n      slt\n        /* \"#utility.yul\":9554:9643   */\n      and\n        /* \"#utility.yul\":9551:9666   */\n      iszero\n      tag_208\n      jumpi\n        /* \"#utility.yul\":9646:9664   */\n      tag_209\n      tag_107\n      jump\t// in\n    tag_209:\n        /* \"#utility.yul\":9551:9666   */\n    tag_208:\n        /* \"#utility.yul\":9816:9817   */\n      dup3\n        /* \"#utility.yul\":9807:9814   */\n      dup3\n        /* \"#utility.yul\":9802:9818   */\n      sdiv\n        /* \"#utility.yul\":9799:9800   */\n      dup5\n        /* \"#utility.yul\":9796:9819   */\n      eq\n        /* \"#utility.yul\":9776:9777   */\n      dup4\n        /* \"#utility.yul\":9769:9778   */\n      iszero\n        /* \"#utility.yul\":9749:9833   */\n      or\n        /* \"#utility.yul\":9726:9866   */\n      tag_210\n      jumpi\n        /* \"#utility.yul\":9846:9864   */\n      tag_211\n      tag_107\n      jump\t// in\n    tag_211:\n        /* \"#utility.yul\":9726:9866   */\n    tag_210:\n        /* \"#utility.yul\":9364:9873   */\n      pop\n        /* \"#utility.yul\":9317:9873   */\n      swap3\n      swap2\n      pop\n      pop\n      jump\t// out\n\n    auxdata: 0xa2646970667358221220428892a43a6c6b4e8a664d383691b451b92164589460fe1b652c2b77a3d4777f64736f6c634300081a0033\n}\n",
				"bytecode": {
					"linkReferences": {},
					"object": "60806040526801158e460913d000005f55348015601a575f80fd5b503360025f6101000a81548173ffffffffffffffffffffffffffffffffffffffff021916908373ffffffffffffffffffffffffffffffffffffffff160217905550610ba1806100685f395ff3fe608060405260043610610049575f3560e01c80633ccfbd031461004d5780633ccfd60b146100895780638da5cb5b1461009f578063968f1455146100c957806396d52aac146100f3575b5f80fd5b348015610058575f80fd5b50610073600480360381019061006e919061069f565b6100fd565b6040516100809190610709565b60405180910390f35b348015610094575f80fd5b5061009d610138565b005b3480156100aa575f80fd5b506100b36103cf565b6040516100c09190610709565b60405180910390f35b3480156100d4575f80fd5b506100dd6103f4565b6040516100ea9190610731565b60405180910390f35b6100fb6103f9565b005b6001818154811061010c575f80fd5b905f5260205f20015f915054906101000a900473ffffffffffffffffffffffffffffffffffffffff1681565b60025f9054906101000a900473ffffffffffffffffffffffffffffffffffffffff1673ffffffffffffffffffffffffffffffffffffffff163373ffffffffffffffffffffffffffffffffffffffff16146101c7576040517f08c379a00000000000000000000000000000000000000000000000000000000081526004016101be906107a4565b60405180910390fd5b5f67ffffffffffffffff8111156101e1576101e06107c2565b5b60405190808252806020026020018201604052801561020f5781602001602082028036833780820191505090505b50600190805190602001906102259291906105c6565b505f5b6001805490508110156102c4575f6001828154811061024a576102496107ef565b5b905f5260205f20015f9054906101000a900473ffffffffffffffffffffffffffffffffffffffff1690505f60035f8373ffffffffffffffffffffffffffffffffffffffff1673ffffffffffffffffffffffffffffffffffffffff1681526020019081526020015f2081905550508080600101915050610228565b505f67ffffffffffffffff8111156102df576102de6107c2565b5b60405190808252806020026020018201604052801561030d5781602001602082028036833780820191505090505b50600190805190602001906103239291906105c6565b505f3373ffffffffffffffffffffffffffffffffffffffff164760405161034990610849565b5f6040518083038185875af1925050503d805f8114610383576040519150601f19603f3d011682016040523d82523d5f602084013e610388565b606091505b50509050806103cc576040517f08c379a00000000000000000000000000000000000000000000000000000000081526004016103c3906108a7565b60405180910390fd5b50565b60025f9054906101000a900473ffffffffffffffffffffffffffffffffffffffff1681565b5f5481565b5f54610404346104e9565b1015610445576040517f08c379a000000000000000000000000000000000000000000000000000000000815260040161043c9061090f565b60405180910390fd5b600133908060018154018082558091505060019003905f5260205f20015f9091909190916101000a81548173ffffffffffffffffffffffffffffffffffffffff021916908373ffffffffffffffffffffffffffffffffffffffff1602179055503460035f3373ffffffffffffffffffffffffffffffffffffffff1673ffffffffffffffffffffffffffffffffffffffff1681526020019081526020015f2081905550565b5f806104f3610521565b90505f670de0b6b3a7640000848361050b919061095a565b61051591906109c8565b90508092505050919050565b5f8073694aa1769357215de4fac081bf1f309adc32530690505f8173ffffffffffffffffffffffffffffffffffffffff1663feaf968c6040518163ffffffff1660e01b815260040160a060405180830381865afa158015610584573d5f803e3d5ffd5b505050506040513d601f19601f820116820180604052508101906105a89190610a7e565b5050509150506402540be400816105bf9190610af5565b9250505090565b828054828255905f5260205f2090810192821561063c579160200282015b8281111561063b578251825f6101000a81548173ffffffffffffffffffffffffffffffffffffffff021916908373ffffffffffffffffffffffffffffffffffffffff160217905550916020019190600101906105e4565b5b509050610649919061064d565b5090565b5b80821115610664575f815f90555060010161064e565b5090565b5f80fd5b5f819050919050565b61067e8161066c565b8114610688575f80fd5b50565b5f8135905061069981610675565b92915050565b5f602082840312156106b4576106b3610668565b5b5f6106c18482850161068b565b91505092915050565b5f73ffffffffffffffffffffffffffffffffffffffff82169050919050565b5f6106f3826106ca565b9050919050565b610703816106e9565b82525050565b5f60208201905061071c5f8301846106fa565b92915050565b61072b8161066c565b82525050565b5f6020820190506107445f830184610722565b92915050565b5f82825260208201905092915050565b7f796f7520617265206e6f7420746865206f776e657200000000000000000000005f82015250565b5f61078e60158361074a565b91506107998261075a565b602082019050919050565b5f6020820190508181035f8301526107bb81610782565b9050919050565b7f4e487b71000000000000000000000000000000000000000000000000000000005f52604160045260245ffd5b7f4e487b71000000000000000000000000000000000000000000000000000000005f52603260045260245ffd5b5f81905092915050565b50565b5f6108345f8361081c565b915061083f82610826565b5f82019050919050565b5f61085382610829565b9150819050919050565b7f63616c6c206661696c65640000000000000000000000000000000000000000005f82015250565b5f610891600b8361074a565b915061089c8261085d565b602082019050919050565b5f6020820190508181035f8301526108be81610885565b9050919050565b7f6e6f7420656e6f756768000000000000000000000000000000000000000000005f82015250565b5f6108f9600a8361074a565b9150610904826108c5565b602082019050919050565b5f6020820190508181035f830152610926816108ed565b9050919050565b7f4e487b71000000000000000000000000000000000000000000000000000000005f52601160045260245ffd5b5f6109648261066c565b915061096f8361066c565b925082820261097d8161066c565b915082820484148315176109945761099361092d565b5b5092915050565b7f4e487b71000000000000000000000000000000000000000000000000000000005f52601260045260245ffd5b5f6109d28261066c565b91506109dd8361066c565b9250826109ed576109ec61099b565b5b828204905092915050565b5f69ffffffffffffffffffff82169050919050565b610a16816109f8565b8114610a20575f80fd5b50565b5f81519050610a3181610a0d565b92915050565b5f819050919050565b610a4981610a37565b8114610a53575f80fd5b50565b5f81519050610a6481610a40565b92915050565b5f81519050610a7881610675565b92915050565b5f805f805f60a08688031215610a9757610a96610668565b5b5f610aa488828901610a23565b9550506020610ab588828901610a56565b9450506040610ac688828901610a6a565b9350506060610ad788828901610a6a565b9250506080610ae888828901610a23565b9150509295509295909350565b5f610aff82610a37565b9150610b0a83610a37565b9250828202610b1881610a37565b91507f800000000000000000000000000000000000000000000000000000000000000084145f84121615610b4f57610b4e61092d565b5b8282058414831517610b6457610b6361092d565b5b509291505056fea2646970667358221220428892a43a6c6b4e8a664d383691b451b92164589460fe1b652c2b77a3d4777f64736f6c634300081a0033",
					"opcodes": "PUSH1 0x80 PUSH1 0x40 MSTORE PUSH9 0x1158E460913D00000 PUSH0 SSTORE CALLVALUE DUP1 ISZERO PUSH1 0x1A JUMPI PUSH0 DUP1 REVERT JUMPDEST POP CALLER PUSH1 0x2 PUSH0 PUSH2 0x100 EXP DUP2 SLOAD DUP2 PUSH20 0xFFFFFFFFFFFFFFFFFFFFFFFFFFFFFFFFFFFFFFFF MUL NOT AND SWAP1 DUP4 PUSH20 0xFFFFFFFFFFFFFFFFFFFFFFFFFFFFFFFFFFFFFFFF AND MUL OR SWAP1 SSTORE POP PUSH2 0xBA1 DUP1 PUSH2 0x68 PUSH0 CODECOPY PUSH0 RETURN INVALID PUSH1 0x80 PUSH1 0x40 MSTORE PUSH1 0x4 CALLDATASIZE LT PUSH2 0x49 JUMPI PUSH0 CALLDATALOAD PUSH1 0xE0 SHR DUP1 PUSH4 0x3CCFBD03 EQ PUSH2 0x4D JUMPI DUP1 PUSH4 0x3CCFD60B EQ PUSH2 0x89 JUMPI DUP1 PUSH4 0x8DA5CB5B EQ PUSH2 0x9F JUMPI DUP1 PUSH4 0x968F1455 EQ PUSH2 0xC9 JUMPI DUP1 PUSH4 0x96D52AAC EQ PUSH2 0xF3 JUMPI JUMPDEST PUSH0 DUP1 REVERT JUMPDEST CALLVALUE DUP1 ISZERO PUSH2 0x58 JUMPI PUSH0 DUP1 REVERT JUMPDEST POP PUSH2 0x73 PUSH1 0x4 DUP1 CALLDATASIZE SUB DUP2 ADD SWAP1 PUSH2 0x6E SWAP2 SWAP1 PUSH2 0x69F JUMP JUMPDEST PUSH2 0xFD JUMP JUMPDEST PUSH1 0x40 MLOAD PUSH2 0x80 SWAP2 SWAP1 PUSH2 0x709 JUMP JUMPDEST PUSH1 0x40 MLOAD DUP1 SWAP2 SUB SWAP1 RETURN JUMPDEST CALLVALUE DUP1 ISZERO PUSH2 0x94 JUMPI PUSH0 DUP1 REVERT JUMPDEST POP PUSH2 0x9D PUSH2 0x138 JUMP JUMPDEST STOP JUMPDEST CALLVALUE DUP1 ISZERO PUSH2 0xAA JUMPI PUSH0 DUP1 REVERT JUMPDEST POP PUSH2 0xB3 PUSH2 0x3CF JUMP JUMPDEST PUSH1 0x40 MLOAD PUSH2 0xC0 SWAP2 SWAP1 PUSH2 0x709 JUMP JUMPDEST PUSH1 0x40 MLOAD DUP1 SWAP2 SUB SWAP1 RETURN JUMPDEST CALLVALUE DUP1 ISZERO PUSH2 0xD4 JUMPI PUSH0 DUP1 REVERT JUMPDEST POP PUSH2 0xDD PUSH2 0x3F4 JUMP JUMPDEST PUSH1 0x40 MLOAD PUSH2 0xEA SWAP2 SWAP1 PUSH2 0x731 JUMP JUMPDEST PUSH1 0x40 MLOAD DUP1 SWAP2 SUB SWAP1 RETURN JUMPDEST PUSH2 0xFB PUSH2 0x3F9 JUMP JUMPDEST STOP JUMPDEST PUSH1 0x1 DUP2 DUP2 SLOAD DUP2 LT PUSH2 0x10C JUMPI PUSH0 DUP1 REVERT JUMPDEST SWAP1 PUSH0 MSTORE PUSH1 0x20 PUSH0 KECCAK256 ADD PUSH0 SWAP2 POP SLOAD SWAP1 PUSH2 0x100 EXP SWAP1 DIV PUSH20 0xFFFFFFFFFFFFFFFFFFFFFFFFFFFFFFFFFFFFFFFF AND DUP2 JUMP JUMPDEST PUSH1 0x2 PUSH0 SWAP1 SLOAD SWAP1 PUSH2 0x100 EXP SWAP1 DIV PUSH20 0xFFFFFFFFFFFFFFFFFFFFFFFFFFFFFFFFFFFFFFFF AND PUSH20 0xFFFFFFFFFFFFFFFFFFFFFFFFFFFFFFFFFFFFFFFF AND CALLER PUSH20 0xFFFFFFFFFFFFFFFFFFFFFFFFFFFFFFFFFFFFFFFF AND EQ PUSH2 0x1C7 JUMPI PUSH1 0x40 MLOAD PUSH32 0x8C379A000000000000000000000000000000000000000000000000000000000 DUP2 MSTORE PUSH1 0x4 ADD PUSH2 0x1BE SWAP1 PUSH2 0x7A4 JUMP JUMPDEST PUSH1 0x40 MLOAD DUP1 SWAP2 SUB SWAP1 REVERT JUMPDEST PUSH0 PUSH8 0xFFFFFFFFFFFFFFFF DUP2 GT ISZERO PUSH2 0x1E1 JUMPI PUSH2 0x1E0 PUSH2 0x7C2 JUMP JUMPDEST JUMPDEST PUSH1 0x40 MLOAD SWAP1 DUP1 DUP3 MSTORE DUP1 PUSH1 0x20 MUL PUSH1 0x20 ADD DUP3 ADD PUSH1 0x40 MSTORE DUP1 ISZERO PUSH2 0x20F JUMPI DUP2 PUSH1 0x20 ADD PUSH1 0x20 DUP3 MUL DUP1 CALLDATASIZE DUP4 CALLDATACOPY DUP1 DUP3 ADD SWAP2 POP POP SWAP1 POP JUMPDEST POP PUSH1 0x1 SWAP1 DUP1 MLOAD SWAP1 PUSH1 0x20 ADD SWAP1 PUSH2 0x225 SWAP3 SWAP2 SWAP1 PUSH2 0x5C6 JUMP JUMPDEST POP PUSH0 JUMPDEST PUSH1 0x1 DUP1 SLOAD SWAP1 POP DUP2 LT ISZERO PUSH2 0x2C4 JUMPI PUSH0 PUSH1 0x1 DUP3 DUP2 SLOAD DUP2 LT PUSH2 0x24A JUMPI PUSH2 0x249 PUSH2 0x7EF JUMP JUMPDEST JUMPDEST SWAP1 PUSH0 MSTORE PUSH1 0x20 PUSH0 KECCAK256 ADD PUSH0 SWAP1 SLOAD SWAP1 PUSH2 0x100 EXP SWAP1 DIV PUSH20 0xFFFFFFFFFFFFFFFFFFFFFFFFFFFFFFFFFFFFFFFF AND SWAP1 POP PUSH0 PUSH1 0x3 PUSH0 DUP4 PUSH20 0xFFFFFFFFFFFFFFFFFFFFFFFFFFFFFFFFFFFFFFFF AND PUSH20 0xFFFFFFFFFFFFFFFFFFFFFFFFFFFFFFFFFFFFFFFF AND DUP2 MSTORE PUSH1 0x20 ADD SWAP1 DUP2 MSTORE PUSH1 0x20 ADD PUSH0 KECCAK256 DUP2 SWAP1 SSTORE POP POP DUP1 DUP1 PUSH1 0x1 ADD SWAP2 POP POP PUSH2 0x228 JUMP JUMPDEST POP PUSH0 PUSH8 0xFFFFFFFFFFFFFFFF DUP2 GT ISZERO PUSH2 0x2DF JUMPI PUSH2 0x2DE PUSH2 0x7C2 JUMP JUMPDEST JUMPDEST PUSH1 0x40 MLOAD SWAP1 DUP1 DUP3 MSTORE DUP1 PUSH1 0x20 MUL PUSH1 0x20 ADD DUP3 ADD PUSH1 0x40 MSTORE DUP1 ISZERO PUSH2 0x30D JUMPI DUP2 PUSH1 0x20 ADD PUSH1 0x20 DUP3 MUL DUP1 CALLDATASIZE DUP4 CALLDATACOPY DUP1 DUP3 ADD SWAP2 POP POP SWAP1 POP JUMPDEST POP PUSH1 0x1 SWAP1 DUP1 MLOAD SWAP1 PUSH1 0x20 ADD SWAP1 PUSH2 0x323 SWAP3 SWAP2 SWAP1 PUSH2 0x5C6 JUMP JUMPDEST POP PUSH0 CALLER PUSH20 0xFFFFFFFFFFFFFFFFFFFFFFFFFFFFFFFFFFFFFFFF AND SELFBALANCE PUSH1 0x40 MLOAD PUSH2 0x349 SWAP1 PUSH2 0x849 JUMP JUMPDEST PUSH0 PUSH1 0x40 MLOAD DUP1 DUP4 SUB DUP2 DUP6 DUP8 GAS CALL SWAP3 POP POP POP RETURNDATASIZE DUP1 PUSH0 DUP2 EQ PUSH2 0x383 JUMPI PUSH1 0x40 MLOAD SWAP2 POP PUSH1 0x1F NOT PUSH1 0x3F RETURNDATASIZE ADD AND DUP3 ADD PUSH1 0x40 MSTORE RETURNDATASIZE DUP3 MSTORE RETURNDATASIZE PUSH0 PUSH1 0x20 DUP5 ADD RETURNDATACOPY PUSH2 0x388 JUMP JUMPDEST PUSH1 0x60 SWAP2 POP JUMPDEST POP POP SWAP1 POP DUP1 PUSH2 0x3CC JUMPI PUSH1 0x40 MLOAD PUSH32 0x8C379A000000000000000000000000000000000000000000000000000000000 DUP2 MSTORE PUSH1 0x4 ADD PUSH2 0x3C3 SWAP1 PUSH2 0x8A7 JUMP JUMPDEST PUSH1 0x40 MLOAD DUP1 SWAP2 SUB SWAP1 REVERT JUMPDEST POP JUMP JUMPDEST PUSH1 0x2 PUSH0 SWAP1 SLOAD SWAP1 PUSH2 0x100 EXP SWAP1 DIV PUSH20 0xFFFFFFFFFFFFFFFFFFFFFFFFFFFFFFFFFFFFFFFF AND DUP2 JUMP JUMPDEST PUSH0 SLOAD DUP2 JUMP JUMPDEST PUSH0 SLOAD PUSH2 0x404 CALLVALUE PUSH2 0x4E9 JUMP JUMPDEST LT ISZERO PUSH2 0x445 JUMPI PUSH1 0x40 MLOAD PUSH32 0x8C379A000000000000000000000000000000000000000000000000000000000 DUP2 MSTORE PUSH1 0x4 ADD PUSH2 0x43C SWAP1 PUSH2 0x90F JUMP JUMPDEST PUSH1 0x40 MLOAD DUP1 SWAP2 SUB SWAP1 REVERT JUMPDEST PUSH1 0x1 CALLER SWAP1 DUP1 PUSH1 0x1 DUP2 SLOAD ADD DUP1 DUP3 SSTORE DUP1 SWAP2 POP POP PUSH1 0x1 SWAP1 SUB SWAP1 PUSH0 MSTORE PUSH1 0x20 PUSH0 KECCAK256 ADD PUSH0 SWAP1 SWAP2 SWAP1 SWAP2 SWAP1 SWAP2 PUSH2 0x100 EXP DUP2 SLOAD DUP2 PUSH20 0xFFFFFFFFFFFFFFFFFFFFFFFFFFFFFFFFFFFFFFFF MUL NOT AND SWAP1 DUP4 PUSH20 0xFFFFFFFFFFFFFFFFFFFFFFFFFFFFFFFFFFFFFFFF AND MUL OR SWAP1 SSTORE POP CALLVALUE PUSH1 0x3 PUSH0 CALLER PUSH20 0xFFFFFFFFFFFFFFFFFFFFFFFFFFFFFFFFFFFFFFFF AND PUSH20 0xFFFFFFFFFFFFFFFFFFFFFFFFFFFFFFFFFFFFFFFF AND DUP2 MSTORE PUSH1 0x20 ADD SWAP1 DUP2 MSTORE PUSH1 0x20 ADD PUSH0 KECCAK256 DUP2 SWAP1 SSTORE POP JUMP JUMPDEST PUSH0 DUP1 PUSH2 0x4F3 PUSH2 0x521 JUMP JUMPDEST SWAP1 POP PUSH0 PUSH8 0xDE0B6B3A7640000 DUP5 DUP4 PUSH2 0x50B SWAP2 SWAP1 PUSH2 0x95A JUMP JUMPDEST PUSH2 0x515 SWAP2 SWAP1 PUSH2 0x9C8 JUMP JUMPDEST SWAP1 POP DUP1 SWAP3 POP POP POP SWAP2 SWAP1 POP JUMP JUMPDEST PUSH0 DUP1 PUSH20 0x694AA1769357215DE4FAC081BF1F309ADC325306 SWAP1 POP PUSH0 DUP2 PUSH20 0xFFFFFFFFFFFFFFFFFFFFFFFFFFFFFFFFFFFFFFFF AND PUSH4 0xFEAF968C PUSH1 0x40 MLOAD DUP2 PUSH4 0xFFFFFFFF AND PUSH1 0xE0 SHL DUP2 MSTORE PUSH1 0x4 ADD PUSH1 0xA0 PUSH1 0x40 MLOAD DUP1 DUP4 SUB DUP2 DUP7 GAS STATICCALL ISZERO DUP1 ISZERO PUSH2 0x584 JUMPI RETURNDATASIZE PUSH0 DUP1 RETURNDATACOPY RETURNDATASIZE PUSH0 REVERT JUMPDEST POP POP POP POP PUSH1 0x40 MLOAD RETURNDATASIZE PUSH1 0x1F NOT PUSH1 0x1F DUP3 ADD AND DUP3 ADD DUP1 PUSH1 0x40 MSTORE POP DUP2 ADD SWAP1 PUSH2 0x5A8 SWAP2 SWAP1 PUSH2 0xA7E JUMP JUMPDEST POP POP POP SWAP2 POP POP PUSH5 0x2540BE400 DUP2 PUSH2 0x5BF SWAP2 SWAP1 PUSH2 0xAF5 JUMP JUMPDEST SWAP3 POP POP POP SWAP1 JUMP JUMPDEST DUP3 DUP1 SLOAD DUP3 DUP3 SSTORE SWAP1 PUSH0 MSTORE PUSH1 0x20 PUSH0 KECCAK256 SWAP1 DUP2 ADD SWAP3 DUP3 ISZERO PUSH2 0x63C JUMPI SWAP2 PUSH1 0x20 MUL DUP3 ADD JUMPDEST DUP3 DUP2 GT ISZERO PUSH2 0x63B JUMPI DUP3 MLOAD DUP3 PUSH0 PUSH2 0x100 EXP DUP2 SLOAD DUP2 PUSH20 0xFFFFFFFFFFFFFFFFFFFFFFFFFFFFFFFFFFFFFFFF MUL NOT AND SWAP1 DUP4 PUSH20 0xFFFFFFFFFFFFFFFFFFFFFFFFFFFFFFFFFFFFFFFF AND MUL OR SWAP1 SSTORE POP SWAP2 PUSH1 0x20 ADD SWAP2 SWAP1 PUSH1 0x1 ADD SWAP1 PUSH2 0x5E4 JUMP JUMPDEST JUMPDEST POP SWAP1 POP PUSH2 0x649 SWAP2 SWAP1 PUSH2 0x64D JUMP JUMPDEST POP SWAP1 JUMP JUMPDEST JUMPDEST DUP1 DUP3 GT ISZERO PUSH2 0x664 JUMPI PUSH0 DUP2 PUSH0 SWAP1 SSTORE POP PUSH1 0x1 ADD PUSH2 0x64E JUMP JUMPDEST POP SWAP1 JUMP JUMPDEST PUSH0 DUP1 REVERT JUMPDEST PUSH0 DUP2 SWAP1 POP SWAP2 SWAP1 POP JUMP JUMPDEST PUSH2 0x67E DUP2 PUSH2 0x66C JUMP JUMPDEST DUP2 EQ PUSH2 0x688 JUMPI PUSH0 DUP1 REVERT JUMPDEST POP JUMP JUMPDEST PUSH0 DUP2 CALLDATALOAD SWAP1 POP PUSH2 0x699 DUP2 PUSH2 0x675 JUMP JUMPDEST SWAP3 SWAP2 POP POP JUMP JUMPDEST PUSH0 PUSH1 0x20 DUP3 DUP5 SUB SLT ISZERO PUSH2 0x6B4 JUMPI PUSH2 0x6B3 PUSH2 0x668 JUMP JUMPDEST JUMPDEST PUSH0 PUSH2 0x6C1 DUP5 DUP3 DUP6 ADD PUSH2 0x68B JUMP JUMPDEST SWAP2 POP POP SWAP3 SWAP2 POP POP JUMP JUMPDEST PUSH0 PUSH20 0xFFFFFFFFFFFFFFFFFFFFFFFFFFFFFFFFFFFFFFFF DUP3 AND SWAP1 POP SWAP2 SWAP1 POP JUMP JUMPDEST PUSH0 PUSH2 0x6F3 DUP3 PUSH2 0x6CA JUMP JUMPDEST SWAP1 POP SWAP2 SWAP1 POP JUMP JUMPDEST PUSH2 0x703 DUP2 PUSH2 0x6E9 JUMP JUMPDEST DUP3 MSTORE POP POP JUMP JUMPDEST PUSH0 PUSH1 0x20 DUP3 ADD SWAP1 POP PUSH2 0x71C PUSH0 DUP4 ADD DUP5 PUSH2 0x6FA JUMP JUMPDEST SWAP3 SWAP2 POP POP JUMP JUMPDEST PUSH2 0x72B DUP2 PUSH2 0x66C JUMP JUMPDEST DUP3 MSTORE POP POP JUMP JUMPDEST PUSH0 PUSH1 0x20 DUP3 ADD SWAP1 POP PUSH2 0x744 PUSH0 DUP4 ADD DUP5 PUSH2 0x722 JUMP JUMPDEST SWAP3 SWAP2 POP POP JUMP JUMPDEST PUSH0 DUP3 DUP3 MSTORE PUSH1 0x20 DUP3 ADD SWAP1 POP SWAP3 SWAP2 POP POP JUMP JUMPDEST PUSH32 0x796F7520617265206E6F7420746865206F776E65720000000000000000000000 PUSH0 DUP3 ADD MSTORE POP JUMP JUMPDEST PUSH0 PUSH2 0x78E PUSH1 0x15 DUP4 PUSH2 0x74A JUMP JUMPDEST SWAP2 POP PUSH2 0x799 DUP3 PUSH2 0x75A JUMP JUMPDEST PUSH1 0x20 DUP3 ADD SWAP1 POP SWAP2 SWAP1 POP JUMP JUMPDEST PUSH0 PUSH1 0x20 DUP3 ADD SWAP1 POP DUP2 DUP2 SUB PUSH0 DUP4 ADD MSTORE PUSH2 0x7BB DUP2 PUSH2 0x782 JUMP JUMPDEST SWAP1 POP SWAP2 SWAP1 POP JUMP JUMPDEST PUSH32 0x4E487B7100000000000000000000000000000000000000000000000000000000 PUSH0 MSTORE PUSH1 0x41 PUSH1 0x4 MSTORE PUSH1 0x24 PUSH0 REVERT JUMPDEST PUSH32 0x4E487B7100000000000000000000000000000000000000000000000000000000 PUSH0 MSTORE PUSH1 0x32 PUSH1 0x4 MSTORE PUSH1 0x24 PUSH0 REVERT JUMPDEST PUSH0 DUP2 SWAP1 POP SWAP3 SWAP2 POP POP JUMP JUMPDEST POP JUMP JUMPDEST PUSH0 PUSH2 0x834 PUSH0 DUP4 PUSH2 0x81C JUMP JUMPDEST SWAP2 POP PUSH2 0x83F DUP3 PUSH2 0x826 JUMP JUMPDEST PUSH0 DUP3 ADD SWAP1 POP SWAP2 SWAP1 POP JUMP JUMPDEST PUSH0 PUSH2 0x853 DUP3 PUSH2 0x829 JUMP JUMPDEST SWAP2 POP DUP2 SWAP1 POP SWAP2 SWAP1 POP JUMP JUMPDEST PUSH32 0x63616C6C206661696C6564000000000000000000000000000000000000000000 PUSH0 DUP3 ADD MSTORE POP JUMP JUMPDEST PUSH0 PUSH2 0x891 PUSH1 0xB DUP4 PUSH2 0x74A JUMP JUMPDEST SWAP2 POP PUSH2 0x89C DUP3 PUSH2 0x85D JUMP JUMPDEST PUSH1 0x20 DUP3 ADD SWAP1 POP SWAP2 SWAP1 POP JUMP JUMPDEST PUSH0 PUSH1 0x20 DUP3 ADD SWAP1 POP DUP2 DUP2 SUB PUSH0 DUP4 ADD MSTORE PUSH2 0x8BE DUP2 PUSH2 0x885 JUMP JUMPDEST SWAP1 POP SWAP2 SWAP1 POP JUMP JUMPDEST PUSH32 0x6E6F7420656E6F75676800000000000000000000000000000000000000000000 PUSH0 DUP3 ADD MSTORE POP JUMP JUMPDEST PUSH0 PUSH2 0x8F9 PUSH1 0xA DUP4 PUSH2 0x74A JUMP JUMPDEST SWAP2 POP PUSH2 0x904 DUP3 PUSH2 0x8C5 JUMP JUMPDEST PUSH1 0x20 DUP3 ADD SWAP1 POP SWAP2 SWAP1 POP JUMP JUMPDEST PUSH0 PUSH1 0x20 DUP3 ADD SWAP1 POP DUP2 DUP2 SUB PUSH0 DUP4 ADD MSTORE PUSH2 0x926 DUP2 PUSH2 0x8ED JUMP JUMPDEST SWAP1 POP SWAP2 SWAP1 POP JUMP JUMPDEST PUSH32 0x4E487B7100000000000000000000000000000000000000000000000000000000 PUSH0 MSTORE PUSH1 0x11 PUSH1 0x4 MSTORE PUSH1 0x24 PUSH0 REVERT JUMPDEST PUSH0 PUSH2 0x964 DUP3 PUSH2 0x66C JUMP JUMPDEST SWAP2 POP PUSH2 0x96F DUP4 PUSH2 0x66C JUMP JUMPDEST SWAP3 POP DUP3 DUP3 MUL PUSH2 0x97D DUP2 PUSH2 0x66C JUMP JUMPDEST SWAP2 POP DUP3 DUP3 DIV DUP5 EQ DUP4 ISZERO OR PUSH2 0x994 JUMPI PUSH2 0x993 PUSH2 0x92D JUMP JUMPDEST JUMPDEST POP SWAP3 SWAP2 POP POP JUMP JUMPDEST PUSH32 0x4E487B7100000000000000000000000000000000000000000000000000000000 PUSH0 MSTORE PUSH1 0x12 PUSH1 0x4 MSTORE PUSH1 0x24 PUSH0 REVERT JUMPDEST PUSH0 PUSH2 0x9D2 DUP3 PUSH2 0x66C JUMP JUMPDEST SWAP2 POP PUSH2 0x9DD DUP4 PUSH2 0x66C JUMP JUMPDEST SWAP3 POP DUP3 PUSH2 0x9ED JUMPI PUSH2 0x9EC PUSH2 0x99B JUMP JUMPDEST JUMPDEST DUP3 DUP3 DIV SWAP1 POP SWAP3 SWAP2 POP POP JUMP JUMPDEST PUSH0 PUSH10 0xFFFFFFFFFFFFFFFFFFFF DUP3 AND SWAP1 POP SWAP2 SWAP1 POP JUMP JUMPDEST PUSH2 0xA16 DUP2 PUSH2 0x9F8 JUMP JUMPDEST DUP2 EQ PUSH2 0xA20 JUMPI PUSH0 DUP1 REVERT JUMPDEST POP JUMP JUMPDEST PUSH0 DUP2 MLOAD SWAP1 POP PUSH2 0xA31 DUP2 PUSH2 0xA0D JUMP JUMPDEST SWAP3 SWAP2 POP POP JUMP JUMPDEST PUSH0 DUP2 SWAP1 POP SWAP2 SWAP1 POP JUMP JUMPDEST PUSH2 0xA49 DUP2 PUSH2 0xA37 JUMP JUMPDEST DUP2 EQ PUSH2 0xA53 JUMPI PUSH0 DUP1 REVERT JUMPDEST POP JUMP JUMPDEST PUSH0 DUP2 MLOAD SWAP1 POP PUSH2 0xA64 DUP2 PUSH2 0xA40 JUMP JUMPDEST SWAP3 SWAP2 POP POP JUMP JUMPDEST PUSH0 DUP2 MLOAD SWAP1 POP PUSH2 0xA78 DUP2 PUSH2 0x675 JUMP JUMPDEST SWAP3 SWAP2 POP POP JUMP JUMPDEST PUSH0 DUP1 PUSH0 DUP1 PUSH0 PUSH1 0xA0 DUP7 DUP9 SUB SLT ISZERO PUSH2 0xA97 JUMPI PUSH2 0xA96 PUSH2 0x668 JUMP JUMPDEST JUMPDEST PUSH0 PUSH2 0xAA4 DUP9 DUP3 DUP10 ADD PUSH2 0xA23 JUMP JUMPDEST SWAP6 POP POP PUSH1 0x20 PUSH2 0xAB5 DUP9 DUP3 DUP10 ADD PUSH2 0xA56 JUMP JUMPDEST SWAP5 POP POP PUSH1 0x40 PUSH2 0xAC6 DUP9 DUP3 DUP10 ADD PUSH2 0xA6A JUMP JUMPDEST SWAP4 POP POP PUSH1 0x60 PUSH2 0xAD7 DUP9 DUP3 DUP10 ADD PUSH2 0xA6A JUMP JUMPDEST SWAP3 POP POP PUSH1 0x80 PUSH2 0xAE8 DUP9 DUP3 DUP10 ADD PUSH2 0xA23 JUMP JUMPDEST SWAP2 POP POP SWAP3 SWAP6 POP SWAP3 SWAP6 SWAP1 SWAP4 POP JUMP JUMPDEST PUSH0 PUSH2 0xAFF DUP3 PUSH2 0xA37 JUMP JUMPDEST SWAP2 POP PUSH2 0xB0A DUP4 PUSH2 0xA37 JUMP JUMPDEST SWAP3 POP DUP3 DUP3 MUL PUSH2 0xB18 DUP2 PUSH2 0xA37 JUMP JUMPDEST SWAP2 POP PUSH32 0x8000000000000000000000000000000000000000000000000000000000000000 DUP5 EQ PUSH0 DUP5 SLT AND ISZERO PUSH2 0xB4F JUMPI PUSH2 0xB4E PUSH2 0x92D JUMP JUMPDEST JUMPDEST DUP3 DUP3 SDIV DUP5 EQ DUP4 ISZERO OR PUSH2 0xB64 JUMPI PUSH2 0xB63 PUSH2 0x92D JUMP JUMPDEST JUMPDEST POP SWAP3 SWAP2 POP POP JUMP INVALID LOG2 PUSH5 0x6970667358 0x22 SLT KECCAK256 TIMESTAMP DUP9 SWAP3 LOG4 GASPRICE PUSH13 0x6B4E8A664D383691B451B92164 PC SWAP5 PUSH1 0xFE SHL PUSH6 0x2C2B77A3D477 PUSH32 0x64736F6C634300081A0033000000000000000000000000000000000000000000 "
				},
				"gasEstimates": {
					"creation": {
						"codeDepositCost": "595400",
						"executionCost": "47000",
						"totalCost": "642400"
					},
					"external": {
						"owner()": "2530",
						"paySchoolFee()": "infinite",
						"payers(uint256)": "4922",
						"schoolFee()": "2468",
						"withdraw()": "infinite"
					}
				},
				"methodIdentifiers": {
					"owner()": "8da5cb5b",
					"paySchoolFee()": "96d52aac",
					"payers(uint256)": "3ccfbd03",
					"schoolFee()": "968f1455",
					"withdraw()": "3ccfd60b"
				}
			},
			"storageLayout": {
				"storage": [
					{
						"astId": 56,
						"contract": "contracts/MyWork.sol:MyWork",
						"label": "schoolFee",
						"offset": 0,
						"slot": "0",
						"type": "t_uint256"
					},
					{
						"astId": 59,
						"contract": "contracts/MyWork.sol:MyWork",
						"label": "payers",
						"offset": 0,
						"slot": "1",
						"type": "t_array(t_address)dyn_storage"
					},
					{
						"astId": 61,
						"contract": "contracts/MyWork.sol:MyWork",
						"label": "owner",
						"offset": 0,
						"slot": "2",
						"type": "t_address"
					},
					{
						"astId": 65,
						"contract": "contracts/MyWork.sol:MyWork",
						"label": "studentFeesPaid",
						"offset": 0,
						"slot": "3",
						"type": "t_mapping(t_address,t_uint256)"
					}
				],
				"types": {
					"t_address": {
						"encoding": "inplace",
						"label": "address",
						"numberOfBytes": "20"
					},
					"t_array(t_address)dyn_storage": {
						"base": "t_address",
						"encoding": "dynamic_array",
						"label": "address[]",
						"numberOfBytes": "32"
					},
					"t_mapping(t_address,t_uint256)": {
						"encoding": "mapping",
						"key": "t_address",
						"label": "mapping(address => uint256)",
						"numberOfBytes": "32",
						"value": "t_uint256"
					},
					"t_uint256": {
						"encoding": "inplace",
						"label": "uint256",
						"numberOfBytes": "32"
					}
				}
			},
			"userdoc": {
				"kind": "user",
				"methods": {},
				"version": 1
			}
		}
	}
}