{
	"contracts/StorageFactory.sol": {
		"StorageFactory": {
			"abi": [
				{
					"inputs": [],
					"name": "createSimpleStorageContract",
					"outputs": [],
					"stateMutability": "nonpayable",
					"type": "function"
				},
				{
					"inputs": [
						{
							"internalType": "uint256",
							"name": "simpleStorageIndex",
							"type": "uint256"
						}
					],
					"name": "sfAdd",
					"outputs": [
						{
							"internalType": "uint256",
							"name": "",
							"type": "uint256"
						}
					],
					"stateMutability": "view",
					"type": "function"
				},
				{
					"inputs": [
						{
							"internalType": "uint256",
							"name": "simpleStorageIndex",
							"type": "uint256"
						}
					],
					"name": "sfGet",
					"outputs": [
						{
							"internalType": "uint256",
							"name": "",
							"type": "uint256"
						}
					],
					"stateMutability": "view",
					"type": "function"
				},
				{
					"inputs": [
						{
							"internalType": "uint256",
							"name": "_simpleStorageIndex",
							"type": "uint256"
						},
						{
							"internalType": "uint256",
							"name": "_simpleStorageNumber",
							"type": "uint256"
						}
					],
					"name": "sfStore",
					"outputs": [],
					"stateMutability": "nonpayable",
					"type": "function"
				},
				{
					"inputs": [
						{
							"internalType": "uint256",
							"name": "",
							"type": "uint256"
						}
					],
					"name": "simpleStorageArray",
					"outputs": [
						{
							"internalType": "contract SimpleStorage",
							"name": "",
							"type": "address"
						}
					],
					"stateMutability": "view",
					"type": "function"
				}
			],
			"devdoc": {
				"kind": "dev",
				"methods": {},
				"version": 1
			},
			"evm": {
				"assembly": "    /* \"contracts/StorageFactory.sol\":103:1030  contract StorageFactory{... */\n  mstore(0x40, 0x80)\n  callvalue\n  dup1\n  iszero\n  tag_1\n  jumpi\n  0x00\n  dup1\n  revert\ntag_1:\n  pop\n  dataSize(sub_0)\n  dup1\n  dataOffset(sub_0)\n  0x00\n  codecopy\n  0x00\n  return\nstop\n\nsub_0: assembly {\n        /* \"contracts/StorageFactory.sol\":103:1030  contract StorageFactory{... */\n      mstore(0x40, 0x80)\n      callvalue\n      dup1\n      iszero\n      tag_1\n      jumpi\n      0x00\n      dup1\n      revert\n    tag_1:\n      pop\n      jumpi(tag_2, lt(calldatasize, 0x04))\n      shr(0xe0, calldataload(0x00))\n      dup1\n      0x03491761\n      eq\n      tag_3\n      jumpi\n      dup1\n      0x1563700f\n      eq\n      tag_4\n      jumpi\n      dup1\n      0x1dda6541\n      eq\n      tag_5\n      jumpi\n      dup1\n      0x64591bf1\n      eq\n      tag_6\n      jumpi\n      dup1\n      0xc5f19c20\n      eq\n      tag_7\n      jumpi\n    tag_2:\n      0x00\n      dup1\n      revert\n        /* \"contracts/StorageFactory.sol\":831:1027  function sfAdd(uint256 simpleStorageIndex) public view returns(uint256){... */\n    tag_3:\n      tag_8\n      0x04\n      dup1\n      calldatasize\n      sub\n      dup2\n      add\n      swap1\n      tag_9\n      swap2\n      swap1\n      tag_10\n      jump\t// in\n    tag_9:\n      tag_11\n      jump\t// in\n    tag_8:\n      mload(0x40)\n      tag_12\n      swap2\n      swap1\n      tag_13\n      jump\t// in\n    tag_12:\n      mload(0x40)\n      dup1\n      swap2\n      sub\n      swap1\n      return\n        /* \"contracts/StorageFactory.sol\":358:617  function sfStore(uint256 _simpleStorageIndex, uint256 _simpleStorageNumber) public {... */\n    tag_4:\n      tag_14\n      0x04\n      dup1\n      calldatasize\n      sub\n      dup2\n      add\n      swap1\n      tag_15\n      swap2\n      swap1\n      tag_16\n      jump\t// in\n    tag_15:\n      tag_17\n      jump\t// in\n    tag_14:\n      stop\n        /* \"contracts/StorageFactory.sol\":185:348  function createSimpleStorageContract() public {... */\n    tag_5:\n      tag_18\n      tag_19\n      jump\t// in\n    tag_18:\n      stop\n        /* \"contracts/StorageFactory.sol\":135:176  SimpleStorage[] public simpleStorageArray */\n    tag_6:\n      tag_20\n      0x04\n      dup1\n      calldatasize\n      sub\n      dup2\n      add\n      swap1\n      tag_21\n      swap2\n      swap1\n      tag_10\n      jump\t// in\n    tag_21:\n      tag_22\n      jump\t// in\n    tag_20:\n      mload(0x40)\n      tag_23\n      swap2\n      swap1\n      tag_24\n      jump\t// in\n    tag_23:\n      mload(0x40)\n      dup1\n      swap2\n      sub\n      swap1\n      return\n        /* \"contracts/StorageFactory.sol\":625:825  function sfGet(uint256 simpleStorageIndex) public view returns (uint256) {... */\n    tag_7:\n      tag_25\n      0x04\n      dup1\n      calldatasize\n      sub\n      dup2\n      add\n      swap1\n      tag_26\n      swap2\n      swap1\n      tag_10\n      jump\t// in\n    tag_26:\n      tag_27\n      jump\t// in\n    tag_25:\n      mload(0x40)\n      tag_28\n      swap2\n      swap1\n      tag_13\n      jump\t// in\n    tag_28:\n      mload(0x40)\n      dup1\n      swap2\n      sub\n      swap1\n      return\n        /* \"contracts/StorageFactory.sol\":831:1027  function sfAdd(uint256 simpleStorageIndex) public view returns(uint256){... */\n    tag_11:\n        /* \"contracts/StorageFactory.sol\":894:901  uint256 */\n      0x00\n        /* \"contracts/StorageFactory.sol\":913:940  SimpleStorage simpleStorage */\n      dup1\n        /* \"contracts/StorageFactory.sol\":943:961  simpleStorageArray */\n      0x00\n        /* \"contracts/StorageFactory.sol\":962:980  simpleStorageIndex */\n      dup4\n        /* \"contracts/StorageFactory.sol\":943:981  simpleStorageArray[simpleStorageIndex] */\n      dup2\n      sload\n      dup2\n      lt\n      tag_30\n      jumpi\n      tag_31\n      tag_32\n      jump\t// in\n    tag_31:\n    tag_30:\n      swap1\n      0x00\n      mstore\n      keccak256(0x00, 0x20)\n      add\n      0x00\n      swap1\n      sload\n      swap1\n      0x0100\n      exp\n      swap1\n      div\n      0xffffffffffffffffffffffffffffffffffffffff\n      and\n        /* \"contracts/StorageFactory.sol\":913:981  SimpleStorage simpleStorage = simpleStorageArray[simpleStorageIndex] */\n      swap1\n      pop\n        /* \"contracts/StorageFactory.sol\":1000:1013  simpleStorage */\n      dup1\n        /* \"contracts/StorageFactory.sol\":1000:1017  simpleStorage.add */\n      0xffffffffffffffffffffffffffffffffffffffff\n      and\n      0x4f2be91f\n        /* \"contracts/StorageFactory.sol\":1000:1019  simpleStorage.add() */\n      mload(0x40)\n      dup2\n      0xffffffff\n      and\n      0xe0\n      shl\n      dup2\n      mstore\n      0x04\n      add\n      0x20\n      mload(0x40)\n      dup1\n      dup4\n      sub\n      dup2\n      dup7\n      gas\n      staticcall\n      iszero\n      dup1\n      iszero\n      tag_35\n      jumpi\n      returndatasize\n      0x00\n      dup1\n      returndatacopy\n      revert(0x00, returndatasize)\n    tag_35:\n      pop\n      pop\n      pop\n      pop\n      mload(0x40)\n      returndatasize\n      not(0x1f)\n      0x1f\n      dup3\n      add\n      and\n      dup3\n      add\n      dup1\n      0x40\n      mstore\n      pop\n      dup2\n      add\n      swap1\n      tag_36\n      swap2\n      swap1\n      tag_37\n      jump\t// in\n    tag_36:\n        /* \"contracts/StorageFactory.sol\":992:1019  return  simpleStorage.add() */\n      swap2\n      pop\n      pop\n        /* \"contracts/StorageFactory.sol\":831:1027  function sfAdd(uint256 simpleStorageIndex) public view returns(uint256){... */\n      swap2\n      swap1\n      pop\n      jump\t// out\n        /* \"contracts/StorageFactory.sol\":358:617  function sfStore(uint256 _simpleStorageIndex, uint256 _simpleStorageNumber) public {... */\n    tag_17:\n        /* \"contracts/StorageFactory.sol\":473:500  SimpleStorage simpleStorage */\n      0x00\n        /* \"contracts/StorageFactory.sol\":503:521  simpleStorageArray */\n      dup1\n        /* \"contracts/StorageFactory.sol\":522:541  _simpleStorageIndex */\n      dup4\n        /* \"contracts/StorageFactory.sol\":503:542  simpleStorageArray[_simpleStorageIndex] */\n      dup2\n      sload\n      dup2\n      lt\n      tag_39\n      jumpi\n      tag_40\n      tag_32\n      jump\t// in\n    tag_40:\n    tag_39:\n      swap1\n      0x00\n      mstore\n      keccak256(0x00, 0x20)\n      add\n      0x00\n      swap1\n      sload\n      swap1\n      0x0100\n      exp\n      swap1\n      div\n      0xffffffffffffffffffffffffffffffffffffffff\n      and\n        /* \"contracts/StorageFactory.sol\":473:542  SimpleStorage simpleStorage = simpleStorageArray[_simpleStorageIndex] */\n      swap1\n      pop\n        /* \"contracts/StorageFactory.sol\":553:566  simpleStorage */\n      dup1\n        /* \"contracts/StorageFactory.sol\":553:572  simpleStorage.store */\n      0xffffffffffffffffffffffffffffffffffffffff\n      and\n      0x6057361d\n        /* \"contracts/StorageFactory.sol\":573:593  _simpleStorageNumber */\n      dup4\n        /* \"contracts/StorageFactory.sol\":553:594  simpleStorage.store(_simpleStorageNumber) */\n      mload(0x40)\n      dup3\n      0xffffffff\n      and\n      0xe0\n      shl\n      dup2\n      mstore\n      0x04\n      add\n      tag_42\n      swap2\n      swap1\n      tag_13\n      jump\t// in\n    tag_42:\n      0x00\n      mload(0x40)\n      dup1\n      dup4\n      sub\n      dup2\n      0x00\n      dup8\n      dup1\n      extcodesize\n      iszero\n      dup1\n      iszero\n      tag_43\n      jumpi\n      0x00\n      dup1\n      revert\n    tag_43:\n      pop\n      gas\n      call\n      iszero\n      dup1\n      iszero\n      tag_45\n      jumpi\n      returndatasize\n      0x00\n      dup1\n      returndatacopy\n      revert(0x00, returndatasize)\n    tag_45:\n      pop\n      pop\n      pop\n      pop\n        /* \"contracts/StorageFactory.sol\":441:617  {... */\n      pop\n        /* \"contracts/StorageFactory.sol\":358:617  function sfStore(uint256 _simpleStorageIndex, uint256 _simpleStorageNumber) public {... */\n      pop\n      pop\n      jump\t// out\n        /* \"contracts/StorageFactory.sol\":185:348  function createSimpleStorageContract() public {... */\n    tag_19:\n        /* \"contracts/StorageFactory.sol\":242:269  SimpleStorage simpleStorage */\n      0x00\n        /* \"contracts/StorageFactory.sol\":272:291  new SimpleStorage() */\n      mload(0x40)\n      tag_47\n      swap1\n      tag_48\n      jump\t// in\n    tag_47:\n      mload(0x40)\n      dup1\n      swap2\n      sub\n      swap1\n      0x00\n      create\n      dup1\n      iszero\n      dup1\n      iszero\n      tag_49\n      jumpi\n      returndatasize\n      0x00\n      dup1\n      returndatacopy\n      revert(0x00, returndatasize)\n    tag_49:\n      pop\n        /* \"contracts/StorageFactory.sol\":242:291  SimpleStorage simpleStorage = new SimpleStorage() */\n      swap1\n      pop\n        /* \"contracts/StorageFactory.sol\":302:320  simpleStorageArray */\n      0x00\n        /* \"contracts/StorageFactory.sol\":326:339  simpleStorage */\n      dup2\n        /* \"contracts/StorageFactory.sol\":302:340  simpleStorageArray.push(simpleStorage) */\n      swap1\n      dup1\n      0x01\n      dup2\n      sload\n      add\n      dup1\n      dup3\n      sstore\n      dup1\n      swap2\n      pop\n      pop\n      0x01\n      swap1\n      sub\n      swap1\n      0x00\n      mstore\n      keccak256(0x00, 0x20)\n      add\n      0x00\n      swap1\n      swap2\n      swap1\n      swap2\n      swap1\n      swap2\n      0x0100\n      exp\n      dup2\n      sload\n      dup2\n      0xffffffffffffffffffffffffffffffffffffffff\n      mul\n      not\n      and\n      swap1\n      dup4\n      0xffffffffffffffffffffffffffffffffffffffff\n      and\n      mul\n      or\n      swap1\n      sstore\n      pop\n        /* \"contracts/StorageFactory.sol\":231:348  {... */\n      pop\n        /* \"contracts/StorageFactory.sol\":185:348  function createSimpleStorageContract() public {... */\n      jump\t// out\n        /* \"contracts/StorageFactory.sol\":135:176  SimpleStorage[] public simpleStorageArray */\n    tag_22:\n      0x00\n      dup2\n      dup2\n      sload\n      dup2\n      lt\n      tag_51\n      jumpi\n      0x00\n      dup1\n      revert\n    tag_51:\n      swap1\n      0x00\n      mstore\n      keccak256(0x00, 0x20)\n      add\n      0x00\n      swap2\n      pop\n      sload\n      swap1\n      0x0100\n      exp\n      swap1\n      div\n      0xffffffffffffffffffffffffffffffffffffffff\n      and\n      dup2\n      jump\t// out\n        /* \"contracts/StorageFactory.sol\":625:825  function sfGet(uint256 simpleStorageIndex) public view returns (uint256) {... */\n    tag_27:\n        /* \"contracts/StorageFactory.sol\":689:696  uint256 */\n      0x00\n        /* \"contracts/StorageFactory.sol\":709:736  SimpleStorage simpleStorage */\n      dup1\n        /* \"contracts/StorageFactory.sol\":739:757  simpleStorageArray */\n      0x00\n        /* \"contracts/StorageFactory.sol\":758:776  simpleStorageIndex */\n      dup4\n        /* \"contracts/StorageFactory.sol\":739:777  simpleStorageArray[simpleStorageIndex] */\n      dup2\n      sload\n      dup2\n      lt\n      tag_54\n      jumpi\n      tag_55\n      tag_32\n      jump\t// in\n    tag_55:\n    tag_54:\n      swap1\n      0x00\n      mstore\n      keccak256(0x00, 0x20)\n      add\n      0x00\n      swap1\n      sload\n      swap1\n      0x0100\n      exp\n      swap1\n      div\n      0xffffffffffffffffffffffffffffffffffffffff\n      and\n        /* \"contracts/StorageFactory.sol\":709:777  SimpleStorage simpleStorage = simpleStorageArray[simpleStorageIndex] */\n      swap1\n      pop\n        /* \"contracts/StorageFactory.sol\":791:804  simpleStorage */\n      dup1\n        /* \"contracts/StorageFactory.sol\":791:813  simpleStorage.retrieve */\n      0xffffffffffffffffffffffffffffffffffffffff\n      and\n      0x2e64cec1\n        /* \"contracts/StorageFactory.sol\":791:815  simpleStorage.retrieve() */\n      mload(0x40)\n      dup2\n      0xffffffff\n      and\n      0xe0\n      shl\n      dup2\n      mstore\n      0x04\n      add\n      0x20\n      mload(0x40)\n      dup1\n      dup4\n      sub\n      dup2\n      dup7\n      gas\n      staticcall\n      iszero\n      dup1\n      iszero\n      tag_58\n      jumpi\n      returndatasize\n      0x00\n      dup1\n      returndatacopy\n      revert(0x00, returndatasize)\n    tag_58:\n      pop\n      pop\n      pop\n      pop\n      mload(0x40)\n      returndatasize\n      not(0x1f)\n      0x1f\n      dup3\n      add\n      and\n      dup3\n      add\n      dup1\n      0x40\n      mstore\n      pop\n      dup2\n      add\n      swap1\n      tag_59\n      swap2\n      swap1\n      tag_37\n      jump\t// in\n    tag_59:\n        /* \"contracts/StorageFactory.sol\":784:815  return simpleStorage.retrieve() */\n      swap2\n      pop\n      pop\n        /* \"contracts/StorageFactory.sol\":625:825  function sfGet(uint256 simpleStorageIndex) public view returns (uint256) {... */\n      swap2\n      swap1\n      pop\n      jump\t// out\n    tag_48:\n      dataSize(sub_0)\n      dup1\n      dataOffset(sub_0)\n      dup4\n      codecopy\n      add\n      swap1\n      jump\t// out\n        /* \"#utility.yul\":88:205   */\n    tag_61:\n        /* \"#utility.yul\":197:198   */\n      0x00\n        /* \"#utility.yul\":194:195   */\n      dup1\n        /* \"#utility.yul\":187:199   */\n      revert\n        /* \"#utility.yul\":334:411   */\n    tag_63:\n        /* \"#utility.yul\":371:378   */\n      0x00\n        /* \"#utility.yul\":400:405   */\n      dup2\n        /* \"#utility.yul\":389:405   */\n      swap1\n      pop\n        /* \"#utility.yul\":334:411   */\n      swap2\n      swap1\n      pop\n      jump\t// out\n        /* \"#utility.yul\":417:539   */\n    tag_64:\n        /* \"#utility.yul\":490:514   */\n      tag_80\n        /* \"#utility.yul\":508:513   */\n      dup2\n        /* \"#utility.yul\":490:514   */\n      tag_63\n      jump\t// in\n    tag_80:\n        /* \"#utility.yul\":483:488   */\n      dup2\n        /* \"#utility.yul\":480:515   */\n      eq\n        /* \"#utility.yul\":470:533   */\n      tag_81\n      jumpi\n        /* \"#utility.yul\":529:530   */\n      0x00\n        /* \"#utility.yul\":526:527   */\n      dup1\n        /* \"#utility.yul\":519:531   */\n      revert\n        /* \"#utility.yul\":470:533   */\n    tag_81:\n        /* \"#utility.yul\":417:539   */\n      pop\n      jump\t// out\n        /* \"#utility.yul\":545:684   */\n    tag_65:\n        /* \"#utility.yul\":591:596   */\n      0x00\n        /* \"#utility.yul\":629:635   */\n      dup2\n        /* \"#utility.yul\":616:636   */\n      calldataload\n        /* \"#utility.yul\":607:636   */\n      swap1\n      pop\n        /* \"#utility.yul\":645:678   */\n      tag_83\n        /* \"#utility.yul\":672:677   */\n      dup2\n        /* \"#utility.yul\":645:678   */\n      tag_64\n      jump\t// in\n    tag_83:\n        /* \"#utility.yul\":545:684   */\n      swap3\n      swap2\n      pop\n      pop\n      jump\t// out\n        /* \"#utility.yul\":690:1019   */\n    tag_10:\n        /* \"#utility.yul\":749:755   */\n      0x00\n        /* \"#utility.yul\":798:800   */\n      0x20\n        /* \"#utility.yul\":786:795   */\n      dup3\n        /* \"#utility.yul\":777:784   */\n      dup5\n        /* \"#utility.yul\":773:796   */\n      sub\n        /* \"#utility.yul\":769:801   */\n      slt\n        /* \"#utility.yul\":766:885   */\n      iszero\n      tag_85\n      jumpi\n        /* \"#utility.yul\":804:883   */\n      tag_86\n      tag_61\n      jump\t// in\n    tag_86:\n        /* \"#utility.yul\":766:885   */\n    tag_85:\n        /* \"#utility.yul\":924:925   */\n      0x00\n        /* \"#utility.yul\":949:1002   */\n      tag_87\n        /* \"#utility.yul\":994:1001   */\n      dup5\n        /* \"#utility.yul\":985:991   */\n      dup3\n        /* \"#utility.yul\":974:983   */\n      dup6\n        /* \"#utility.yul\":970:992   */\n      add\n        /* \"#utility.yul\":949:1002   */\n      tag_65\n      jump\t// in\n    tag_87:\n        /* \"#utility.yul\":939:1002   */\n      swap2\n      pop\n        /* \"#utility.yul\":895:1012   */\n      pop\n        /* \"#utility.yul\":690:1019   */\n      swap3\n      swap2\n      pop\n      pop\n      jump\t// out\n        /* \"#utility.yul\":1025:1143   */\n    tag_66:\n        /* \"#utility.yul\":1112:1136   */\n      tag_89\n        /* \"#utility.yul\":1130:1135   */\n      dup2\n        /* \"#utility.yul\":1112:1136   */\n      tag_63\n      jump\t// in\n    tag_89:\n        /* \"#utility.yul\":1107:1110   */\n      dup3\n        /* \"#utility.yul\":1100:1137   */\n      mstore\n        /* \"#utility.yul\":1025:1143   */\n      pop\n      pop\n      jump\t// out\n        /* \"#utility.yul\":1149:1371   */\n    tag_13:\n        /* \"#utility.yul\":1242:1246   */\n      0x00\n        /* \"#utility.yul\":1280:1282   */\n      0x20\n        /* \"#utility.yul\":1269:1278   */\n      dup3\n        /* \"#utility.yul\":1265:1283   */\n      add\n        /* \"#utility.yul\":1257:1283   */\n      swap1\n      pop\n        /* \"#utility.yul\":1293:1364   */\n      tag_91\n        /* \"#utility.yul\":1361:1362   */\n      0x00\n        /* \"#utility.yul\":1350:1359   */\n      dup4\n        /* \"#utility.yul\":1346:1363   */\n      add\n        /* \"#utility.yul\":1337:1343   */\n      dup5\n        /* \"#utility.yul\":1293:1364   */\n      tag_66\n      jump\t// in\n    tag_91:\n        /* \"#utility.yul\":1149:1371   */\n      swap3\n      swap2\n      pop\n      pop\n      jump\t// out\n        /* \"#utility.yul\":1377:1851   */\n    tag_16:\n        /* \"#utility.yul\":1445:1451   */\n      0x00\n        /* \"#utility.yul\":1453:1459   */\n      dup1\n        /* \"#utility.yul\":1502:1504   */\n      0x40\n        /* \"#utility.yul\":1490:1499   */\n      dup4\n        /* \"#utility.yul\":1481:1488   */\n      dup6\n        /* \"#utility.yul\":1477:1500   */\n      sub\n        /* \"#utility.yul\":1473:1505   */\n      slt\n        /* \"#utility.yul\":1470:1589   */\n      iszero\n      tag_93\n      jumpi\n        /* \"#utility.yul\":1508:1587   */\n      tag_94\n      tag_61\n      jump\t// in\n    tag_94:\n        /* \"#utility.yul\":1470:1589   */\n    tag_93:\n        /* \"#utility.yul\":1628:1629   */\n      0x00\n        /* \"#utility.yul\":1653:1706   */\n      tag_95\n        /* \"#utility.yul\":1698:1705   */\n      dup6\n        /* \"#utility.yul\":1689:1695   */\n      dup3\n        /* \"#utility.yul\":1678:1687   */\n      dup7\n        /* \"#utility.yul\":1674:1696   */\n      add\n        /* \"#utility.yul\":1653:1706   */\n      tag_65\n      jump\t// in\n    tag_95:\n        /* \"#utility.yul\":1643:1706   */\n      swap3\n      pop\n        /* \"#utility.yul\":1599:1716   */\n      pop\n        /* \"#utility.yul\":1755:1757   */\n      0x20\n        /* \"#utility.yul\":1781:1834   */\n      tag_96\n        /* \"#utility.yul\":1826:1833   */\n      dup6\n        /* \"#utility.yul\":1817:1823   */\n      dup3\n        /* \"#utility.yul\":1806:1815   */\n      dup7\n        /* \"#utility.yul\":1802:1824   */\n      add\n        /* \"#utility.yul\":1781:1834   */\n      tag_65\n      jump\t// in\n    tag_96:\n        /* \"#utility.yul\":1771:1834   */\n      swap2\n      pop\n        /* \"#utility.yul\":1726:1844   */\n      pop\n        /* \"#utility.yul\":1377:1851   */\n      swap3\n      pop\n      swap3\n      swap1\n      pop\n      jump\t// out\n        /* \"#utility.yul\":1857:1983   */\n    tag_67:\n        /* \"#utility.yul\":1894:1901   */\n      0x00\n        /* \"#utility.yul\":1934:1976   */\n      0xffffffffffffffffffffffffffffffffffffffff\n        /* \"#utility.yul\":1927:1932   */\n      dup3\n        /* \"#utility.yul\":1923:1977   */\n      and\n        /* \"#utility.yul\":1912:1977   */\n      swap1\n      pop\n        /* \"#utility.yul\":1857:1983   */\n      swap2\n      swap1\n      pop\n      jump\t// out\n        /* \"#utility.yul\":1989:2049   */\n    tag_68:\n        /* \"#utility.yul\":2017:2020   */\n      0x00\n        /* \"#utility.yul\":2038:2043   */\n      dup2\n        /* \"#utility.yul\":2031:2043   */\n      swap1\n      pop\n        /* \"#utility.yul\":1989:2049   */\n      swap2\n      swap1\n      pop\n      jump\t// out\n        /* \"#utility.yul\":2055:2197   */\n    tag_69:\n        /* \"#utility.yul\":2105:2114   */\n      0x00\n        /* \"#utility.yul\":2138:2191   */\n      tag_100\n        /* \"#utility.yul\":2156:2190   */\n      tag_101\n        /* \"#utility.yul\":2165:2189   */\n      tag_102\n        /* \"#utility.yul\":2183:2188   */\n      dup5\n        /* \"#utility.yul\":2165:2189   */\n      tag_67\n      jump\t// in\n    tag_102:\n        /* \"#utility.yul\":2156:2190   */\n      tag_68\n      jump\t// in\n    tag_101:\n        /* \"#utility.yul\":2138:2191   */\n      tag_67\n      jump\t// in\n    tag_100:\n        /* \"#utility.yul\":2125:2191   */\n      swap1\n      pop\n        /* \"#utility.yul\":2055:2197   */\n      swap2\n      swap1\n      pop\n      jump\t// out\n        /* \"#utility.yul\":2203:2329   */\n    tag_70:\n        /* \"#utility.yul\":2253:2262   */\n      0x00\n        /* \"#utility.yul\":2286:2323   */\n      tag_104\n        /* \"#utility.yul\":2317:2322   */\n      dup3\n        /* \"#utility.yul\":2286:2323   */\n      tag_69\n      jump\t// in\n    tag_104:\n        /* \"#utility.yul\":2273:2323   */\n      swap1\n      pop\n        /* \"#utility.yul\":2203:2329   */\n      swap2\n      swap1\n      pop\n      jump\t// out\n        /* \"#utility.yul\":2335:2481   */\n    tag_71:\n        /* \"#utility.yul\":2405:2414   */\n      0x00\n        /* \"#utility.yul\":2438:2475   */\n      tag_106\n        /* \"#utility.yul\":2469:2474   */\n      dup3\n        /* \"#utility.yul\":2438:2475   */\n      tag_70\n      jump\t// in\n    tag_106:\n        /* \"#utility.yul\":2425:2475   */\n      swap1\n      pop\n        /* \"#utility.yul\":2335:2481   */\n      swap2\n      swap1\n      pop\n      jump\t// out\n        /* \"#utility.yul\":2487:2658   */\n    tag_72:\n        /* \"#utility.yul\":2594:2651   */\n      tag_108\n        /* \"#utility.yul\":2645:2650   */\n      dup2\n        /* \"#utility.yul\":2594:2651   */\n      tag_71\n      jump\t// in\n    tag_108:\n        /* \"#utility.yul\":2589:2592   */\n      dup3\n        /* \"#utility.yul\":2582:2652   */\n      mstore\n        /* \"#utility.yul\":2487:2658   */\n      pop\n      pop\n      jump\t// out\n        /* \"#utility.yul\":2664:2926   */\n    tag_24:\n        /* \"#utility.yul\":2777:2781   */\n      0x00\n        /* \"#utility.yul\":2815:2817   */\n      0x20\n        /* \"#utility.yul\":2804:2813   */\n      dup3\n        /* \"#utility.yul\":2800:2818   */\n      add\n        /* \"#utility.yul\":2792:2818   */\n      swap1\n      pop\n        /* \"#utility.yul\":2828:2919   */\n      tag_110\n        /* \"#utility.yul\":2916:2917   */\n      0x00\n        /* \"#utility.yul\":2905:2914   */\n      dup4\n        /* \"#utility.yul\":2901:2918   */\n      add\n        /* \"#utility.yul\":2892:2898   */\n      dup5\n        /* \"#utility.yul\":2828:2919   */\n      tag_72\n      jump\t// in\n    tag_110:\n        /* \"#utility.yul\":2664:2926   */\n      swap3\n      swap2\n      pop\n      pop\n      jump\t// out\n        /* \"#utility.yul\":2932:3112   */\n    tag_32:\n        /* \"#utility.yul\":2980:3057   */\n      0x4e487b7100000000000000000000000000000000000000000000000000000000\n        /* \"#utility.yul\":2977:2978   */\n      0x00\n        /* \"#utility.yul\":2970:3058   */\n      mstore\n        /* \"#utility.yul\":3077:3081   */\n      0x32\n        /* \"#utility.yul\":3074:3075   */\n      0x04\n        /* \"#utility.yul\":3067:3082   */\n      mstore\n        /* \"#utility.yul\":3101:3105   */\n      0x24\n        /* \"#utility.yul\":3098:3099   */\n      0x00\n        /* \"#utility.yul\":3091:3106   */\n      revert\n        /* \"#utility.yul\":3118:3261   */\n    tag_73:\n        /* \"#utility.yul\":3175:3180   */\n      0x00\n        /* \"#utility.yul\":3206:3212   */\n      dup2\n        /* \"#utility.yul\":3200:3213   */\n      mload\n        /* \"#utility.yul\":3191:3213   */\n      swap1\n      pop\n        /* \"#utility.yul\":3222:3255   */\n      tag_113\n        /* \"#utility.yul\":3249:3254   */\n      dup2\n        /* \"#utility.yul\":3222:3255   */\n      tag_64\n      jump\t// in\n    tag_113:\n        /* \"#utility.yul\":3118:3261   */\n      swap3\n      swap2\n      pop\n      pop\n      jump\t// out\n        /* \"#utility.yul\":3267:3618   */\n    tag_37:\n        /* \"#utility.yul\":3337:3343   */\n      0x00\n        /* \"#utility.yul\":3386:3388   */\n      0x20\n        /* \"#utility.yul\":3374:3383   */\n      dup3\n        /* \"#utility.yul\":3365:3372   */\n      dup5\n        /* \"#utility.yul\":3361:3384   */\n      sub\n        /* \"#utility.yul\":3357:3389   */\n      slt\n        /* \"#utility.yul\":3354:3473   */\n      iszero\n      tag_115\n      jumpi\n        /* \"#utility.yul\":3392:3471   */\n      tag_116\n      tag_61\n      jump\t// in\n    tag_116:\n        /* \"#utility.yul\":3354:3473   */\n    tag_115:\n        /* \"#utility.yul\":3512:3513   */\n      0x00\n        /* \"#utility.yul\":3537:3601   */\n      tag_117\n        /* \"#utility.yul\":3593:3600   */\n      dup5\n        /* \"#utility.yul\":3584:3590   */\n      dup3\n        /* \"#utility.yul\":3573:3582   */\n      dup6\n        /* \"#utility.yul\":3569:3591   */\n      add\n        /* \"#utility.yul\":3537:3601   */\n      tag_73\n      jump\t// in\n    tag_117:\n        /* \"#utility.yul\":3527:3601   */\n      swap2\n      pop\n        /* \"#utility.yul\":3483:3611   */\n      pop\n        /* \"#utility.yul\":3267:3618   */\n      swap3\n      swap2\n      pop\n      pop\n      jump\t// out\n    stop\n\n    sub_0: assembly {\n            /* \"contracts/SimpleStorage.sol\":60:1076  contract SimpleStorage {... */\n          mstore(0x40, 0x80)\n          callvalue\n          dup1\n          iszero\n          tag_1\n          jumpi\n          0x00\n          dup1\n          revert\n        tag_1:\n          pop\n          dataSize(sub_0)\n          dup1\n          dataOffset(sub_0)\n          0x00\n          codecopy\n          0x00\n          return\n        stop\n\n        sub_0: assembly {\n                /* \"contracts/SimpleStorage.sol\":60:1076  contract SimpleStorage {... */\n              mstore(0x40, 0x80)\n              callvalue\n              dup1\n              iszero\n              tag_1\n              jumpi\n              0x00\n              dup1\n              revert\n            tag_1:\n              pop\n              jumpi(tag_2, lt(calldatasize, 0x04))\n              shr(0xe0, calldataload(0x00))\n              dup1\n              0x06c62c2c\n              eq\n              tag_3\n              jumpi\n              dup1\n              0x2e64cec1\n              eq\n              tag_4\n              jumpi\n              dup1\n              0x4f2be91f\n              eq\n              tag_5\n              jumpi\n              dup1\n              0x6057361d\n              eq\n              tag_6\n              jumpi\n              dup1\n              0x6f760f41\n              eq\n              tag_7\n              jumpi\n              dup1\n              0x9e7a13ad\n              eq\n              tag_8\n              jumpi\n            tag_2:\n              0x00\n              dup1\n              revert\n                /* \"contracts/SimpleStorage.sol\":294:340  mapping(string => uint256) public nameToFavNum */\n            tag_3:\n              tag_9\n              0x04\n              dup1\n              calldatasize\n              sub\n              dup2\n              add\n              swap1\n              tag_10\n              swap2\n              swap1\n              tag_11\n              jump\t// in\n            tag_10:\n              tag_12\n              jump\t// in\n            tag_9:\n              mload(0x40)\n              tag_13\n              swap2\n              swap1\n              tag_14\n              jump\t// in\n            tag_13:\n              mload(0x40)\n              dup1\n              swap2\n              sub\n              swap1\n              return\n                /* \"contracts/SimpleStorage.sol\":624:706  function retrieve() public view returns (uint256){... */\n            tag_4:\n              tag_15\n              tag_16\n              jump\t// in\n            tag_15:\n              mload(0x40)\n              tag_17\n              swap2\n              swap1\n              tag_14\n              jump\t// in\n            tag_17:\n              mload(0x40)\n              dup1\n              swap2\n              sub\n              swap1\n              return\n                /* \"contracts/SimpleStorage.sol\":715:791  function add() public pure returns (uint256){... */\n            tag_5:\n              tag_18\n              tag_19\n              jump\t// in\n            tag_18:\n              mload(0x40)\n              tag_20\n              swap2\n              swap1\n              tag_14\n              jump\t// in\n            tag_20:\n              mload(0x40)\n              dup1\n              swap2\n              sub\n              swap1\n              return\n                /* \"contracts/SimpleStorage.sol\":469:583  function store(uint256 _favoriteNumber) public {... */\n            tag_6:\n              tag_21\n              0x04\n              dup1\n              calldatasize\n              sub\n              dup2\n              add\n              swap1\n              tag_22\n              swap2\n              swap1\n              tag_23\n              jump\t// in\n            tag_22:\n              tag_24\n              jump\t// in\n            tag_21:\n              stop\n                /* \"contracts/SimpleStorage.sol\":837:1073  function addPerson(string memory _name, uint256 _favNum) public {... */\n            tag_7:\n              tag_25\n              0x04\n              dup1\n              calldatasize\n              sub\n              dup2\n              add\n              swap1\n              tag_26\n              swap2\n              swap1\n              tag_27\n              jump\t// in\n            tag_26:\n              tag_28\n              jump\t// in\n            tag_25:\n              stop\n                /* \"contracts/SimpleStorage.sol\":437:459  People[] public people */\n            tag_8:\n              tag_29\n              0x04\n              dup1\n              calldatasize\n              sub\n              dup2\n              add\n              swap1\n              tag_30\n              swap2\n              swap1\n              tag_23\n              jump\t// in\n            tag_30:\n              tag_31\n              jump\t// in\n            tag_29:\n              mload(0x40)\n              tag_32\n              swap3\n              swap2\n              swap1\n              tag_33\n              jump\t// in\n            tag_32:\n              mload(0x40)\n              dup1\n              swap2\n              sub\n              swap1\n              return\n                /* \"contracts/SimpleStorage.sol\":294:340  mapping(string => uint256) public nameToFavNum */\n            tag_12:\n              0x01\n              dup2\n              dup1\n              mload\n              0x20\n              dup2\n              add\n              dup3\n              add\n              dup1\n              mload\n              dup5\n              dup3\n              mstore\n              0x20\n              dup4\n              add\n              0x20\n              dup6\n              add\n              keccak256\n              dup2\n              dup4\n              mstore\n              dup1\n              swap6\n              pop\n              pop\n              pop\n              pop\n              pop\n              pop\n              0x00\n              swap2\n              pop\n              swap1\n              pop\n              sload\n              dup2\n              jump\t// out\n                /* \"contracts/SimpleStorage.sol\":624:706  function retrieve() public view returns (uint256){... */\n            tag_16:\n                /* \"contracts/SimpleStorage.sol\":665:672  uint256 */\n              0x00\n                /* \"contracts/SimpleStorage.sol\":691:697  favNum */\n              dup1\n              sload\n                /* \"contracts/SimpleStorage.sol\":684:697  return favNum */\n              swap1\n              pop\n                /* \"contracts/SimpleStorage.sol\":624:706  function retrieve() public view returns (uint256){... */\n              swap1\n              jump\t// out\n                /* \"contracts/SimpleStorage.sol\":715:791  function add() public pure returns (uint256){... */\n            tag_19:\n                /* \"contracts/SimpleStorage.sol\":751:758  uint256 */\n              0x00\n                /* \"contracts/SimpleStorage.sol\":778:781  1+1 */\n              0x02\n                /* \"contracts/SimpleStorage.sol\":770:782  return (1+1) */\n              swap1\n              pop\n                /* \"contracts/SimpleStorage.sol\":715:791  function add() public pure returns (uint256){... */\n              swap1\n              jump\t// out\n                /* \"contracts/SimpleStorage.sol\":469:583  function store(uint256 _favoriteNumber) public {... */\n            tag_24:\n                /* \"contracts/SimpleStorage.sol\":536:551  _favoriteNumber */\n              dup1\n                /* \"contracts/SimpleStorage.sol\":527:533  favNum */\n              0x00\n                /* \"contracts/SimpleStorage.sol\":527:551  favNum = _favoriteNumber */\n              dup2\n              swap1\n              sstore\n              pop\n                /* \"contracts/SimpleStorage.sol\":573:574  4 */\n              0x04\n                /* \"contracts/SimpleStorage.sol\":562:568  favNum */\n              0x00\n              dup1\n                /* \"contracts/SimpleStorage.sol\":562:574  favNum  += 4 */\n              dup3\n              dup3\n              sload\n              tag_37\n              swap2\n              swap1\n              tag_38\n              jump\t// in\n            tag_37:\n              swap3\n              pop\n              pop\n              dup2\n              swap1\n              sstore\n              pop\n                /* \"contracts/SimpleStorage.sol\":469:583  function store(uint256 _favoriteNumber) public {... */\n              pop\n              jump\t// out\n                /* \"contracts/SimpleStorage.sol\":837:1073  function addPerson(string memory _name, uint256 _favNum) public {... */\n            tag_28:\n                /* \"contracts/SimpleStorage.sol\":989:995  people */\n              0x02\n                /* \"contracts/SimpleStorage.sol\":1001:1023  People(_name, _favNum) */\n              mload(0x40)\n              dup1\n              0x40\n              add\n              0x40\n              mstore\n              dup1\n                /* \"contracts/SimpleStorage.sol\":1008:1013  _name */\n              dup5\n                /* \"contracts/SimpleStorage.sol\":1001:1023  People(_name, _favNum) */\n              dup2\n              mstore\n              0x20\n              add\n                /* \"contracts/SimpleStorage.sol\":1015:1022  _favNum */\n              dup4\n                /* \"contracts/SimpleStorage.sol\":1001:1023  People(_name, _favNum) */\n              dup2\n              mstore\n              pop\n                /* \"contracts/SimpleStorage.sol\":989:1024  people.push(People(_name, _favNum)) */\n              swap1\n              dup1\n              0x01\n              dup2\n              sload\n              add\n              dup1\n              dup3\n              sstore\n              dup1\n              swap2\n              pop\n              pop\n              0x01\n              swap1\n              sub\n              swap1\n              0x00\n              mstore\n              keccak256(0x00, 0x20)\n              swap1\n              0x02\n              mul\n              add\n              0x00\n              swap1\n              swap2\n              swap1\n              swap2\n              swap1\n              swap2\n              pop\n              0x00\n              dup3\n              add\n              mload\n              dup2\n              0x00\n              add\n              swap1\n              dup2\n              tag_41\n              swap2\n              swap1\n              tag_42\n              jump\t// in\n            tag_41:\n              pop\n              0x20\n              dup3\n              add\n              mload\n              dup2\n              0x01\n              add\n              sstore\n              pop\n              pop\n                /* \"contracts/SimpleStorage.sol\":1057:1064  _favNum */\n              dup1\n                /* \"contracts/SimpleStorage.sol\":1035:1047  nameToFavNum */\n              0x01\n                /* \"contracts/SimpleStorage.sol\":1048:1053  _name */\n              dup4\n                /* \"contracts/SimpleStorage.sol\":1035:1054  nameToFavNum[_name] */\n              mload(0x40)\n              tag_43\n              swap2\n              swap1\n              tag_44\n              jump\t// in\n            tag_43:\n              swap1\n              dup2\n              mstore\n              0x20\n              add\n              mload(0x40)\n              dup1\n              swap2\n              sub\n              swap1\n              keccak256\n                /* \"contracts/SimpleStorage.sol\":1035:1064  nameToFavNum[_name] = _favNum */\n              dup2\n              swap1\n              sstore\n              pop\n                /* \"contracts/SimpleStorage.sol\":837:1073  function addPerson(string memory _name, uint256 _favNum) public {... */\n              pop\n              pop\n              jump\t// out\n                /* \"contracts/SimpleStorage.sol\":437:459  People[] public people */\n            tag_31:\n              0x02\n              dup2\n              dup2\n              sload\n              dup2\n              lt\n              tag_45\n              jumpi\n              0x00\n              dup1\n              revert\n            tag_45:\n              swap1\n              0x00\n              mstore\n              keccak256(0x00, 0x20)\n              swap1\n              0x02\n              mul\n              add\n              0x00\n              swap2\n              pop\n              swap1\n              pop\n              dup1\n              0x00\n              add\n              dup1\n              sload\n              tag_47\n              swap1\n              tag_48\n              jump\t// in\n            tag_47:\n              dup1\n              0x1f\n              add\n              0x20\n              dup1\n              swap2\n              div\n              mul\n              0x20\n              add\n              mload(0x40)\n              swap1\n              dup2\n              add\n              0x40\n              mstore\n              dup1\n              swap3\n              swap2\n              swap1\n              dup2\n              dup2\n              mstore\n              0x20\n              add\n              dup3\n              dup1\n              sload\n              tag_49\n              swap1\n              tag_48\n              jump\t// in\n            tag_49:\n              dup1\n              iszero\n              tag_50\n              jumpi\n              dup1\n              0x1f\n              lt\n              tag_51\n              jumpi\n              0x0100\n              dup1\n              dup4\n              sload\n              div\n              mul\n              dup4\n              mstore\n              swap2\n              0x20\n              add\n              swap2\n              jump(tag_50)\n            tag_51:\n              dup3\n              add\n              swap2\n              swap1\n              0x00\n              mstore\n              keccak256(0x00, 0x20)\n              swap1\n            tag_52:\n              dup2\n              sload\n              dup2\n              mstore\n              swap1\n              0x01\n              add\n              swap1\n              0x20\n              add\n              dup1\n              dup4\n              gt\n              tag_52\n              jumpi\n              dup3\n              swap1\n              sub\n              0x1f\n              and\n              dup3\n              add\n              swap2\n            tag_50:\n              pop\n              pop\n              pop\n              pop\n              pop\n              swap1\n              dup1\n              0x01\n              add\n              sload\n              swap1\n              pop\n              dup3\n              jump\t// out\n                /* \"#utility.yul\":7:82   */\n            tag_53:\n                /* \"#utility.yul\":40:46   */\n              0x00\n                /* \"#utility.yul\":73:75   */\n              0x40\n                /* \"#utility.yul\":67:76   */\n              mload\n                /* \"#utility.yul\":57:76   */\n              swap1\n              pop\n                /* \"#utility.yul\":7:82   */\n              swap1\n              jump\t// out\n                /* \"#utility.yul\":88:205   */\n            tag_54:\n                /* \"#utility.yul\":197:198   */\n              0x00\n                /* \"#utility.yul\":194:195   */\n              dup1\n                /* \"#utility.yul\":187:199   */\n              revert\n                /* \"#utility.yul\":211:328   */\n            tag_55:\n                /* \"#utility.yul\":320:321   */\n              0x00\n                /* \"#utility.yul\":317:318   */\n              dup1\n                /* \"#utility.yul\":310:322   */\n              revert\n                /* \"#utility.yul\":334:451   */\n            tag_56:\n                /* \"#utility.yul\":443:444   */\n              0x00\n                /* \"#utility.yul\":440:441   */\n              dup1\n                /* \"#utility.yul\":433:445   */\n              revert\n                /* \"#utility.yul\":457:574   */\n            tag_57:\n                /* \"#utility.yul\":566:567   */\n              0x00\n                /* \"#utility.yul\":563:564   */\n              dup1\n                /* \"#utility.yul\":556:568   */\n              revert\n                /* \"#utility.yul\":580:682   */\n            tag_58:\n                /* \"#utility.yul\":621:627   */\n              0x00\n                /* \"#utility.yul\":672:674   */\n              0x1f\n                /* \"#utility.yul\":668:675   */\n              not\n                /* \"#utility.yul\":663:665   */\n              0x1f\n                /* \"#utility.yul\":656:661   */\n              dup4\n                /* \"#utility.yul\":652:666   */\n              add\n                /* \"#utility.yul\":648:676   */\n              and\n                /* \"#utility.yul\":638:676   */\n              swap1\n              pop\n                /* \"#utility.yul\":580:682   */\n              swap2\n              swap1\n              pop\n              jump\t// out\n                /* \"#utility.yul\":688:868   */\n            tag_59:\n                /* \"#utility.yul\":736:813   */\n              0x4e487b7100000000000000000000000000000000000000000000000000000000\n                /* \"#utility.yul\":733:734   */\n              0x00\n                /* \"#utility.yul\":726:814   */\n              mstore\n                /* \"#utility.yul\":833:837   */\n              0x41\n                /* \"#utility.yul\":830:831   */\n              0x04\n                /* \"#utility.yul\":823:838   */\n              mstore\n                /* \"#utility.yul\":857:861   */\n              0x24\n                /* \"#utility.yul\":854:855   */\n              0x00\n                /* \"#utility.yul\":847:862   */\n              revert\n                /* \"#utility.yul\":874:1155   */\n            tag_60:\n                /* \"#utility.yul\":957:984   */\n              tag_102\n                /* \"#utility.yul\":979:983   */\n              dup3\n                /* \"#utility.yul\":957:984   */\n              tag_58\n              jump\t// in\n            tag_102:\n                /* \"#utility.yul\":949:955   */\n              dup2\n                /* \"#utility.yul\":945:985   */\n              add\n                /* \"#utility.yul\":1087:1093   */\n              dup2\n                /* \"#utility.yul\":1075:1085   */\n              dup2\n                /* \"#utility.yul\":1072:1094   */\n              lt\n                /* \"#utility.yul\":1051:1069   */\n              0xffffffffffffffff\n                /* \"#utility.yul\":1039:1049   */\n              dup3\n                /* \"#utility.yul\":1036:1070   */\n              gt\n                /* \"#utility.yul\":1033:1095   */\n              or\n                /* \"#utility.yul\":1030:1118   */\n              iszero\n              tag_103\n              jumpi\n                /* \"#utility.yul\":1098:1116   */\n              tag_104\n              tag_59\n              jump\t// in\n            tag_104:\n                /* \"#utility.yul\":1030:1118   */\n            tag_103:\n                /* \"#utility.yul\":1138:1148   */\n              dup1\n                /* \"#utility.yul\":1134:1136   */\n              0x40\n                /* \"#utility.yul\":1127:1149   */\n              mstore\n                /* \"#utility.yul\":917:1155   */\n              pop\n                /* \"#utility.yul\":874:1155   */\n              pop\n              pop\n              jump\t// out\n                /* \"#utility.yul\":1161:1290   */\n            tag_61:\n                /* \"#utility.yul\":1195:1201   */\n              0x00\n                /* \"#utility.yul\":1222:1242   */\n              tag_106\n              tag_53\n              jump\t// in\n            tag_106:\n                /* \"#utility.yul\":1212:1242   */\n              swap1\n              pop\n                /* \"#utility.yul\":1251:1284   */\n              tag_107\n                /* \"#utility.yul\":1279:1283   */\n              dup3\n                /* \"#utility.yul\":1271:1277   */\n              dup3\n                /* \"#utility.yul\":1251:1284   */\n              tag_60\n              jump\t// in\n            tag_107:\n                /* \"#utility.yul\":1161:1290   */\n              swap2\n              swap1\n              pop\n              jump\t// out\n                /* \"#utility.yul\":1296:1604   */\n            tag_62:\n                /* \"#utility.yul\":1358:1362   */\n              0x00\n                /* \"#utility.yul\":1448:1466   */\n              0xffffffffffffffff\n                /* \"#utility.yul\":1440:1446   */\n              dup3\n                /* \"#utility.yul\":1437:1467   */\n              gt\n                /* \"#utility.yul\":1434:1490   */\n              iszero\n              tag_109\n              jumpi\n                /* \"#utility.yul\":1470:1488   */\n              tag_110\n              tag_59\n              jump\t// in\n            tag_110:\n                /* \"#utility.yul\":1434:1490   */\n            tag_109:\n                /* \"#utility.yul\":1508:1537   */\n              tag_111\n                /* \"#utility.yul\":1530:1536   */\n              dup3\n                /* \"#utility.yul\":1508:1537   */\n              tag_58\n              jump\t// in\n            tag_111:\n                /* \"#utility.yul\":1500:1537   */\n              swap1\n              pop\n                /* \"#utility.yul\":1592:1596   */\n              0x20\n                /* \"#utility.yul\":1586:1590   */\n              dup2\n                /* \"#utility.yul\":1582:1597   */\n              add\n                /* \"#utility.yul\":1574:1597   */\n              swap1\n              pop\n                /* \"#utility.yul\":1296:1604   */\n              swap2\n              swap1\n              pop\n              jump\t// out\n                /* \"#utility.yul\":1610:1758   */\n            tag_63:\n                /* \"#utility.yul\":1708:1714   */\n              dup3\n                /* \"#utility.yul\":1703:1706   */\n              dup2\n                /* \"#utility.yul\":1698:1701   */\n              dup4\n                /* \"#utility.yul\":1685:1715   */\n              calldatacopy\n                /* \"#utility.yul\":1749:1750   */\n              0x00\n                /* \"#utility.yul\":1740:1746   */\n              dup4\n                /* \"#utility.yul\":1735:1738   */\n              dup4\n                /* \"#utility.yul\":1731:1747   */\n              add\n                /* \"#utility.yul\":1724:1751   */\n              mstore\n                /* \"#utility.yul\":1610:1758   */\n              pop\n              pop\n              pop\n              jump\t// out\n                /* \"#utility.yul\":1764:2189   */\n            tag_64:\n                /* \"#utility.yul\":1842:1847   */\n              0x00\n                /* \"#utility.yul\":1867:1933   */\n              tag_114\n                /* \"#utility.yul\":1883:1932   */\n              tag_115\n                /* \"#utility.yul\":1925:1931   */\n              dup5\n                /* \"#utility.yul\":1883:1932   */\n              tag_62\n              jump\t// in\n            tag_115:\n                /* \"#utility.yul\":1867:1933   */\n              tag_61\n              jump\t// in\n            tag_114:\n                /* \"#utility.yul\":1858:1933   */\n              swap1\n              pop\n                /* \"#utility.yul\":1956:1962   */\n              dup3\n                /* \"#utility.yul\":1949:1954   */\n              dup2\n                /* \"#utility.yul\":1942:1963   */\n              mstore\n                /* \"#utility.yul\":1994:1998   */\n              0x20\n                /* \"#utility.yul\":1987:1992   */\n              dup2\n                /* \"#utility.yul\":1983:1999   */\n              add\n                /* \"#utility.yul\":2032:2035   */\n              dup5\n                /* \"#utility.yul\":2023:2029   */\n              dup5\n                /* \"#utility.yul\":2018:2021   */\n              dup5\n                /* \"#utility.yul\":2014:2030   */\n              add\n                /* \"#utility.yul\":2011:2036   */\n              gt\n                /* \"#utility.yul\":2008:2120   */\n              iszero\n              tag_116\n              jumpi\n                /* \"#utility.yul\":2039:2118   */\n              tag_117\n              tag_57\n              jump\t// in\n            tag_117:\n                /* \"#utility.yul\":2008:2120   */\n            tag_116:\n                /* \"#utility.yul\":2129:2183   */\n              tag_118\n                /* \"#utility.yul\":2176:2182   */\n              dup5\n                /* \"#utility.yul\":2171:2174   */\n              dup3\n                /* \"#utility.yul\":2166:2169   */\n              dup6\n                /* \"#utility.yul\":2129:2183   */\n              tag_63\n              jump\t// in\n            tag_118:\n                /* \"#utility.yul\":1848:2189   */\n              pop\n                /* \"#utility.yul\":1764:2189   */\n              swap4\n              swap3\n              pop\n              pop\n              pop\n              jump\t// out\n                /* \"#utility.yul\":2209:2549   */\n            tag_65:\n                /* \"#utility.yul\":2265:2270   */\n              0x00\n                /* \"#utility.yul\":2314:2317   */\n              dup3\n                /* \"#utility.yul\":2307:2311   */\n              0x1f\n                /* \"#utility.yul\":2299:2305   */\n              dup4\n                /* \"#utility.yul\":2295:2312   */\n              add\n                /* \"#utility.yul\":2291:2318   */\n              slt\n                /* \"#utility.yul\":2281:2403   */\n              tag_120\n              jumpi\n                /* \"#utility.yul\":2322:2401   */\n              tag_121\n              tag_56\n              jump\t// in\n            tag_121:\n                /* \"#utility.yul\":2281:2403   */\n            tag_120:\n                /* \"#utility.yul\":2439:2445   */\n              dup2\n                /* \"#utility.yul\":2426:2446   */\n              calldataload\n                /* \"#utility.yul\":2464:2543   */\n              tag_122\n                /* \"#utility.yul\":2539:2542   */\n              dup5\n                /* \"#utility.yul\":2531:2537   */\n              dup3\n                /* \"#utility.yul\":2524:2528   */\n              0x20\n                /* \"#utility.yul\":2516:2522   */\n              dup7\n                /* \"#utility.yul\":2512:2529   */\n              add\n                /* \"#utility.yul\":2464:2543   */\n              tag_64\n              jump\t// in\n            tag_122:\n                /* \"#utility.yul\":2455:2543   */\n              swap2\n              pop\n                /* \"#utility.yul\":2271:2549   */\n              pop\n                /* \"#utility.yul\":2209:2549   */\n              swap3\n              swap2\n              pop\n              pop\n              jump\t// out\n                /* \"#utility.yul\":2555:3064   */\n            tag_11:\n                /* \"#utility.yul\":2624:2630   */\n              0x00\n                /* \"#utility.yul\":2673:2675   */\n              0x20\n                /* \"#utility.yul\":2661:2670   */\n              dup3\n                /* \"#utility.yul\":2652:2659   */\n              dup5\n                /* \"#utility.yul\":2648:2671   */\n              sub\n                /* \"#utility.yul\":2644:2676   */\n              slt\n                /* \"#utility.yul\":2641:2760   */\n              iszero\n              tag_124\n              jumpi\n                /* \"#utility.yul\":2679:2758   */\n              tag_125\n              tag_54\n              jump\t// in\n            tag_125:\n                /* \"#utility.yul\":2641:2760   */\n            tag_124:\n                /* \"#utility.yul\":2827:2828   */\n              0x00\n                /* \"#utility.yul\":2816:2825   */\n              dup3\n                /* \"#utility.yul\":2812:2829   */\n              add\n                /* \"#utility.yul\":2799:2830   */\n              calldataload\n                /* \"#utility.yul\":2857:2875   */\n              0xffffffffffffffff\n                /* \"#utility.yul\":2849:2855   */\n              dup2\n                /* \"#utility.yul\":2846:2876   */\n              gt\n                /* \"#utility.yul\":2843:2960   */\n              iszero\n              tag_126\n              jumpi\n                /* \"#utility.yul\":2879:2958   */\n              tag_127\n              tag_55\n              jump\t// in\n            tag_127:\n                /* \"#utility.yul\":2843:2960   */\n            tag_126:\n                /* \"#utility.yul\":2984:3047   */\n              tag_128\n                /* \"#utility.yul\":3039:3046   */\n              dup5\n                /* \"#utility.yul\":3030:3036   */\n              dup3\n                /* \"#utility.yul\":3019:3028   */\n              dup6\n                /* \"#utility.yul\":3015:3037   */\n              add\n                /* \"#utility.yul\":2984:3047   */\n              tag_65\n              jump\t// in\n            tag_128:\n                /* \"#utility.yul\":2974:3047   */\n              swap2\n              pop\n                /* \"#utility.yul\":2770:3057   */\n              pop\n                /* \"#utility.yul\":2555:3064   */\n              swap3\n              swap2\n              pop\n              pop\n              jump\t// out\n                /* \"#utility.yul\":3070:3147   */\n            tag_66:\n                /* \"#utility.yul\":3107:3114   */\n              0x00\n                /* \"#utility.yul\":3136:3141   */\n              dup2\n                /* \"#utility.yul\":3125:3141   */\n              swap1\n              pop\n                /* \"#utility.yul\":3070:3147   */\n              swap2\n              swap1\n              pop\n              jump\t// out\n                /* \"#utility.yul\":3153:3271   */\n            tag_67:\n                /* \"#utility.yul\":3240:3264   */\n              tag_131\n                /* \"#utility.yul\":3258:3263   */\n              dup2\n                /* \"#utility.yul\":3240:3264   */\n              tag_66\n              jump\t// in\n            tag_131:\n                /* \"#utility.yul\":3235:3238   */\n              dup3\n                /* \"#utility.yul\":3228:3265   */\n              mstore\n                /* \"#utility.yul\":3153:3271   */\n              pop\n              pop\n              jump\t// out\n                /* \"#utility.yul\":3277:3499   */\n            tag_14:\n                /* \"#utility.yul\":3370:3374   */\n              0x00\n                /* \"#utility.yul\":3408:3410   */\n              0x20\n                /* \"#utility.yul\":3397:3406   */\n              dup3\n                /* \"#utility.yul\":3393:3411   */\n              add\n                /* \"#utility.yul\":3385:3411   */\n              swap1\n              pop\n                /* \"#utility.yul\":3421:3492   */\n              tag_133\n                /* \"#utility.yul\":3489:3490   */\n              0x00\n                /* \"#utility.yul\":3478:3487   */\n              dup4\n                /* \"#utility.yul\":3474:3491   */\n              add\n                /* \"#utility.yul\":3465:3471   */\n              dup5\n                /* \"#utility.yul\":3421:3492   */\n              tag_67\n              jump\t// in\n            tag_133:\n                /* \"#utility.yul\":3277:3499   */\n              swap3\n              swap2\n              pop\n              pop\n              jump\t// out\n                /* \"#utility.yul\":3505:3627   */\n            tag_68:\n                /* \"#utility.yul\":3578:3602   */\n              tag_135\n                /* \"#utility.yul\":3596:3601   */\n              dup2\n                /* \"#utility.yul\":3578:3602   */\n              tag_66\n              jump\t// in\n            tag_135:\n                /* \"#utility.yul\":3571:3576   */\n              dup2\n                /* \"#utility.yul\":3568:3603   */\n              eq\n                /* \"#utility.yul\":3558:3621   */\n              tag_136\n              jumpi\n                /* \"#utility.yul\":3617:3618   */\n              0x00\n                /* \"#utility.yul\":3614:3615   */\n              dup1\n                /* \"#utility.yul\":3607:3619   */\n              revert\n                /* \"#utility.yul\":3558:3621   */\n            tag_136:\n                /* \"#utility.yul\":3505:3627   */\n              pop\n              jump\t// out\n                /* \"#utility.yul\":3633:3772   */\n            tag_69:\n                /* \"#utility.yul\":3679:3684   */\n              0x00\n                /* \"#utility.yul\":3717:3723   */\n              dup2\n                /* \"#utility.yul\":3704:3724   */\n              calldataload\n                /* \"#utility.yul\":3695:3724   */\n              swap1\n              pop\n                /* \"#utility.yul\":3733:3766   */\n              tag_138\n                /* \"#utility.yul\":3760:3765   */\n              dup2\n                /* \"#utility.yul\":3733:3766   */\n              tag_68\n              jump\t// in\n            tag_138:\n                /* \"#utility.yul\":3633:3772   */\n              swap3\n              swap2\n              pop\n              pop\n              jump\t// out\n                /* \"#utility.yul\":3778:4107   */\n            tag_23:\n                /* \"#utility.yul\":3837:3843   */\n              0x00\n                /* \"#utility.yul\":3886:3888   */\n              0x20\n                /* \"#utility.yul\":3874:3883   */\n              dup3\n                /* \"#utility.yul\":3865:3872   */\n              dup5\n                /* \"#utility.yul\":3861:3884   */\n              sub\n                /* \"#utility.yul\":3857:3889   */\n              slt\n                /* \"#utility.yul\":3854:3973   */\n              iszero\n              tag_140\n              jumpi\n                /* \"#utility.yul\":3892:3971   */\n              tag_141\n              tag_54\n              jump\t// in\n            tag_141:\n                /* \"#utility.yul\":3854:3973   */\n            tag_140:\n                /* \"#utility.yul\":4012:4013   */\n              0x00\n                /* \"#utility.yul\":4037:4090   */\n              tag_142\n                /* \"#utility.yul\":4082:4089   */\n              dup5\n                /* \"#utility.yul\":4073:4079   */\n              dup3\n                /* \"#utility.yul\":4062:4071   */\n              dup6\n                /* \"#utility.yul\":4058:4080   */\n              add\n                /* \"#utility.yul\":4037:4090   */\n              tag_69\n              jump\t// in\n            tag_142:\n                /* \"#utility.yul\":4027:4090   */\n              swap2\n              pop\n                /* \"#utility.yul\":3983:4100   */\n              pop\n                /* \"#utility.yul\":3778:4107   */\n              swap3\n              swap2\n              pop\n              pop\n              jump\t// out\n                /* \"#utility.yul\":4113:4767   */\n            tag_27:\n                /* \"#utility.yul\":4191:4197   */\n              0x00\n                /* \"#utility.yul\":4199:4205   */\n              dup1\n                /* \"#utility.yul\":4248:4250   */\n              0x40\n                /* \"#utility.yul\":4236:4245   */\n              dup4\n                /* \"#utility.yul\":4227:4234   */\n              dup6\n                /* \"#utility.yul\":4223:4246   */\n              sub\n                /* \"#utility.yul\":4219:4251   */\n              slt\n                /* \"#utility.yul\":4216:4335   */\n              iszero\n              tag_144\n              jumpi\n                /* \"#utility.yul\":4254:4333   */\n              tag_145\n              tag_54\n              jump\t// in\n            tag_145:\n                /* \"#utility.yul\":4216:4335   */\n            tag_144:\n                /* \"#utility.yul\":4402:4403   */\n              0x00\n                /* \"#utility.yul\":4391:4400   */\n              dup4\n                /* \"#utility.yul\":4387:4404   */\n              add\n                /* \"#utility.yul\":4374:4405   */\n              calldataload\n                /* \"#utility.yul\":4432:4450   */\n              0xffffffffffffffff\n                /* \"#utility.yul\":4424:4430   */\n              dup2\n                /* \"#utility.yul\":4421:4451   */\n              gt\n                /* \"#utility.yul\":4418:4535   */\n              iszero\n              tag_146\n              jumpi\n                /* \"#utility.yul\":4454:4533   */\n              tag_147\n              tag_55\n              jump\t// in\n            tag_147:\n                /* \"#utility.yul\":4418:4535   */\n            tag_146:\n                /* \"#utility.yul\":4559:4622   */\n              tag_148\n                /* \"#utility.yul\":4614:4621   */\n              dup6\n                /* \"#utility.yul\":4605:4611   */\n              dup3\n                /* \"#utility.yul\":4594:4603   */\n              dup7\n                /* \"#utility.yul\":4590:4612   */\n              add\n                /* \"#utility.yul\":4559:4622   */\n              tag_65\n              jump\t// in\n            tag_148:\n                /* \"#utility.yul\":4549:4622   */\n              swap3\n              pop\n                /* \"#utility.yul\":4345:4632   */\n              pop\n                /* \"#utility.yul\":4671:4673   */\n              0x20\n                /* \"#utility.yul\":4697:4750   */\n              tag_149\n                /* \"#utility.yul\":4742:4749   */\n              dup6\n                /* \"#utility.yul\":4733:4739   */\n              dup3\n                /* \"#utility.yul\":4722:4731   */\n              dup7\n                /* \"#utility.yul\":4718:4740   */\n              add\n                /* \"#utility.yul\":4697:4750   */\n              tag_69\n              jump\t// in\n            tag_149:\n                /* \"#utility.yul\":4687:4750   */\n              swap2\n              pop\n                /* \"#utility.yul\":4642:4760   */\n              pop\n                /* \"#utility.yul\":4113:4767   */\n              swap3\n              pop\n              swap3\n              swap1\n              pop\n              jump\t// out\n                /* \"#utility.yul\":4773:4872   */\n            tag_70:\n                /* \"#utility.yul\":4825:4831   */\n              0x00\n                /* \"#utility.yul\":4859:4864   */\n              dup2\n                /* \"#utility.yul\":4853:4865   */\n              mload\n                /* \"#utility.yul\":4843:4865   */\n              swap1\n              pop\n                /* \"#utility.yul\":4773:4872   */\n              swap2\n              swap1\n              pop\n              jump\t// out\n                /* \"#utility.yul\":4878:5047   */\n            tag_71:\n                /* \"#utility.yul\":4962:4973   */\n              0x00\n                /* \"#utility.yul\":4996:5002   */\n              dup3\n                /* \"#utility.yul\":4991:4994   */\n              dup3\n                /* \"#utility.yul\":4984:5003   */\n              mstore\n                /* \"#utility.yul\":5036:5040   */\n              0x20\n                /* \"#utility.yul\":5031:5034   */\n              dup3\n                /* \"#utility.yul\":5027:5041   */\n              add\n                /* \"#utility.yul\":5012:5041   */\n              swap1\n              pop\n                /* \"#utility.yul\":4878:5047   */\n              swap3\n              swap2\n              pop\n              pop\n              jump\t// out\n                /* \"#utility.yul\":5053:5192   */\n            tag_72:\n                /* \"#utility.yul\":5142:5148   */\n              dup3\n                /* \"#utility.yul\":5137:5140   */\n              dup2\n                /* \"#utility.yul\":5132:5135   */\n              dup4\n                /* \"#utility.yul\":5126:5149   */\n              mcopy\n                /* \"#utility.yul\":5183:5184   */\n              0x00\n                /* \"#utility.yul\":5174:5180   */\n              dup4\n                /* \"#utility.yul\":5169:5172   */\n              dup4\n                /* \"#utility.yul\":5165:5181   */\n              add\n                /* \"#utility.yul\":5158:5185   */\n              mstore\n                /* \"#utility.yul\":5053:5192   */\n              pop\n              pop\n              pop\n              jump\t// out\n                /* \"#utility.yul\":5198:5575   */\n            tag_73:\n                /* \"#utility.yul\":5286:5289   */\n              0x00\n                /* \"#utility.yul\":5314:5353   */\n              tag_154\n                /* \"#utility.yul\":5347:5352   */\n              dup3\n                /* \"#utility.yul\":5314:5353   */\n              tag_70\n              jump\t// in\n            tag_154:\n                /* \"#utility.yul\":5369:5440   */\n              tag_155\n                /* \"#utility.yul\":5433:5439   */\n              dup2\n                /* \"#utility.yul\":5428:5431   */\n              dup6\n                /* \"#utility.yul\":5369:5440   */\n              tag_71\n              jump\t// in\n            tag_155:\n                /* \"#utility.yul\":5362:5440   */\n              swap4\n              pop\n                /* \"#utility.yul\":5449:5514   */\n              tag_156\n                /* \"#utility.yul\":5507:5513   */\n              dup2\n                /* \"#utility.yul\":5502:5505   */\n              dup6\n                /* \"#utility.yul\":5495:5499   */\n              0x20\n                /* \"#utility.yul\":5488:5493   */\n              dup7\n                /* \"#utility.yul\":5484:5500   */\n              add\n                /* \"#utility.yul\":5449:5514   */\n              tag_72\n              jump\t// in\n            tag_156:\n                /* \"#utility.yul\":5539:5568   */\n              tag_157\n                /* \"#utility.yul\":5561:5567   */\n              dup2\n                /* \"#utility.yul\":5539:5568   */\n              tag_58\n              jump\t// in\n            tag_157:\n                /* \"#utility.yul\":5534:5537   */\n              dup5\n                /* \"#utility.yul\":5530:5569   */\n              add\n                /* \"#utility.yul\":5523:5569   */\n              swap2\n              pop\n                /* \"#utility.yul\":5290:5575   */\n              pop\n                /* \"#utility.yul\":5198:5575   */\n              swap3\n              swap2\n              pop\n              pop\n              jump\t// out\n                /* \"#utility.yul\":5581:6004   */\n            tag_33:\n                /* \"#utility.yul\":5722:5726   */\n              0x00\n                /* \"#utility.yul\":5760:5762   */\n              0x40\n                /* \"#utility.yul\":5749:5758   */\n              dup3\n                /* \"#utility.yul\":5745:5763   */\n              add\n                /* \"#utility.yul\":5737:5763   */\n              swap1\n              pop\n                /* \"#utility.yul\":5809:5818   */\n              dup2\n                /* \"#utility.yul\":5803:5807   */\n              dup2\n                /* \"#utility.yul\":5799:5819   */\n              sub\n                /* \"#utility.yul\":5795:5796   */\n              0x00\n                /* \"#utility.yul\":5784:5793   */\n              dup4\n                /* \"#utility.yul\":5780:5797   */\n              add\n                /* \"#utility.yul\":5773:5820   */\n              mstore\n                /* \"#utility.yul\":5837:5915   */\n              tag_159\n                /* \"#utility.yul\":5910:5914   */\n              dup2\n                /* \"#utility.yul\":5901:5907   */\n              dup6\n                /* \"#utility.yul\":5837:5915   */\n              tag_73\n              jump\t// in\n            tag_159:\n                /* \"#utility.yul\":5829:5915   */\n              swap1\n              pop\n                /* \"#utility.yul\":5925:5997   */\n              tag_160\n                /* \"#utility.yul\":5993:5995   */\n              0x20\n                /* \"#utility.yul\":5982:5991   */\n              dup4\n                /* \"#utility.yul\":5978:5996   */\n              add\n                /* \"#utility.yul\":5969:5975   */\n              dup5\n                /* \"#utility.yul\":5925:5997   */\n              tag_67\n              jump\t// in\n            tag_160:\n                /* \"#utility.yul\":5581:6004   */\n              swap4\n              swap3\n              pop\n              pop\n              pop\n              jump\t// out\n                /* \"#utility.yul\":6010:6190   */\n            tag_74:\n                /* \"#utility.yul\":6058:6135   */\n              0x4e487b7100000000000000000000000000000000000000000000000000000000\n                /* \"#utility.yul\":6055:6056   */\n              0x00\n                /* \"#utility.yul\":6048:6136   */\n              mstore\n                /* \"#utility.yul\":6155:6159   */\n              0x11\n                /* \"#utility.yul\":6152:6153   */\n              0x04\n                /* \"#utility.yul\":6145:6160   */\n              mstore\n                /* \"#utility.yul\":6179:6183   */\n              0x24\n                /* \"#utility.yul\":6176:6177   */\n              0x00\n                /* \"#utility.yul\":6169:6184   */\n              revert\n                /* \"#utility.yul\":6196:6387   */\n            tag_38:\n                /* \"#utility.yul\":6236:6239   */\n              0x00\n                /* \"#utility.yul\":6255:6275   */\n              tag_163\n                /* \"#utility.yul\":6273:6274   */\n              dup3\n                /* \"#utility.yul\":6255:6275   */\n              tag_66\n              jump\t// in\n            tag_163:\n                /* \"#utility.yul\":6250:6275   */\n              swap2\n              pop\n                /* \"#utility.yul\":6289:6309   */\n              tag_164\n                /* \"#utility.yul\":6307:6308   */\n              dup4\n                /* \"#utility.yul\":6289:6309   */\n              tag_66\n              jump\t// in\n            tag_164:\n                /* \"#utility.yul\":6284:6309   */\n              swap3\n              pop\n                /* \"#utility.yul\":6332:6333   */\n              dup3\n                /* \"#utility.yul\":6329:6330   */\n              dup3\n                /* \"#utility.yul\":6325:6334   */\n              add\n                /* \"#utility.yul\":6318:6334   */\n              swap1\n              pop\n                /* \"#utility.yul\":6353:6356   */\n              dup1\n                /* \"#utility.yul\":6350:6351   */\n              dup3\n                /* \"#utility.yul\":6347:6357   */\n              gt\n                /* \"#utility.yul\":6344:6380   */\n              iszero\n              tag_165\n              jumpi\n                /* \"#utility.yul\":6360:6378   */\n              tag_166\n              tag_74\n              jump\t// in\n            tag_166:\n                /* \"#utility.yul\":6344:6380   */\n            tag_165:\n                /* \"#utility.yul\":6196:6387   */\n              swap3\n              swap2\n              pop\n              pop\n              jump\t// out\n                /* \"#utility.yul\":6393:6573   */\n            tag_75:\n                /* \"#utility.yul\":6441:6518   */\n              0x4e487b7100000000000000000000000000000000000000000000000000000000\n                /* \"#utility.yul\":6438:6439   */\n              0x00\n                /* \"#utility.yul\":6431:6519   */\n              mstore\n                /* \"#utility.yul\":6538:6542   */\n              0x22\n                /* \"#utility.yul\":6535:6536   */\n              0x04\n                /* \"#utility.yul\":6528:6543   */\n              mstore\n                /* \"#utility.yul\":6562:6566   */\n              0x24\n                /* \"#utility.yul\":6559:6560   */\n              0x00\n                /* \"#utility.yul\":6552:6567   */\n              revert\n                /* \"#utility.yul\":6579:6899   */\n            tag_48:\n                /* \"#utility.yul\":6623:6629   */\n              0x00\n                /* \"#utility.yul\":6660:6661   */\n              0x02\n                /* \"#utility.yul\":6654:6658   */\n              dup3\n                /* \"#utility.yul\":6650:6662   */\n              div\n                /* \"#utility.yul\":6640:6662   */\n              swap1\n              pop\n                /* \"#utility.yul\":6707:6708   */\n              0x01\n                /* \"#utility.yul\":6701:6705   */\n              dup3\n                /* \"#utility.yul\":6697:6709   */\n              and\n                /* \"#utility.yul\":6728:6746   */\n              dup1\n                /* \"#utility.yul\":6718:6799   */\n              tag_169\n              jumpi\n                /* \"#utility.yul\":6784:6788   */\n              0x7f\n                /* \"#utility.yul\":6776:6782   */\n              dup3\n                /* \"#utility.yul\":6772:6789   */\n              and\n                /* \"#utility.yul\":6762:6789   */\n              swap2\n              pop\n                /* \"#utility.yul\":6718:6799   */\n            tag_169:\n                /* \"#utility.yul\":6846:6848   */\n              0x20\n                /* \"#utility.yul\":6838:6844   */\n              dup3\n                /* \"#utility.yul\":6835:6849   */\n              lt\n                /* \"#utility.yul\":6815:6833   */\n              dup2\n                /* \"#utility.yul\":6812:6850   */\n              sub\n                /* \"#utility.yul\":6809:6893   */\n              tag_170\n              jumpi\n                /* \"#utility.yul\":6865:6883   */\n              tag_171\n              tag_75\n              jump\t// in\n            tag_171:\n                /* \"#utility.yul\":6809:6893   */\n            tag_170:\n                /* \"#utility.yul\":6630:6899   */\n              pop\n                /* \"#utility.yul\":6579:6899   */\n              swap2\n              swap1\n              pop\n              jump\t// out\n                /* \"#utility.yul\":6905:7046   */\n            tag_76:\n                /* \"#utility.yul\":6954:6958   */\n              0x00\n                /* \"#utility.yul\":6977:6980   */\n              dup2\n                /* \"#utility.yul\":6969:6980   */\n              swap1\n              pop\n                /* \"#utility.yul\":7000:7003   */\n              dup2\n                /* \"#utility.yul\":6997:6998   */\n              0x00\n                /* \"#utility.yul\":6990:7004   */\n              mstore\n                /* \"#utility.yul\":7034:7038   */\n              0x20\n                /* \"#utility.yul\":7031:7032   */\n              0x00\n                /* \"#utility.yul\":7021:7039   */\n              keccak256\n                /* \"#utility.yul\":7013:7039   */\n              swap1\n              pop\n                /* \"#utility.yul\":6905:7046   */\n              swap2\n              swap1\n              pop\n              jump\t// out\n                /* \"#utility.yul\":7052:7145   */\n            tag_77:\n                /* \"#utility.yul\":7089:7095   */\n              0x00\n                /* \"#utility.yul\":7136:7138   */\n              0x20\n                /* \"#utility.yul\":7131:7133   */\n              0x1f\n                /* \"#utility.yul\":7124:7129   */\n              dup4\n                /* \"#utility.yul\":7120:7134   */\n              add\n                /* \"#utility.yul\":7116:7139   */\n              div\n                /* \"#utility.yul\":7106:7139   */\n              swap1\n              pop\n                /* \"#utility.yul\":7052:7145   */\n              swap2\n              swap1\n              pop\n              jump\t// out\n                /* \"#utility.yul\":7151:7258   */\n            tag_78:\n                /* \"#utility.yul\":7195:7203   */\n              0x00\n                /* \"#utility.yul\":7245:7250   */\n              dup3\n                /* \"#utility.yul\":7239:7243   */\n              dup3\n                /* \"#utility.yul\":7235:7251   */\n              shl\n                /* \"#utility.yul\":7214:7251   */\n              swap1\n              pop\n                /* \"#utility.yul\":7151:7258   */\n              swap3\n              swap2\n              pop\n              pop\n              jump\t// out\n                /* \"#utility.yul\":7264:7657   */\n            tag_79:\n                /* \"#utility.yul\":7333:7339   */\n              0x00\n                /* \"#utility.yul\":7383:7384   */\n              0x08\n                /* \"#utility.yul\":7371:7381   */\n              dup4\n                /* \"#utility.yul\":7367:7385   */\n              mul\n                /* \"#utility.yul\":7406:7503   */\n              tag_176\n                /* \"#utility.yul\":7436:7502   */\n              0xffffffffffffffffffffffffffffffffffffffffffffffffffffffffffffffff\n                /* \"#utility.yul\":7425:7434   */\n              dup3\n                /* \"#utility.yul\":7406:7503   */\n              tag_78\n              jump\t// in\n            tag_176:\n                /* \"#utility.yul\":7524:7563   */\n              tag_177\n                /* \"#utility.yul\":7554:7562   */\n              dup7\n                /* \"#utility.yul\":7543:7552   */\n              dup4\n                /* \"#utility.yul\":7524:7563   */\n              tag_78\n              jump\t// in\n            tag_177:\n                /* \"#utility.yul\":7512:7563   */\n              swap6\n              pop\n                /* \"#utility.yul\":7596:7600   */\n              dup1\n                /* \"#utility.yul\":7592:7601   */\n              not\n                /* \"#utility.yul\":7585:7590   */\n              dup5\n                /* \"#utility.yul\":7581:7602   */\n              and\n                /* \"#utility.yul\":7572:7602   */\n              swap4\n              pop\n                /* \"#utility.yul\":7645:7649   */\n              dup1\n                /* \"#utility.yul\":7635:7643   */\n              dup7\n                /* \"#utility.yul\":7631:7650   */\n              and\n                /* \"#utility.yul\":7624:7629   */\n              dup5\n                /* \"#utility.yul\":7621:7651   */\n              or\n                /* \"#utility.yul\":7611:7651   */\n              swap3\n              pop\n                /* \"#utility.yul\":7340:7657   */\n              pop\n              pop\n                /* \"#utility.yul\":7264:7657   */\n              swap4\n              swap3\n              pop\n              pop\n              pop\n              jump\t// out\n                /* \"#utility.yul\":7663:7723   */\n            tag_80:\n                /* \"#utility.yul\":7691:7694   */\n              0x00\n                /* \"#utility.yul\":7712:7717   */\n              dup2\n                /* \"#utility.yul\":7705:7717   */\n              swap1\n              pop\n                /* \"#utility.yul\":7663:7723   */\n              swap2\n              swap1\n              pop\n              jump\t// out\n                /* \"#utility.yul\":7729:7871   */\n            tag_81:\n                /* \"#utility.yul\":7779:7788   */\n              0x00\n                /* \"#utility.yul\":7812:7865   */\n              tag_180\n                /* \"#utility.yul\":7830:7864   */\n              tag_181\n                /* \"#utility.yul\":7839:7863   */\n              tag_182\n                /* \"#utility.yul\":7857:7862   */\n              dup5\n                /* \"#utility.yul\":7839:7863   */\n              tag_66\n              jump\t// in\n            tag_182:\n                /* \"#utility.yul\":7830:7864   */\n              tag_80\n              jump\t// in\n            tag_181:\n                /* \"#utility.yul\":7812:7865   */\n              tag_66\n              jump\t// in\n            tag_180:\n                /* \"#utility.yul\":7799:7865   */\n              swap1\n              pop\n                /* \"#utility.yul\":7729:7871   */\n              swap2\n              swap1\n              pop\n              jump\t// out\n                /* \"#utility.yul\":7877:7952   */\n            tag_82:\n                /* \"#utility.yul\":7920:7923   */\n              0x00\n                /* \"#utility.yul\":7941:7946   */\n              dup2\n                /* \"#utility.yul\":7934:7946   */\n              swap1\n              pop\n                /* \"#utility.yul\":7877:7952   */\n              swap2\n              swap1\n              pop\n              jump\t// out\n                /* \"#utility.yul\":7958:8227   */\n            tag_83:\n                /* \"#utility.yul\":8068:8107   */\n              tag_185\n                /* \"#utility.yul\":8099:8106   */\n              dup4\n                /* \"#utility.yul\":8068:8107   */\n              tag_81\n              jump\t// in\n            tag_185:\n                /* \"#utility.yul\":8129:8220   */\n              tag_186\n                /* \"#utility.yul\":8178:8219   */\n              tag_187\n                /* \"#utility.yul\":8202:8218   */\n              dup3\n                /* \"#utility.yul\":8178:8219   */\n              tag_82\n              jump\t// in\n            tag_187:\n                /* \"#utility.yul\":8170:8176   */\n              dup5\n                /* \"#utility.yul\":8163:8167   */\n              dup5\n                /* \"#utility.yul\":8157:8168   */\n              sload\n                /* \"#utility.yul\":8129:8220   */\n              tag_79\n              jump\t// in\n            tag_186:\n                /* \"#utility.yul\":8123:8127   */\n              dup3\n                /* \"#utility.yul\":8116:8221   */\n              sstore\n                /* \"#utility.yul\":8034:8227   */\n              pop\n                /* \"#utility.yul\":7958:8227   */\n              pop\n              pop\n              pop\n              jump\t// out\n                /* \"#utility.yul\":8233:8306   */\n            tag_84:\n                /* \"#utility.yul\":8278:8281   */\n              0x00\n                /* \"#utility.yul\":8233:8306   */\n              swap1\n              jump\t// out\n                /* \"#utility.yul\":8312:8501   */\n            tag_85:\n                /* \"#utility.yul\":8389:8421   */\n              tag_190\n              tag_84\n              jump\t// in\n            tag_190:\n                /* \"#utility.yul\":8430:8495   */\n              tag_191\n                /* \"#utility.yul\":8488:8494   */\n              dup2\n                /* \"#utility.yul\":8480:8486   */\n              dup5\n                /* \"#utility.yul\":8474:8478   */\n              dup5\n                /* \"#utility.yul\":8430:8495   */\n              tag_83\n              jump\t// in\n            tag_191:\n                /* \"#utility.yul\":8365:8501   */\n              pop\n                /* \"#utility.yul\":8312:8501   */\n              pop\n              pop\n              jump\t// out\n                /* \"#utility.yul\":8507:8693   */\n            tag_86:\n                /* \"#utility.yul\":8567:8687   */\n            tag_193:\n                /* \"#utility.yul\":8584:8587   */\n              dup2\n                /* \"#utility.yul\":8577:8582   */\n              dup2\n                /* \"#utility.yul\":8574:8588   */\n              lt\n                /* \"#utility.yul\":8567:8687   */\n              iszero\n              tag_195\n              jumpi\n                /* \"#utility.yul\":8638:8677   */\n              tag_196\n                /* \"#utility.yul\":8675:8676   */\n              0x00\n                /* \"#utility.yul\":8668:8673   */\n              dup3\n                /* \"#utility.yul\":8638:8677   */\n              tag_85\n              jump\t// in\n            tag_196:\n                /* \"#utility.yul\":8611:8612   */\n              0x01\n                /* \"#utility.yul\":8604:8609   */\n              dup2\n                /* \"#utility.yul\":8600:8613   */\n              add\n                /* \"#utility.yul\":8591:8613   */\n              swap1\n              pop\n                /* \"#utility.yul\":8567:8687   */\n              jump(tag_193)\n            tag_195:\n                /* \"#utility.yul\":8507:8693   */\n              pop\n              pop\n              jump\t// out\n                /* \"#utility.yul\":8699:9242   */\n            tag_87:\n                /* \"#utility.yul\":8800:8802   */\n              0x1f\n                /* \"#utility.yul\":8795:8798   */\n              dup3\n                /* \"#utility.yul\":8792:8803   */\n              gt\n                /* \"#utility.yul\":8789:9235   */\n              iszero\n              tag_198\n              jumpi\n                /* \"#utility.yul\":8834:8872   */\n              tag_199\n                /* \"#utility.yul\":8866:8871   */\n              dup2\n                /* \"#utility.yul\":8834:8872   */\n              tag_76\n              jump\t// in\n            tag_199:\n                /* \"#utility.yul\":8918:8947   */\n              tag_200\n                /* \"#utility.yul\":8936:8946   */\n              dup5\n                /* \"#utility.yul\":8918:8947   */\n              tag_77\n              jump\t// in\n            tag_200:\n                /* \"#utility.yul\":8908:8916   */\n              dup2\n                /* \"#utility.yul\":8904:8948   */\n              add\n                /* \"#utility.yul\":9101:9103   */\n              0x20\n                /* \"#utility.yul\":9089:9099   */\n              dup6\n                /* \"#utility.yul\":9086:9104   */\n              lt\n                /* \"#utility.yul\":9083:9132   */\n              iszero\n              tag_201\n              jumpi\n                /* \"#utility.yul\":9122:9130   */\n              dup2\n                /* \"#utility.yul\":9107:9130   */\n              swap1\n              pop\n                /* \"#utility.yul\":9083:9132   */\n            tag_201:\n                /* \"#utility.yul\":9145:9225   */\n              tag_202\n                /* \"#utility.yul\":9201:9223   */\n              tag_203\n                /* \"#utility.yul\":9219:9222   */\n              dup6\n                /* \"#utility.yul\":9201:9223   */\n              tag_77\n              jump\t// in\n            tag_203:\n                /* \"#utility.yul\":9191:9199   */\n              dup4\n                /* \"#utility.yul\":9187:9224   */\n              add\n                /* \"#utility.yul\":9174:9185   */\n              dup3\n                /* \"#utility.yul\":9145:9225   */\n              tag_86\n              jump\t// in\n            tag_202:\n                /* \"#utility.yul\":8804:9235   */\n              pop\n              pop\n                /* \"#utility.yul\":8789:9235   */\n            tag_198:\n                /* \"#utility.yul\":8699:9242   */\n              pop\n              pop\n              pop\n              jump\t// out\n                /* \"#utility.yul\":9248:9365   */\n            tag_88:\n                /* \"#utility.yul\":9302:9310   */\n              0x00\n                /* \"#utility.yul\":9352:9357   */\n              dup3\n                /* \"#utility.yul\":9346:9350   */\n              dup3\n                /* \"#utility.yul\":9342:9358   */\n              shr\n                /* \"#utility.yul\":9321:9358   */\n              swap1\n              pop\n                /* \"#utility.yul\":9248:9365   */\n              swap3\n              swap2\n              pop\n              pop\n              jump\t// out\n                /* \"#utility.yul\":9371:9540   */\n            tag_89:\n                /* \"#utility.yul\":9415:9421   */\n              0x00\n                /* \"#utility.yul\":9448:9499   */\n              tag_206\n                /* \"#utility.yul\":9496:9497   */\n              0x00\n                /* \"#utility.yul\":9492:9498   */\n              not\n                /* \"#utility.yul\":9484:9489   */\n              dup5\n                /* \"#utility.yul\":9481:9482   */\n              0x08\n                /* \"#utility.yul\":9477:9490   */\n              mul\n                /* \"#utility.yul\":9448:9499   */\n              tag_88\n              jump\t// in\n            tag_206:\n                /* \"#utility.yul\":9444:9500   */\n              not\n                /* \"#utility.yul\":9529:9533   */\n              dup1\n                /* \"#utility.yul\":9523:9527   */\n              dup4\n                /* \"#utility.yul\":9519:9534   */\n              and\n                /* \"#utility.yul\":9509:9534   */\n              swap2\n              pop\n                /* \"#utility.yul\":9422:9540   */\n              pop\n                /* \"#utility.yul\":9371:9540   */\n              swap3\n              swap2\n              pop\n              pop\n              jump\t// out\n                /* \"#utility.yul\":9545:9840   */\n            tag_90:\n                /* \"#utility.yul\":9621:9625   */\n              0x00\n                /* \"#utility.yul\":9767:9796   */\n              tag_208\n                /* \"#utility.yul\":9792:9795   */\n              dup4\n                /* \"#utility.yul\":9786:9790   */\n              dup4\n                /* \"#utility.yul\":9767:9796   */\n              tag_89\n              jump\t// in\n            tag_208:\n                /* \"#utility.yul\":9759:9796   */\n              swap2\n              pop\n                /* \"#utility.yul\":9829:9832   */\n              dup3\n                /* \"#utility.yul\":9826:9827   */\n              0x02\n                /* \"#utility.yul\":9822:9833   */\n              mul\n                /* \"#utility.yul\":9816:9820   */\n              dup3\n                /* \"#utility.yul\":9813:9834   */\n              or\n                /* \"#utility.yul\":9805:9834   */\n              swap1\n              pop\n                /* \"#utility.yul\":9545:9840   */\n              swap3\n              swap2\n              pop\n              pop\n              jump\t// out\n                /* \"#utility.yul\":9845:11240   */\n            tag_42:\n                /* \"#utility.yul\":9962:9999   */\n              tag_210\n                /* \"#utility.yul\":9995:9998   */\n              dup3\n                /* \"#utility.yul\":9962:9999   */\n              tag_70\n              jump\t// in\n            tag_210:\n                /* \"#utility.yul\":10064:10082   */\n              0xffffffffffffffff\n                /* \"#utility.yul\":10056:10062   */\n              dup2\n                /* \"#utility.yul\":10053:10083   */\n              gt\n                /* \"#utility.yul\":10050:10106   */\n              iszero\n              tag_211\n              jumpi\n                /* \"#utility.yul\":10086:10104   */\n              tag_212\n              tag_59\n              jump\t// in\n            tag_212:\n                /* \"#utility.yul\":10050:10106   */\n            tag_211:\n                /* \"#utility.yul\":10130:10168   */\n              tag_213\n                /* \"#utility.yul\":10162:10166   */\n              dup3\n                /* \"#utility.yul\":10156:10167   */\n              sload\n                /* \"#utility.yul\":10130:10168   */\n              tag_48\n              jump\t// in\n            tag_213:\n                /* \"#utility.yul\":10215:10282   */\n              tag_214\n                /* \"#utility.yul\":10275:10281   */\n              dup3\n                /* \"#utility.yul\":10267:10273   */\n              dup3\n                /* \"#utility.yul\":10261:10265   */\n              dup6\n                /* \"#utility.yul\":10215:10282   */\n              tag_87\n              jump\t// in\n            tag_214:\n                /* \"#utility.yul\":10309:10310   */\n              0x00\n                /* \"#utility.yul\":10333:10337   */\n              0x20\n                /* \"#utility.yul\":10320:10337   */\n              swap1\n              pop\n                /* \"#utility.yul\":10365:10367   */\n              0x1f\n                /* \"#utility.yul\":10357:10363   */\n              dup4\n                /* \"#utility.yul\":10354:10368   */\n              gt\n                /* \"#utility.yul\":10382:10383   */\n              0x01\n                /* \"#utility.yul\":10377:10995   */\n              dup2\n              eq\n              tag_216\n              jumpi\n                /* \"#utility.yul\":11039:11040   */\n              0x00\n                /* \"#utility.yul\":11056:11062   */\n              dup5\n                /* \"#utility.yul\":11053:11130   */\n              iszero\n              tag_217\n              jumpi\n                /* \"#utility.yul\":11105:11114   */\n              dup3\n                /* \"#utility.yul\":11100:11103   */\n              dup8\n                /* \"#utility.yul\":11096:11115   */\n              add\n                /* \"#utility.yul\":11090:11116   */\n              mload\n                /* \"#utility.yul\":11081:11116   */\n              swap1\n              pop\n                /* \"#utility.yul\":11053:11130   */\n            tag_217:\n                /* \"#utility.yul\":11156:11223   */\n              tag_218\n                /* \"#utility.yul\":11216:11222   */\n              dup6\n                /* \"#utility.yul\":11209:11214   */\n              dup3\n                /* \"#utility.yul\":11156:11223   */\n              tag_90\n              jump\t// in\n            tag_218:\n                /* \"#utility.yul\":11150:11154   */\n              dup7\n                /* \"#utility.yul\":11143:11224   */\n              sstore\n                /* \"#utility.yul\":11012:11234   */\n              pop\n                /* \"#utility.yul\":10347:11234   */\n              jump(tag_215)\n                /* \"#utility.yul\":10377:10995   */\n            tag_216:\n                /* \"#utility.yul\":10429:10433   */\n              0x1f\n                /* \"#utility.yul\":10425:10434   */\n              not\n                /* \"#utility.yul\":10417:10423   */\n              dup5\n                /* \"#utility.yul\":10413:10435   */\n              and\n                /* \"#utility.yul\":10463:10500   */\n              tag_219\n                /* \"#utility.yul\":10495:10499   */\n              dup7\n                /* \"#utility.yul\":10463:10500   */\n              tag_76\n              jump\t// in\n            tag_219:\n                /* \"#utility.yul\":10522:10523   */\n              0x00\n                /* \"#utility.yul\":10536:10744   */\n            tag_220:\n                /* \"#utility.yul\":10550:10557   */\n              dup3\n                /* \"#utility.yul\":10547:10548   */\n              dup2\n                /* \"#utility.yul\":10544:10558   */\n              lt\n                /* \"#utility.yul\":10536:10744   */\n              iszero\n              tag_222\n              jumpi\n                /* \"#utility.yul\":10629:10638   */\n              dup5\n                /* \"#utility.yul\":10624:10627   */\n              dup10\n                /* \"#utility.yul\":10620:10639   */\n              add\n                /* \"#utility.yul\":10614:10640   */\n              mload\n                /* \"#utility.yul\":10606:10612   */\n              dup3\n                /* \"#utility.yul\":10599:10641   */\n              sstore\n                /* \"#utility.yul\":10680:10681   */\n              0x01\n                /* \"#utility.yul\":10672:10678   */\n              dup3\n                /* \"#utility.yul\":10668:10682   */\n              add\n                /* \"#utility.yul\":10658:10682   */\n              swap2\n              pop\n                /* \"#utility.yul\":10727:10729   */\n              0x20\n                /* \"#utility.yul\":10716:10725   */\n              dup6\n                /* \"#utility.yul\":10712:10730   */\n              add\n                /* \"#utility.yul\":10699:10730   */\n              swap5\n              pop\n                /* \"#utility.yul\":10573:10577   */\n              0x20\n                /* \"#utility.yul\":10570:10571   */\n              dup2\n                /* \"#utility.yul\":10566:10578   */\n              add\n                /* \"#utility.yul\":10561:10578   */\n              swap1\n              pop\n                /* \"#utility.yul\":10536:10744   */\n              jump(tag_220)\n            tag_222:\n                /* \"#utility.yul\":10772:10778   */\n              dup7\n                /* \"#utility.yul\":10763:10770   */\n              dup4\n                /* \"#utility.yul\":10760:10779   */\n              lt\n                /* \"#utility.yul\":10757:10936   */\n              iszero\n              tag_223\n              jumpi\n                /* \"#utility.yul\":10830:10839   */\n              dup5\n                /* \"#utility.yul\":10825:10828   */\n              dup10\n                /* \"#utility.yul\":10821:10840   */\n              add\n                /* \"#utility.yul\":10815:10841   */\n              mload\n                /* \"#utility.yul\":10873:10921   */\n              tag_224\n                /* \"#utility.yul\":10915:10919   */\n              0x1f\n                /* \"#utility.yul\":10907:10913   */\n              dup10\n                /* \"#utility.yul\":10903:10920   */\n              and\n                /* \"#utility.yul\":10892:10901   */\n              dup3\n                /* \"#utility.yul\":10873:10921   */\n              tag_89\n              jump\t// in\n            tag_224:\n                /* \"#utility.yul\":10865:10871   */\n              dup4\n                /* \"#utility.yul\":10858:10922   */\n              sstore\n                /* \"#utility.yul\":10780:10936   */\n              pop\n                /* \"#utility.yul\":10757:10936   */\n            tag_223:\n                /* \"#utility.yul\":10982:10983   */\n              0x01\n                /* \"#utility.yul\":10978:10979   */\n              0x02\n                /* \"#utility.yul\":10970:10976   */\n              dup9\n                /* \"#utility.yul\":10966:10980   */\n              mul\n                /* \"#utility.yul\":10962:10984   */\n              add\n                /* \"#utility.yul\":10956:10960   */\n              dup9\n                /* \"#utility.yul\":10949:10985   */\n              sstore\n                /* \"#utility.yul\":10384:10995   */\n              pop\n              pop\n              pop\n                /* \"#utility.yul\":10347:11234   */\n            tag_215:\n              pop\n                /* \"#utility.yul\":9937:11240   */\n              pop\n              pop\n              pop\n                /* \"#utility.yul\":9845:11240   */\n              pop\n              pop\n              jump\t// out\n                /* \"#utility.yul\":11246:11394   */\n            tag_91:\n                /* \"#utility.yul\":11348:11359   */\n              0x00\n                /* \"#utility.yul\":11385:11388   */\n              dup2\n                /* \"#utility.yul\":11370:11388   */\n              swap1\n              pop\n                /* \"#utility.yul\":11246:11394   */\n              swap3\n              swap2\n              pop\n              pop\n              jump\t// out\n                /* \"#utility.yul\":11400:11790   */\n            tag_92:\n                /* \"#utility.yul\":11506:11509   */\n              0x00\n                /* \"#utility.yul\":11534:11573   */\n              tag_227\n                /* \"#utility.yul\":11567:11572   */\n              dup3\n                /* \"#utility.yul\":11534:11573   */\n              tag_70\n              jump\t// in\n            tag_227:\n                /* \"#utility.yul\":11589:11678   */\n              tag_228\n                /* \"#utility.yul\":11671:11677   */\n              dup2\n                /* \"#utility.yul\":11666:11669   */\n              dup6\n                /* \"#utility.yul\":11589:11678   */\n              tag_91\n              jump\t// in\n            tag_228:\n                /* \"#utility.yul\":11582:11678   */\n              swap4\n              pop\n                /* \"#utility.yul\":11687:11752   */\n              tag_229\n                /* \"#utility.yul\":11745:11751   */\n              dup2\n                /* \"#utility.yul\":11740:11743   */\n              dup6\n                /* \"#utility.yul\":11733:11737   */\n              0x20\n                /* \"#utility.yul\":11726:11731   */\n              dup7\n                /* \"#utility.yul\":11722:11738   */\n              add\n                /* \"#utility.yul\":11687:11752   */\n              tag_72\n              jump\t// in\n            tag_229:\n                /* \"#utility.yul\":11777:11783   */\n              dup1\n                /* \"#utility.yul\":11772:11775   */\n              dup5\n                /* \"#utility.yul\":11768:11784   */\n              add\n                /* \"#utility.yul\":11761:11784   */\n              swap2\n              pop\n                /* \"#utility.yul\":11510:11790   */\n              pop\n                /* \"#utility.yul\":11400:11790   */\n              swap3\n              swap2\n              pop\n              pop\n              jump\t// out\n                /* \"#utility.yul\":11796:12071   */\n            tag_44:\n                /* \"#utility.yul\":11928:11931   */\n              0x00\n                /* \"#utility.yul\":11950:12045   */\n              tag_231\n                /* \"#utility.yul\":12041:12044   */\n              dup3\n                /* \"#utility.yul\":12032:12038   */\n              dup5\n                /* \"#utility.yul\":11950:12045   */\n              tag_92\n              jump\t// in\n            tag_231:\n                /* \"#utility.yul\":11943:12045   */\n              swap2\n              pop\n                /* \"#utility.yul\":12062:12065   */\n              dup2\n                /* \"#utility.yul\":12055:12065   */\n              swap1\n              pop\n                /* \"#utility.yul\":11796:12071   */\n              swap3\n              swap2\n              pop\n              pop\n              jump\t// out\n\n            auxdata: 0xa264697066735822122083531358eaf45f4f586c42da8c135d7cfc2ffa7ad7796899943c158f5f7d1e8764736f6c634300081a0033\n        }\n    }\n\n    auxdata: 0xa26469706673582212207ecf38a73d61e65b130919c662ee74b999a0ee6863ebd4281f71ec06ce9dfdcb64736f6c634300081a0033\n}\n",
				"bytecode": {
					"linkReferences": {},
					"object": "6080604052348015600e575f80fd5b50610f8c8061001c5f395ff3fe608060405234801561000f575f80fd5b5060043610610055575f3560e01c806303491761146100595780631563700f146100895780631dda6541146100a557806364591bf1146100af578063c5f19c20146100df575b5f80fd5b610073600480360381019061006e9190610429565b61010f565b6040516100809190610463565b60405180910390f35b6100a3600480360381019061009e919061047c565b6101c3565b005b6100ad61026c565b005b6100c960048036038101906100c49190610429565b6102f7565b6040516100d69190610534565b60405180910390f35b6100f960048036038101906100f49190610429565b610331565b6040516101069190610463565b60405180910390f35b5f805f83815481106101245761012361054d565b5b905f5260205f20015f9054906101000a900473ffffffffffffffffffffffffffffffffffffffff1690508073ffffffffffffffffffffffffffffffffffffffff16634f2be91f6040518163ffffffff1660e01b8152600401602060405180830381865afa158015610197573d5f803e3d5ffd5b505050506040513d601f19601f820116820180604052508101906101bb919061058e565b915050919050565b5f8083815481106101d7576101d661054d565b5b905f5260205f20015f9054906101000a900473ffffffffffffffffffffffffffffffffffffffff1690508073ffffffffffffffffffffffffffffffffffffffff16636057361d836040518263ffffffff1660e01b815260040161023a9190610463565b5f604051808303815f87803b158015610251575f80fd5b505af1158015610263573d5f803e3d5ffd5b50505050505050565b5f604051610279906103e5565b604051809103905ff080158015610292573d5f803e3d5ffd5b5090505f81908060018154018082558091505060019003905f5260205f20015f9091909190916101000a81548173ffffffffffffffffffffffffffffffffffffffff021916908373ffffffffffffffffffffffffffffffffffffffff16021790555050565b5f8181548110610305575f80fd5b905f5260205f20015f915054906101000a900473ffffffffffffffffffffffffffffffffffffffff1681565b5f805f83815481106103465761034561054d565b5b905f5260205f20015f9054906101000a900473ffffffffffffffffffffffffffffffffffffffff1690508073ffffffffffffffffffffffffffffffffffffffff16632e64cec16040518163ffffffff1660e01b8152600401602060405180830381865afa1580156103b9573d5f803e3d5ffd5b505050506040513d601f19601f820116820180604052508101906103dd919061058e565b915050919050565b61099d806105ba83390190565b5f80fd5b5f819050919050565b610408816103f6565b8114610412575f80fd5b50565b5f81359050610423816103ff565b92915050565b5f6020828403121561043e5761043d6103f2565b5b5f61044b84828501610415565b91505092915050565b61045d816103f6565b82525050565b5f6020820190506104765f830184610454565b92915050565b5f8060408385031215610492576104916103f2565b5b5f61049f85828601610415565b92505060206104b085828601610415565b9150509250929050565b5f73ffffffffffffffffffffffffffffffffffffffff82169050919050565b5f819050919050565b5f6104fc6104f76104f2846104ba565b6104d9565b6104ba565b9050919050565b5f61050d826104e2565b9050919050565b5f61051e82610503565b9050919050565b61052e81610514565b82525050565b5f6020820190506105475f830184610525565b92915050565b7f4e487b71000000000000000000000000000000000000000000000000000000005f52603260045260245ffd5b5f81519050610588816103ff565b92915050565b5f602082840312156105a3576105a26103f2565b5b5f6105b08482850161057a565b9150509291505056fe6080604052348015600e575f80fd5b506109818061001c5f395ff3fe608060405234801561000f575f80fd5b5060043610610060575f3560e01c806306c62c2c146100645780632e64cec1146100945780634f2be91f146100b25780636057361d146100d05780636f760f41146100ec5780639e7a13ad14610108575b5f80fd5b61007e6004803603810190610079919061041d565b610139565b60405161008b919061047c565b60405180910390f35b61009c610166565b6040516100a9919061047c565b60405180910390f35b6100ba61016e565b6040516100c7919061047c565b60405180910390f35b6100ea60048036038101906100e591906104bf565b610176565b005b610106600480360381019061010191906104ea565b610197565b005b610122600480360381019061011d91906104bf565b61021b565b6040516101309291906105a4565b60405180910390f35b6001818051602081018201805184825260208301602085012081835280955050505050505f915090505481565b5f8054905090565b5f6002905090565b805f8190555060045f8082825461018d91906105ff565b9250508190555050565b6002604051806040016040528084815260200183815250908060018154018082558091505060019003905f5260205f2090600202015f909190919091505f820151815f0190816101e7919061082c565b50602082015181600101555050806001836040516102059190610935565b9081526020016040518091039020819055505050565b6002818154811061022a575f80fd5b905f5260205f2090600202015f91509050805f0180546102499061065f565b80601f01602080910402602001604051908101604052809291908181526020018280546102759061065f565b80156102c05780601f10610297576101008083540402835291602001916102c0565b820191905f5260205f20905b8154815290600101906020018083116102a357829003601f168201915b5050505050908060010154905082565b5f604051905090565b5f80fd5b5f80fd5b5f80fd5b5f80fd5b5f601f19601f8301169050919050565b7f4e487b71000000000000000000000000000000000000000000000000000000005f52604160045260245ffd5b61032f826102e9565b810181811067ffffffffffffffff8211171561034e5761034d6102f9565b5b80604052505050565b5f6103606102d0565b905061036c8282610326565b919050565b5f67ffffffffffffffff82111561038b5761038a6102f9565b5b610394826102e9565b9050602081019050919050565b828183375f83830152505050565b5f6103c16103bc84610371565b610357565b9050828152602081018484840111156103dd576103dc6102e5565b5b6103e88482856103a1565b509392505050565b5f82601f830112610404576104036102e1565b5b81356104148482602086016103af565b91505092915050565b5f60208284031215610432576104316102d9565b5b5f82013567ffffffffffffffff81111561044f5761044e6102dd565b5b61045b848285016103f0565b91505092915050565b5f819050919050565b61047681610464565b82525050565b5f60208201905061048f5f83018461046d565b92915050565b61049e81610464565b81146104a8575f80fd5b50565b5f813590506104b981610495565b92915050565b5f602082840312156104d4576104d36102d9565b5b5f6104e1848285016104ab565b91505092915050565b5f8060408385031215610500576104ff6102d9565b5b5f83013567ffffffffffffffff81111561051d5761051c6102dd565b5b610529858286016103f0565b925050602061053a858286016104ab565b9150509250929050565b5f81519050919050565b5f82825260208201905092915050565b8281835e5f83830152505050565b5f61057682610544565b610580818561054e565b935061059081856020860161055e565b610599816102e9565b840191505092915050565b5f6040820190508181035f8301526105bc818561056c565b90506105cb602083018461046d565b9392505050565b7f4e487b71000000000000000000000000000000000000000000000000000000005f52601160045260245ffd5b5f61060982610464565b915061061483610464565b925082820190508082111561062c5761062b6105d2565b5b92915050565b7f4e487b71000000000000000000000000000000000000000000000000000000005f52602260045260245ffd5b5f600282049050600182168061067657607f821691505b60208210810361068957610688610632565b5b50919050565b5f819050815f5260205f209050919050565b5f6020601f8301049050919050565b5f82821b905092915050565b5f600883026106eb7fffffffffffffffffffffffffffffffffffffffffffffffffffffffffffffffff826106b0565b6106f586836106b0565b95508019841693508086168417925050509392505050565b5f819050919050565b5f61073061072b61072684610464565b61070d565b610464565b9050919050565b5f819050919050565b61074983610716565b61075d61075582610737565b8484546106bc565b825550505050565b5f90565b610771610765565b61077c818484610740565b505050565b5b8181101561079f576107945f82610769565b600181019050610782565b5050565b601f8211156107e4576107b58161068f565b6107be846106a1565b810160208510156107cd578190505b6107e16107d9856106a1565b830182610781565b50505b505050565b5f82821c905092915050565b5f6108045f19846008026107e9565b1980831691505092915050565b5f61081c83836107f5565b9150826002028217905092915050565b61083582610544565b67ffffffffffffffff81111561084e5761084d6102f9565b5b610858825461065f565b6108638282856107a3565b5f60209050601f831160018114610894575f8415610882578287015190505b61088c8582610811565b8655506108f3565b601f1984166108a28661068f565b5f5b828110156108c9578489015182556001820191506020850194506020810190506108a4565b868310156108e657848901516108e2601f8916826107f5565b8355505b6001600288020188555050505b505050505050565b5f81905092915050565b5f61090f82610544565b61091981856108fb565b935061092981856020860161055e565b80840191505092915050565b5f6109408284610905565b91508190509291505056fea264697066735822122083531358eaf45f4f586c42da8c135d7cfc2ffa7ad7796899943c158f5f7d1e8764736f6c634300081a0033a26469706673582212207ecf38a73d61e65b130919c662ee74b999a0ee6863ebd4281f71ec06ce9dfdcb64736f6c634300081a0033",
					"opcodes": "PUSH1 0x80 PUSH1 0x40 MSTORE CALLVALUE DUP1 ISZERO PUSH1 0xE JUMPI PUSH0 DUP1 REVERT JUMPDEST POP PUSH2 0xF8C DUP1 PUSH2 0x1C PUSH0 CODECOPY PUSH0 RETURN INVALID PUSH1 0x80 PUSH1 0x40 MSTORE CALLVALUE DUP1 ISZERO PUSH2 0xF JUMPI PUSH0 DUP1 REVERT JUMPDEST POP PUSH1 0x4 CALLDATASIZE LT PUSH2 0x55 JUMPI PUSH0 CALLDATALOAD PUSH1 0xE0 SHR DUP1 PUSH4 0x3491761 EQ PUSH2 0x59 JUMPI DUP1 PUSH4 0x1563700F EQ PUSH2 0x89 JUMPI DUP1 PUSH4 0x1DDA6541 EQ PUSH2 0xA5 JUMPI DUP1 PUSH4 0x64591BF1 EQ PUSH2 0xAF JUMPI DUP1 PUSH4 0xC5F19C20 EQ PUSH2 0xDF JUMPI JUMPDEST PUSH0 DUP1 REVERT JUMPDEST PUSH2 0x73 PUSH1 0x4 DUP1 CALLDATASIZE SUB DUP2 ADD SWAP1 PUSH2 0x6E SWAP2 SWAP1 PUSH2 0x429 JUMP JUMPDEST PUSH2 0x10F JUMP JUMPDEST PUSH1 0x40 MLOAD PUSH2 0x80 SWAP2 SWAP1 PUSH2 0x463 JUMP JUMPDEST PUSH1 0x40 MLOAD DUP1 SWAP2 SUB SWAP1 RETURN JUMPDEST PUSH2 0xA3 PUSH1 0x4 DUP1 CALLDATASIZE SUB DUP2 ADD SWAP1 PUSH2 0x9E SWAP2 SWAP1 PUSH2 0x47C JUMP JUMPDEST PUSH2 0x1C3 JUMP JUMPDEST STOP JUMPDEST PUSH2 0xAD PUSH2 0x26C JUMP JUMPDEST STOP JUMPDEST PUSH2 0xC9 PUSH1 0x4 DUP1 CALLDATASIZE SUB DUP2 ADD SWAP1 PUSH2 0xC4 SWAP2 SWAP1 PUSH2 0x429 JUMP JUMPDEST PUSH2 0x2F7 JUMP JUMPDEST PUSH1 0x40 MLOAD PUSH2 0xD6 SWAP2 SWAP1 PUSH2 0x534 JUMP JUMPDEST PUSH1 0x40 MLOAD DUP1 SWAP2 SUB SWAP1 RETURN JUMPDEST PUSH2 0xF9 PUSH1 0x4 DUP1 CALLDATASIZE SUB DUP2 ADD SWAP1 PUSH2 0xF4 SWAP2 SWAP1 PUSH2 0x429 JUMP JUMPDEST PUSH2 0x331 JUMP JUMPDEST PUSH1 0x40 MLOAD PUSH2 0x106 SWAP2 SWAP1 PUSH2 0x463 JUMP JUMPDEST PUSH1 0x40 MLOAD DUP1 SWAP2 SUB SWAP1 RETURN JUMPDEST PUSH0 DUP1 PUSH0 DUP4 DUP2 SLOAD DUP2 LT PUSH2 0x124 JUMPI PUSH2 0x123 PUSH2 0x54D JUMP JUMPDEST JUMPDEST SWAP1 PUSH0 MSTORE PUSH1 0x20 PUSH0 KECCAK256 ADD PUSH0 SWAP1 SLOAD SWAP1 PUSH2 0x100 EXP SWAP1 DIV PUSH20 0xFFFFFFFFFFFFFFFFFFFFFFFFFFFFFFFFFFFFFFFF AND SWAP1 POP DUP1 PUSH20 0xFFFFFFFFFFFFFFFFFFFFFFFFFFFFFFFFFFFFFFFF AND PUSH4 0x4F2BE91F PUSH1 0x40 MLOAD DUP2 PUSH4 0xFFFFFFFF AND PUSH1 0xE0 SHL DUP2 MSTORE PUSH1 0x4 ADD PUSH1 0x20 PUSH1 0x40 MLOAD DUP1 DUP4 SUB DUP2 DUP7 GAS STATICCALL ISZERO DUP1 ISZERO PUSH2 0x197 JUMPI RETURNDATASIZE PUSH0 DUP1 RETURNDATACOPY RETURNDATASIZE PUSH0 REVERT JUMPDEST POP POP POP POP PUSH1 0x40 MLOAD RETURNDATASIZE PUSH1 0x1F NOT PUSH1 0x1F DUP3 ADD AND DUP3 ADD DUP1 PUSH1 0x40 MSTORE POP DUP2 ADD SWAP1 PUSH2 0x1BB SWAP2 SWAP1 PUSH2 0x58E JUMP JUMPDEST SWAP2 POP POP SWAP2 SWAP1 POP JUMP JUMPDEST PUSH0 DUP1 DUP4 DUP2 SLOAD DUP2 LT PUSH2 0x1D7 JUMPI PUSH2 0x1D6 PUSH2 0x54D JUMP JUMPDEST JUMPDEST SWAP1 PUSH0 MSTORE PUSH1 0x20 PUSH0 KECCAK256 ADD PUSH0 SWAP1 SLOAD SWAP1 PUSH2 0x100 EXP SWAP1 DIV PUSH20 0xFFFFFFFFFFFFFFFFFFFFFFFFFFFFFFFFFFFFFFFF AND SWAP1 POP DUP1 PUSH20 0xFFFFFFFFFFFFFFFFFFFFFFFFFFFFFFFFFFFFFFFF AND PUSH4 0x6057361D DUP4 PUSH1 0x40 MLOAD DUP3 PUSH4 0xFFFFFFFF AND PUSH1 0xE0 SHL DUP2 MSTORE PUSH1 0x4 ADD PUSH2 0x23A SWAP2 SWAP1 PUSH2 0x463 JUMP JUMPDEST PUSH0 PUSH1 0x40 MLOAD DUP1 DUP4 SUB DUP2 PUSH0 DUP8 DUP1 EXTCODESIZE ISZERO DUP1 ISZERO PUSH2 0x251 JUMPI PUSH0 DUP1 REVERT JUMPDEST POP GAS CALL ISZERO DUP1 ISZERO PUSH2 0x263 JUMPI RETURNDATASIZE PUSH0 DUP1 RETURNDATACOPY RETURNDATASIZE PUSH0 REVERT JUMPDEST POP POP POP POP POP POP POP JUMP JUMPDEST PUSH0 PUSH1 0x40 MLOAD PUSH2 0x279 SWAP1 PUSH2 0x3E5 JUMP JUMPDEST PUSH1 0x40 MLOAD DUP1 SWAP2 SUB SWAP1 PUSH0 CREATE DUP1 ISZERO DUP1 ISZERO PUSH2 0x292 JUMPI RETURNDATASIZE PUSH0 DUP1 RETURNDATACOPY RETURNDATASIZE PUSH0 REVERT JUMPDEST POP SWAP1 POP PUSH0 DUP2 SWAP1 DUP1 PUSH1 0x1 DUP2 SLOAD ADD DUP1 DUP3 SSTORE DUP1 SWAP2 POP POP PUSH1 0x1 SWAP1 SUB SWAP1 PUSH0 MSTORE PUSH1 0x20 PUSH0 KECCAK256 ADD PUSH0 SWAP1 SWAP2 SWAP1 SWAP2 SWAP1 SWAP2 PUSH2 0x100 EXP DUP2 SLOAD DUP2 PUSH20 0xFFFFFFFFFFFFFFFFFFFFFFFFFFFFFFFFFFFFFFFF MUL NOT AND SWAP1 DUP4 PUSH20 0xFFFFFFFFFFFFFFFFFFFFFFFFFFFFFFFFFFFFFFFF AND MUL OR SWAP1 SSTORE POP POP JUMP JUMPDEST PUSH0 DUP2 DUP2 SLOAD DUP2 LT PUSH2 0x305 JUMPI PUSH0 DUP1 REVERT JUMPDEST SWAP1 PUSH0 MSTORE PUSH1 0x20 PUSH0 KECCAK256 ADD PUSH0 SWAP2 POP SLOAD SWAP1 PUSH2 0x100 EXP SWAP1 DIV PUSH20 0xFFFFFFFFFFFFFFFFFFFFFFFFFFFFFFFFFFFFFFFF AND DUP2 JUMP JUMPDEST PUSH0 DUP1 PUSH0 DUP4 DUP2 SLOAD DUP2 LT PUSH2 0x346 JUMPI PUSH2 0x345 PUSH2 0x54D JUMP JUMPDEST JUMPDEST SWAP1 PUSH0 MSTORE PUSH1 0x20 PUSH0 KECCAK256 ADD PUSH0 SWAP1 SLOAD SWAP1 PUSH2 0x100 EXP SWAP1 DIV PUSH20 0xFFFFFFFFFFFFFFFFFFFFFFFFFFFFFFFFFFFFFFFF AND SWAP1 POP DUP1 PUSH20 0xFFFFFFFFFFFFFFFFFFFFFFFFFFFFFFFFFFFFFFFF AND PUSH4 0x2E64CEC1 PUSH1 0x40 MLOAD DUP2 PUSH4 0xFFFFFFFF AND PUSH1 0xE0 SHL DUP2 MSTORE PUSH1 0x4 ADD PUSH1 0x20 PUSH1 0x40 MLOAD DUP1 DUP4 SUB DUP2 DUP7 GAS STATICCALL ISZERO DUP1 ISZERO PUSH2 0x3B9 JUMPI RETURNDATASIZE PUSH0 DUP1 RETURNDATACOPY RETURNDATASIZE PUSH0 REVERT JUMPDEST POP POP POP POP PUSH1 0x40 MLOAD RETURNDATASIZE PUSH1 0x1F NOT PUSH1 0x1F DUP3 ADD AND DUP3 ADD DUP1 PUSH1 0x40 MSTORE POP DUP2 ADD SWAP1 PUSH2 0x3DD SWAP2 SWAP1 PUSH2 0x58E JUMP JUMPDEST SWAP2 POP POP SWAP2 SWAP1 POP JUMP JUMPDEST PUSH2 0x99D DUP1 PUSH2 0x5BA DUP4 CODECOPY ADD SWAP1 JUMP JUMPDEST PUSH0 DUP1 REVERT JUMPDEST PUSH0 DUP2 SWAP1 POP SWAP2 SWAP1 POP JUMP JUMPDEST PUSH2 0x408 DUP2 PUSH2 0x3F6 JUMP JUMPDEST DUP2 EQ PUSH2 0x412 JUMPI PUSH0 DUP1 REVERT JUMPDEST POP JUMP JUMPDEST PUSH0 DUP2 CALLDATALOAD SWAP1 POP PUSH2 0x423 DUP2 PUSH2 0x3FF JUMP JUMPDEST SWAP3 SWAP2 POP POP JUMP JUMPDEST PUSH0 PUSH1 0x20 DUP3 DUP5 SUB SLT ISZERO PUSH2 0x43E JUMPI PUSH2 0x43D PUSH2 0x3F2 JUMP JUMPDEST JUMPDEST PUSH0 PUSH2 0x44B DUP5 DUP3 DUP6 ADD PUSH2 0x415 JUMP JUMPDEST SWAP2 POP POP SWAP3 SWAP2 POP POP JUMP JUMPDEST PUSH2 0x45D DUP2 PUSH2 0x3F6 JUMP JUMPDEST DUP3 MSTORE POP POP JUMP JUMPDEST PUSH0 PUSH1 0x20 DUP3 ADD SWAP1 POP PUSH2 0x476 PUSH0 DUP4 ADD DUP5 PUSH2 0x454 JUMP JUMPDEST SWAP3 SWAP2 POP POP JUMP JUMPDEST PUSH0 DUP1 PUSH1 0x40 DUP4 DUP6 SUB SLT ISZERO PUSH2 0x492 JUMPI PUSH2 0x491 PUSH2 0x3F2 JUMP JUMPDEST JUMPDEST PUSH0 PUSH2 0x49F DUP6 DUP3 DUP7 ADD PUSH2 0x415 JUMP JUMPDEST SWAP3 POP POP PUSH1 0x20 PUSH2 0x4B0 DUP6 DUP3 DUP7 ADD PUSH2 0x415 JUMP JUMPDEST SWAP2 POP POP SWAP3 POP SWAP3 SWAP1 POP JUMP JUMPDEST PUSH0 PUSH20 0xFFFFFFFFFFFFFFFFFFFFFFFFFFFFFFFFFFFFFFFF DUP3 AND SWAP1 POP SWAP2 SWAP1 POP JUMP JUMPDEST PUSH0 DUP2 SWAP1 POP SWAP2 SWAP1 POP JUMP JUMPDEST PUSH0 PUSH2 0x4FC PUSH2 0x4F7 PUSH2 0x4F2 DUP5 PUSH2 0x4BA JUMP JUMPDEST PUSH2 0x4D9 JUMP JUMPDEST PUSH2 0x4BA JUMP JUMPDEST SWAP1 POP SWAP2 SWAP1 POP JUMP JUMPDEST PUSH0 PUSH2 0x50D DUP3 PUSH2 0x4E2 JUMP JUMPDEST SWAP1 POP SWAP2 SWAP1 POP JUMP JUMPDEST PUSH0 PUSH2 0x51E DUP3 PUSH2 0x503 JUMP JUMPDEST SWAP1 POP SWAP2 SWAP1 POP JUMP JUMPDEST PUSH2 0x52E DUP2 PUSH2 0x514 JUMP JUMPDEST DUP3 MSTORE POP POP JUMP JUMPDEST PUSH0 PUSH1 0x20 DUP3 ADD SWAP1 POP PUSH2 0x547 PUSH0 DUP4 ADD DUP5 PUSH2 0x525 JUMP JUMPDEST SWAP3 SWAP2 POP POP JUMP JUMPDEST PUSH32 0x4E487B7100000000000000000000000000000000000000000000000000000000 PUSH0 MSTORE PUSH1 0x32 PUSH1 0x4 MSTORE PUSH1 0x24 PUSH0 REVERT JUMPDEST PUSH0 DUP2 MLOAD SWAP1 POP PUSH2 0x588 DUP2 PUSH2 0x3FF JUMP JUMPDEST SWAP3 SWAP2 POP POP JUMP JUMPDEST PUSH0 PUSH1 0x20 DUP3 DUP5 SUB SLT ISZERO PUSH2 0x5A3 JUMPI PUSH2 0x5A2 PUSH2 0x3F2 JUMP JUMPDEST JUMPDEST PUSH0 PUSH2 0x5B0 DUP5 DUP3 DUP6 ADD PUSH2 0x57A JUMP JUMPDEST SWAP2 POP POP SWAP3 SWAP2 POP POP JUMP INVALID PUSH1 0x80 PUSH1 0x40 MSTORE CALLVALUE DUP1 ISZERO PUSH1 0xE JUMPI PUSH0 DUP1 REVERT JUMPDEST POP PUSH2 0x981 DUP1 PUSH2 0x1C PUSH0 CODECOPY PUSH0 RETURN INVALID PUSH1 0x80 PUSH1 0x40 MSTORE CALLVALUE DUP1 ISZERO PUSH2 0xF JUMPI PUSH0 DUP1 REVERT JUMPDEST POP PUSH1 0x4 CALLDATASIZE LT PUSH2 0x60 JUMPI PUSH0 CALLDATALOAD PUSH1 0xE0 SHR DUP1 PUSH4 0x6C62C2C EQ PUSH2 0x64 JUMPI DUP1 PUSH4 0x2E64CEC1 EQ PUSH2 0x94 JUMPI DUP1 PUSH4 0x4F2BE91F EQ PUSH2 0xB2 JUMPI DUP1 PUSH4 0x6057361D EQ PUSH2 0xD0 JUMPI DUP1 PUSH4 0x6F760F41 EQ PUSH2 0xEC JUMPI DUP1 PUSH4 0x9E7A13AD EQ PUSH2 0x108 JUMPI JUMPDEST PUSH0 DUP1 REVERT JUMPDEST PUSH2 0x7E PUSH1 0x4 DUP1 CALLDATASIZE SUB DUP2 ADD SWAP1 PUSH2 0x79 SWAP2 SWAP1 PUSH2 0x41D JUMP JUMPDEST PUSH2 0x139 JUMP JUMPDEST PUSH1 0x40 MLOAD PUSH2 0x8B SWAP2 SWAP1 PUSH2 0x47C JUMP JUMPDEST PUSH1 0x40 MLOAD DUP1 SWAP2 SUB SWAP1 RETURN JUMPDEST PUSH2 0x9C PUSH2 0x166 JUMP JUMPDEST PUSH1 0x40 MLOAD PUSH2 0xA9 SWAP2 SWAP1 PUSH2 0x47C JUMP JUMPDEST PUSH1 0x40 MLOAD DUP1 SWAP2 SUB SWAP1 RETURN JUMPDEST PUSH2 0xBA PUSH2 0x16E JUMP JUMPDEST PUSH1 0x40 MLOAD PUSH2 0xC7 SWAP2 SWAP1 PUSH2 0x47C JUMP JUMPDEST PUSH1 0x40 MLOAD DUP1 SWAP2 SUB SWAP1 RETURN JUMPDEST PUSH2 0xEA PUSH1 0x4 DUP1 CALLDATASIZE SUB DUP2 ADD SWAP1 PUSH2 0xE5 SWAP2 SWAP1 PUSH2 0x4BF JUMP JUMPDEST PUSH2 0x176 JUMP JUMPDEST STOP JUMPDEST PUSH2 0x106 PUSH1 0x4 DUP1 CALLDATASIZE SUB DUP2 ADD SWAP1 PUSH2 0x101 SWAP2 SWAP1 PUSH2 0x4EA JUMP JUMPDEST PUSH2 0x197 JUMP JUMPDEST STOP JUMPDEST PUSH2 0x122 PUSH1 0x4 DUP1 CALLDATASIZE SUB DUP2 ADD SWAP1 PUSH2 0x11D SWAP2 SWAP1 PUSH2 0x4BF JUMP JUMPDEST PUSH2 0x21B JUMP JUMPDEST PUSH1 0x40 MLOAD PUSH2 0x130 SWAP3 SWAP2 SWAP1 PUSH2 0x5A4 JUMP JUMPDEST PUSH1 0x40 MLOAD DUP1 SWAP2 SUB SWAP1 RETURN JUMPDEST PUSH1 0x1 DUP2 DUP1 MLOAD PUSH1 0x20 DUP2 ADD DUP3 ADD DUP1 MLOAD DUP5 DUP3 MSTORE PUSH1 0x20 DUP4 ADD PUSH1 0x20 DUP6 ADD KECCAK256 DUP2 DUP4 MSTORE DUP1 SWAP6 POP POP POP POP POP POP PUSH0 SWAP2 POP SWAP1 POP SLOAD DUP2 JUMP JUMPDEST PUSH0 DUP1 SLOAD SWAP1 POP SWAP1 JUMP JUMPDEST PUSH0 PUSH1 0x2 SWAP1 POP SWAP1 JUMP JUMPDEST DUP1 PUSH0 DUP2 SWAP1 SSTORE POP PUSH1 0x4 PUSH0 DUP1 DUP3 DUP3 SLOAD PUSH2 0x18D SWAP2 SWAP1 PUSH2 0x5FF JUMP JUMPDEST SWAP3 POP POP DUP2 SWAP1 SSTORE POP POP JUMP JUMPDEST PUSH1 0x2 PUSH1 0x40 MLOAD DUP1 PUSH1 0x40 ADD PUSH1 0x40 MSTORE DUP1 DUP5 DUP2 MSTORE PUSH1 0x20 ADD DUP4 DUP2 MSTORE POP SWAP1 DUP1 PUSH1 0x1 DUP2 SLOAD ADD DUP1 DUP3 SSTORE DUP1 SWAP2 POP POP PUSH1 0x1 SWAP1 SUB SWAP1 PUSH0 MSTORE PUSH1 0x20 PUSH0 KECCAK256 SWAP1 PUSH1 0x2 MUL ADD PUSH0 SWAP1 SWAP2 SWAP1 SWAP2 SWAP1 SWAP2 POP PUSH0 DUP3 ADD MLOAD DUP2 PUSH0 ADD SWAP1 DUP2 PUSH2 0x1E7 SWAP2 SWAP1 PUSH2 0x82C JUMP JUMPDEST POP PUSH1 0x20 DUP3 ADD MLOAD DUP2 PUSH1 0x1 ADD SSTORE POP POP DUP1 PUSH1 0x1 DUP4 PUSH1 0x40 MLOAD PUSH2 0x205 SWAP2 SWAP1 PUSH2 0x935 JUMP JUMPDEST SWAP1 DUP2 MSTORE PUSH1 0x20 ADD PUSH1 0x40 MLOAD DUP1 SWAP2 SUB SWAP1 KECCAK256 DUP2 SWAP1 SSTORE POP POP POP JUMP JUMPDEST PUSH1 0x2 DUP2 DUP2 SLOAD DUP2 LT PUSH2 0x22A JUMPI PUSH0 DUP1 REVERT JUMPDEST SWAP1 PUSH0 MSTORE PUSH1 0x20 PUSH0 KECCAK256 SWAP1 PUSH1 0x2 MUL ADD PUSH0 SWAP2 POP SWAP1 POP DUP1 PUSH0 ADD DUP1 SLOAD PUSH2 0x249 SWAP1 PUSH2 0x65F JUMP JUMPDEST DUP1 PUSH1 0x1F ADD PUSH1 0x20 DUP1 SWAP2 DIV MUL PUSH1 0x20 ADD PUSH1 0x40 MLOAD SWAP1 DUP2 ADD PUSH1 0x40 MSTORE DUP1 SWAP3 SWAP2 SWAP1 DUP2 DUP2 MSTORE PUSH1 0x20 ADD DUP3 DUP1 SLOAD PUSH2 0x275 SWAP1 PUSH2 0x65F JUMP JUMPDEST DUP1 ISZERO PUSH2 0x2C0 JUMPI DUP1 PUSH1 0x1F LT PUSH2 0x297 JUMPI PUSH2 0x100 DUP1 DUP4 SLOAD DIV MUL DUP4 MSTORE SWAP2 PUSH1 0x20 ADD SWAP2 PUSH2 0x2C0 JUMP JUMPDEST DUP3 ADD SWAP2 SWAP1 PUSH0 MSTORE PUSH1 0x20 PUSH0 KECCAK256 SWAP1 JUMPDEST DUP2 SLOAD DUP2 MSTORE SWAP1 PUSH1 0x1 ADD SWAP1 PUSH1 0x20 ADD DUP1 DUP4 GT PUSH2 0x2A3 JUMPI DUP3 SWAP1 SUB PUSH1 0x1F AND DUP3 ADD SWAP2 JUMPDEST POP POP POP POP POP SWAP1 DUP1 PUSH1 0x1 ADD SLOAD SWAP1 POP DUP3 JUMP JUMPDEST PUSH0 PUSH1 0x40 MLOAD SWAP1 POP SWAP1 JUMP JUMPDEST PUSH0 DUP1 REVERT JUMPDEST PUSH0 DUP1 REVERT JUMPDEST PUSH0 DUP1 REVERT JUMPDEST PUSH0 DUP1 REVERT JUMPDEST PUSH0 PUSH1 0x1F NOT PUSH1 0x1F DUP4 ADD AND SWAP1 POP SWAP2 SWAP1 POP JUMP JUMPDEST PUSH32 0x4E487B7100000000000000000000000000000000000000000000000000000000 PUSH0 MSTORE PUSH1 0x41 PUSH1 0x4 MSTORE PUSH1 0x24 PUSH0 REVERT JUMPDEST PUSH2 0x32F DUP3 PUSH2 0x2E9 JUMP JUMPDEST DUP2 ADD DUP2 DUP2 LT PUSH8 0xFFFFFFFFFFFFFFFF DUP3 GT OR ISZERO PUSH2 0x34E JUMPI PUSH2 0x34D PUSH2 0x2F9 JUMP JUMPDEST JUMPDEST DUP1 PUSH1 0x40 MSTORE POP POP POP JUMP JUMPDEST PUSH0 PUSH2 0x360 PUSH2 0x2D0 JUMP JUMPDEST SWAP1 POP PUSH2 0x36C DUP3 DUP3 PUSH2 0x326 JUMP JUMPDEST SWAP2 SWAP1 POP JUMP JUMPDEST PUSH0 PUSH8 0xFFFFFFFFFFFFFFFF DUP3 GT ISZERO PUSH2 0x38B JUMPI PUSH2 0x38A PUSH2 0x2F9 JUMP JUMPDEST JUMPDEST PUSH2 0x394 DUP3 PUSH2 0x2E9 JUMP JUMPDEST SWAP1 POP PUSH1 0x20 DUP2 ADD SWAP1 POP SWAP2 SWAP1 POP JUMP JUMPDEST DUP3 DUP2 DUP4 CALLDATACOPY PUSH0 DUP4 DUP4 ADD MSTORE POP POP POP JUMP JUMPDEST PUSH0 PUSH2 0x3C1 PUSH2 0x3BC DUP5 PUSH2 0x371 JUMP JUMPDEST PUSH2 0x357 JUMP JUMPDEST SWAP1 POP DUP3 DUP2 MSTORE PUSH1 0x20 DUP2 ADD DUP5 DUP5 DUP5 ADD GT ISZERO PUSH2 0x3DD JUMPI PUSH2 0x3DC PUSH2 0x2E5 JUMP JUMPDEST JUMPDEST PUSH2 0x3E8 DUP5 DUP3 DUP6 PUSH2 0x3A1 JUMP JUMPDEST POP SWAP4 SWAP3 POP POP POP JUMP JUMPDEST PUSH0 DUP3 PUSH1 0x1F DUP4 ADD SLT PUSH2 0x404 JUMPI PUSH2 0x403 PUSH2 0x2E1 JUMP JUMPDEST JUMPDEST DUP2 CALLDATALOAD PUSH2 0x414 DUP5 DUP3 PUSH1 0x20 DUP7 ADD PUSH2 0x3AF JUMP JUMPDEST SWAP2 POP POP SWAP3 SWAP2 POP POP JUMP JUMPDEST PUSH0 PUSH1 0x20 DUP3 DUP5 SUB SLT ISZERO PUSH2 0x432 JUMPI PUSH2 0x431 PUSH2 0x2D9 JUMP JUMPDEST JUMPDEST PUSH0 DUP3 ADD CALLDATALOAD PUSH8 0xFFFFFFFFFFFFFFFF DUP2 GT ISZERO PUSH2 0x44F JUMPI PUSH2 0x44E PUSH2 0x2DD JUMP JUMPDEST JUMPDEST PUSH2 0x45B DUP5 DUP3 DUP6 ADD PUSH2 0x3F0 JUMP JUMPDEST SWAP2 POP POP SWAP3 SWAP2 POP POP JUMP JUMPDEST PUSH0 DUP2 SWAP1 POP SWAP2 SWAP1 POP JUMP JUMPDEST PUSH2 0x476 DUP2 PUSH2 0x464 JUMP JUMPDEST DUP3 MSTORE POP POP JUMP JUMPDEST PUSH0 PUSH1 0x20 DUP3 ADD SWAP1 POP PUSH2 0x48F PUSH0 DUP4 ADD DUP5 PUSH2 0x46D JUMP JUMPDEST SWAP3 SWAP2 POP POP JUMP JUMPDEST PUSH2 0x49E DUP2 PUSH2 0x464 JUMP JUMPDEST DUP2 EQ PUSH2 0x4A8 JUMPI PUSH0 DUP1 REVERT JUMPDEST POP JUMP JUMPDEST PUSH0 DUP2 CALLDATALOAD SWAP1 POP PUSH2 0x4B9 DUP2 PUSH2 0x495 JUMP JUMPDEST SWAP3 SWAP2 POP POP JUMP JUMPDEST PUSH0 PUSH1 0x20 DUP3 DUP5 SUB SLT ISZERO PUSH2 0x4D4 JUMPI PUSH2 0x4D3 PUSH2 0x2D9 JUMP JUMPDEST JUMPDEST PUSH0 PUSH2 0x4E1 DUP5 DUP3 DUP6 ADD PUSH2 0x4AB JUMP JUMPDEST SWAP2 POP POP SWAP3 SWAP2 POP POP JUMP JUMPDEST PUSH0 DUP1 PUSH1 0x40 DUP4 DUP6 SUB SLT ISZERO PUSH2 0x500 JUMPI PUSH2 0x4FF PUSH2 0x2D9 JUMP JUMPDEST JUMPDEST PUSH0 DUP4 ADD CALLDATALOAD PUSH8 0xFFFFFFFFFFFFFFFF DUP2 GT ISZERO PUSH2 0x51D JUMPI PUSH2 0x51C PUSH2 0x2DD JUMP JUMPDEST JUMPDEST PUSH2 0x529 DUP6 DUP3 DUP7 ADD PUSH2 0x3F0 JUMP JUMPDEST SWAP3 POP POP PUSH1 0x20 PUSH2 0x53A DUP6 DUP3 DUP7 ADD PUSH2 0x4AB JUMP JUMPDEST SWAP2 POP POP SWAP3 POP SWAP3 SWAP1 POP JUMP JUMPDEST PUSH0 DUP2 MLOAD SWAP1 POP SWAP2 SWAP1 POP JUMP JUMPDEST PUSH0 DUP3 DUP3 MSTORE PUSH1 0x20 DUP3 ADD SWAP1 POP SWAP3 SWAP2 POP POP JUMP JUMPDEST DUP3 DUP2 DUP4 MCOPY PUSH0 DUP4 DUP4 ADD MSTORE POP POP POP JUMP JUMPDEST PUSH0 PUSH2 0x576 DUP3 PUSH2 0x544 JUMP JUMPDEST PUSH2 0x580 DUP2 DUP6 PUSH2 0x54E JUMP JUMPDEST SWAP4 POP PUSH2 0x590 DUP2 DUP6 PUSH1 0x20 DUP7 ADD PUSH2 0x55E JUMP JUMPDEST PUSH2 0x599 DUP2 PUSH2 0x2E9 JUMP JUMPDEST DUP5 ADD SWAP2 POP POP SWAP3 SWAP2 POP POP JUMP JUMPDEST PUSH0 PUSH1 0x40 DUP3 ADD SWAP1 POP DUP2 DUP2 SUB PUSH0 DUP4 ADD MSTORE PUSH2 0x5BC DUP2 DUP6 PUSH2 0x56C JUMP JUMPDEST SWAP1 POP PUSH2 0x5CB PUSH1 0x20 DUP4 ADD DUP5 PUSH2 0x46D JUMP JUMPDEST SWAP4 SWAP3 POP POP POP JUMP JUMPDEST PUSH32 0x4E487B7100000000000000000000000000000000000000000000000000000000 PUSH0 MSTORE PUSH1 0x11 PUSH1 0x4 MSTORE PUSH1 0x24 PUSH0 REVERT JUMPDEST PUSH0 PUSH2 0x609 DUP3 PUSH2 0x464 JUMP JUMPDEST SWAP2 POP PUSH2 0x614 DUP4 PUSH2 0x464 JUMP JUMPDEST SWAP3 POP DUP3 DUP3 ADD SWAP1 POP DUP1 DUP3 GT ISZERO PUSH2 0x62C JUMPI PUSH2 0x62B PUSH2 0x5D2 JUMP JUMPDEST JUMPDEST SWAP3 SWAP2 POP POP JUMP JUMPDEST PUSH32 0x4E487B7100000000000000000000000000000000000000000000000000000000 PUSH0 MSTORE PUSH1 0x22 PUSH1 0x4 MSTORE PUSH1 0x24 PUSH0 REVERT JUMPDEST PUSH0 PUSH1 0x2 DUP3 DIV SWAP1 POP PUSH1 0x1 DUP3 AND DUP1 PUSH2 0x676 JUMPI PUSH1 0x7F DUP3 AND SWAP2 POP JUMPDEST PUSH1 0x20 DUP3 LT DUP2 SUB PUSH2 0x689 JUMPI PUSH2 0x688 PUSH2 0x632 JUMP JUMPDEST JUMPDEST POP SWAP2 SWAP1 POP JUMP JUMPDEST PUSH0 DUP2 SWAP1 POP DUP2 PUSH0 MSTORE PUSH1 0x20 PUSH0 KECCAK256 SWAP1 POP SWAP2 SWAP1 POP JUMP JUMPDEST PUSH0 PUSH1 0x20 PUSH1 0x1F DUP4 ADD DIV SWAP1 POP SWAP2 SWAP1 POP JUMP JUMPDEST PUSH0 DUP3 DUP3 SHL SWAP1 POP SWAP3 SWAP2 POP POP JUMP JUMPDEST PUSH0 PUSH1 0x8 DUP4 MUL PUSH2 0x6EB PUSH32 0xFFFFFFFFFFFFFFFFFFFFFFFFFFFFFFFFFFFFFFFFFFFFFFFFFFFFFFFFFFFFFFFF DUP3 PUSH2 0x6B0 JUMP JUMPDEST PUSH2 0x6F5 DUP7 DUP4 PUSH2 0x6B0 JUMP JUMPDEST SWAP6 POP DUP1 NOT DUP5 AND SWAP4 POP DUP1 DUP7 AND DUP5 OR SWAP3 POP POP POP SWAP4 SWAP3 POP POP POP JUMP JUMPDEST PUSH0 DUP2 SWAP1 POP SWAP2 SWAP1 POP JUMP JUMPDEST PUSH0 PUSH2 0x730 PUSH2 0x72B PUSH2 0x726 DUP5 PUSH2 0x464 JUMP JUMPDEST PUSH2 0x70D JUMP JUMPDEST PUSH2 0x464 JUMP JUMPDEST SWAP1 POP SWAP2 SWAP1 POP JUMP JUMPDEST PUSH0 DUP2 SWAP1 POP SWAP2 SWAP1 POP JUMP JUMPDEST PUSH2 0x749 DUP4 PUSH2 0x716 JUMP JUMPDEST PUSH2 0x75D PUSH2 0x755 DUP3 PUSH2 0x737 JUMP JUMPDEST DUP5 DUP5 SLOAD PUSH2 0x6BC JUMP JUMPDEST DUP3 SSTORE POP POP POP POP JUMP JUMPDEST PUSH0 SWAP1 JUMP JUMPDEST PUSH2 0x771 PUSH2 0x765 JUMP JUMPDEST PUSH2 0x77C DUP2 DUP5 DUP5 PUSH2 0x740 JUMP JUMPDEST POP POP POP JUMP JUMPDEST JUMPDEST DUP2 DUP2 LT ISZERO PUSH2 0x79F JUMPI PUSH2 0x794 PUSH0 DUP3 PUSH2 0x769 JUMP JUMPDEST PUSH1 0x1 DUP2 ADD SWAP1 POP PUSH2 0x782 JUMP JUMPDEST POP POP JUMP JUMPDEST PUSH1 0x1F DUP3 GT ISZERO PUSH2 0x7E4 JUMPI PUSH2 0x7B5 DUP2 PUSH2 0x68F JUMP JUMPDEST PUSH2 0x7BE DUP5 PUSH2 0x6A1 JUMP JUMPDEST DUP2 ADD PUSH1 0x20 DUP6 LT ISZERO PUSH2 0x7CD JUMPI DUP2 SWAP1 POP JUMPDEST PUSH2 0x7E1 PUSH2 0x7D9 DUP6 PUSH2 0x6A1 JUMP JUMPDEST DUP4 ADD DUP3 PUSH2 0x781 JUMP JUMPDEST POP POP JUMPDEST POP POP POP JUMP JUMPDEST PUSH0 DUP3 DUP3 SHR SWAP1 POP SWAP3 SWAP2 POP POP JUMP JUMPDEST PUSH0 PUSH2 0x804 PUSH0 NOT DUP5 PUSH1 0x8 MUL PUSH2 0x7E9 JUMP JUMPDEST NOT DUP1 DUP4 AND SWAP2 POP POP SWAP3 SWAP2 POP POP JUMP JUMPDEST PUSH0 PUSH2 0x81C DUP4 DUP4 PUSH2 0x7F5 JUMP JUMPDEST SWAP2 POP DUP3 PUSH1 0x2 MUL DUP3 OR SWAP1 POP SWAP3 SWAP2 POP POP JUMP JUMPDEST PUSH2 0x835 DUP3 PUSH2 0x544 JUMP JUMPDEST PUSH8 0xFFFFFFFFFFFFFFFF DUP2 GT ISZERO PUSH2 0x84E JUMPI PUSH2 0x84D PUSH2 0x2F9 JUMP JUMPDEST JUMPDEST PUSH2 0x858 DUP3 SLOAD PUSH2 0x65F JUMP JUMPDEST PUSH2 0x863 DUP3 DUP3 DUP6 PUSH2 0x7A3 JUMP JUMPDEST PUSH0 PUSH1 0x20 SWAP1 POP PUSH1 0x1F DUP4 GT PUSH1 0x1 DUP2 EQ PUSH2 0x894 JUMPI PUSH0 DUP5 ISZERO PUSH2 0x882 JUMPI DUP3 DUP8 ADD MLOAD SWAP1 POP JUMPDEST PUSH2 0x88C DUP6 DUP3 PUSH2 0x811 JUMP JUMPDEST DUP7 SSTORE POP PUSH2 0x8F3 JUMP JUMPDEST PUSH1 0x1F NOT DUP5 AND PUSH2 0x8A2 DUP7 PUSH2 0x68F JUMP JUMPDEST PUSH0 JUMPDEST DUP3 DUP2 LT ISZERO PUSH2 0x8C9 JUMPI DUP5 DUP10 ADD MLOAD DUP3 SSTORE PUSH1 0x1 DUP3 ADD SWAP2 POP PUSH1 0x20 DUP6 ADD SWAP5 POP PUSH1 0x20 DUP2 ADD SWAP1 POP PUSH2 0x8A4 JUMP JUMPDEST DUP7 DUP4 LT ISZERO PUSH2 0x8E6 JUMPI DUP5 DUP10 ADD MLOAD PUSH2 0x8E2 PUSH1 0x1F DUP10 AND DUP3 PUSH2 0x7F5 JUMP JUMPDEST DUP4 SSTORE POP JUMPDEST PUSH1 0x1 PUSH1 0x2 DUP9 MUL ADD DUP9 SSTORE POP POP POP JUMPDEST POP POP POP POP POP POP JUMP JUMPDEST PUSH0 DUP2 SWAP1 POP SWAP3 SWAP2 POP POP JUMP JUMPDEST PUSH0 PUSH2 0x90F DUP3 PUSH2 0x544 JUMP JUMPDEST PUSH2 0x919 DUP2 DUP6 PUSH2 0x8FB JUMP JUMPDEST SWAP4 POP PUSH2 0x929 DUP2 DUP6 PUSH1 0x20 DUP7 ADD PUSH2 0x55E JUMP JUMPDEST DUP1 DUP5 ADD SWAP2 POP POP SWAP3 SWAP2 POP POP JUMP JUMPDEST PUSH0 PUSH2 0x940 DUP3 DUP5 PUSH2 0x905 JUMP JUMPDEST SWAP2 POP DUP2 SWAP1 POP SWAP3 SWAP2 POP POP JUMP INVALID LOG2 PUSH5 0x6970667358 0x22 SLT KECCAK256 DUP4 MSTORE8 SGT PC 0xEA DELEGATECALL PUSH0 0x4F PC PUSH13 0x42DA8C135D7CFC2FFA7AD77968 SWAP10 SWAP5 EXTCODECOPY ISZERO DUP16 PUSH0 PUSH30 0x1E8764736F6C634300081A0033A26469706673582212207ECF38A73D61E6 JUMPDEST SGT MULMOD NOT 0xC6 PUSH3 0xEE74B9 SWAP10 LOG0 0xEE PUSH9 0x63EBD4281F71EC06CE SWAP14 REVERT 0xCB PUSH5 0x736F6C6343 STOP ADDMOD BYTE STOP CALLER "
				},
				"gasEstimates": {
					"creation": {
						"codeDepositCost": "796000",
						"executionCost": "829",
						"totalCost": "796829"
					},
					"external": {
						"createSimpleStorageContract()": "infinite",
						"sfAdd(uint256)": "infinite",
						"sfGet(uint256)": "infinite",
						"sfStore(uint256,uint256)": "infinite",
						"simpleStorageArray(uint256)": "infinite"
					}
				},
				"methodIdentifiers": {
					"createSimpleStorageContract()": "1dda6541",
					"sfAdd(uint256)": "03491761",
					"sfGet(uint256)": "c5f19c20",
					"sfStore(uint256,uint256)": "1563700f",
					"simpleStorageArray(uint256)": "64591bf1"
				}
			},
			"storageLayout": {
				"storage": [
					{
						"astId": 80,
						"contract": "contracts/StorageFactory.sol:StorageFactory",
						"label": "simpleStorageArray",
						"offset": 0,
						"slot": "0",
						"type": "t_array(t_contract(SimpleStorage)73)dyn_storage"
					}
				],
				"types": {
					"t_array(t_contract(SimpleStorage)73)dyn_storage": {
						"base": "t_contract(SimpleStorage)73",
						"encoding": "dynamic_array",
						"label": "contract SimpleStorage[]",
						"numberOfBytes": "32"
					},
					"t_contract(SimpleStorage)73": {
						"encoding": "inplace",
						"label": "contract SimpleStorage",
						"numberOfBytes": "20"
					}
				}
			},
			"userdoc": {
				"kind": "user",
				"methods": {},
				"version": 1
			}
		}
	}
}