{
	"contracts/FundMe.sol": {
		"FundMe": {
			"abi": [
				{
					"inputs": [],
					"name": "fund",
					"outputs": [],
					"stateMutability": "payable",
					"type": "function"
				},
				{
					"inputs": [
						{
							"internalType": "uint256",
							"name": "",
							"type": "uint256"
						}
					],
					"name": "funders",
					"outputs": [
						{
							"internalType": "address",
							"name": "",
							"type": "address"
						}
					],
					"stateMutability": "view",
					"type": "function"
				},
				{
					"inputs": [
						{
							"internalType": "uint256",
							"name": "ethAmount",
							"type": "uint256"
						}
					],
					"name": "getConversionRate",
					"outputs": [
						{
							"internalType": "uint256",
							"name": "",
							"type": "uint256"
						}
					],
					"stateMutability": "view",
					"type": "function"
				},
				{
					"inputs": [],
					"name": "getPrice",
					"outputs": [
						{
							"internalType": "uint256",
							"name": "",
							"type": "uint256"
						}
					],
					"stateMutability": "view",
					"type": "function"
				},
				{
					"inputs": [],
					"name": "getVersion",
					"outputs": [
						{
							"internalType": "uint256",
							"name": "",
							"type": "uint256"
						}
					],
					"stateMutability": "view",
					"type": "function"
				},
				{
					"inputs": [],
					"name": "minimumUsd",
					"outputs": [
						{
							"internalType": "uint256",
							"name": "",
							"type": "uint256"
						}
					],
					"stateMutability": "view",
					"type": "function"
				}
			],
			"devdoc": {
				"kind": "dev",
				"methods": {},
				"version": 1
			},
			"evm": {
				"assembly": "    /* \"contracts/FundMe.sol\":256:1377  contract FundMe{... */\n  mstore(0x40, 0x80)\n    /* \"contracts/FundMe.sol\":305:314  50 * 1e18 */\n  0x02b5e3af16b1880000\n    /* \"contracts/FundMe.sol\":277:314  uint256 public minimumUsd = 50 * 1e18 */\n  0x00\n  sstore\n    /* \"contracts/FundMe.sol\":256:1377  contract FundMe{... */\n  callvalue\n  dup1\n  iszero\n  tag_1\n  jumpi\n  0x00\n  dup1\n  revert\ntag_1:\n  pop\n  dataSize(sub_0)\n  dup1\n  dataOffset(sub_0)\n  0x00\n  codecopy\n  0x00\n  return\nstop\n\nsub_0: assembly {\n        /* \"contracts/FundMe.sol\":256:1377  contract FundMe{... */\n      mstore(0x40, 0x80)\n      jumpi(tag_1, lt(calldatasize, 0x04))\n      shr(0xe0, calldataload(0x00))\n      dup1\n      0x098de820\n      eq\n      tag_2\n      jumpi\n      dup1\n      0x0d8e6e2c\n      eq\n      tag_3\n      jumpi\n      dup1\n      0x6e5b6b28\n      eq\n      tag_4\n      jumpi\n      dup1\n      0x98d5fdca\n      eq\n      tag_5\n      jumpi\n      dup1\n      0xb60d4288\n      eq\n      tag_6\n      jumpi\n      dup1\n      0xdc0d3dff\n      eq\n      tag_7\n      jumpi\n    tag_1:\n      0x00\n      dup1\n      revert\n        /* \"contracts/FundMe.sol\":277:314  uint256 public minimumUsd = 50 * 1e18 */\n    tag_2:\n      callvalue\n      dup1\n      iszero\n      tag_8\n      jumpi\n      0x00\n      dup1\n      revert\n    tag_8:\n      pop\n      tag_9\n      tag_10\n      jump\t// in\n    tag_9:\n      mload(0x40)\n      tag_11\n      swap2\n      swap1\n      tag_12\n      jump\t// in\n    tag_11:\n      mload(0x40)\n      dup1\n      swap2\n      sub\n      swap1\n      return\n        /* \"contracts/FundMe.sol\":907:1111  function getVersion() public view returns (uint256) {... */\n    tag_3:\n      callvalue\n      dup1\n      iszero\n      tag_13\n      jumpi\n      0x00\n      dup1\n      revert\n    tag_13:\n      pop\n      tag_14\n      tag_15\n      jump\t// in\n    tag_14:\n      mload(0x40)\n      tag_16\n      swap2\n      swap1\n      tag_12\n      jump\t// in\n    tag_16:\n      mload(0x40)\n      dup1\n      swap2\n      sub\n      swap1\n      return\n        /* \"contracts/FundMe.sol\":1120:1333  function getConversionRate(uint256 ethAmount) public view returns(uint256) {... */\n    tag_4:\n      callvalue\n      dup1\n      iszero\n      tag_17\n      jumpi\n      0x00\n      dup1\n      revert\n    tag_17:\n      pop\n      tag_18\n      0x04\n      dup1\n      calldatasize\n      sub\n      dup2\n      add\n      swap1\n      tag_19\n      swap2\n      swap1\n      tag_20\n      jump\t// in\n    tag_19:\n      tag_21\n      jump\t// in\n    tag_18:\n      mload(0x40)\n      tag_22\n      swap2\n      swap1\n      tag_12\n      jump\t// in\n    tag_22:\n      mload(0x40)\n      dup1\n      swap2\n      sub\n      swap1\n      return\n        /* \"contracts/FundMe.sol\":556:898  function getPrice() public view returns (uint256){... */\n    tag_5:\n      callvalue\n      dup1\n      iszero\n      tag_23\n      jumpi\n      0x00\n      dup1\n      revert\n    tag_23:\n      pop\n      tag_24\n      tag_25\n      jump\t// in\n    tag_24:\n      mload(0x40)\n      tag_26\n      swap2\n      swap1\n      tag_12\n      jump\t// in\n    tag_26:\n      mload(0x40)\n      dup1\n      swap2\n      sub\n      swap1\n      return\n        /* \"contracts/FundMe.sol\":354:547  function fund() public payable {... */\n    tag_6:\n      tag_27\n      tag_28\n      jump\t// in\n    tag_27:\n      stop\n        /* \"contracts/FundMe.sol\":320:344  address[] public funders */\n    tag_7:\n      callvalue\n      dup1\n      iszero\n      tag_29\n      jumpi\n      0x00\n      dup1\n      revert\n    tag_29:\n      pop\n      tag_30\n      0x04\n      dup1\n      calldatasize\n      sub\n      dup2\n      add\n      swap1\n      tag_31\n      swap2\n      swap1\n      tag_20\n      jump\t// in\n    tag_31:\n      tag_32\n      jump\t// in\n    tag_30:\n      mload(0x40)\n      tag_33\n      swap2\n      swap1\n      tag_34\n      jump\t// in\n    tag_33:\n      mload(0x40)\n      dup1\n      swap2\n      sub\n      swap1\n      return\n        /* \"contracts/FundMe.sol\":277:314  uint256 public minimumUsd = 50 * 1e18 */\n    tag_10:\n      sload(0x00)\n      dup2\n      jump\t// out\n        /* \"contracts/FundMe.sol\":907:1111  function getVersion() public view returns (uint256) {... */\n    tag_15:\n        /* \"contracts/FundMe.sol\":950:957  uint256 */\n      0x00\n        /* \"contracts/FundMe.sol\":968:999  AggregatorV3Interface priceFeed */\n      dup1\n        /* \"contracts/FundMe.sol\":1024:1066  0x694AA1769357215DE4FAC081bf1f309aDC325306 */\n      0x694aa1769357215de4fac081bf1f309adc325306\n        /* \"contracts/FundMe.sol\":968:1067  AggregatorV3Interface priceFeed = AggregatorV3Interface(0x694AA1769357215DE4FAC081bf1f309aDC325306) */\n      swap1\n      pop\n        /* \"contracts/FundMe.sol\":1083:1092  priceFeed */\n      dup1\n        /* \"contracts/FundMe.sol\":1083:1100  priceFeed.version */\n      0xffffffffffffffffffffffffffffffffffffffff\n      and\n      0x54fd4d50\n        /* \"contracts/FundMe.sol\":1083:1102  priceFeed.version() */\n      mload(0x40)\n      dup2\n      0xffffffff\n      and\n      0xe0\n      shl\n      dup2\n      mstore\n      0x04\n      add\n      0x20\n      mload(0x40)\n      dup1\n      dup4\n      sub\n      dup2\n      dup7\n      gas\n      staticcall\n      iszero\n      dup1\n      iszero\n      tag_37\n      jumpi\n      returndatasize\n      0x00\n      dup1\n      returndatacopy\n      revert(0x00, returndatasize)\n    tag_37:\n      pop\n      pop\n      pop\n      pop\n      mload(0x40)\n      returndatasize\n      not(0x1f)\n      0x1f\n      dup3\n      add\n      and\n      dup3\n      add\n      dup1\n      0x40\n      mstore\n      pop\n      dup2\n      add\n      swap1\n      tag_38\n      swap2\n      swap1\n      tag_39\n      jump\t// in\n    tag_38:\n        /* \"contracts/FundMe.sol\":1076:1102  return priceFeed.version() */\n      swap2\n      pop\n      pop\n        /* \"contracts/FundMe.sol\":907:1111  function getVersion() public view returns (uint256) {... */\n      swap1\n      jump\t// out\n        /* \"contracts/FundMe.sol\":1120:1333  function getConversionRate(uint256 ethAmount) public view returns(uint256) {... */\n    tag_21:\n        /* \"contracts/FundMe.sol\":1186:1193  uint256 */\n      0x00\n        /* \"contracts/FundMe.sol\":1204:1220  uint256 ethPrice */\n      dup1\n        /* \"contracts/FundMe.sol\":1223:1233  getPrice() */\n      tag_41\n        /* \"contracts/FundMe.sol\":1223:1231  getPrice */\n      tag_25\n        /* \"contracts/FundMe.sol\":1223:1233  getPrice() */\n      jump\t// in\n    tag_41:\n        /* \"contracts/FundMe.sol\":1204:1233  uint256 ethPrice = getPrice() */\n      swap1\n      pop\n        /* \"contracts/FundMe.sol\":1242:1264  uint256 ethAmountInUsd */\n      0x00\n        /* \"contracts/FundMe.sol\":1292:1296  1e18 */\n      0x0de0b6b3a7640000\n        /* \"contracts/FundMe.sol\":1279:1288  ethAmount */\n      dup5\n        /* \"contracts/FundMe.sol\":1268:1276  ethPrice */\n      dup4\n        /* \"contracts/FundMe.sol\":1268:1288  ethPrice * ethAmount */\n      tag_42\n      swap2\n      swap1\n      tag_43\n      jump\t// in\n    tag_42:\n        /* \"contracts/FundMe.sol\":1267:1296  (ethPrice * ethAmount) / 1e18 */\n      tag_44\n      swap2\n      swap1\n      tag_45\n      jump\t// in\n    tag_44:\n        /* \"contracts/FundMe.sol\":1242:1296  uint256 ethAmountInUsd = (ethPrice * ethAmount) / 1e18 */\n      swap1\n      pop\n        /* \"contracts/FundMe.sol\":1312:1326  ethAmountInUsd */\n      dup1\n        /* \"contracts/FundMe.sol\":1305:1326  return ethAmountInUsd */\n      swap3\n      pop\n      pop\n      pop\n        /* \"contracts/FundMe.sol\":1120:1333  function getConversionRate(uint256 ethAmount) public view returns(uint256) {... */\n      swap2\n      swap1\n      pop\n      jump\t// out\n        /* \"contracts/FundMe.sol\":556:898  function getPrice() public view returns (uint256){... */\n    tag_25:\n        /* \"contracts/FundMe.sol\":597:604  uint256 */\n      0x00\n        /* \"contracts/FundMe.sol\":692:723  AggregatorV3Interface priceFeed */\n      dup1\n        /* \"contracts/FundMe.sol\":748:790  0x694AA1769357215DE4FAC081bf1f309aDC325306 */\n      0x694aa1769357215de4fac081bf1f309adc325306\n        /* \"contracts/FundMe.sol\":692:791  AggregatorV3Interface priceFeed = AggregatorV3Interface(0x694AA1769357215DE4FAC081bf1f309aDC325306) */\n      swap1\n      pop\n        /* \"contracts/FundMe.sol\":802:815  int256 answer */\n      0x00\n        /* \"contracts/FundMe.sol\":822:831  priceFeed */\n      dup2\n        /* \"contracts/FundMe.sol\":822:847  priceFeed.latestRoundData */\n      0xffffffffffffffffffffffffffffffffffffffff\n      and\n      0xfeaf968c\n        /* \"contracts/FundMe.sol\":822:849  priceFeed.latestRoundData() */\n      mload(0x40)\n      dup2\n      0xffffffff\n      and\n      0xe0\n      shl\n      dup2\n      mstore\n      0x04\n      add\n      0xa0\n      mload(0x40)\n      dup1\n      dup4\n      sub\n      dup2\n      dup7\n      gas\n      staticcall\n      iszero\n      dup1\n      iszero\n      tag_48\n      jumpi\n      returndatasize\n      0x00\n      dup1\n      returndatacopy\n      revert(0x00, returndatasize)\n    tag_48:\n      pop\n      pop\n      pop\n      pop\n      mload(0x40)\n      returndatasize\n      not(0x1f)\n      0x1f\n      dup3\n      add\n      and\n      dup3\n      add\n      dup1\n      0x40\n      mstore\n      pop\n      dup2\n      add\n      swap1\n      tag_49\n      swap2\n      swap1\n      tag_50\n      jump\t// in\n    tag_49:\n        /* \"contracts/FundMe.sol\":800:849  (,int256 answer,,,) = priceFeed.latestRoundData() */\n      pop\n      pop\n      pop\n      swap2\n      pop\n      pop\n        /* \"contracts/FundMe.sol\":884:888  1e10 */\n      0x02540be400\n        /* \"contracts/FundMe.sol\":875:881  answer */\n      dup2\n        /* \"contracts/FundMe.sol\":875:888  answer * 1e10 */\n      tag_51\n      swap2\n      swap1\n      tag_52\n      jump\t// in\n    tag_51:\n        /* \"contracts/FundMe.sol\":860:889  return uint256(answer * 1e10) */\n      swap3\n      pop\n      pop\n      pop\n        /* \"contracts/FundMe.sol\":556:898  function getPrice() public view returns (uint256){... */\n      swap1\n      jump\t// out\n        /* \"contracts/FundMe.sol\":354:547  function fund() public payable {... */\n    tag_28:\n        /* \"contracts/FundMe.sol\":471:481  minimumUsd */\n      sload(0x00)\n        /* \"contracts/FundMe.sol\":439:467  getConversionRate(msg.value) */\n      tag_54\n        /* \"contracts/FundMe.sol\":457:466  msg.value */\n      callvalue\n        /* \"contracts/FundMe.sol\":439:456  getConversionRate */\n      tag_21\n        /* \"contracts/FundMe.sol\":439:467  getConversionRate(msg.value) */\n      jump\t// in\n    tag_54:\n        /* \"contracts/FundMe.sol\":439:481  getConversionRate(msg.value) >= minimumUsd */\n      lt\n      iszero\n        /* \"contracts/FundMe.sol\":431:503  require(getConversionRate(msg.value) >= minimumUsd, \"didnt send enough\") */\n      tag_55\n      jumpi\n      mload(0x40)\n      0x08c379a000000000000000000000000000000000000000000000000000000000\n      dup2\n      mstore\n      0x04\n      add\n      tag_56\n      swap1\n      tag_57\n      jump\t// in\n    tag_56:\n      mload(0x40)\n      dup1\n      swap2\n      sub\n      swap1\n      revert\n    tag_55:\n        /* \"contracts/FundMe.sol\":514:521  funders */\n      0x01\n        /* \"contracts/FundMe.sol\":527:537  msg.sender */\n      caller\n        /* \"contracts/FundMe.sol\":514:538  funders.push(msg.sender) */\n      swap1\n      dup1\n      0x01\n      dup2\n      sload\n      add\n      dup1\n      dup3\n      sstore\n      dup1\n      swap2\n      pop\n      pop\n      0x01\n      swap1\n      sub\n      swap1\n      0x00\n      mstore\n      keccak256(0x00, 0x20)\n      add\n      0x00\n      swap1\n      swap2\n      swap1\n      swap2\n      swap1\n      swap2\n      0x0100\n      exp\n      dup2\n      sload\n      dup2\n      0xffffffffffffffffffffffffffffffffffffffff\n      mul\n      not\n      and\n      swap1\n      dup4\n      0xffffffffffffffffffffffffffffffffffffffff\n      and\n      mul\n      or\n      swap1\n      sstore\n      pop\n        /* \"contracts/FundMe.sol\":354:547  function fund() public payable {... */\n      jump\t// out\n        /* \"contracts/FundMe.sol\":320:344  address[] public funders */\n    tag_32:\n      0x01\n      dup2\n      dup2\n      sload\n      dup2\n      lt\n      tag_59\n      jumpi\n      0x00\n      dup1\n      revert\n    tag_59:\n      swap1\n      0x00\n      mstore\n      keccak256(0x00, 0x20)\n      add\n      0x00\n      swap2\n      pop\n      sload\n      swap1\n      0x0100\n      exp\n      swap1\n      div\n      0xffffffffffffffffffffffffffffffffffffffff\n      and\n      dup2\n      jump\t// out\n        /* \"#utility.yul\":7:84   */\n    tag_61:\n        /* \"#utility.yul\":44:51   */\n      0x00\n        /* \"#utility.yul\":73:78   */\n      dup2\n        /* \"#utility.yul\":62:78   */\n      swap1\n      pop\n        /* \"#utility.yul\":7:84   */\n      swap2\n      swap1\n      pop\n      jump\t// out\n        /* \"#utility.yul\":90:208   */\n    tag_62:\n        /* \"#utility.yul\":177:201   */\n      tag_86\n        /* \"#utility.yul\":195:200   */\n      dup2\n        /* \"#utility.yul\":177:201   */\n      tag_61\n      jump\t// in\n    tag_86:\n        /* \"#utility.yul\":172:175   */\n      dup3\n        /* \"#utility.yul\":165:202   */\n      mstore\n        /* \"#utility.yul\":90:208   */\n      pop\n      pop\n      jump\t// out\n        /* \"#utility.yul\":214:436   */\n    tag_12:\n        /* \"#utility.yul\":307:311   */\n      0x00\n        /* \"#utility.yul\":345:347   */\n      0x20\n        /* \"#utility.yul\":334:343   */\n      dup3\n        /* \"#utility.yul\":330:348   */\n      add\n        /* \"#utility.yul\":322:348   */\n      swap1\n      pop\n        /* \"#utility.yul\":358:429   */\n      tag_88\n        /* \"#utility.yul\":426:427   */\n      0x00\n        /* \"#utility.yul\":415:424   */\n      dup4\n        /* \"#utility.yul\":411:428   */\n      add\n        /* \"#utility.yul\":402:408   */\n      dup5\n        /* \"#utility.yul\":358:429   */\n      tag_62\n      jump\t// in\n    tag_88:\n        /* \"#utility.yul\":214:436   */\n      swap3\n      swap2\n      pop\n      pop\n      jump\t// out\n        /* \"#utility.yul\":523:640   */\n    tag_64:\n        /* \"#utility.yul\":632:633   */\n      0x00\n        /* \"#utility.yul\":629:630   */\n      dup1\n        /* \"#utility.yul\":622:634   */\n      revert\n        /* \"#utility.yul\":769:891   */\n    tag_66:\n        /* \"#utility.yul\":842:866   */\n      tag_93\n        /* \"#utility.yul\":860:865   */\n      dup2\n        /* \"#utility.yul\":842:866   */\n      tag_61\n      jump\t// in\n    tag_93:\n        /* \"#utility.yul\":835:840   */\n      dup2\n        /* \"#utility.yul\":832:867   */\n      eq\n        /* \"#utility.yul\":822:885   */\n      tag_94\n      jumpi\n        /* \"#utility.yul\":881:882   */\n      0x00\n        /* \"#utility.yul\":878:879   */\n      dup1\n        /* \"#utility.yul\":871:883   */\n      revert\n        /* \"#utility.yul\":822:885   */\n    tag_94:\n        /* \"#utility.yul\":769:891   */\n      pop\n      jump\t// out\n        /* \"#utility.yul\":897:1036   */\n    tag_67:\n        /* \"#utility.yul\":943:948   */\n      0x00\n        /* \"#utility.yul\":981:987   */\n      dup2\n        /* \"#utility.yul\":968:988   */\n      calldataload\n        /* \"#utility.yul\":959:988   */\n      swap1\n      pop\n        /* \"#utility.yul\":997:1030   */\n      tag_96\n        /* \"#utility.yul\":1024:1029   */\n      dup2\n        /* \"#utility.yul\":997:1030   */\n      tag_66\n      jump\t// in\n    tag_96:\n        /* \"#utility.yul\":897:1036   */\n      swap3\n      swap2\n      pop\n      pop\n      jump\t// out\n        /* \"#utility.yul\":1042:1371   */\n    tag_20:\n        /* \"#utility.yul\":1101:1107   */\n      0x00\n        /* \"#utility.yul\":1150:1152   */\n      0x20\n        /* \"#utility.yul\":1138:1147   */\n      dup3\n        /* \"#utility.yul\":1129:1136   */\n      dup5\n        /* \"#utility.yul\":1125:1148   */\n      sub\n        /* \"#utility.yul\":1121:1153   */\n      slt\n        /* \"#utility.yul\":1118:1237   */\n      iszero\n      tag_98\n      jumpi\n        /* \"#utility.yul\":1156:1235   */\n      tag_99\n      tag_64\n      jump\t// in\n    tag_99:\n        /* \"#utility.yul\":1118:1237   */\n    tag_98:\n        /* \"#utility.yul\":1276:1277   */\n      0x00\n        /* \"#utility.yul\":1301:1354   */\n      tag_100\n        /* \"#utility.yul\":1346:1353   */\n      dup5\n        /* \"#utility.yul\":1337:1343   */\n      dup3\n        /* \"#utility.yul\":1326:1335   */\n      dup6\n        /* \"#utility.yul\":1322:1344   */\n      add\n        /* \"#utility.yul\":1301:1354   */\n      tag_67\n      jump\t// in\n    tag_100:\n        /* \"#utility.yul\":1291:1354   */\n      swap2\n      pop\n        /* \"#utility.yul\":1247:1364   */\n      pop\n        /* \"#utility.yul\":1042:1371   */\n      swap3\n      swap2\n      pop\n      pop\n      jump\t// out\n        /* \"#utility.yul\":1377:1503   */\n    tag_68:\n        /* \"#utility.yul\":1414:1421   */\n      0x00\n        /* \"#utility.yul\":1454:1496   */\n      0xffffffffffffffffffffffffffffffffffffffff\n        /* \"#utility.yul\":1447:1452   */\n      dup3\n        /* \"#utility.yul\":1443:1497   */\n      and\n        /* \"#utility.yul\":1432:1497   */\n      swap1\n      pop\n        /* \"#utility.yul\":1377:1503   */\n      swap2\n      swap1\n      pop\n      jump\t// out\n        /* \"#utility.yul\":1509:1605   */\n    tag_69:\n        /* \"#utility.yul\":1546:1553   */\n      0x00\n        /* \"#utility.yul\":1575:1599   */\n      tag_103\n        /* \"#utility.yul\":1593:1598   */\n      dup3\n        /* \"#utility.yul\":1575:1599   */\n      tag_68\n      jump\t// in\n    tag_103:\n        /* \"#utility.yul\":1564:1599   */\n      swap1\n      pop\n        /* \"#utility.yul\":1509:1605   */\n      swap2\n      swap1\n      pop\n      jump\t// out\n        /* \"#utility.yul\":1611:1729   */\n    tag_70:\n        /* \"#utility.yul\":1698:1722   */\n      tag_105\n        /* \"#utility.yul\":1716:1721   */\n      dup2\n        /* \"#utility.yul\":1698:1722   */\n      tag_69\n      jump\t// in\n    tag_105:\n        /* \"#utility.yul\":1693:1696   */\n      dup3\n        /* \"#utility.yul\":1686:1723   */\n      mstore\n        /* \"#utility.yul\":1611:1729   */\n      pop\n      pop\n      jump\t// out\n        /* \"#utility.yul\":1735:1957   */\n    tag_34:\n        /* \"#utility.yul\":1828:1832   */\n      0x00\n        /* \"#utility.yul\":1866:1868   */\n      0x20\n        /* \"#utility.yul\":1855:1864   */\n      dup3\n        /* \"#utility.yul\":1851:1869   */\n      add\n        /* \"#utility.yul\":1843:1869   */\n      swap1\n      pop\n        /* \"#utility.yul\":1879:1950   */\n      tag_107\n        /* \"#utility.yul\":1947:1948   */\n      0x00\n        /* \"#utility.yul\":1936:1945   */\n      dup4\n        /* \"#utility.yul\":1932:1949   */\n      add\n        /* \"#utility.yul\":1923:1929   */\n      dup5\n        /* \"#utility.yul\":1879:1950   */\n      tag_70\n      jump\t// in\n    tag_107:\n        /* \"#utility.yul\":1735:1957   */\n      swap3\n      swap2\n      pop\n      pop\n      jump\t// out\n        /* \"#utility.yul\":1963:2106   */\n    tag_71:\n        /* \"#utility.yul\":2020:2025   */\n      0x00\n        /* \"#utility.yul\":2051:2057   */\n      dup2\n        /* \"#utility.yul\":2045:2058   */\n      mload\n        /* \"#utility.yul\":2036:2058   */\n      swap1\n      pop\n        /* \"#utility.yul\":2067:2100   */\n      tag_109\n        /* \"#utility.yul\":2094:2099   */\n      dup2\n        /* \"#utility.yul\":2067:2100   */\n      tag_66\n      jump\t// in\n    tag_109:\n        /* \"#utility.yul\":1963:2106   */\n      swap3\n      swap2\n      pop\n      pop\n      jump\t// out\n        /* \"#utility.yul\":2112:2463   */\n    tag_39:\n        /* \"#utility.yul\":2182:2188   */\n      0x00\n        /* \"#utility.yul\":2231:2233   */\n      0x20\n        /* \"#utility.yul\":2219:2228   */\n      dup3\n        /* \"#utility.yul\":2210:2217   */\n      dup5\n        /* \"#utility.yul\":2206:2229   */\n      sub\n        /* \"#utility.yul\":2202:2234   */\n      slt\n        /* \"#utility.yul\":2199:2318   */\n      iszero\n      tag_111\n      jumpi\n        /* \"#utility.yul\":2237:2316   */\n      tag_112\n      tag_64\n      jump\t// in\n    tag_112:\n        /* \"#utility.yul\":2199:2318   */\n    tag_111:\n        /* \"#utility.yul\":2357:2358   */\n      0x00\n        /* \"#utility.yul\":2382:2446   */\n      tag_113\n        /* \"#utility.yul\":2438:2445   */\n      dup5\n        /* \"#utility.yul\":2429:2435   */\n      dup3\n        /* \"#utility.yul\":2418:2427   */\n      dup6\n        /* \"#utility.yul\":2414:2436   */\n      add\n        /* \"#utility.yul\":2382:2446   */\n      tag_71\n      jump\t// in\n    tag_113:\n        /* \"#utility.yul\":2372:2446   */\n      swap2\n      pop\n        /* \"#utility.yul\":2328:2456   */\n      pop\n        /* \"#utility.yul\":2112:2463   */\n      swap3\n      swap2\n      pop\n      pop\n      jump\t// out\n        /* \"#utility.yul\":2469:2649   */\n    tag_72:\n        /* \"#utility.yul\":2517:2594   */\n      0x4e487b7100000000000000000000000000000000000000000000000000000000\n        /* \"#utility.yul\":2514:2515   */\n      0x00\n        /* \"#utility.yul\":2507:2595   */\n      mstore\n        /* \"#utility.yul\":2614:2618   */\n      0x11\n        /* \"#utility.yul\":2611:2612   */\n      0x04\n        /* \"#utility.yul\":2604:2619   */\n      mstore\n        /* \"#utility.yul\":2638:2642   */\n      0x24\n        /* \"#utility.yul\":2635:2636   */\n      0x00\n        /* \"#utility.yul\":2628:2643   */\n      revert\n        /* \"#utility.yul\":2655:3065   */\n    tag_43:\n        /* \"#utility.yul\":2695:2702   */\n      0x00\n        /* \"#utility.yul\":2718:2738   */\n      tag_116\n        /* \"#utility.yul\":2736:2737   */\n      dup3\n        /* \"#utility.yul\":2718:2738   */\n      tag_61\n      jump\t// in\n    tag_116:\n        /* \"#utility.yul\":2713:2738   */\n      swap2\n      pop\n        /* \"#utility.yul\":2752:2772   */\n      tag_117\n        /* \"#utility.yul\":2770:2771   */\n      dup4\n        /* \"#utility.yul\":2752:2772   */\n      tag_61\n      jump\t// in\n    tag_117:\n        /* \"#utility.yul\":2747:2772   */\n      swap3\n      pop\n        /* \"#utility.yul\":2807:2808   */\n      dup3\n        /* \"#utility.yul\":2804:2805   */\n      dup3\n        /* \"#utility.yul\":2800:2809   */\n      mul\n        /* \"#utility.yul\":2829:2859   */\n      tag_118\n        /* \"#utility.yul\":2847:2858   */\n      dup2\n        /* \"#utility.yul\":2829:2859   */\n      tag_61\n      jump\t// in\n    tag_118:\n        /* \"#utility.yul\":2818:2859   */\n      swap2\n      pop\n        /* \"#utility.yul\":3008:3009   */\n      dup3\n        /* \"#utility.yul\":2999:3006   */\n      dup3\n        /* \"#utility.yul\":2995:3010   */\n      div\n        /* \"#utility.yul\":2992:2993   */\n      dup5\n        /* \"#utility.yul\":2989:3011   */\n      eq\n        /* \"#utility.yul\":2969:2970   */\n      dup4\n        /* \"#utility.yul\":2962:2971   */\n      iszero\n        /* \"#utility.yul\":2942:3025   */\n      or\n        /* \"#utility.yul\":2919:3058   */\n      tag_119\n      jumpi\n        /* \"#utility.yul\":3038:3056   */\n      tag_120\n      tag_72\n      jump\t// in\n    tag_120:\n        /* \"#utility.yul\":2919:3058   */\n    tag_119:\n        /* \"#utility.yul\":2703:3065   */\n      pop\n        /* \"#utility.yul\":2655:3065   */\n      swap3\n      swap2\n      pop\n      pop\n      jump\t// out\n        /* \"#utility.yul\":3071:3251   */\n    tag_73:\n        /* \"#utility.yul\":3119:3196   */\n      0x4e487b7100000000000000000000000000000000000000000000000000000000\n        /* \"#utility.yul\":3116:3117   */\n      0x00\n        /* \"#utility.yul\":3109:3197   */\n      mstore\n        /* \"#utility.yul\":3216:3220   */\n      0x12\n        /* \"#utility.yul\":3213:3214   */\n      0x04\n        /* \"#utility.yul\":3206:3221   */\n      mstore\n        /* \"#utility.yul\":3240:3244   */\n      0x24\n        /* \"#utility.yul\":3237:3238   */\n      0x00\n        /* \"#utility.yul\":3230:3245   */\n      revert\n        /* \"#utility.yul\":3257:3442   */\n    tag_45:\n        /* \"#utility.yul\":3297:3298   */\n      0x00\n        /* \"#utility.yul\":3314:3334   */\n      tag_123\n        /* \"#utility.yul\":3332:3333   */\n      dup3\n        /* \"#utility.yul\":3314:3334   */\n      tag_61\n      jump\t// in\n    tag_123:\n        /* \"#utility.yul\":3309:3334   */\n      swap2\n      pop\n        /* \"#utility.yul\":3348:3368   */\n      tag_124\n        /* \"#utility.yul\":3366:3367   */\n      dup4\n        /* \"#utility.yul\":3348:3368   */\n      tag_61\n      jump\t// in\n    tag_124:\n        /* \"#utility.yul\":3343:3368   */\n      swap3\n      pop\n        /* \"#utility.yul\":3387:3388   */\n      dup3\n        /* \"#utility.yul\":3377:3412   */\n      tag_125\n      jumpi\n        /* \"#utility.yul\":3392:3410   */\n      tag_126\n      tag_73\n      jump\t// in\n    tag_126:\n        /* \"#utility.yul\":3377:3412   */\n    tag_125:\n        /* \"#utility.yul\":3434:3435   */\n      dup3\n        /* \"#utility.yul\":3431:3432   */\n      dup3\n        /* \"#utility.yul\":3427:3436   */\n      div\n        /* \"#utility.yul\":3422:3436   */\n      swap1\n      pop\n        /* \"#utility.yul\":3257:3442   */\n      swap3\n      swap2\n      pop\n      pop\n      jump\t// out\n        /* \"#utility.yul\":3448:3553   */\n    tag_74:\n        /* \"#utility.yul\":3484:3491   */\n      0x00\n        /* \"#utility.yul\":3524:3546   */\n      0xffffffffffffffffffff\n        /* \"#utility.yul\":3517:3522   */\n      dup3\n        /* \"#utility.yul\":3513:3547   */\n      and\n        /* \"#utility.yul\":3502:3547   */\n      swap1\n      pop\n        /* \"#utility.yul\":3448:3553   */\n      swap2\n      swap1\n      pop\n      jump\t// out\n        /* \"#utility.yul\":3559:3679   */\n    tag_75:\n        /* \"#utility.yul\":3631:3654   */\n      tag_129\n        /* \"#utility.yul\":3648:3653   */\n      dup2\n        /* \"#utility.yul\":3631:3654   */\n      tag_74\n      jump\t// in\n    tag_129:\n        /* \"#utility.yul\":3624:3629   */\n      dup2\n        /* \"#utility.yul\":3621:3655   */\n      eq\n        /* \"#utility.yul\":3611:3673   */\n      tag_130\n      jumpi\n        /* \"#utility.yul\":3669:3670   */\n      0x00\n        /* \"#utility.yul\":3666:3667   */\n      dup1\n        /* \"#utility.yul\":3659:3671   */\n      revert\n        /* \"#utility.yul\":3611:3673   */\n    tag_130:\n        /* \"#utility.yul\":3559:3679   */\n      pop\n      jump\t// out\n        /* \"#utility.yul\":3685:3826   */\n    tag_76:\n        /* \"#utility.yul\":3741:3746   */\n      0x00\n        /* \"#utility.yul\":3772:3778   */\n      dup2\n        /* \"#utility.yul\":3766:3779   */\n      mload\n        /* \"#utility.yul\":3757:3779   */\n      swap1\n      pop\n        /* \"#utility.yul\":3788:3820   */\n      tag_132\n        /* \"#utility.yul\":3814:3819   */\n      dup2\n        /* \"#utility.yul\":3788:3820   */\n      tag_75\n      jump\t// in\n    tag_132:\n        /* \"#utility.yul\":3685:3826   */\n      swap3\n      swap2\n      pop\n      pop\n      jump\t// out\n        /* \"#utility.yul\":3832:3908   */\n    tag_77:\n        /* \"#utility.yul\":3868:3875   */\n      0x00\n        /* \"#utility.yul\":3897:3902   */\n      dup2\n        /* \"#utility.yul\":3886:3902   */\n      swap1\n      pop\n        /* \"#utility.yul\":3832:3908   */\n      swap2\n      swap1\n      pop\n      jump\t// out\n        /* \"#utility.yul\":3914:4034   */\n    tag_78:\n        /* \"#utility.yul\":3986:4009   */\n      tag_135\n        /* \"#utility.yul\":4003:4008   */\n      dup2\n        /* \"#utility.yul\":3986:4009   */\n      tag_77\n      jump\t// in\n    tag_135:\n        /* \"#utility.yul\":3979:3984   */\n      dup2\n        /* \"#utility.yul\":3976:4010   */\n      eq\n        /* \"#utility.yul\":3966:4028   */\n      tag_136\n      jumpi\n        /* \"#utility.yul\":4024:4025   */\n      0x00\n        /* \"#utility.yul\":4021:4022   */\n      dup1\n        /* \"#utility.yul\":4014:4026   */\n      revert\n        /* \"#utility.yul\":3966:4028   */\n    tag_136:\n        /* \"#utility.yul\":3914:4034   */\n      pop\n      jump\t// out\n        /* \"#utility.yul\":4040:4181   */\n    tag_79:\n        /* \"#utility.yul\":4096:4101   */\n      0x00\n        /* \"#utility.yul\":4127:4133   */\n      dup2\n        /* \"#utility.yul\":4121:4134   */\n      mload\n        /* \"#utility.yul\":4112:4134   */\n      swap1\n      pop\n        /* \"#utility.yul\":4143:4175   */\n      tag_138\n        /* \"#utility.yul\":4169:4174   */\n      dup2\n        /* \"#utility.yul\":4143:4175   */\n      tag_78\n      jump\t// in\n    tag_138:\n        /* \"#utility.yul\":4040:4181   */\n      swap3\n      swap2\n      pop\n      pop\n      jump\t// out\n        /* \"#utility.yul\":4187:5158   */\n    tag_50:\n        /* \"#utility.yul\":4290:4296   */\n      0x00\n        /* \"#utility.yul\":4298:4304   */\n      dup1\n        /* \"#utility.yul\":4306:4312   */\n      0x00\n        /* \"#utility.yul\":4314:4320   */\n      dup1\n        /* \"#utility.yul\":4322:4328   */\n      0x00\n        /* \"#utility.yul\":4371:4374   */\n      0xa0\n        /* \"#utility.yul\":4359:4368   */\n      dup7\n        /* \"#utility.yul\":4350:4357   */\n      dup9\n        /* \"#utility.yul\":4346:4369   */\n      sub\n        /* \"#utility.yul\":4342:4375   */\n      slt\n        /* \"#utility.yul\":4339:4459   */\n      iszero\n      tag_140\n      jumpi\n        /* \"#utility.yul\":4378:4457   */\n      tag_141\n      tag_64\n      jump\t// in\n    tag_141:\n        /* \"#utility.yul\":4339:4459   */\n    tag_140:\n        /* \"#utility.yul\":4498:4499   */\n      0x00\n        /* \"#utility.yul\":4523:4586   */\n      tag_142\n        /* \"#utility.yul\":4578:4585   */\n      dup9\n        /* \"#utility.yul\":4569:4575   */\n      dup3\n        /* \"#utility.yul\":4558:4567   */\n      dup10\n        /* \"#utility.yul\":4554:4576   */\n      add\n        /* \"#utility.yul\":4523:4586   */\n      tag_76\n      jump\t// in\n    tag_142:\n        /* \"#utility.yul\":4513:4586   */\n      swap6\n      pop\n        /* \"#utility.yul\":4469:4596   */\n      pop\n        /* \"#utility.yul\":4635:4637   */\n      0x20\n        /* \"#utility.yul\":4661:4724   */\n      tag_143\n        /* \"#utility.yul\":4716:4723   */\n      dup9\n        /* \"#utility.yul\":4707:4713   */\n      dup3\n        /* \"#utility.yul\":4696:4705   */\n      dup10\n        /* \"#utility.yul\":4692:4714   */\n      add\n        /* \"#utility.yul\":4661:4724   */\n      tag_79\n      jump\t// in\n    tag_143:\n        /* \"#utility.yul\":4651:4724   */\n      swap5\n      pop\n        /* \"#utility.yul\":4606:4734   */\n      pop\n        /* \"#utility.yul\":4773:4775   */\n      0x40\n        /* \"#utility.yul\":4799:4863   */\n      tag_144\n        /* \"#utility.yul\":4855:4862   */\n      dup9\n        /* \"#utility.yul\":4846:4852   */\n      dup3\n        /* \"#utility.yul\":4835:4844   */\n      dup10\n        /* \"#utility.yul\":4831:4853   */\n      add\n        /* \"#utility.yul\":4799:4863   */\n      tag_71\n      jump\t// in\n    tag_144:\n        /* \"#utility.yul\":4789:4863   */\n      swap4\n      pop\n        /* \"#utility.yul\":4744:4873   */\n      pop\n        /* \"#utility.yul\":4912:4914   */\n      0x60\n        /* \"#utility.yul\":4938:5002   */\n      tag_145\n        /* \"#utility.yul\":4994:5001   */\n      dup9\n        /* \"#utility.yul\":4985:4991   */\n      dup3\n        /* \"#utility.yul\":4974:4983   */\n      dup10\n        /* \"#utility.yul\":4970:4992   */\n      add\n        /* \"#utility.yul\":4938:5002   */\n      tag_71\n      jump\t// in\n    tag_145:\n        /* \"#utility.yul\":4928:5002   */\n      swap3\n      pop\n        /* \"#utility.yul\":4883:5012   */\n      pop\n        /* \"#utility.yul\":5051:5054   */\n      0x80\n        /* \"#utility.yul\":5078:5141   */\n      tag_146\n        /* \"#utility.yul\":5133:5140   */\n      dup9\n        /* \"#utility.yul\":5124:5130   */\n      dup3\n        /* \"#utility.yul\":5113:5122   */\n      dup10\n        /* \"#utility.yul\":5109:5131   */\n      add\n        /* \"#utility.yul\":5078:5141   */\n      tag_76\n      jump\t// in\n    tag_146:\n        /* \"#utility.yul\":5068:5141   */\n      swap2\n      pop\n        /* \"#utility.yul\":5022:5151   */\n      pop\n        /* \"#utility.yul\":4187:5158   */\n      swap3\n      swap6\n      pop\n      swap3\n      swap6\n      swap1\n      swap4\n      pop\n      jump\t// out\n        /* \"#utility.yul\":5164:5720   */\n    tag_52:\n        /* \"#utility.yul\":5203:5210   */\n      0x00\n        /* \"#utility.yul\":5226:5245   */\n      tag_148\n        /* \"#utility.yul\":5243:5244   */\n      dup3\n        /* \"#utility.yul\":5226:5245   */\n      tag_77\n      jump\t// in\n    tag_148:\n        /* \"#utility.yul\":5221:5245   */\n      swap2\n      pop\n        /* \"#utility.yul\":5259:5278   */\n      tag_149\n        /* \"#utility.yul\":5276:5277   */\n      dup4\n        /* \"#utility.yul\":5259:5278   */\n      tag_77\n      jump\t// in\n    tag_149:\n        /* \"#utility.yul\":5254:5278   */\n      swap3\n      pop\n        /* \"#utility.yul\":5313:5314   */\n      dup3\n        /* \"#utility.yul\":5310:5311   */\n      dup3\n        /* \"#utility.yul\":5306:5315   */\n      mul\n        /* \"#utility.yul\":5335:5364   */\n      tag_150\n        /* \"#utility.yul\":5352:5363   */\n      dup2\n        /* \"#utility.yul\":5335:5364   */\n      tag_77\n      jump\t// in\n    tag_150:\n        /* \"#utility.yul\":5324:5364   */\n      swap2\n      pop\n        /* \"#utility.yul\":5422:5488   */\n      0x8000000000000000000000000000000000000000000000000000000000000000\n        /* \"#utility.yul\":5419:5420   */\n      dup5\n        /* \"#utility.yul\":5416:5489   */\n      eq\n        /* \"#utility.yul\":5412:5413   */\n      0x00\n        /* \"#utility.yul\":5409:5410   */\n      dup5\n        /* \"#utility.yul\":5405:5414   */\n      slt\n        /* \"#utility.yul\":5401:5490   */\n      and\n        /* \"#utility.yul\":5398:5513   */\n      iszero\n      tag_151\n      jumpi\n        /* \"#utility.yul\":5493:5511   */\n      tag_152\n      tag_72\n      jump\t// in\n    tag_152:\n        /* \"#utility.yul\":5398:5513   */\n    tag_151:\n        /* \"#utility.yul\":5663:5664   */\n      dup3\n        /* \"#utility.yul\":5654:5661   */\n      dup3\n        /* \"#utility.yul\":5649:5665   */\n      sdiv\n        /* \"#utility.yul\":5646:5647   */\n      dup5\n        /* \"#utility.yul\":5643:5666   */\n      eq\n        /* \"#utility.yul\":5623:5624   */\n      dup4\n        /* \"#utility.yul\":5616:5625   */\n      iszero\n        /* \"#utility.yul\":5596:5680   */\n      or\n        /* \"#utility.yul\":5573:5713   */\n      tag_153\n      jumpi\n        /* \"#utility.yul\":5693:5711   */\n      tag_154\n      tag_72\n      jump\t// in\n    tag_154:\n        /* \"#utility.yul\":5573:5713   */\n    tag_153:\n        /* \"#utility.yul\":5211:5720   */\n      pop\n        /* \"#utility.yul\":5164:5720   */\n      swap3\n      swap2\n      pop\n      pop\n      jump\t// out\n        /* \"#utility.yul\":5726:5895   */\n    tag_80:\n        /* \"#utility.yul\":5810:5821   */\n      0x00\n        /* \"#utility.yul\":5844:5850   */\n      dup3\n        /* \"#utility.yul\":5839:5842   */\n      dup3\n        /* \"#utility.yul\":5832:5851   */\n      mstore\n        /* \"#utility.yul\":5884:5888   */\n      0x20\n        /* \"#utility.yul\":5879:5882   */\n      dup3\n        /* \"#utility.yul\":5875:5889   */\n      add\n        /* \"#utility.yul\":5860:5889   */\n      swap1\n      pop\n        /* \"#utility.yul\":5726:5895   */\n      swap3\n      swap2\n      pop\n      pop\n      jump\t// out\n        /* \"#utility.yul\":5901:6068   */\n    tag_81:\n        /* \"#utility.yul\":6041:6060   */\n      0x6469646e742073656e6420656e6f756768000000000000000000000000000000\n        /* \"#utility.yul\":6037:6038   */\n      0x00\n        /* \"#utility.yul\":6029:6035   */\n      dup3\n        /* \"#utility.yul\":6025:6039   */\n      add\n        /* \"#utility.yul\":6018:6061   */\n      mstore\n        /* \"#utility.yul\":5901:6068   */\n      pop\n      jump\t// out\n        /* \"#utility.yul\":6074:6440   */\n    tag_82:\n        /* \"#utility.yul\":6216:6219   */\n      0x00\n        /* \"#utility.yul\":6237:6304   */\n      tag_158\n        /* \"#utility.yul\":6301:6303   */\n      0x11\n        /* \"#utility.yul\":6296:6299   */\n      dup4\n        /* \"#utility.yul\":6237:6304   */\n      tag_80\n      jump\t// in\n    tag_158:\n        /* \"#utility.yul\":6230:6304   */\n      swap2\n      pop\n        /* \"#utility.yul\":6313:6406   */\n      tag_159\n        /* \"#utility.yul\":6402:6405   */\n      dup3\n        /* \"#utility.yul\":6313:6406   */\n      tag_81\n      jump\t// in\n    tag_159:\n        /* \"#utility.yul\":6431:6433   */\n      0x20\n        /* \"#utility.yul\":6426:6429   */\n      dup3\n        /* \"#utility.yul\":6422:6434   */\n      add\n        /* \"#utility.yul\":6415:6434   */\n      swap1\n      pop\n        /* \"#utility.yul\":6074:6440   */\n      swap2\n      swap1\n      pop\n      jump\t// out\n        /* \"#utility.yul\":6446:6865   */\n    tag_57:\n        /* \"#utility.yul\":6612:6616   */\n      0x00\n        /* \"#utility.yul\":6650:6652   */\n      0x20\n        /* \"#utility.yul\":6639:6648   */\n      dup3\n        /* \"#utility.yul\":6635:6653   */\n      add\n        /* \"#utility.yul\":6627:6653   */\n      swap1\n      pop\n        /* \"#utility.yul\":6699:6708   */\n      dup2\n        /* \"#utility.yul\":6693:6697   */\n      dup2\n        /* \"#utility.yul\":6689:6709   */\n      sub\n        /* \"#utility.yul\":6685:6686   */\n      0x00\n        /* \"#utility.yul\":6674:6683   */\n      dup4\n        /* \"#utility.yul\":6670:6687   */\n      add\n        /* \"#utility.yul\":6663:6710   */\n      mstore\n        /* \"#utility.yul\":6727:6858   */\n      tag_161\n        /* \"#utility.yul\":6853:6857   */\n      dup2\n        /* \"#utility.yul\":6727:6858   */\n      tag_82\n      jump\t// in\n    tag_161:\n        /* \"#utility.yul\":6719:6858   */\n      swap1\n      pop\n        /* \"#utility.yul\":6446:6865   */\n      swap2\n      swap1\n      pop\n      jump\t// out\n\n    auxdata: 0xa26469706673582212201f76601d5c18e987216ffebe1b108607cb602cc777e671e1b54bc30a612cde5a64736f6c634300081a0033\n}\n",
				"bytecode": {
					"linkReferences": {},
					"object": "60806040526802b5e3af16b18800005f55348015601a575f80fd5b506107a8806100285f395ff3fe608060405260043610610054575f3560e01c8063098de820146100585780630d8e6e2c146100825780636e5b6b28146100ac57806398d5fdca146100e8578063b60d428814610112578063dc0d3dff1461011c575b5f80fd5b348015610063575f80fd5b5061006c610158565b60405161007991906103c7565b60405180910390f35b34801561008d575f80fd5b5061009661015d565b6040516100a391906103c7565b60405180910390f35b3480156100b7575f80fd5b506100d260048036038101906100cd919061040e565b6101e9565b6040516100df91906103c7565b60405180910390f35b3480156100f3575f80fd5b506100fc610221565b60405161010991906103c7565b60405180910390f35b61011a6102c6565b005b348015610127575f80fd5b50610142600480360381019061013d919061040e565b610374565b60405161014f9190610478565b60405180910390f35b5f5481565b5f8073694aa1769357215de4fac081bf1f309adc32530690508073ffffffffffffffffffffffffffffffffffffffff166354fd4d506040518163ffffffff1660e01b8152600401602060405180830381865afa1580156101bf573d5f803e3d5ffd5b505050506040513d601f19601f820116820180604052508101906101e391906104a5565b91505090565b5f806101f3610221565b90505f670de0b6b3a7640000848361020b91906104fd565b610215919061056b565b90508092505050919050565b5f8073694aa1769357215de4fac081bf1f309adc32530690505f8173ffffffffffffffffffffffffffffffffffffffff1663feaf968c6040518163ffffffff1660e01b815260040160a060405180830381865afa158015610284573d5f803e3d5ffd5b505050506040513d601f19601f820116820180604052508101906102a8919061060d565b5050509150506402540be400816102bf9190610684565b9250505090565b5f546102d1346101e9565b1015610312576040517f08c379a000000000000000000000000000000000000000000000000000000000815260040161030990610754565b60405180910390fd5b600133908060018154018082558091505060019003905f5260205f20015f9091909190916101000a81548173ffffffffffffffffffffffffffffffffffffffff021916908373ffffffffffffffffffffffffffffffffffffffff160217905550565b60018181548110610383575f80fd5b905f5260205f20015f915054906101000a900473ffffffffffffffffffffffffffffffffffffffff1681565b5f819050919050565b6103c1816103af565b82525050565b5f6020820190506103da5f8301846103b8565b92915050565b5f80fd5b6103ed816103af565b81146103f7575f80fd5b50565b5f81359050610408816103e4565b92915050565b5f60208284031215610423576104226103e0565b5b5f610430848285016103fa565b91505092915050565b5f73ffffffffffffffffffffffffffffffffffffffff82169050919050565b5f61046282610439565b9050919050565b61047281610458565b82525050565b5f60208201905061048b5f830184610469565b92915050565b5f8151905061049f816103e4565b92915050565b5f602082840312156104ba576104b96103e0565b5b5f6104c784828501610491565b91505092915050565b7f4e487b71000000000000000000000000000000000000000000000000000000005f52601160045260245ffd5b5f610507826103af565b9150610512836103af565b9250828202610520816103af565b91508282048414831517610537576105366104d0565b5b5092915050565b7f4e487b71000000000000000000000000000000000000000000000000000000005f52601260045260245ffd5b5f610575826103af565b9150610580836103af565b9250826105905761058f61053e565b5b828204905092915050565b5f69ffffffffffffffffffff82169050919050565b6105b98161059b565b81146105c3575f80fd5b50565b5f815190506105d4816105b0565b92915050565b5f819050919050565b6105ec816105da565b81146105f6575f80fd5b50565b5f81519050610607816105e3565b92915050565b5f805f805f60a08688031215610626576106256103e0565b5b5f610633888289016105c6565b9550506020610644888289016105f9565b945050604061065588828901610491565b935050606061066688828901610491565b9250506080610677888289016105c6565b9150509295509295909350565b5f61068e826105da565b9150610699836105da565b92508282026106a7816105da565b91507f800000000000000000000000000000000000000000000000000000000000000084145f841216156106de576106dd6104d0565b5b82820584148315176106f3576106f26104d0565b5b5092915050565b5f82825260208201905092915050565b7f6469646e742073656e6420656e6f7567680000000000000000000000000000005f82015250565b5f61073e6011836106fa565b91506107498261070a565b602082019050919050565b5f6020820190508181035f83015261076b81610732565b905091905056fea26469706673582212201f76601d5c18e987216ffebe1b108607cb602cc777e671e1b54bc30a612cde5a64736f6c634300081a0033",
					"opcodes": "PUSH1 0x80 PUSH1 0x40 MSTORE PUSH9 0x2B5E3AF16B1880000 PUSH0 SSTORE CALLVALUE DUP1 ISZERO PUSH1 0x1A JUMPI PUSH0 DUP1 REVERT JUMPDEST POP PUSH2 0x7A8 DUP1 PUSH2 0x28 PUSH0 CODECOPY PUSH0 RETURN INVALID PUSH1 0x80 PUSH1 0x40 MSTORE PUSH1 0x4 CALLDATASIZE LT PUSH2 0x54 JUMPI PUSH0 CALLDATALOAD PUSH1 0xE0 SHR DUP1 PUSH4 0x98DE820 EQ PUSH2 0x58 JUMPI DUP1 PUSH4 0xD8E6E2C EQ PUSH2 0x82 JUMPI DUP1 PUSH4 0x6E5B6B28 EQ PUSH2 0xAC JUMPI DUP1 PUSH4 0x98D5FDCA EQ PUSH2 0xE8 JUMPI DUP1 PUSH4 0xB60D4288 EQ PUSH2 0x112 JUMPI DUP1 PUSH4 0xDC0D3DFF EQ PUSH2 0x11C JUMPI JUMPDEST PUSH0 DUP1 REVERT JUMPDEST CALLVALUE DUP1 ISZERO PUSH2 0x63 JUMPI PUSH0 DUP1 REVERT JUMPDEST POP PUSH2 0x6C PUSH2 0x158 JUMP JUMPDEST PUSH1 0x40 MLOAD PUSH2 0x79 SWAP2 SWAP1 PUSH2 0x3C7 JUMP JUMPDEST PUSH1 0x40 MLOAD DUP1 SWAP2 SUB SWAP1 RETURN JUMPDEST CALLVALUE DUP1 ISZERO PUSH2 0x8D JUMPI PUSH0 DUP1 REVERT JUMPDEST POP PUSH2 0x96 PUSH2 0x15D JUMP JUMPDEST PUSH1 0x40 MLOAD PUSH2 0xA3 SWAP2 SWAP1 PUSH2 0x3C7 JUMP JUMPDEST PUSH1 0x40 MLOAD DUP1 SWAP2 SUB SWAP1 RETURN JUMPDEST CALLVALUE DUP1 ISZERO PUSH2 0xB7 JUMPI PUSH0 DUP1 REVERT JUMPDEST POP PUSH2 0xD2 PUSH1 0x4 DUP1 CALLDATASIZE SUB DUP2 ADD SWAP1 PUSH2 0xCD SWAP2 SWAP1 PUSH2 0x40E JUMP JUMPDEST PUSH2 0x1E9 JUMP JUMPDEST PUSH1 0x40 MLOAD PUSH2 0xDF SWAP2 SWAP1 PUSH2 0x3C7 JUMP JUMPDEST PUSH1 0x40 MLOAD DUP1 SWAP2 SUB SWAP1 RETURN JUMPDEST CALLVALUE DUP1 ISZERO PUSH2 0xF3 JUMPI PUSH0 DUP1 REVERT JUMPDEST POP PUSH2 0xFC PUSH2 0x221 JUMP JUMPDEST PUSH1 0x40 MLOAD PUSH2 0x109 SWAP2 SWAP1 PUSH2 0x3C7 JUMP JUMPDEST PUSH1 0x40 MLOAD DUP1 SWAP2 SUB SWAP1 RETURN JUMPDEST PUSH2 0x11A PUSH2 0x2C6 JUMP JUMPDEST STOP JUMPDEST CALLVALUE DUP1 ISZERO PUSH2 0x127 JUMPI PUSH0 DUP1 REVERT JUMPDEST POP PUSH2 0x142 PUSH1 0x4 DUP1 CALLDATASIZE SUB DUP2 ADD SWAP1 PUSH2 0x13D SWAP2 SWAP1 PUSH2 0x40E JUMP JUMPDEST PUSH2 0x374 JUMP JUMPDEST PUSH1 0x40 MLOAD PUSH2 0x14F SWAP2 SWAP1 PUSH2 0x478 JUMP JUMPDEST PUSH1 0x40 MLOAD DUP1 SWAP2 SUB SWAP1 RETURN JUMPDEST PUSH0 SLOAD DUP2 JUMP JUMPDEST PUSH0 DUP1 PUSH20 0x694AA1769357215DE4FAC081BF1F309ADC325306 SWAP1 POP DUP1 PUSH20 0xFFFFFFFFFFFFFFFFFFFFFFFFFFFFFFFFFFFFFFFF AND PUSH4 0x54FD4D50 PUSH1 0x40 MLOAD DUP2 PUSH4 0xFFFFFFFF AND PUSH1 0xE0 SHL DUP2 MSTORE PUSH1 0x4 ADD PUSH1 0x20 PUSH1 0x40 MLOAD DUP1 DUP4 SUB DUP2 DUP7 GAS STATICCALL ISZERO DUP1 ISZERO PUSH2 0x1BF JUMPI RETURNDATASIZE PUSH0 DUP1 RETURNDATACOPY RETURNDATASIZE PUSH0 REVERT JUMPDEST POP POP POP POP PUSH1 0x40 MLOAD RETURNDATASIZE PUSH1 0x1F NOT PUSH1 0x1F DUP3 ADD AND DUP3 ADD DUP1 PUSH1 0x40 MSTORE POP DUP2 ADD SWAP1 PUSH2 0x1E3 SWAP2 SWAP1 PUSH2 0x4A5 JUMP JUMPDEST SWAP2 POP POP SWAP1 JUMP JUMPDEST PUSH0 DUP1 PUSH2 0x1F3 PUSH2 0x221 JUMP JUMPDEST SWAP1 POP PUSH0 PUSH8 0xDE0B6B3A7640000 DUP5 DUP4 PUSH2 0x20B SWAP2 SWAP1 PUSH2 0x4FD JUMP JUMPDEST PUSH2 0x215 SWAP2 SWAP1 PUSH2 0x56B JUMP JUMPDEST SWAP1 POP DUP1 SWAP3 POP POP POP SWAP2 SWAP1 POP JUMP JUMPDEST PUSH0 DUP1 PUSH20 0x694AA1769357215DE4FAC081BF1F309ADC325306 SWAP1 POP PUSH0 DUP2 PUSH20 0xFFFFFFFFFFFFFFFFFFFFFFFFFFFFFFFFFFFFFFFF AND PUSH4 0xFEAF968C PUSH1 0x40 MLOAD DUP2 PUSH4 0xFFFFFFFF AND PUSH1 0xE0 SHL DUP2 MSTORE PUSH1 0x4 ADD PUSH1 0xA0 PUSH1 0x40 MLOAD DUP1 DUP4 SUB DUP2 DUP7 GAS STATICCALL ISZERO DUP1 ISZERO PUSH2 0x284 JUMPI RETURNDATASIZE PUSH0 DUP1 RETURNDATACOPY RETURNDATASIZE PUSH0 REVERT JUMPDEST POP POP POP POP PUSH1 0x40 MLOAD RETURNDATASIZE PUSH1 0x1F NOT PUSH1 0x1F DUP3 ADD AND DUP3 ADD DUP1 PUSH1 0x40 MSTORE POP DUP2 ADD SWAP1 PUSH2 0x2A8 SWAP2 SWAP1 PUSH2 0x60D JUMP JUMPDEST POP POP POP SWAP2 POP POP PUSH5 0x2540BE400 DUP2 PUSH2 0x2BF SWAP2 SWAP1 PUSH2 0x684 JUMP JUMPDEST SWAP3 POP POP POP SWAP1 JUMP JUMPDEST PUSH0 SLOAD PUSH2 0x2D1 CALLVALUE PUSH2 0x1E9 JUMP JUMPDEST LT ISZERO PUSH2 0x312 JUMPI PUSH1 0x40 MLOAD PUSH32 0x8C379A000000000000000000000000000000000000000000000000000000000 DUP2 MSTORE PUSH1 0x4 ADD PUSH2 0x309 SWAP1 PUSH2 0x754 JUMP JUMPDEST PUSH1 0x40 MLOAD DUP1 SWAP2 SUB SWAP1 REVERT JUMPDEST PUSH1 0x1 CALLER SWAP1 DUP1 PUSH1 0x1 DUP2 SLOAD ADD DUP1 DUP3 SSTORE DUP1 SWAP2 POP POP PUSH1 0x1 SWAP1 SUB SWAP1 PUSH0 MSTORE PUSH1 0x20 PUSH0 KECCAK256 ADD PUSH0 SWAP1 SWAP2 SWAP1 SWAP2 SWAP1 SWAP2 PUSH2 0x100 EXP DUP2 SLOAD DUP2 PUSH20 0xFFFFFFFFFFFFFFFFFFFFFFFFFFFFFFFFFFFFFFFF MUL NOT AND SWAP1 DUP4 PUSH20 0xFFFFFFFFFFFFFFFFFFFFFFFFFFFFFFFFFFFFFFFF AND MUL OR SWAP1 SSTORE POP JUMP JUMPDEST PUSH1 0x1 DUP2 DUP2 SLOAD DUP2 LT PUSH2 0x383 JUMPI PUSH0 DUP1 REVERT JUMPDEST SWAP1 PUSH0 MSTORE PUSH1 0x20 PUSH0 KECCAK256 ADD PUSH0 SWAP2 POP SLOAD SWAP1 PUSH2 0x100 EXP SWAP1 DIV PUSH20 0xFFFFFFFFFFFFFFFFFFFFFFFFFFFFFFFFFFFFFFFF AND DUP2 JUMP JUMPDEST PUSH0 DUP2 SWAP1 POP SWAP2 SWAP1 POP JUMP JUMPDEST PUSH2 0x3C1 DUP2 PUSH2 0x3AF JUMP JUMPDEST DUP3 MSTORE POP POP JUMP JUMPDEST PUSH0 PUSH1 0x20 DUP3 ADD SWAP1 POP PUSH2 0x3DA PUSH0 DUP4 ADD DUP5 PUSH2 0x3B8 JUMP JUMPDEST SWAP3 SWAP2 POP POP JUMP JUMPDEST PUSH0 DUP1 REVERT JUMPDEST PUSH2 0x3ED DUP2 PUSH2 0x3AF JUMP JUMPDEST DUP2 EQ PUSH2 0x3F7 JUMPI PUSH0 DUP1 REVERT JUMPDEST POP JUMP JUMPDEST PUSH0 DUP2 CALLDATALOAD SWAP1 POP PUSH2 0x408 DUP2 PUSH2 0x3E4 JUMP JUMPDEST SWAP3 SWAP2 POP POP JUMP JUMPDEST PUSH0 PUSH1 0x20 DUP3 DUP5 SUB SLT ISZERO PUSH2 0x423 JUMPI PUSH2 0x422 PUSH2 0x3E0 JUMP JUMPDEST JUMPDEST PUSH0 PUSH2 0x430 DUP5 DUP3 DUP6 ADD PUSH2 0x3FA JUMP JUMPDEST SWAP2 POP POP SWAP3 SWAP2 POP POP JUMP JUMPDEST PUSH0 PUSH20 0xFFFFFFFFFFFFFFFFFFFFFFFFFFFFFFFFFFFFFFFF DUP3 AND SWAP1 POP SWAP2 SWAP1 POP JUMP JUMPDEST PUSH0 PUSH2 0x462 DUP3 PUSH2 0x439 JUMP JUMPDEST SWAP1 POP SWAP2 SWAP1 POP JUMP JUMPDEST PUSH2 0x472 DUP2 PUSH2 0x458 JUMP JUMPDEST DUP3 MSTORE POP POP JUMP JUMPDEST PUSH0 PUSH1 0x20 DUP3 ADD SWAP1 POP PUSH2 0x48B PUSH0 DUP4 ADD DUP5 PUSH2 0x469 JUMP JUMPDEST SWAP3 SWAP2 POP POP JUMP JUMPDEST PUSH0 DUP2 MLOAD SWAP1 POP PUSH2 0x49F DUP2 PUSH2 0x3E4 JUMP JUMPDEST SWAP3 SWAP2 POP POP JUMP JUMPDEST PUSH0 PUSH1 0x20 DUP3 DUP5 SUB SLT ISZERO PUSH2 0x4BA JUMPI PUSH2 0x4B9 PUSH2 0x3E0 JUMP JUMPDEST JUMPDEST PUSH0 PUSH2 0x4C7 DUP5 DUP3 DUP6 ADD PUSH2 0x491 JUMP JUMPDEST SWAP2 POP POP SWAP3 SWAP2 POP POP JUMP JUMPDEST PUSH32 0x4E487B7100000000000000000000000000000000000000000000000000000000 PUSH0 MSTORE PUSH1 0x11 PUSH1 0x4 MSTORE PUSH1 0x24 PUSH0 REVERT JUMPDEST PUSH0 PUSH2 0x507 DUP3 PUSH2 0x3AF JUMP JUMPDEST SWAP2 POP PUSH2 0x512 DUP4 PUSH2 0x3AF JUMP JUMPDEST SWAP3 POP DUP3 DUP3 MUL PUSH2 0x520 DUP2 PUSH2 0x3AF JUMP JUMPDEST SWAP2 POP DUP3 DUP3 DIV DUP5 EQ DUP4 ISZERO OR PUSH2 0x537 JUMPI PUSH2 0x536 PUSH2 0x4D0 JUMP JUMPDEST JUMPDEST POP SWAP3 SWAP2 POP POP JUMP JUMPDEST PUSH32 0x4E487B7100000000000000000000000000000000000000000000000000000000 PUSH0 MSTORE PUSH1 0x12 PUSH1 0x4 MSTORE PUSH1 0x24 PUSH0 REVERT JUMPDEST PUSH0 PUSH2 0x575 DUP3 PUSH2 0x3AF JUMP JUMPDEST SWAP2 POP PUSH2 0x580 DUP4 PUSH2 0x3AF JUMP JUMPDEST SWAP3 POP DUP3 PUSH2 0x590 JUMPI PUSH2 0x58F PUSH2 0x53E JUMP JUMPDEST JUMPDEST DUP3 DUP3 DIV SWAP1 POP SWAP3 SWAP2 POP POP JUMP JUMPDEST PUSH0 PUSH10 0xFFFFFFFFFFFFFFFFFFFF DUP3 AND SWAP1 POP SWAP2 SWAP1 POP JUMP JUMPDEST PUSH2 0x5B9 DUP2 PUSH2 0x59B JUMP JUMPDEST DUP2 EQ PUSH2 0x5C3 JUMPI PUSH0 DUP1 REVERT JUMPDEST POP JUMP JUMPDEST PUSH0 DUP2 MLOAD SWAP1 POP PUSH2 0x5D4 DUP2 PUSH2 0x5B0 JUMP JUMPDEST SWAP3 SWAP2 POP POP JUMP JUMPDEST PUSH0 DUP2 SWAP1 POP SWAP2 SWAP1 POP JUMP JUMPDEST PUSH2 0x5EC DUP2 PUSH2 0x5DA JUMP JUMPDEST DUP2 EQ PUSH2 0x5F6 JUMPI PUSH0 DUP1 REVERT JUMPDEST POP JUMP JUMPDEST PUSH0 DUP2 MLOAD SWAP1 POP PUSH2 0x607 DUP2 PUSH2 0x5E3 JUMP JUMPDEST SWAP3 SWAP2 POP POP JUMP JUMPDEST PUSH0 DUP1 PUSH0 DUP1 PUSH0 PUSH1 0xA0 DUP7 DUP9 SUB SLT ISZERO PUSH2 0x626 JUMPI PUSH2 0x625 PUSH2 0x3E0 JUMP JUMPDEST JUMPDEST PUSH0 PUSH2 0x633 DUP9 DUP3 DUP10 ADD PUSH2 0x5C6 JUMP JUMPDEST SWAP6 POP POP PUSH1 0x20 PUSH2 0x644 DUP9 DUP3 DUP10 ADD PUSH2 0x5F9 JUMP JUMPDEST SWAP5 POP POP PUSH1 0x40 PUSH2 0x655 DUP9 DUP3 DUP10 ADD PUSH2 0x491 JUMP JUMPDEST SWAP4 POP POP PUSH1 0x60 PUSH2 0x666 DUP9 DUP3 DUP10 ADD PUSH2 0x491 JUMP JUMPDEST SWAP3 POP POP PUSH1 0x80 PUSH2 0x677 DUP9 DUP3 DUP10 ADD PUSH2 0x5C6 JUMP JUMPDEST SWAP2 POP POP SWAP3 SWAP6 POP SWAP3 SWAP6 SWAP1 SWAP4 POP JUMP JUMPDEST PUSH0 PUSH2 0x68E DUP3 PUSH2 0x5DA JUMP JUMPDEST SWAP2 POP PUSH2 0x699 DUP4 PUSH2 0x5DA JUMP JUMPDEST SWAP3 POP DUP3 DUP3 MUL PUSH2 0x6A7 DUP2 PUSH2 0x5DA JUMP JUMPDEST SWAP2 POP PUSH32 0x8000000000000000000000000000000000000000000000000000000000000000 DUP5 EQ PUSH0 DUP5 SLT AND ISZERO PUSH2 0x6DE JUMPI PUSH2 0x6DD PUSH2 0x4D0 JUMP JUMPDEST JUMPDEST DUP3 DUP3 SDIV DUP5 EQ DUP4 ISZERO OR PUSH2 0x6F3 JUMPI PUSH2 0x6F2 PUSH2 0x4D0 JUMP JUMPDEST JUMPDEST POP SWAP3 SWAP2 POP POP JUMP JUMPDEST PUSH0 DUP3 DUP3 MSTORE PUSH1 0x20 DUP3 ADD SWAP1 POP SWAP3 SWAP2 POP POP JUMP JUMPDEST PUSH32 0x6469646E742073656E6420656E6F756768000000000000000000000000000000 PUSH0 DUP3 ADD MSTORE POP JUMP JUMPDEST PUSH0 PUSH2 0x73E PUSH1 0x11 DUP4 PUSH2 0x6FA JUMP JUMPDEST SWAP2 POP PUSH2 0x749 DUP3 PUSH2 0x70A JUMP JUMPDEST PUSH1 0x20 DUP3 ADD SWAP1 POP SWAP2 SWAP1 POP JUMP JUMPDEST PUSH0 PUSH1 0x20 DUP3 ADD SWAP1 POP DUP2 DUP2 SUB PUSH0 DUP4 ADD MSTORE PUSH2 0x76B DUP2 PUSH2 0x732 JUMP JUMPDEST SWAP1 POP SWAP2 SWAP1 POP JUMP INVALID LOG2 PUSH5 0x6970667358 0x22 SLT KECCAK256 0x1F PUSH23 0x601D5C18E987216FFEBE1B108607CB602CC777E671E1B5 0x4B 0xC3 EXP PUSH2 0x2CDE GAS PUSH5 0x736F6C6343 STOP ADDMOD BYTE STOP CALLER "
				},
				"gasEstimates": {
					"creation": {
						"codeDepositCost": "392000",
						"executionCost": "22533",
						"totalCost": "414533"
					},
					"external": {
						"fund()": "infinite",
						"funders(uint256)": "5032",
						"getConversionRate(uint256)": "infinite",
						"getPrice()": "infinite",
						"getVersion()": "infinite",
						"minimumUsd()": "2402"
					}
				},
				"methodIdentifiers": {
					"fund()": "b60d4288",
					"funders(uint256)": "dc0d3dff",
					"getConversionRate(uint256)": "6e5b6b28",
					"getPrice()": "98d5fdca",
					"getVersion()": "0d8e6e2c",
					"minimumUsd()": "098de820"
				}
			},
			"storageLayout": {
				"storage": [
					{
						"astId": 54,
						"contract": "contracts/FundMe.sol:FundMe",
						"label": "minimumUsd",
						"offset": 0,
						"slot": "0",
						"type": "t_uint256"
					},
					{
						"astId": 57,
						"contract": "contracts/FundMe.sol:FundMe",
						"label": "funders",
						"offset": 0,
						"slot": "1",
						"type": "t_array(t_address)dyn_storage"
					}
				],
				"types": {
					"t_address": {
						"encoding": "inplace",
						"label": "address",
						"numberOfBytes": "20"
					},
					"t_array(t_address)dyn_storage": {
						"base": "t_address",
						"encoding": "dynamic_array",
						"label": "address[]",
						"numberOfBytes": "32"
					},
					"t_uint256": {
						"encoding": "inplace",
						"label": "uint256",
						"numberOfBytes": "32"
					}
				}
			},
			"userdoc": {
				"kind": "user",
				"methods": {},
				"version": 1
			}
		}
	}
}