{
	"contracts/MySecondWork.sol": {
		"MySecondWork": {
			"abi": [
				{
					"inputs": [],
					"stateMutability": "nonpayable",
					"type": "constructor"
				},
				{
					"inputs": [
						{
							"internalType": "uint256",
							"name": "",
							"type": "uint256"
						}
					],
					"name": "detail",
					"outputs": [
						{
							"internalType": "string",
							"name": "name",
							"type": "string"
						},
						{
							"internalType": "uint256",
							"name": "age",
							"type": "uint256"
						},
						{
							"internalType": "address",
							"name": "addy",
							"type": "address"
						}
					],
					"stateMutability": "view",
					"type": "function"
				},
				{
					"inputs": [
						{
							"internalType": "string",
							"name": "",
							"type": "string"
						}
					],
					"name": "nameToScore",
					"outputs": [
						{
							"internalType": "uint256",
							"name": "",
							"type": "uint256"
						}
					],
					"stateMutability": "view",
					"type": "function"
				},
				{
					"inputs": [
						{
							"internalType": "string",
							"name": "_name",
							"type": "string"
						},
						{
							"internalType": "uint256",
							"name": "_age",
							"type": "uint256"
						},
						{
							"internalType": "uint256",
							"name": "_score",
							"type": "uint256"
						}
					],
					"name": "setTestScores",
					"outputs": [],
					"stateMutability": "nonpayable",
					"type": "function"
				}
			],
			"devdoc": {
				"kind": "dev",
				"methods": {},
				"version": 1
			},
			"evm": {
				"assembly": "    /* \"contracts/MySecondWork.sol\":62:554  contract MySecondWork {... */\n  mstore(0x40, 0x80)\n    /* \"contracts/MySecondWork.sol\":189:266  constructor() {... */\n  callvalue\n  dup1\n  iszero\n  tag_1\n  jumpi\n  0x00\n  dup1\n  revert\ntag_1:\n  pop\n    /* \"contracts/MySecondWork.sol\":214:220  detail */\n  0x01\n    /* \"contracts/MySecondWork.sol\":226:257  Details(\"femi\", 23, msg.sender) */\n  mload(0x40)\n  dup1\n  0x60\n  add\n  0x40\n  mstore\n  dup1\n  mload(0x40)\n  dup1\n  0x40\n  add\n  0x40\n  mstore\n  dup1\n  0x04\n  dup2\n  mstore\n  0x20\n  add\n  0x66656d6900000000000000000000000000000000000000000000000000000000\n  dup2\n  mstore\n  pop\n  dup2\n  mstore\n  0x20\n  add\n    /* \"contracts/MySecondWork.sol\":242:244  23 */\n  0x17\n    /* \"contracts/MySecondWork.sol\":226:257  Details(\"femi\", 23, msg.sender) */\n  dup2\n  mstore\n  0x20\n  add\n    /* \"contracts/MySecondWork.sol\":246:256  msg.sender */\n  caller\n    /* \"contracts/MySecondWork.sol\":226:257  Details(\"femi\", 23, msg.sender) */\n  0xffffffffffffffffffffffffffffffffffffffff\n  and\n  dup2\n  mstore\n  pop\n    /* \"contracts/MySecondWork.sol\":214:258  detail.push(Details(\"femi\", 23, msg.sender)) */\n  swap1\n  dup1\n  0x01\n  dup2\n  sload\n  add\n  dup1\n  dup3\n  sstore\n  dup1\n  swap2\n  pop\n  pop\n  0x01\n  swap1\n  sub\n  swap1\n  0x00\n  mstore\n  keccak256(0x00, 0x20)\n  swap1\n  0x03\n  mul\n  add\n  0x00\n  swap1\n  swap2\n  swap1\n  swap2\n  swap1\n  swap2\n  pop\n  0x00\n  dup3\n  add\n  mload\n  dup2\n  0x00\n  add\n  swap1\n  dup2\n  tag_5\n  swap2\n  swap1\n  tag_6\n  jump\t// in\ntag_5:\n  pop\n  0x20\n  dup3\n  add\n  mload\n  dup2\n  0x01\n  add\n  sstore\n  0x40\n  dup3\n  add\n  mload\n  dup2\n  0x02\n  add\n  exp(0x0100, 0x00)\n  dup2\n  sload\n  dup2\n  0xffffffffffffffffffffffffffffffffffffffff\n  mul\n  not\n  and\n  swap1\n  dup4\n  0xffffffffffffffffffffffffffffffffffffffff\n  and\n  mul\n  or\n  swap1\n  sstore\n  pop\n  pop\n  pop\n    /* \"contracts/MySecondWork.sol\":62:554  contract MySecondWork {... */\n  jump(tag_7)\n    /* \"#utility.yul\":7:106   */\ntag_8:\n    /* \"#utility.yul\":59:65   */\n  0x00\n    /* \"#utility.yul\":93:98   */\n  dup2\n    /* \"#utility.yul\":87:99   */\n  mload\n    /* \"#utility.yul\":77:99   */\n  swap1\n  pop\n    /* \"#utility.yul\":7:106   */\n  swap2\n  swap1\n  pop\n  jump\t// out\n    /* \"#utility.yul\":112:292   */\ntag_9:\n    /* \"#utility.yul\":160:237   */\n  0x4e487b7100000000000000000000000000000000000000000000000000000000\n    /* \"#utility.yul\":157:158   */\n  0x00\n    /* \"#utility.yul\":150:238   */\n  mstore\n    /* \"#utility.yul\":257:261   */\n  0x41\n    /* \"#utility.yul\":254:255   */\n  0x04\n    /* \"#utility.yul\":247:262   */\n  mstore\n    /* \"#utility.yul\":281:285   */\n  0x24\n    /* \"#utility.yul\":278:279   */\n  0x00\n    /* \"#utility.yul\":271:286   */\n  revert\n    /* \"#utility.yul\":298:478   */\ntag_10:\n    /* \"#utility.yul\":346:423   */\n  0x4e487b7100000000000000000000000000000000000000000000000000000000\n    /* \"#utility.yul\":343:344   */\n  0x00\n    /* \"#utility.yul\":336:424   */\n  mstore\n    /* \"#utility.yul\":443:447   */\n  0x22\n    /* \"#utility.yul\":440:441   */\n  0x04\n    /* \"#utility.yul\":433:448   */\n  mstore\n    /* \"#utility.yul\":467:471   */\n  0x24\n    /* \"#utility.yul\":464:465   */\n  0x00\n    /* \"#utility.yul\":457:472   */\n  revert\n    /* \"#utility.yul\":484:804   */\ntag_11:\n    /* \"#utility.yul\":528:534   */\n  0x00\n    /* \"#utility.yul\":565:566   */\n  0x02\n    /* \"#utility.yul\":559:563   */\n  dup3\n    /* \"#utility.yul\":555:567   */\n  div\n    /* \"#utility.yul\":545:567   */\n  swap1\n  pop\n    /* \"#utility.yul\":612:613   */\n  0x01\n    /* \"#utility.yul\":606:610   */\n  dup3\n    /* \"#utility.yul\":602:614   */\n  and\n    /* \"#utility.yul\":633:651   */\n  dup1\n    /* \"#utility.yul\":623:704   */\n  tag_33\n  jumpi\n    /* \"#utility.yul\":689:693   */\n  0x7f\n    /* \"#utility.yul\":681:687   */\n  dup3\n    /* \"#utility.yul\":677:694   */\n  and\n    /* \"#utility.yul\":667:694   */\n  swap2\n  pop\n    /* \"#utility.yul\":623:704   */\ntag_33:\n    /* \"#utility.yul\":751:753   */\n  0x20\n    /* \"#utility.yul\":743:749   */\n  dup3\n    /* \"#utility.yul\":740:754   */\n  lt\n    /* \"#utility.yul\":720:738   */\n  dup2\n    /* \"#utility.yul\":717:755   */\n  sub\n    /* \"#utility.yul\":714:798   */\n  tag_34\n  jumpi\n    /* \"#utility.yul\":770:788   */\n  tag_35\n  tag_10\n  jump\t// in\ntag_35:\n    /* \"#utility.yul\":714:798   */\ntag_34:\n    /* \"#utility.yul\":535:804   */\n  pop\n    /* \"#utility.yul\":484:804   */\n  swap2\n  swap1\n  pop\n  jump\t// out\n    /* \"#utility.yul\":810:951   */\ntag_12:\n    /* \"#utility.yul\":859:863   */\n  0x00\n    /* \"#utility.yul\":882:885   */\n  dup2\n    /* \"#utility.yul\":874:885   */\n  swap1\n  pop\n    /* \"#utility.yul\":905:908   */\n  dup2\n    /* \"#utility.yul\":902:903   */\n  0x00\n    /* \"#utility.yul\":895:909   */\n  mstore\n    /* \"#utility.yul\":939:943   */\n  0x20\n    /* \"#utility.yul\":936:937   */\n  0x00\n    /* \"#utility.yul\":926:944   */\n  keccak256\n    /* \"#utility.yul\":918:944   */\n  swap1\n  pop\n    /* \"#utility.yul\":810:951   */\n  swap2\n  swap1\n  pop\n  jump\t// out\n    /* \"#utility.yul\":957:1050   */\ntag_13:\n    /* \"#utility.yul\":994:1000   */\n  0x00\n    /* \"#utility.yul\":1041:1043   */\n  0x20\n    /* \"#utility.yul\":1036:1038   */\n  0x1f\n    /* \"#utility.yul\":1029:1034   */\n  dup4\n    /* \"#utility.yul\":1025:1039   */\n  add\n    /* \"#utility.yul\":1021:1044   */\n  div\n    /* \"#utility.yul\":1011:1044   */\n  swap1\n  pop\n    /* \"#utility.yul\":957:1050   */\n  swap2\n  swap1\n  pop\n  jump\t// out\n    /* \"#utility.yul\":1056:1163   */\ntag_14:\n    /* \"#utility.yul\":1100:1108   */\n  0x00\n    /* \"#utility.yul\":1150:1155   */\n  dup3\n    /* \"#utility.yul\":1144:1148   */\n  dup3\n    /* \"#utility.yul\":1140:1156   */\n  shl\n    /* \"#utility.yul\":1119:1156   */\n  swap1\n  pop\n    /* \"#utility.yul\":1056:1163   */\n  swap3\n  swap2\n  pop\n  pop\n  jump\t// out\n    /* \"#utility.yul\":1169:1562   */\ntag_15:\n    /* \"#utility.yul\":1238:1244   */\n  0x00\n    /* \"#utility.yul\":1288:1289   */\n  0x08\n    /* \"#utility.yul\":1276:1286   */\n  dup4\n    /* \"#utility.yul\":1272:1290   */\n  mul\n    /* \"#utility.yul\":1311:1408   */\n  tag_40\n    /* \"#utility.yul\":1341:1407   */\n  0xffffffffffffffffffffffffffffffffffffffffffffffffffffffffffffffff\n    /* \"#utility.yul\":1330:1339   */\n  dup3\n    /* \"#utility.yul\":1311:1408   */\n  tag_14\n  jump\t// in\ntag_40:\n    /* \"#utility.yul\":1429:1468   */\n  tag_41\n    /* \"#utility.yul\":1459:1467   */\n  dup7\n    /* \"#utility.yul\":1448:1457   */\n  dup4\n    /* \"#utility.yul\":1429:1468   */\n  tag_14\n  jump\t// in\ntag_41:\n    /* \"#utility.yul\":1417:1468   */\n  swap6\n  pop\n    /* \"#utility.yul\":1501:1505   */\n  dup1\n    /* \"#utility.yul\":1497:1506   */\n  not\n    /* \"#utility.yul\":1490:1495   */\n  dup5\n    /* \"#utility.yul\":1486:1507   */\n  and\n    /* \"#utility.yul\":1477:1507   */\n  swap4\n  pop\n    /* \"#utility.yul\":1550:1554   */\n  dup1\n    /* \"#utility.yul\":1540:1548   */\n  dup7\n    /* \"#utility.yul\":1536:1555   */\n  and\n    /* \"#utility.yul\":1529:1534   */\n  dup5\n    /* \"#utility.yul\":1526:1556   */\n  or\n    /* \"#utility.yul\":1516:1556   */\n  swap3\n  pop\n    /* \"#utility.yul\":1245:1562   */\n  pop\n  pop\n    /* \"#utility.yul\":1169:1562   */\n  swap4\n  swap3\n  pop\n  pop\n  pop\n  jump\t// out\n    /* \"#utility.yul\":1568:1645   */\ntag_16:\n    /* \"#utility.yul\":1605:1612   */\n  0x00\n    /* \"#utility.yul\":1634:1639   */\n  dup2\n    /* \"#utility.yul\":1623:1639   */\n  swap1\n  pop\n    /* \"#utility.yul\":1568:1645   */\n  swap2\n  swap1\n  pop\n  jump\t// out\n    /* \"#utility.yul\":1651:1711   */\ntag_17:\n    /* \"#utility.yul\":1679:1682   */\n  0x00\n    /* \"#utility.yul\":1700:1705   */\n  dup2\n    /* \"#utility.yul\":1693:1705   */\n  swap1\n  pop\n    /* \"#utility.yul\":1651:1711   */\n  swap2\n  swap1\n  pop\n  jump\t// out\n    /* \"#utility.yul\":1717:1859   */\ntag_18:\n    /* \"#utility.yul\":1767:1776   */\n  0x00\n    /* \"#utility.yul\":1800:1853   */\n  tag_45\n    /* \"#utility.yul\":1818:1852   */\n  tag_46\n    /* \"#utility.yul\":1827:1851   */\n  tag_47\n    /* \"#utility.yul\":1845:1850   */\n  dup5\n    /* \"#utility.yul\":1827:1851   */\n  tag_16\n  jump\t// in\ntag_47:\n    /* \"#utility.yul\":1818:1852   */\n  tag_17\n  jump\t// in\ntag_46:\n    /* \"#utility.yul\":1800:1853   */\n  tag_16\n  jump\t// in\ntag_45:\n    /* \"#utility.yul\":1787:1853   */\n  swap1\n  pop\n    /* \"#utility.yul\":1717:1859   */\n  swap2\n  swap1\n  pop\n  jump\t// out\n    /* \"#utility.yul\":1865:1940   */\ntag_19:\n    /* \"#utility.yul\":1908:1911   */\n  0x00\n    /* \"#utility.yul\":1929:1934   */\n  dup2\n    /* \"#utility.yul\":1922:1934   */\n  swap1\n  pop\n    /* \"#utility.yul\":1865:1940   */\n  swap2\n  swap1\n  pop\n  jump\t// out\n    /* \"#utility.yul\":1946:2215   */\ntag_20:\n    /* \"#utility.yul\":2056:2095   */\n  tag_50\n    /* \"#utility.yul\":2087:2094   */\n  dup4\n    /* \"#utility.yul\":2056:2095   */\n  tag_18\n  jump\t// in\ntag_50:\n    /* \"#utility.yul\":2117:2208   */\n  tag_51\n    /* \"#utility.yul\":2166:2207   */\n  tag_52\n    /* \"#utility.yul\":2190:2206   */\n  dup3\n    /* \"#utility.yul\":2166:2207   */\n  tag_19\n  jump\t// in\ntag_52:\n    /* \"#utility.yul\":2158:2164   */\n  dup5\n    /* \"#utility.yul\":2151:2155   */\n  dup5\n    /* \"#utility.yul\":2145:2156   */\n  sload\n    /* \"#utility.yul\":2117:2208   */\n  tag_15\n  jump\t// in\ntag_51:\n    /* \"#utility.yul\":2111:2115   */\n  dup3\n    /* \"#utility.yul\":2104:2209   */\n  sstore\n    /* \"#utility.yul\":2022:2215   */\n  pop\n    /* \"#utility.yul\":1946:2215   */\n  pop\n  pop\n  pop\n  jump\t// out\n    /* \"#utility.yul\":2221:2294   */\ntag_21:\n    /* \"#utility.yul\":2266:2269   */\n  0x00\n    /* \"#utility.yul\":2221:2294   */\n  swap1\n  jump\t// out\n    /* \"#utility.yul\":2300:2489   */\ntag_22:\n    /* \"#utility.yul\":2377:2409   */\n  tag_55\n  tag_21\n  jump\t// in\ntag_55:\n    /* \"#utility.yul\":2418:2483   */\n  tag_56\n    /* \"#utility.yul\":2476:2482   */\n  dup2\n    /* \"#utility.yul\":2468:2474   */\n  dup5\n    /* \"#utility.yul\":2462:2466   */\n  dup5\n    /* \"#utility.yul\":2418:2483   */\n  tag_20\n  jump\t// in\ntag_56:\n    /* \"#utility.yul\":2353:2489   */\n  pop\n    /* \"#utility.yul\":2300:2489   */\n  pop\n  pop\n  jump\t// out\n    /* \"#utility.yul\":2495:2681   */\ntag_23:\n    /* \"#utility.yul\":2555:2675   */\ntag_58:\n    /* \"#utility.yul\":2572:2575   */\n  dup2\n    /* \"#utility.yul\":2565:2570   */\n  dup2\n    /* \"#utility.yul\":2562:2576   */\n  lt\n    /* \"#utility.yul\":2555:2675   */\n  iszero\n  tag_60\n  jumpi\n    /* \"#utility.yul\":2626:2665   */\n  tag_61\n    /* \"#utility.yul\":2663:2664   */\n  0x00\n    /* \"#utility.yul\":2656:2661   */\n  dup3\n    /* \"#utility.yul\":2626:2665   */\n  tag_22\n  jump\t// in\ntag_61:\n    /* \"#utility.yul\":2599:2600   */\n  0x01\n    /* \"#utility.yul\":2592:2597   */\n  dup2\n    /* \"#utility.yul\":2588:2601   */\n  add\n    /* \"#utility.yul\":2579:2601   */\n  swap1\n  pop\n    /* \"#utility.yul\":2555:2675   */\n  jump(tag_58)\ntag_60:\n    /* \"#utility.yul\":2495:2681   */\n  pop\n  pop\n  jump\t// out\n    /* \"#utility.yul\":2687:3230   */\ntag_24:\n    /* \"#utility.yul\":2788:2790   */\n  0x1f\n    /* \"#utility.yul\":2783:2786   */\n  dup3\n    /* \"#utility.yul\":2780:2791   */\n  gt\n    /* \"#utility.yul\":2777:3223   */\n  iszero\n  tag_63\n  jumpi\n    /* \"#utility.yul\":2822:2860   */\n  tag_64\n    /* \"#utility.yul\":2854:2859   */\n  dup2\n    /* \"#utility.yul\":2822:2860   */\n  tag_12\n  jump\t// in\ntag_64:\n    /* \"#utility.yul\":2906:2935   */\n  tag_65\n    /* \"#utility.yul\":2924:2934   */\n  dup5\n    /* \"#utility.yul\":2906:2935   */\n  tag_13\n  jump\t// in\ntag_65:\n    /* \"#utility.yul\":2896:2904   */\n  dup2\n    /* \"#utility.yul\":2892:2936   */\n  add\n    /* \"#utility.yul\":3089:3091   */\n  0x20\n    /* \"#utility.yul\":3077:3087   */\n  dup6\n    /* \"#utility.yul\":3074:3092   */\n  lt\n    /* \"#utility.yul\":3071:3120   */\n  iszero\n  tag_66\n  jumpi\n    /* \"#utility.yul\":3110:3118   */\n  dup2\n    /* \"#utility.yul\":3095:3118   */\n  swap1\n  pop\n    /* \"#utility.yul\":3071:3120   */\ntag_66:\n    /* \"#utility.yul\":3133:3213   */\n  tag_67\n    /* \"#utility.yul\":3189:3211   */\n  tag_68\n    /* \"#utility.yul\":3207:3210   */\n  dup6\n    /* \"#utility.yul\":3189:3211   */\n  tag_13\n  jump\t// in\ntag_68:\n    /* \"#utility.yul\":3179:3187   */\n  dup4\n    /* \"#utility.yul\":3175:3212   */\n  add\n    /* \"#utility.yul\":3162:3173   */\n  dup3\n    /* \"#utility.yul\":3133:3213   */\n  tag_23\n  jump\t// in\ntag_67:\n    /* \"#utility.yul\":2792:3223   */\n  pop\n  pop\n    /* \"#utility.yul\":2777:3223   */\ntag_63:\n    /* \"#utility.yul\":2687:3230   */\n  pop\n  pop\n  pop\n  jump\t// out\n    /* \"#utility.yul\":3236:3353   */\ntag_25:\n    /* \"#utility.yul\":3290:3298   */\n  0x00\n    /* \"#utility.yul\":3340:3345   */\n  dup3\n    /* \"#utility.yul\":3334:3338   */\n  dup3\n    /* \"#utility.yul\":3330:3346   */\n  shr\n    /* \"#utility.yul\":3309:3346   */\n  swap1\n  pop\n    /* \"#utility.yul\":3236:3353   */\n  swap3\n  swap2\n  pop\n  pop\n  jump\t// out\n    /* \"#utility.yul\":3359:3528   */\ntag_26:\n    /* \"#utility.yul\":3403:3409   */\n  0x00\n    /* \"#utility.yul\":3436:3487   */\n  tag_71\n    /* \"#utility.yul\":3484:3485   */\n  0x00\n    /* \"#utility.yul\":3480:3486   */\n  not\n    /* \"#utility.yul\":3472:3477   */\n  dup5\n    /* \"#utility.yul\":3469:3470   */\n  0x08\n    /* \"#utility.yul\":3465:3478   */\n  mul\n    /* \"#utility.yul\":3436:3487   */\n  tag_25\n  jump\t// in\ntag_71:\n    /* \"#utility.yul\":3432:3488   */\n  not\n    /* \"#utility.yul\":3517:3521   */\n  dup1\n    /* \"#utility.yul\":3511:3515   */\n  dup4\n    /* \"#utility.yul\":3507:3522   */\n  and\n    /* \"#utility.yul\":3497:3522   */\n  swap2\n  pop\n    /* \"#utility.yul\":3410:3528   */\n  pop\n    /* \"#utility.yul\":3359:3528   */\n  swap3\n  swap2\n  pop\n  pop\n  jump\t// out\n    /* \"#utility.yul\":3533:3828   */\ntag_27:\n    /* \"#utility.yul\":3609:3613   */\n  0x00\n    /* \"#utility.yul\":3755:3784   */\n  tag_73\n    /* \"#utility.yul\":3780:3783   */\n  dup4\n    /* \"#utility.yul\":3774:3778   */\n  dup4\n    /* \"#utility.yul\":3755:3784   */\n  tag_26\n  jump\t// in\ntag_73:\n    /* \"#utility.yul\":3747:3784   */\n  swap2\n  pop\n    /* \"#utility.yul\":3817:3820   */\n  dup3\n    /* \"#utility.yul\":3814:3815   */\n  0x02\n    /* \"#utility.yul\":3810:3821   */\n  mul\n    /* \"#utility.yul\":3804:3808   */\n  dup3\n    /* \"#utility.yul\":3801:3822   */\n  or\n    /* \"#utility.yul\":3793:3822   */\n  swap1\n  pop\n    /* \"#utility.yul\":3533:3828   */\n  swap3\n  swap2\n  pop\n  pop\n  jump\t// out\n    /* \"#utility.yul\":3833:5228   */\ntag_6:\n    /* \"#utility.yul\":3950:3987   */\n  tag_75\n    /* \"#utility.yul\":3983:3986   */\n  dup3\n    /* \"#utility.yul\":3950:3987   */\n  tag_8\n  jump\t// in\ntag_75:\n    /* \"#utility.yul\":4052:4070   */\n  0xffffffffffffffff\n    /* \"#utility.yul\":4044:4050   */\n  dup2\n    /* \"#utility.yul\":4041:4071   */\n  gt\n    /* \"#utility.yul\":4038:4094   */\n  iszero\n  tag_76\n  jumpi\n    /* \"#utility.yul\":4074:4092   */\n  tag_77\n  tag_9\n  jump\t// in\ntag_77:\n    /* \"#utility.yul\":4038:4094   */\ntag_76:\n    /* \"#utility.yul\":4118:4156   */\n  tag_78\n    /* \"#utility.yul\":4150:4154   */\n  dup3\n    /* \"#utility.yul\":4144:4155   */\n  sload\n    /* \"#utility.yul\":4118:4156   */\n  tag_11\n  jump\t// in\ntag_78:\n    /* \"#utility.yul\":4203:4270   */\n  tag_79\n    /* \"#utility.yul\":4263:4269   */\n  dup3\n    /* \"#utility.yul\":4255:4261   */\n  dup3\n    /* \"#utility.yul\":4249:4253   */\n  dup6\n    /* \"#utility.yul\":4203:4270   */\n  tag_24\n  jump\t// in\ntag_79:\n    /* \"#utility.yul\":4297:4298   */\n  0x00\n    /* \"#utility.yul\":4321:4325   */\n  0x20\n    /* \"#utility.yul\":4308:4325   */\n  swap1\n  pop\n    /* \"#utility.yul\":4353:4355   */\n  0x1f\n    /* \"#utility.yul\":4345:4351   */\n  dup4\n    /* \"#utility.yul\":4342:4356   */\n  gt\n    /* \"#utility.yul\":4370:4371   */\n  0x01\n    /* \"#utility.yul\":4365:4983   */\n  dup2\n  eq\n  tag_81\n  jumpi\n    /* \"#utility.yul\":5027:5028   */\n  0x00\n    /* \"#utility.yul\":5044:5050   */\n  dup5\n    /* \"#utility.yul\":5041:5118   */\n  iszero\n  tag_82\n  jumpi\n    /* \"#utility.yul\":5093:5102   */\n  dup3\n    /* \"#utility.yul\":5088:5091   */\n  dup8\n    /* \"#utility.yul\":5084:5103   */\n  add\n    /* \"#utility.yul\":5078:5104   */\n  mload\n    /* \"#utility.yul\":5069:5104   */\n  swap1\n  pop\n    /* \"#utility.yul\":5041:5118   */\ntag_82:\n    /* \"#utility.yul\":5144:5211   */\n  tag_83\n    /* \"#utility.yul\":5204:5210   */\n  dup6\n    /* \"#utility.yul\":5197:5202   */\n  dup3\n    /* \"#utility.yul\":5144:5211   */\n  tag_27\n  jump\t// in\ntag_83:\n    /* \"#utility.yul\":5138:5142   */\n  dup7\n    /* \"#utility.yul\":5131:5212   */\n  sstore\n    /* \"#utility.yul\":5000:5222   */\n  pop\n    /* \"#utility.yul\":4335:5222   */\n  jump(tag_80)\n    /* \"#utility.yul\":4365:4983   */\ntag_81:\n    /* \"#utility.yul\":4417:4421   */\n  0x1f\n    /* \"#utility.yul\":4413:4422   */\n  not\n    /* \"#utility.yul\":4405:4411   */\n  dup5\n    /* \"#utility.yul\":4401:4423   */\n  and\n    /* \"#utility.yul\":4451:4488   */\n  tag_84\n    /* \"#utility.yul\":4483:4487   */\n  dup7\n    /* \"#utility.yul\":4451:4488   */\n  tag_12\n  jump\t// in\ntag_84:\n    /* \"#utility.yul\":4510:4511   */\n  0x00\n    /* \"#utility.yul\":4524:4732   */\ntag_85:\n    /* \"#utility.yul\":4538:4545   */\n  dup3\n    /* \"#utility.yul\":4535:4536   */\n  dup2\n    /* \"#utility.yul\":4532:4546   */\n  lt\n    /* \"#utility.yul\":4524:4732   */\n  iszero\n  tag_87\n  jumpi\n    /* \"#utility.yul\":4617:4626   */\n  dup5\n    /* \"#utility.yul\":4612:4615   */\n  dup10\n    /* \"#utility.yul\":4608:4627   */\n  add\n    /* \"#utility.yul\":4602:4628   */\n  mload\n    /* \"#utility.yul\":4594:4600   */\n  dup3\n    /* \"#utility.yul\":4587:4629   */\n  sstore\n    /* \"#utility.yul\":4668:4669   */\n  0x01\n    /* \"#utility.yul\":4660:4666   */\n  dup3\n    /* \"#utility.yul\":4656:4670   */\n  add\n    /* \"#utility.yul\":4646:4670   */\n  swap2\n  pop\n    /* \"#utility.yul\":4715:4717   */\n  0x20\n    /* \"#utility.yul\":4704:4713   */\n  dup6\n    /* \"#utility.yul\":4700:4718   */\n  add\n    /* \"#utility.yul\":4687:4718   */\n  swap5\n  pop\n    /* \"#utility.yul\":4561:4565   */\n  0x20\n    /* \"#utility.yul\":4558:4559   */\n  dup2\n    /* \"#utility.yul\":4554:4566   */\n  add\n    /* \"#utility.yul\":4549:4566   */\n  swap1\n  pop\n    /* \"#utility.yul\":4524:4732   */\n  jump(tag_85)\ntag_87:\n    /* \"#utility.yul\":4760:4766   */\n  dup7\n    /* \"#utility.yul\":4751:4758   */\n  dup4\n    /* \"#utility.yul\":4748:4767   */\n  lt\n    /* \"#utility.yul\":4745:4924   */\n  iszero\n  tag_88\n  jumpi\n    /* \"#utility.yul\":4818:4827   */\n  dup5\n    /* \"#utility.yul\":4813:4816   */\n  dup10\n    /* \"#utility.yul\":4809:4828   */\n  add\n    /* \"#utility.yul\":4803:4829   */\n  mload\n    /* \"#utility.yul\":4861:4909   */\n  tag_89\n    /* \"#utility.yul\":4903:4907   */\n  0x1f\n    /* \"#utility.yul\":4895:4901   */\n  dup10\n    /* \"#utility.yul\":4891:4908   */\n  and\n    /* \"#utility.yul\":4880:4889   */\n  dup3\n    /* \"#utility.yul\":4861:4909   */\n  tag_26\n  jump\t// in\ntag_89:\n    /* \"#utility.yul\":4853:4859   */\n  dup4\n    /* \"#utility.yul\":4846:4910   */\n  sstore\n    /* \"#utility.yul\":4768:4924   */\n  pop\n    /* \"#utility.yul\":4745:4924   */\ntag_88:\n    /* \"#utility.yul\":4970:4971   */\n  0x01\n    /* \"#utility.yul\":4966:4967   */\n  0x02\n    /* \"#utility.yul\":4958:4964   */\n  dup9\n    /* \"#utility.yul\":4954:4968   */\n  mul\n    /* \"#utility.yul\":4950:4972   */\n  add\n    /* \"#utility.yul\":4944:4948   */\n  dup9\n    /* \"#utility.yul\":4937:4973   */\n  sstore\n    /* \"#utility.yul\":4372:4983   */\n  pop\n  pop\n  pop\n    /* \"#utility.yul\":4335:5222   */\ntag_80:\n  pop\n    /* \"#utility.yul\":3925:5228   */\n  pop\n  pop\n  pop\n    /* \"#utility.yul\":3833:5228   */\n  pop\n  pop\n  jump\t// out\n    /* \"contracts/MySecondWork.sol\":62:554  contract MySecondWork {... */\ntag_7:\n  dataSize(sub_0)\n  dup1\n  dataOffset(sub_0)\n  0x00\n  codecopy\n  0x00\n  return\nstop\n\nsub_0: assembly {\n        /* \"contracts/MySecondWork.sol\":62:554  contract MySecondWork {... */\n      mstore(0x40, 0x80)\n      callvalue\n      dup1\n      iszero\n      tag_1\n      jumpi\n      0x00\n      dup1\n      revert\n    tag_1:\n      pop\n      jumpi(tag_2, lt(calldatasize, 0x04))\n      shr(0xe0, calldataload(0x00))\n      dup1\n      0x0296926b\n      eq\n      tag_3\n      jumpi\n      dup1\n      0x3d960ae2\n      eq\n      tag_4\n      jumpi\n      dup1\n      0xdb487f36\n      eq\n      tag_5\n      jumpi\n    tag_2:\n      0x00\n      dup1\n      revert\n        /* \"contracts/MySecondWork.sol\":274:321  mapping (string => uint256) public  nameToScore */\n    tag_3:\n      tag_6\n      0x04\n      dup1\n      calldatasize\n      sub\n      dup2\n      add\n      swap1\n      tag_7\n      swap2\n      swap1\n      tag_8\n      jump\t// in\n    tag_7:\n      tag_9\n      jump\t// in\n    tag_6:\n      mload(0x40)\n      tag_10\n      swap2\n      swap1\n      tag_11\n      jump\t// in\n    tag_10:\n      mload(0x40)\n      dup1\n      swap2\n      sub\n      swap1\n      return\n        /* \"contracts/MySecondWork.sol\":363:544  function setTestScores (string memory _name, uint _age, uint256 _score) public {... */\n    tag_4:\n      tag_12\n      0x04\n      dup1\n      calldatasize\n      sub\n      dup2\n      add\n      swap1\n      tag_13\n      swap2\n      swap1\n      tag_14\n      jump\t// in\n    tag_13:\n      tag_15\n      jump\t// in\n    tag_12:\n      stop\n        /* \"contracts/MySecondWork.sol\":330:354  Details[] public  detail */\n    tag_5:\n      tag_16\n      0x04\n      dup1\n      calldatasize\n      sub\n      dup2\n      add\n      swap1\n      tag_17\n      swap2\n      swap1\n      tag_18\n      jump\t// in\n    tag_17:\n      tag_19\n      jump\t// in\n    tag_16:\n      mload(0x40)\n      tag_20\n      swap4\n      swap3\n      swap2\n      swap1\n      tag_21\n      jump\t// in\n    tag_20:\n      mload(0x40)\n      dup1\n      swap2\n      sub\n      swap1\n      return\n        /* \"contracts/MySecondWork.sol\":274:321  mapping (string => uint256) public  nameToScore */\n    tag_9:\n      0x00\n      dup2\n      dup1\n      mload\n      0x20\n      dup2\n      add\n      dup3\n      add\n      dup1\n      mload\n      dup5\n      dup3\n      mstore\n      0x20\n      dup4\n      add\n      0x20\n      dup6\n      add\n      keccak256\n      dup2\n      dup4\n      mstore\n      dup1\n      swap6\n      pop\n      pop\n      pop\n      pop\n      pop\n      pop\n      0x00\n      swap2\n      pop\n      swap1\n      pop\n      sload\n      dup2\n      jump\t// out\n        /* \"contracts/MySecondWork.sol\":363:544  function setTestScores (string memory _name, uint _age, uint256 _score) public {... */\n    tag_15:\n        /* \"contracts/MySecondWork.sol\":453:459  detail */\n      0x01\n        /* \"contracts/MySecondWork.sol\":465:497  Details(_name, _age, msg.sender) */\n      mload(0x40)\n      dup1\n      0x60\n      add\n      0x40\n      mstore\n      dup1\n        /* \"contracts/MySecondWork.sol\":473:478  _name */\n      dup6\n        /* \"contracts/MySecondWork.sol\":465:497  Details(_name, _age, msg.sender) */\n      dup2\n      mstore\n      0x20\n      add\n        /* \"contracts/MySecondWork.sol\":480:484  _age */\n      dup5\n        /* \"contracts/MySecondWork.sol\":465:497  Details(_name, _age, msg.sender) */\n      dup2\n      mstore\n      0x20\n      add\n        /* \"contracts/MySecondWork.sol\":486:496  msg.sender */\n      caller\n        /* \"contracts/MySecondWork.sol\":465:497  Details(_name, _age, msg.sender) */\n      0xffffffffffffffffffffffffffffffffffffffff\n      and\n      dup2\n      mstore\n      pop\n        /* \"contracts/MySecondWork.sol\":453:498  detail.push(Details(_name, _age, msg.sender)) */\n      swap1\n      dup1\n      0x01\n      dup2\n      sload\n      add\n      dup1\n      dup3\n      sstore\n      dup1\n      swap2\n      pop\n      pop\n      0x01\n      swap1\n      sub\n      swap1\n      0x00\n      mstore\n      keccak256(0x00, 0x20)\n      swap1\n      0x03\n      mul\n      add\n      0x00\n      swap1\n      swap2\n      swap1\n      swap2\n      swap1\n      swap2\n      pop\n      0x00\n      dup3\n      add\n      mload\n      dup2\n      0x00\n      add\n      swap1\n      dup2\n      tag_24\n      swap2\n      swap1\n      tag_25\n      jump\t// in\n    tag_24:\n      pop\n      0x20\n      dup3\n      add\n      mload\n      dup2\n      0x01\n      add\n      sstore\n      0x40\n      dup3\n      add\n      mload\n      dup2\n      0x02\n      add\n      exp(0x0100, 0x00)\n      dup2\n      sload\n      dup2\n      0xffffffffffffffffffffffffffffffffffffffff\n      mul\n      not\n      and\n      swap1\n      dup4\n      0xffffffffffffffffffffffffffffffffffffffff\n      and\n      mul\n      or\n      swap1\n      sstore\n      pop\n      pop\n      pop\n        /* \"contracts/MySecondWork.sol\":530:536  _score */\n      dup1\n        /* \"contracts/MySecondWork.sol\":509:520  nameToScore */\n      0x00\n        /* \"contracts/MySecondWork.sol\":521:526  _name */\n      dup5\n        /* \"contracts/MySecondWork.sol\":509:527  nameToScore[_name] */\n      mload(0x40)\n      tag_26\n      swap2\n      swap1\n      tag_27\n      jump\t// in\n    tag_26:\n      swap1\n      dup2\n      mstore\n      0x20\n      add\n      mload(0x40)\n      dup1\n      swap2\n      sub\n      swap1\n      keccak256\n        /* \"contracts/MySecondWork.sol\":509:536  nameToScore[_name] = _score */\n      dup2\n      swap1\n      sstore\n      pop\n        /* \"contracts/MySecondWork.sol\":363:544  function setTestScores (string memory _name, uint _age, uint256 _score) public {... */\n      pop\n      pop\n      pop\n      jump\t// out\n        /* \"contracts/MySecondWork.sol\":330:354  Details[] public  detail */\n    tag_19:\n      0x01\n      dup2\n      dup2\n      sload\n      dup2\n      lt\n      tag_28\n      jumpi\n      0x00\n      dup1\n      revert\n    tag_28:\n      swap1\n      0x00\n      mstore\n      keccak256(0x00, 0x20)\n      swap1\n      0x03\n      mul\n      add\n      0x00\n      swap2\n      pop\n      swap1\n      pop\n      dup1\n      0x00\n      add\n      dup1\n      sload\n      tag_30\n      swap1\n      tag_31\n      jump\t// in\n    tag_30:\n      dup1\n      0x1f\n      add\n      0x20\n      dup1\n      swap2\n      div\n      mul\n      0x20\n      add\n      mload(0x40)\n      swap1\n      dup2\n      add\n      0x40\n      mstore\n      dup1\n      swap3\n      swap2\n      swap1\n      dup2\n      dup2\n      mstore\n      0x20\n      add\n      dup3\n      dup1\n      sload\n      tag_32\n      swap1\n      tag_31\n      jump\t// in\n    tag_32:\n      dup1\n      iszero\n      tag_33\n      jumpi\n      dup1\n      0x1f\n      lt\n      tag_34\n      jumpi\n      0x0100\n      dup1\n      dup4\n      sload\n      div\n      mul\n      dup4\n      mstore\n      swap2\n      0x20\n      add\n      swap2\n      jump(tag_33)\n    tag_34:\n      dup3\n      add\n      swap2\n      swap1\n      0x00\n      mstore\n      keccak256(0x00, 0x20)\n      swap1\n    tag_35:\n      dup2\n      sload\n      dup2\n      mstore\n      swap1\n      0x01\n      add\n      swap1\n      0x20\n      add\n      dup1\n      dup4\n      gt\n      tag_35\n      jumpi\n      dup3\n      swap1\n      sub\n      0x1f\n      and\n      dup3\n      add\n      swap2\n    tag_33:\n      pop\n      pop\n      pop\n      pop\n      pop\n      swap1\n      dup1\n      0x01\n      add\n      sload\n      swap1\n      dup1\n      0x02\n      add\n      0x00\n      swap1\n      sload\n      swap1\n      0x0100\n      exp\n      swap1\n      div\n      0xffffffffffffffffffffffffffffffffffffffff\n      and\n      swap1\n      pop\n      dup4\n      jump\t// out\n        /* \"#utility.yul\":7:82   */\n    tag_36:\n        /* \"#utility.yul\":40:46   */\n      0x00\n        /* \"#utility.yul\":73:75   */\n      0x40\n        /* \"#utility.yul\":67:76   */\n      mload\n        /* \"#utility.yul\":57:76   */\n      swap1\n      pop\n        /* \"#utility.yul\":7:82   */\n      swap1\n      jump\t// out\n        /* \"#utility.yul\":88:205   */\n    tag_37:\n        /* \"#utility.yul\":197:198   */\n      0x00\n        /* \"#utility.yul\":194:195   */\n      dup1\n        /* \"#utility.yul\":187:199   */\n      revert\n        /* \"#utility.yul\":211:328   */\n    tag_38:\n        /* \"#utility.yul\":320:321   */\n      0x00\n        /* \"#utility.yul\":317:318   */\n      dup1\n        /* \"#utility.yul\":310:322   */\n      revert\n        /* \"#utility.yul\":334:451   */\n    tag_39:\n        /* \"#utility.yul\":443:444   */\n      0x00\n        /* \"#utility.yul\":440:441   */\n      dup1\n        /* \"#utility.yul\":433:445   */\n      revert\n        /* \"#utility.yul\":457:574   */\n    tag_40:\n        /* \"#utility.yul\":566:567   */\n      0x00\n        /* \"#utility.yul\":563:564   */\n      dup1\n        /* \"#utility.yul\":556:568   */\n      revert\n        /* \"#utility.yul\":580:682   */\n    tag_41:\n        /* \"#utility.yul\":621:627   */\n      0x00\n        /* \"#utility.yul\":672:674   */\n      0x1f\n        /* \"#utility.yul\":668:675   */\n      not\n        /* \"#utility.yul\":663:665   */\n      0x1f\n        /* \"#utility.yul\":656:661   */\n      dup4\n        /* \"#utility.yul\":652:666   */\n      add\n        /* \"#utility.yul\":648:676   */\n      and\n        /* \"#utility.yul\":638:676   */\n      swap1\n      pop\n        /* \"#utility.yul\":580:682   */\n      swap2\n      swap1\n      pop\n      jump\t// out\n        /* \"#utility.yul\":688:868   */\n    tag_42:\n        /* \"#utility.yul\":736:813   */\n      0x4e487b7100000000000000000000000000000000000000000000000000000000\n        /* \"#utility.yul\":733:734   */\n      0x00\n        /* \"#utility.yul\":726:814   */\n      mstore\n        /* \"#utility.yul\":833:837   */\n      0x41\n        /* \"#utility.yul\":830:831   */\n      0x04\n        /* \"#utility.yul\":823:838   */\n      mstore\n        /* \"#utility.yul\":857:861   */\n      0x24\n        /* \"#utility.yul\":854:855   */\n      0x00\n        /* \"#utility.yul\":847:862   */\n      revert\n        /* \"#utility.yul\":874:1155   */\n    tag_43:\n        /* \"#utility.yul\":957:984   */\n      tag_87\n        /* \"#utility.yul\":979:983   */\n      dup3\n        /* \"#utility.yul\":957:984   */\n      tag_41\n      jump\t// in\n    tag_87:\n        /* \"#utility.yul\":949:955   */\n      dup2\n        /* \"#utility.yul\":945:985   */\n      add\n        /* \"#utility.yul\":1087:1093   */\n      dup2\n        /* \"#utility.yul\":1075:1085   */\n      dup2\n        /* \"#utility.yul\":1072:1094   */\n      lt\n        /* \"#utility.yul\":1051:1069   */\n      0xffffffffffffffff\n        /* \"#utility.yul\":1039:1049   */\n      dup3\n        /* \"#utility.yul\":1036:1070   */\n      gt\n        /* \"#utility.yul\":1033:1095   */\n      or\n        /* \"#utility.yul\":1030:1118   */\n      iszero\n      tag_88\n      jumpi\n        /* \"#utility.yul\":1098:1116   */\n      tag_89\n      tag_42\n      jump\t// in\n    tag_89:\n        /* \"#utility.yul\":1030:1118   */\n    tag_88:\n        /* \"#utility.yul\":1138:1148   */\n      dup1\n        /* \"#utility.yul\":1134:1136   */\n      0x40\n        /* \"#utility.yul\":1127:1149   */\n      mstore\n        /* \"#utility.yul\":917:1155   */\n      pop\n        /* \"#utility.yul\":874:1155   */\n      pop\n      pop\n      jump\t// out\n        /* \"#utility.yul\":1161:1290   */\n    tag_44:\n        /* \"#utility.yul\":1195:1201   */\n      0x00\n        /* \"#utility.yul\":1222:1242   */\n      tag_91\n      tag_36\n      jump\t// in\n    tag_91:\n        /* \"#utility.yul\":1212:1242   */\n      swap1\n      pop\n        /* \"#utility.yul\":1251:1284   */\n      tag_92\n        /* \"#utility.yul\":1279:1283   */\n      dup3\n        /* \"#utility.yul\":1271:1277   */\n      dup3\n        /* \"#utility.yul\":1251:1284   */\n      tag_43\n      jump\t// in\n    tag_92:\n        /* \"#utility.yul\":1161:1290   */\n      swap2\n      swap1\n      pop\n      jump\t// out\n        /* \"#utility.yul\":1296:1604   */\n    tag_45:\n        /* \"#utility.yul\":1358:1362   */\n      0x00\n        /* \"#utility.yul\":1448:1466   */\n      0xffffffffffffffff\n        /* \"#utility.yul\":1440:1446   */\n      dup3\n        /* \"#utility.yul\":1437:1467   */\n      gt\n        /* \"#utility.yul\":1434:1490   */\n      iszero\n      tag_94\n      jumpi\n        /* \"#utility.yul\":1470:1488   */\n      tag_95\n      tag_42\n      jump\t// in\n    tag_95:\n        /* \"#utility.yul\":1434:1490   */\n    tag_94:\n        /* \"#utility.yul\":1508:1537   */\n      tag_96\n        /* \"#utility.yul\":1530:1536   */\n      dup3\n        /* \"#utility.yul\":1508:1537   */\n      tag_41\n      jump\t// in\n    tag_96:\n        /* \"#utility.yul\":1500:1537   */\n      swap1\n      pop\n        /* \"#utility.yul\":1592:1596   */\n      0x20\n        /* \"#utility.yul\":1586:1590   */\n      dup2\n        /* \"#utility.yul\":1582:1597   */\n      add\n        /* \"#utility.yul\":1574:1597   */\n      swap1\n      pop\n        /* \"#utility.yul\":1296:1604   */\n      swap2\n      swap1\n      pop\n      jump\t// out\n        /* \"#utility.yul\":1610:1758   */\n    tag_46:\n        /* \"#utility.yul\":1708:1714   */\n      dup3\n        /* \"#utility.yul\":1703:1706   */\n      dup2\n        /* \"#utility.yul\":1698:1701   */\n      dup4\n        /* \"#utility.yul\":1685:1715   */\n      calldatacopy\n        /* \"#utility.yul\":1749:1750   */\n      0x00\n        /* \"#utility.yul\":1740:1746   */\n      dup4\n        /* \"#utility.yul\":1735:1738   */\n      dup4\n        /* \"#utility.yul\":1731:1747   */\n      add\n        /* \"#utility.yul\":1724:1751   */\n      mstore\n        /* \"#utility.yul\":1610:1758   */\n      pop\n      pop\n      pop\n      jump\t// out\n        /* \"#utility.yul\":1764:2189   */\n    tag_47:\n        /* \"#utility.yul\":1842:1847   */\n      0x00\n        /* \"#utility.yul\":1867:1933   */\n      tag_99\n        /* \"#utility.yul\":1883:1932   */\n      tag_100\n        /* \"#utility.yul\":1925:1931   */\n      dup5\n        /* \"#utility.yul\":1883:1932   */\n      tag_45\n      jump\t// in\n    tag_100:\n        /* \"#utility.yul\":1867:1933   */\n      tag_44\n      jump\t// in\n    tag_99:\n        /* \"#utility.yul\":1858:1933   */\n      swap1\n      pop\n        /* \"#utility.yul\":1956:1962   */\n      dup3\n        /* \"#utility.yul\":1949:1954   */\n      dup2\n        /* \"#utility.yul\":1942:1963   */\n      mstore\n        /* \"#utility.yul\":1994:1998   */\n      0x20\n        /* \"#utility.yul\":1987:1992   */\n      dup2\n        /* \"#utility.yul\":1983:1999   */\n      add\n        /* \"#utility.yul\":2032:2035   */\n      dup5\n        /* \"#utility.yul\":2023:2029   */\n      dup5\n        /* \"#utility.yul\":2018:2021   */\n      dup5\n        /* \"#utility.yul\":2014:2030   */\n      add\n        /* \"#utility.yul\":2011:2036   */\n      gt\n        /* \"#utility.yul\":2008:2120   */\n      iszero\n      tag_101\n      jumpi\n        /* \"#utility.yul\":2039:2118   */\n      tag_102\n      tag_40\n      jump\t// in\n    tag_102:\n        /* \"#utility.yul\":2008:2120   */\n    tag_101:\n        /* \"#utility.yul\":2129:2183   */\n      tag_103\n        /* \"#utility.yul\":2176:2182   */\n      dup5\n        /* \"#utility.yul\":2171:2174   */\n      dup3\n        /* \"#utility.yul\":2166:2169   */\n      dup6\n        /* \"#utility.yul\":2129:2183   */\n      tag_46\n      jump\t// in\n    tag_103:\n        /* \"#utility.yul\":1848:2189   */\n      pop\n        /* \"#utility.yul\":1764:2189   */\n      swap4\n      swap3\n      pop\n      pop\n      pop\n      jump\t// out\n        /* \"#utility.yul\":2209:2549   */\n    tag_48:\n        /* \"#utility.yul\":2265:2270   */\n      0x00\n        /* \"#utility.yul\":2314:2317   */\n      dup3\n        /* \"#utility.yul\":2307:2311   */\n      0x1f\n        /* \"#utility.yul\":2299:2305   */\n      dup4\n        /* \"#utility.yul\":2295:2312   */\n      add\n        /* \"#utility.yul\":2291:2318   */\n      slt\n        /* \"#utility.yul\":2281:2403   */\n      tag_105\n      jumpi\n        /* \"#utility.yul\":2322:2401   */\n      tag_106\n      tag_39\n      jump\t// in\n    tag_106:\n        /* \"#utility.yul\":2281:2403   */\n    tag_105:\n        /* \"#utility.yul\":2439:2445   */\n      dup2\n        /* \"#utility.yul\":2426:2446   */\n      calldataload\n        /* \"#utility.yul\":2464:2543   */\n      tag_107\n        /* \"#utility.yul\":2539:2542   */\n      dup5\n        /* \"#utility.yul\":2531:2537   */\n      dup3\n        /* \"#utility.yul\":2524:2528   */\n      0x20\n        /* \"#utility.yul\":2516:2522   */\n      dup7\n        /* \"#utility.yul\":2512:2529   */\n      add\n        /* \"#utility.yul\":2464:2543   */\n      tag_47\n      jump\t// in\n    tag_107:\n        /* \"#utility.yul\":2455:2543   */\n      swap2\n      pop\n        /* \"#utility.yul\":2271:2549   */\n      pop\n        /* \"#utility.yul\":2209:2549   */\n      swap3\n      swap2\n      pop\n      pop\n      jump\t// out\n        /* \"#utility.yul\":2555:3064   */\n    tag_8:\n        /* \"#utility.yul\":2624:2630   */\n      0x00\n        /* \"#utility.yul\":2673:2675   */\n      0x20\n        /* \"#utility.yul\":2661:2670   */\n      dup3\n        /* \"#utility.yul\":2652:2659   */\n      dup5\n        /* \"#utility.yul\":2648:2671   */\n      sub\n        /* \"#utility.yul\":2644:2676   */\n      slt\n        /* \"#utility.yul\":2641:2760   */\n      iszero\n      tag_109\n      jumpi\n        /* \"#utility.yul\":2679:2758   */\n      tag_110\n      tag_37\n      jump\t// in\n    tag_110:\n        /* \"#utility.yul\":2641:2760   */\n    tag_109:\n        /* \"#utility.yul\":2827:2828   */\n      0x00\n        /* \"#utility.yul\":2816:2825   */\n      dup3\n        /* \"#utility.yul\":2812:2829   */\n      add\n        /* \"#utility.yul\":2799:2830   */\n      calldataload\n        /* \"#utility.yul\":2857:2875   */\n      0xffffffffffffffff\n        /* \"#utility.yul\":2849:2855   */\n      dup2\n        /* \"#utility.yul\":2846:2876   */\n      gt\n        /* \"#utility.yul\":2843:2960   */\n      iszero\n      tag_111\n      jumpi\n        /* \"#utility.yul\":2879:2958   */\n      tag_112\n      tag_38\n      jump\t// in\n    tag_112:\n        /* \"#utility.yul\":2843:2960   */\n    tag_111:\n        /* \"#utility.yul\":2984:3047   */\n      tag_113\n        /* \"#utility.yul\":3039:3046   */\n      dup5\n        /* \"#utility.yul\":3030:3036   */\n      dup3\n        /* \"#utility.yul\":3019:3028   */\n      dup6\n        /* \"#utility.yul\":3015:3037   */\n      add\n        /* \"#utility.yul\":2984:3047   */\n      tag_48\n      jump\t// in\n    tag_113:\n        /* \"#utility.yul\":2974:3047   */\n      swap2\n      pop\n        /* \"#utility.yul\":2770:3057   */\n      pop\n        /* \"#utility.yul\":2555:3064   */\n      swap3\n      swap2\n      pop\n      pop\n      jump\t// out\n        /* \"#utility.yul\":3070:3147   */\n    tag_49:\n        /* \"#utility.yul\":3107:3114   */\n      0x00\n        /* \"#utility.yul\":3136:3141   */\n      dup2\n        /* \"#utility.yul\":3125:3141   */\n      swap1\n      pop\n        /* \"#utility.yul\":3070:3147   */\n      swap2\n      swap1\n      pop\n      jump\t// out\n        /* \"#utility.yul\":3153:3271   */\n    tag_50:\n        /* \"#utility.yul\":3240:3264   */\n      tag_116\n        /* \"#utility.yul\":3258:3263   */\n      dup2\n        /* \"#utility.yul\":3240:3264   */\n      tag_49\n      jump\t// in\n    tag_116:\n        /* \"#utility.yul\":3235:3238   */\n      dup3\n        /* \"#utility.yul\":3228:3265   */\n      mstore\n        /* \"#utility.yul\":3153:3271   */\n      pop\n      pop\n      jump\t// out\n        /* \"#utility.yul\":3277:3499   */\n    tag_11:\n        /* \"#utility.yul\":3370:3374   */\n      0x00\n        /* \"#utility.yul\":3408:3410   */\n      0x20\n        /* \"#utility.yul\":3397:3406   */\n      dup3\n        /* \"#utility.yul\":3393:3411   */\n      add\n        /* \"#utility.yul\":3385:3411   */\n      swap1\n      pop\n        /* \"#utility.yul\":3421:3492   */\n      tag_118\n        /* \"#utility.yul\":3489:3490   */\n      0x00\n        /* \"#utility.yul\":3478:3487   */\n      dup4\n        /* \"#utility.yul\":3474:3491   */\n      add\n        /* \"#utility.yul\":3465:3471   */\n      dup5\n        /* \"#utility.yul\":3421:3492   */\n      tag_50\n      jump\t// in\n    tag_118:\n        /* \"#utility.yul\":3277:3499   */\n      swap3\n      swap2\n      pop\n      pop\n      jump\t// out\n        /* \"#utility.yul\":3505:3627   */\n    tag_51:\n        /* \"#utility.yul\":3578:3602   */\n      tag_120\n        /* \"#utility.yul\":3596:3601   */\n      dup2\n        /* \"#utility.yul\":3578:3602   */\n      tag_49\n      jump\t// in\n    tag_120:\n        /* \"#utility.yul\":3571:3576   */\n      dup2\n        /* \"#utility.yul\":3568:3603   */\n      eq\n        /* \"#utility.yul\":3558:3621   */\n      tag_121\n      jumpi\n        /* \"#utility.yul\":3617:3618   */\n      0x00\n        /* \"#utility.yul\":3614:3615   */\n      dup1\n        /* \"#utility.yul\":3607:3619   */\n      revert\n        /* \"#utility.yul\":3558:3621   */\n    tag_121:\n        /* \"#utility.yul\":3505:3627   */\n      pop\n      jump\t// out\n        /* \"#utility.yul\":3633:3772   */\n    tag_52:\n        /* \"#utility.yul\":3679:3684   */\n      0x00\n        /* \"#utility.yul\":3717:3723   */\n      dup2\n        /* \"#utility.yul\":3704:3724   */\n      calldataload\n        /* \"#utility.yul\":3695:3724   */\n      swap1\n      pop\n        /* \"#utility.yul\":3733:3766   */\n      tag_123\n        /* \"#utility.yul\":3760:3765   */\n      dup2\n        /* \"#utility.yul\":3733:3766   */\n      tag_51\n      jump\t// in\n    tag_123:\n        /* \"#utility.yul\":3633:3772   */\n      swap3\n      swap2\n      pop\n      pop\n      jump\t// out\n        /* \"#utility.yul\":3778:4577   */\n    tag_14:\n        /* \"#utility.yul\":3865:3871   */\n      0x00\n        /* \"#utility.yul\":3873:3879   */\n      dup1\n        /* \"#utility.yul\":3881:3887   */\n      0x00\n        /* \"#utility.yul\":3930:3932   */\n      0x60\n        /* \"#utility.yul\":3918:3927   */\n      dup5\n        /* \"#utility.yul\":3909:3916   */\n      dup7\n        /* \"#utility.yul\":3905:3928   */\n      sub\n        /* \"#utility.yul\":3901:3933   */\n      slt\n        /* \"#utility.yul\":3898:4017   */\n      iszero\n      tag_125\n      jumpi\n        /* \"#utility.yul\":3936:4015   */\n      tag_126\n      tag_37\n      jump\t// in\n    tag_126:\n        /* \"#utility.yul\":3898:4017   */\n    tag_125:\n        /* \"#utility.yul\":4084:4085   */\n      0x00\n        /* \"#utility.yul\":4073:4082   */\n      dup5\n        /* \"#utility.yul\":4069:4086   */\n      add\n        /* \"#utility.yul\":4056:4087   */\n      calldataload\n        /* \"#utility.yul\":4114:4132   */\n      0xffffffffffffffff\n        /* \"#utility.yul\":4106:4112   */\n      dup2\n        /* \"#utility.yul\":4103:4133   */\n      gt\n        /* \"#utility.yul\":4100:4217   */\n      iszero\n      tag_127\n      jumpi\n        /* \"#utility.yul\":4136:4215   */\n      tag_128\n      tag_38\n      jump\t// in\n    tag_128:\n        /* \"#utility.yul\":4100:4217   */\n    tag_127:\n        /* \"#utility.yul\":4241:4304   */\n      tag_129\n        /* \"#utility.yul\":4296:4303   */\n      dup7\n        /* \"#utility.yul\":4287:4293   */\n      dup3\n        /* \"#utility.yul\":4276:4285   */\n      dup8\n        /* \"#utility.yul\":4272:4294   */\n      add\n        /* \"#utility.yul\":4241:4304   */\n      tag_48\n      jump\t// in\n    tag_129:\n        /* \"#utility.yul\":4231:4304   */\n      swap4\n      pop\n        /* \"#utility.yul\":4027:4314   */\n      pop\n        /* \"#utility.yul\":4353:4355   */\n      0x20\n        /* \"#utility.yul\":4379:4432   */\n      tag_130\n        /* \"#utility.yul\":4424:4431   */\n      dup7\n        /* \"#utility.yul\":4415:4421   */\n      dup3\n        /* \"#utility.yul\":4404:4413   */\n      dup8\n        /* \"#utility.yul\":4400:4422   */\n      add\n        /* \"#utility.yul\":4379:4432   */\n      tag_52\n      jump\t// in\n    tag_130:\n        /* \"#utility.yul\":4369:4432   */\n      swap3\n      pop\n        /* \"#utility.yul\":4324:4442   */\n      pop\n        /* \"#utility.yul\":4481:4483   */\n      0x40\n        /* \"#utility.yul\":4507:4560   */\n      tag_131\n        /* \"#utility.yul\":4552:4559   */\n      dup7\n        /* \"#utility.yul\":4543:4549   */\n      dup3\n        /* \"#utility.yul\":4532:4541   */\n      dup8\n        /* \"#utility.yul\":4528:4550   */\n      add\n        /* \"#utility.yul\":4507:4560   */\n      tag_52\n      jump\t// in\n    tag_131:\n        /* \"#utility.yul\":4497:4560   */\n      swap2\n      pop\n        /* \"#utility.yul\":4452:4570   */\n      pop\n        /* \"#utility.yul\":3778:4577   */\n      swap3\n      pop\n      swap3\n      pop\n      swap3\n      jump\t// out\n        /* \"#utility.yul\":4583:4912   */\n    tag_18:\n        /* \"#utility.yul\":4642:4648   */\n      0x00\n        /* \"#utility.yul\":4691:4693   */\n      0x20\n        /* \"#utility.yul\":4679:4688   */\n      dup3\n        /* \"#utility.yul\":4670:4677   */\n      dup5\n        /* \"#utility.yul\":4666:4689   */\n      sub\n        /* \"#utility.yul\":4662:4694   */\n      slt\n        /* \"#utility.yul\":4659:4778   */\n      iszero\n      tag_133\n      jumpi\n        /* \"#utility.yul\":4697:4776   */\n      tag_134\n      tag_37\n      jump\t// in\n    tag_134:\n        /* \"#utility.yul\":4659:4778   */\n    tag_133:\n        /* \"#utility.yul\":4817:4818   */\n      0x00\n        /* \"#utility.yul\":4842:4895   */\n      tag_135\n        /* \"#utility.yul\":4887:4894   */\n      dup5\n        /* \"#utility.yul\":4878:4884   */\n      dup3\n        /* \"#utility.yul\":4867:4876   */\n      dup6\n        /* \"#utility.yul\":4863:4885   */\n      add\n        /* \"#utility.yul\":4842:4895   */\n      tag_52\n      jump\t// in\n    tag_135:\n        /* \"#utility.yul\":4832:4895   */\n      swap2\n      pop\n        /* \"#utility.yul\":4788:4905   */\n      pop\n        /* \"#utility.yul\":4583:4912   */\n      swap3\n      swap2\n      pop\n      pop\n      jump\t// out\n        /* \"#utility.yul\":4918:5017   */\n    tag_53:\n        /* \"#utility.yul\":4970:4976   */\n      0x00\n        /* \"#utility.yul\":5004:5009   */\n      dup2\n        /* \"#utility.yul\":4998:5010   */\n      mload\n        /* \"#utility.yul\":4988:5010   */\n      swap1\n      pop\n        /* \"#utility.yul\":4918:5017   */\n      swap2\n      swap1\n      pop\n      jump\t// out\n        /* \"#utility.yul\":5023:5192   */\n    tag_54:\n        /* \"#utility.yul\":5107:5118   */\n      0x00\n        /* \"#utility.yul\":5141:5147   */\n      dup3\n        /* \"#utility.yul\":5136:5139   */\n      dup3\n        /* \"#utility.yul\":5129:5148   */\n      mstore\n        /* \"#utility.yul\":5181:5185   */\n      0x20\n        /* \"#utility.yul\":5176:5179   */\n      dup3\n        /* \"#utility.yul\":5172:5186   */\n      add\n        /* \"#utility.yul\":5157:5186   */\n      swap1\n      pop\n        /* \"#utility.yul\":5023:5192   */\n      swap3\n      swap2\n      pop\n      pop\n      jump\t// out\n        /* \"#utility.yul\":5198:5337   */\n    tag_55:\n        /* \"#utility.yul\":5287:5293   */\n      dup3\n        /* \"#utility.yul\":5282:5285   */\n      dup2\n        /* \"#utility.yul\":5277:5280   */\n      dup4\n        /* \"#utility.yul\":5271:5294   */\n      mcopy\n        /* \"#utility.yul\":5328:5329   */\n      0x00\n        /* \"#utility.yul\":5319:5325   */\n      dup4\n        /* \"#utility.yul\":5314:5317   */\n      dup4\n        /* \"#utility.yul\":5310:5326   */\n      add\n        /* \"#utility.yul\":5303:5330   */\n      mstore\n        /* \"#utility.yul\":5198:5337   */\n      pop\n      pop\n      pop\n      jump\t// out\n        /* \"#utility.yul\":5343:5720   */\n    tag_56:\n        /* \"#utility.yul\":5431:5434   */\n      0x00\n        /* \"#utility.yul\":5459:5498   */\n      tag_140\n        /* \"#utility.yul\":5492:5497   */\n      dup3\n        /* \"#utility.yul\":5459:5498   */\n      tag_53\n      jump\t// in\n    tag_140:\n        /* \"#utility.yul\":5514:5585   */\n      tag_141\n        /* \"#utility.yul\":5578:5584   */\n      dup2\n        /* \"#utility.yul\":5573:5576   */\n      dup6\n        /* \"#utility.yul\":5514:5585   */\n      tag_54\n      jump\t// in\n    tag_141:\n        /* \"#utility.yul\":5507:5585   */\n      swap4\n      pop\n        /* \"#utility.yul\":5594:5659   */\n      tag_142\n        /* \"#utility.yul\":5652:5658   */\n      dup2\n        /* \"#utility.yul\":5647:5650   */\n      dup6\n        /* \"#utility.yul\":5640:5644   */\n      0x20\n        /* \"#utility.yul\":5633:5638   */\n      dup7\n        /* \"#utility.yul\":5629:5645   */\n      add\n        /* \"#utility.yul\":5594:5659   */\n      tag_55\n      jump\t// in\n    tag_142:\n        /* \"#utility.yul\":5684:5713   */\n      tag_143\n        /* \"#utility.yul\":5706:5712   */\n      dup2\n        /* \"#utility.yul\":5684:5713   */\n      tag_41\n      jump\t// in\n    tag_143:\n        /* \"#utility.yul\":5679:5682   */\n      dup5\n        /* \"#utility.yul\":5675:5714   */\n      add\n        /* \"#utility.yul\":5668:5714   */\n      swap2\n      pop\n        /* \"#utility.yul\":5435:5720   */\n      pop\n        /* \"#utility.yul\":5343:5720   */\n      swap3\n      swap2\n      pop\n      pop\n      jump\t// out\n        /* \"#utility.yul\":5726:5852   */\n    tag_57:\n        /* \"#utility.yul\":5763:5770   */\n      0x00\n        /* \"#utility.yul\":5803:5845   */\n      0xffffffffffffffffffffffffffffffffffffffff\n        /* \"#utility.yul\":5796:5801   */\n      dup3\n        /* \"#utility.yul\":5792:5846   */\n      and\n        /* \"#utility.yul\":5781:5846   */\n      swap1\n      pop\n        /* \"#utility.yul\":5726:5852   */\n      swap2\n      swap1\n      pop\n      jump\t// out\n        /* \"#utility.yul\":5858:5954   */\n    tag_58:\n        /* \"#utility.yul\":5895:5902   */\n      0x00\n        /* \"#utility.yul\":5924:5948   */\n      tag_146\n        /* \"#utility.yul\":5942:5947   */\n      dup3\n        /* \"#utility.yul\":5924:5948   */\n      tag_57\n      jump\t// in\n    tag_146:\n        /* \"#utility.yul\":5913:5948   */\n      swap1\n      pop\n        /* \"#utility.yul\":5858:5954   */\n      swap2\n      swap1\n      pop\n      jump\t// out\n        /* \"#utility.yul\":5960:6078   */\n    tag_59:\n        /* \"#utility.yul\":6047:6071   */\n      tag_148\n        /* \"#utility.yul\":6065:6070   */\n      dup2\n        /* \"#utility.yul\":6047:6071   */\n      tag_58\n      jump\t// in\n    tag_148:\n        /* \"#utility.yul\":6042:6045   */\n      dup3\n        /* \"#utility.yul\":6035:6072   */\n      mstore\n        /* \"#utility.yul\":5960:6078   */\n      pop\n      pop\n      jump\t// out\n        /* \"#utility.yul\":6084:6617   */\n    tag_21:\n        /* \"#utility.yul\":6253:6257   */\n      0x00\n        /* \"#utility.yul\":6291:6293   */\n      0x60\n        /* \"#utility.yul\":6280:6289   */\n      dup3\n        /* \"#utility.yul\":6276:6294   */\n      add\n        /* \"#utility.yul\":6268:6294   */\n      swap1\n      pop\n        /* \"#utility.yul\":6340:6349   */\n      dup2\n        /* \"#utility.yul\":6334:6338   */\n      dup2\n        /* \"#utility.yul\":6330:6350   */\n      sub\n        /* \"#utility.yul\":6326:6327   */\n      0x00\n        /* \"#utility.yul\":6315:6324   */\n      dup4\n        /* \"#utility.yul\":6311:6328   */\n      add\n        /* \"#utility.yul\":6304:6351   */\n      mstore\n        /* \"#utility.yul\":6368:6446   */\n      tag_150\n        /* \"#utility.yul\":6441:6445   */\n      dup2\n        /* \"#utility.yul\":6432:6438   */\n      dup7\n        /* \"#utility.yul\":6368:6446   */\n      tag_56\n      jump\t// in\n    tag_150:\n        /* \"#utility.yul\":6360:6446   */\n      swap1\n      pop\n        /* \"#utility.yul\":6456:6528   */\n      tag_151\n        /* \"#utility.yul\":6524:6526   */\n      0x20\n        /* \"#utility.yul\":6513:6522   */\n      dup4\n        /* \"#utility.yul\":6509:6527   */\n      add\n        /* \"#utility.yul\":6500:6506   */\n      dup6\n        /* \"#utility.yul\":6456:6528   */\n      tag_50\n      jump\t// in\n    tag_151:\n        /* \"#utility.yul\":6538:6610   */\n      tag_152\n        /* \"#utility.yul\":6606:6608   */\n      0x40\n        /* \"#utility.yul\":6595:6604   */\n      dup4\n        /* \"#utility.yul\":6591:6609   */\n      add\n        /* \"#utility.yul\":6582:6588   */\n      dup5\n        /* \"#utility.yul\":6538:6610   */\n      tag_59\n      jump\t// in\n    tag_152:\n        /* \"#utility.yul\":6084:6617   */\n      swap5\n      swap4\n      pop\n      pop\n      pop\n      pop\n      jump\t// out\n        /* \"#utility.yul\":6623:6803   */\n    tag_60:\n        /* \"#utility.yul\":6671:6748   */\n      0x4e487b7100000000000000000000000000000000000000000000000000000000\n        /* \"#utility.yul\":6668:6669   */\n      0x00\n        /* \"#utility.yul\":6661:6749   */\n      mstore\n        /* \"#utility.yul\":6768:6772   */\n      0x22\n        /* \"#utility.yul\":6765:6766   */\n      0x04\n        /* \"#utility.yul\":6758:6773   */\n      mstore\n        /* \"#utility.yul\":6792:6796   */\n      0x24\n        /* \"#utility.yul\":6789:6790   */\n      0x00\n        /* \"#utility.yul\":6782:6797   */\n      revert\n        /* \"#utility.yul\":6809:7129   */\n    tag_31:\n        /* \"#utility.yul\":6853:6859   */\n      0x00\n        /* \"#utility.yul\":6890:6891   */\n      0x02\n        /* \"#utility.yul\":6884:6888   */\n      dup3\n        /* \"#utility.yul\":6880:6892   */\n      div\n        /* \"#utility.yul\":6870:6892   */\n      swap1\n      pop\n        /* \"#utility.yul\":6937:6938   */\n      0x01\n        /* \"#utility.yul\":6931:6935   */\n      dup3\n        /* \"#utility.yul\":6927:6939   */\n      and\n        /* \"#utility.yul\":6958:6976   */\n      dup1\n        /* \"#utility.yul\":6948:7029   */\n      tag_155\n      jumpi\n        /* \"#utility.yul\":7014:7018   */\n      0x7f\n        /* \"#utility.yul\":7006:7012   */\n      dup3\n        /* \"#utility.yul\":7002:7019   */\n      and\n        /* \"#utility.yul\":6992:7019   */\n      swap2\n      pop\n        /* \"#utility.yul\":6948:7029   */\n    tag_155:\n        /* \"#utility.yul\":7076:7078   */\n      0x20\n        /* \"#utility.yul\":7068:7074   */\n      dup3\n        /* \"#utility.yul\":7065:7079   */\n      lt\n        /* \"#utility.yul\":7045:7063   */\n      dup2\n        /* \"#utility.yul\":7042:7080   */\n      sub\n        /* \"#utility.yul\":7039:7123   */\n      tag_156\n      jumpi\n        /* \"#utility.yul\":7095:7113   */\n      tag_157\n      tag_60\n      jump\t// in\n    tag_157:\n        /* \"#utility.yul\":7039:7123   */\n    tag_156:\n        /* \"#utility.yul\":6860:7129   */\n      pop\n        /* \"#utility.yul\":6809:7129   */\n      swap2\n      swap1\n      pop\n      jump\t// out\n        /* \"#utility.yul\":7135:7276   */\n    tag_61:\n        /* \"#utility.yul\":7184:7188   */\n      0x00\n        /* \"#utility.yul\":7207:7210   */\n      dup2\n        /* \"#utility.yul\":7199:7210   */\n      swap1\n      pop\n        /* \"#utility.yul\":7230:7233   */\n      dup2\n        /* \"#utility.yul\":7227:7228   */\n      0x00\n        /* \"#utility.yul\":7220:7234   */\n      mstore\n        /* \"#utility.yul\":7264:7268   */\n      0x20\n        /* \"#utility.yul\":7261:7262   */\n      0x00\n        /* \"#utility.yul\":7251:7269   */\n      keccak256\n        /* \"#utility.yul\":7243:7269   */\n      swap1\n      pop\n        /* \"#utility.yul\":7135:7276   */\n      swap2\n      swap1\n      pop\n      jump\t// out\n        /* \"#utility.yul\":7282:7375   */\n    tag_62:\n        /* \"#utility.yul\":7319:7325   */\n      0x00\n        /* \"#utility.yul\":7366:7368   */\n      0x20\n        /* \"#utility.yul\":7361:7363   */\n      0x1f\n        /* \"#utility.yul\":7354:7359   */\n      dup4\n        /* \"#utility.yul\":7350:7364   */\n      add\n        /* \"#utility.yul\":7346:7369   */\n      div\n        /* \"#utility.yul\":7336:7369   */\n      swap1\n      pop\n        /* \"#utility.yul\":7282:7375   */\n      swap2\n      swap1\n      pop\n      jump\t// out\n        /* \"#utility.yul\":7381:7488   */\n    tag_63:\n        /* \"#utility.yul\":7425:7433   */\n      0x00\n        /* \"#utility.yul\":7475:7480   */\n      dup3\n        /* \"#utility.yul\":7469:7473   */\n      dup3\n        /* \"#utility.yul\":7465:7481   */\n      shl\n        /* \"#utility.yul\":7444:7481   */\n      swap1\n      pop\n        /* \"#utility.yul\":7381:7488   */\n      swap3\n      swap2\n      pop\n      pop\n      jump\t// out\n        /* \"#utility.yul\":7494:7887   */\n    tag_64:\n        /* \"#utility.yul\":7563:7569   */\n      0x00\n        /* \"#utility.yul\":7613:7614   */\n      0x08\n        /* \"#utility.yul\":7601:7611   */\n      dup4\n        /* \"#utility.yul\":7597:7615   */\n      mul\n        /* \"#utility.yul\":7636:7733   */\n      tag_162\n        /* \"#utility.yul\":7666:7732   */\n      0xffffffffffffffffffffffffffffffffffffffffffffffffffffffffffffffff\n        /* \"#utility.yul\":7655:7664   */\n      dup3\n        /* \"#utility.yul\":7636:7733   */\n      tag_63\n      jump\t// in\n    tag_162:\n        /* \"#utility.yul\":7754:7793   */\n      tag_163\n        /* \"#utility.yul\":7784:7792   */\n      dup7\n        /* \"#utility.yul\":7773:7782   */\n      dup4\n        /* \"#utility.yul\":7754:7793   */\n      tag_63\n      jump\t// in\n    tag_163:\n        /* \"#utility.yul\":7742:7793   */\n      swap6\n      pop\n        /* \"#utility.yul\":7826:7830   */\n      dup1\n        /* \"#utility.yul\":7822:7831   */\n      not\n        /* \"#utility.yul\":7815:7820   */\n      dup5\n        /* \"#utility.yul\":7811:7832   */\n      and\n        /* \"#utility.yul\":7802:7832   */\n      swap4\n      pop\n        /* \"#utility.yul\":7875:7879   */\n      dup1\n        /* \"#utility.yul\":7865:7873   */\n      dup7\n        /* \"#utility.yul\":7861:7880   */\n      and\n        /* \"#utility.yul\":7854:7859   */\n      dup5\n        /* \"#utility.yul\":7851:7881   */\n      or\n        /* \"#utility.yul\":7841:7881   */\n      swap3\n      pop\n        /* \"#utility.yul\":7570:7887   */\n      pop\n      pop\n        /* \"#utility.yul\":7494:7887   */\n      swap4\n      swap3\n      pop\n      pop\n      pop\n      jump\t// out\n        /* \"#utility.yul\":7893:7953   */\n    tag_65:\n        /* \"#utility.yul\":7921:7924   */\n      0x00\n        /* \"#utility.yul\":7942:7947   */\n      dup2\n        /* \"#utility.yul\":7935:7947   */\n      swap1\n      pop\n        /* \"#utility.yul\":7893:7953   */\n      swap2\n      swap1\n      pop\n      jump\t// out\n        /* \"#utility.yul\":7959:8101   */\n    tag_66:\n        /* \"#utility.yul\":8009:8018   */\n      0x00\n        /* \"#utility.yul\":8042:8095   */\n      tag_166\n        /* \"#utility.yul\":8060:8094   */\n      tag_167\n        /* \"#utility.yul\":8069:8093   */\n      tag_168\n        /* \"#utility.yul\":8087:8092   */\n      dup5\n        /* \"#utility.yul\":8069:8093   */\n      tag_49\n      jump\t// in\n    tag_168:\n        /* \"#utility.yul\":8060:8094   */\n      tag_65\n      jump\t// in\n    tag_167:\n        /* \"#utility.yul\":8042:8095   */\n      tag_49\n      jump\t// in\n    tag_166:\n        /* \"#utility.yul\":8029:8095   */\n      swap1\n      pop\n        /* \"#utility.yul\":7959:8101   */\n      swap2\n      swap1\n      pop\n      jump\t// out\n        /* \"#utility.yul\":8107:8182   */\n    tag_67:\n        /* \"#utility.yul\":8150:8153   */\n      0x00\n        /* \"#utility.yul\":8171:8176   */\n      dup2\n        /* \"#utility.yul\":8164:8176   */\n      swap1\n      pop\n        /* \"#utility.yul\":8107:8182   */\n      swap2\n      swap1\n      pop\n      jump\t// out\n        /* \"#utility.yul\":8188:8457   */\n    tag_68:\n        /* \"#utility.yul\":8298:8337   */\n      tag_171\n        /* \"#utility.yul\":8329:8336   */\n      dup4\n        /* \"#utility.yul\":8298:8337   */\n      tag_66\n      jump\t// in\n    tag_171:\n        /* \"#utility.yul\":8359:8450   */\n      tag_172\n        /* \"#utility.yul\":8408:8449   */\n      tag_173\n        /* \"#utility.yul\":8432:8448   */\n      dup3\n        /* \"#utility.yul\":8408:8449   */\n      tag_67\n      jump\t// in\n    tag_173:\n        /* \"#utility.yul\":8400:8406   */\n      dup5\n        /* \"#utility.yul\":8393:8397   */\n      dup5\n        /* \"#utility.yul\":8387:8398   */\n      sload\n        /* \"#utility.yul\":8359:8450   */\n      tag_64\n      jump\t// in\n    tag_172:\n        /* \"#utility.yul\":8353:8357   */\n      dup3\n        /* \"#utility.yul\":8346:8451   */\n      sstore\n        /* \"#utility.yul\":8264:8457   */\n      pop\n        /* \"#utility.yul\":8188:8457   */\n      pop\n      pop\n      pop\n      jump\t// out\n        /* \"#utility.yul\":8463:8536   */\n    tag_69:\n        /* \"#utility.yul\":8508:8511   */\n      0x00\n        /* \"#utility.yul\":8463:8536   */\n      swap1\n      jump\t// out\n        /* \"#utility.yul\":8542:8731   */\n    tag_70:\n        /* \"#utility.yul\":8619:8651   */\n      tag_176\n      tag_69\n      jump\t// in\n    tag_176:\n        /* \"#utility.yul\":8660:8725   */\n      tag_177\n        /* \"#utility.yul\":8718:8724   */\n      dup2\n        /* \"#utility.yul\":8710:8716   */\n      dup5\n        /* \"#utility.yul\":8704:8708   */\n      dup5\n        /* \"#utility.yul\":8660:8725   */\n      tag_68\n      jump\t// in\n    tag_177:\n        /* \"#utility.yul\":8595:8731   */\n      pop\n        /* \"#utility.yul\":8542:8731   */\n      pop\n      pop\n      jump\t// out\n        /* \"#utility.yul\":8737:8923   */\n    tag_71:\n        /* \"#utility.yul\":8797:8917   */\n    tag_179:\n        /* \"#utility.yul\":8814:8817   */\n      dup2\n        /* \"#utility.yul\":8807:8812   */\n      dup2\n        /* \"#utility.yul\":8804:8818   */\n      lt\n        /* \"#utility.yul\":8797:8917   */\n      iszero\n      tag_181\n      jumpi\n        /* \"#utility.yul\":8868:8907   */\n      tag_182\n        /* \"#utility.yul\":8905:8906   */\n      0x00\n        /* \"#utility.yul\":8898:8903   */\n      dup3\n        /* \"#utility.yul\":8868:8907   */\n      tag_70\n      jump\t// in\n    tag_182:\n        /* \"#utility.yul\":8841:8842   */\n      0x01\n        /* \"#utility.yul\":8834:8839   */\n      dup2\n        /* \"#utility.yul\":8830:8843   */\n      add\n        /* \"#utility.yul\":8821:8843   */\n      swap1\n      pop\n        /* \"#utility.yul\":8797:8917   */\n      jump(tag_179)\n    tag_181:\n        /* \"#utility.yul\":8737:8923   */\n      pop\n      pop\n      jump\t// out\n        /* \"#utility.yul\":8929:9472   */\n    tag_72:\n        /* \"#utility.yul\":9030:9032   */\n      0x1f\n        /* \"#utility.yul\":9025:9028   */\n      dup3\n        /* \"#utility.yul\":9022:9033   */\n      gt\n        /* \"#utility.yul\":9019:9465   */\n      iszero\n      tag_184\n      jumpi\n        /* \"#utility.yul\":9064:9102   */\n      tag_185\n        /* \"#utility.yul\":9096:9101   */\n      dup2\n        /* \"#utility.yul\":9064:9102   */\n      tag_61\n      jump\t// in\n    tag_185:\n        /* \"#utility.yul\":9148:9177   */\n      tag_186\n        /* \"#utility.yul\":9166:9176   */\n      dup5\n        /* \"#utility.yul\":9148:9177   */\n      tag_62\n      jump\t// in\n    tag_186:\n        /* \"#utility.yul\":9138:9146   */\n      dup2\n        /* \"#utility.yul\":9134:9178   */\n      add\n        /* \"#utility.yul\":9331:9333   */\n      0x20\n        /* \"#utility.yul\":9319:9329   */\n      dup6\n        /* \"#utility.yul\":9316:9334   */\n      lt\n        /* \"#utility.yul\":9313:9362   */\n      iszero\n      tag_187\n      jumpi\n        /* \"#utility.yul\":9352:9360   */\n      dup2\n        /* \"#utility.yul\":9337:9360   */\n      swap1\n      pop\n        /* \"#utility.yul\":9313:9362   */\n    tag_187:\n        /* \"#utility.yul\":9375:9455   */\n      tag_188\n        /* \"#utility.yul\":9431:9453   */\n      tag_189\n        /* \"#utility.yul\":9449:9452   */\n      dup6\n        /* \"#utility.yul\":9431:9453   */\n      tag_62\n      jump\t// in\n    tag_189:\n        /* \"#utility.yul\":9421:9429   */\n      dup4\n        /* \"#utility.yul\":9417:9454   */\n      add\n        /* \"#utility.yul\":9404:9415   */\n      dup3\n        /* \"#utility.yul\":9375:9455   */\n      tag_71\n      jump\t// in\n    tag_188:\n        /* \"#utility.yul\":9034:9465   */\n      pop\n      pop\n        /* \"#utility.yul\":9019:9465   */\n    tag_184:\n        /* \"#utility.yul\":8929:9472   */\n      pop\n      pop\n      pop\n      jump\t// out\n        /* \"#utility.yul\":9478:9595   */\n    tag_73:\n        /* \"#utility.yul\":9532:9540   */\n      0x00\n        /* \"#utility.yul\":9582:9587   */\n      dup3\n        /* \"#utility.yul\":9576:9580   */\n      dup3\n        /* \"#utility.yul\":9572:9588   */\n      shr\n        /* \"#utility.yul\":9551:9588   */\n      swap1\n      pop\n        /* \"#utility.yul\":9478:9595   */\n      swap3\n      swap2\n      pop\n      pop\n      jump\t// out\n        /* \"#utility.yul\":9601:9770   */\n    tag_74:\n        /* \"#utility.yul\":9645:9651   */\n      0x00\n        /* \"#utility.yul\":9678:9729   */\n      tag_192\n        /* \"#utility.yul\":9726:9727   */\n      0x00\n        /* \"#utility.yul\":9722:9728   */\n      not\n        /* \"#utility.yul\":9714:9719   */\n      dup5\n        /* \"#utility.yul\":9711:9712   */\n      0x08\n        /* \"#utility.yul\":9707:9720   */\n      mul\n        /* \"#utility.yul\":9678:9729   */\n      tag_73\n      jump\t// in\n    tag_192:\n        /* \"#utility.yul\":9674:9730   */\n      not\n        /* \"#utility.yul\":9759:9763   */\n      dup1\n        /* \"#utility.yul\":9753:9757   */\n      dup4\n        /* \"#utility.yul\":9749:9764   */\n      and\n        /* \"#utility.yul\":9739:9764   */\n      swap2\n      pop\n        /* \"#utility.yul\":9652:9770   */\n      pop\n        /* \"#utility.yul\":9601:9770   */\n      swap3\n      swap2\n      pop\n      pop\n      jump\t// out\n        /* \"#utility.yul\":9775:10070   */\n    tag_75:\n        /* \"#utility.yul\":9851:9855   */\n      0x00\n        /* \"#utility.yul\":9997:10026   */\n      tag_194\n        /* \"#utility.yul\":10022:10025   */\n      dup4\n        /* \"#utility.yul\":10016:10020   */\n      dup4\n        /* \"#utility.yul\":9997:10026   */\n      tag_74\n      jump\t// in\n    tag_194:\n        /* \"#utility.yul\":9989:10026   */\n      swap2\n      pop\n        /* \"#utility.yul\":10059:10062   */\n      dup3\n        /* \"#utility.yul\":10056:10057   */\n      0x02\n        /* \"#utility.yul\":10052:10063   */\n      mul\n        /* \"#utility.yul\":10046:10050   */\n      dup3\n        /* \"#utility.yul\":10043:10064   */\n      or\n        /* \"#utility.yul\":10035:10064   */\n      swap1\n      pop\n        /* \"#utility.yul\":9775:10070   */\n      swap3\n      swap2\n      pop\n      pop\n      jump\t// out\n        /* \"#utility.yul\":10075:11470   */\n    tag_25:\n        /* \"#utility.yul\":10192:10229   */\n      tag_196\n        /* \"#utility.yul\":10225:10228   */\n      dup3\n        /* \"#utility.yul\":10192:10229   */\n      tag_53\n      jump\t// in\n    tag_196:\n        /* \"#utility.yul\":10294:10312   */\n      0xffffffffffffffff\n        /* \"#utility.yul\":10286:10292   */\n      dup2\n        /* \"#utility.yul\":10283:10313   */\n      gt\n        /* \"#utility.yul\":10280:10336   */\n      iszero\n      tag_197\n      jumpi\n        /* \"#utility.yul\":10316:10334   */\n      tag_198\n      tag_42\n      jump\t// in\n    tag_198:\n        /* \"#utility.yul\":10280:10336   */\n    tag_197:\n        /* \"#utility.yul\":10360:10398   */\n      tag_199\n        /* \"#utility.yul\":10392:10396   */\n      dup3\n        /* \"#utility.yul\":10386:10397   */\n      sload\n        /* \"#utility.yul\":10360:10398   */\n      tag_31\n      jump\t// in\n    tag_199:\n        /* \"#utility.yul\":10445:10512   */\n      tag_200\n        /* \"#utility.yul\":10505:10511   */\n      dup3\n        /* \"#utility.yul\":10497:10503   */\n      dup3\n        /* \"#utility.yul\":10491:10495   */\n      dup6\n        /* \"#utility.yul\":10445:10512   */\n      tag_72\n      jump\t// in\n    tag_200:\n        /* \"#utility.yul\":10539:10540   */\n      0x00\n        /* \"#utility.yul\":10563:10567   */\n      0x20\n        /* \"#utility.yul\":10550:10567   */\n      swap1\n      pop\n        /* \"#utility.yul\":10595:10597   */\n      0x1f\n        /* \"#utility.yul\":10587:10593   */\n      dup4\n        /* \"#utility.yul\":10584:10598   */\n      gt\n        /* \"#utility.yul\":10612:10613   */\n      0x01\n        /* \"#utility.yul\":10607:11225   */\n      dup2\n      eq\n      tag_202\n      jumpi\n        /* \"#utility.yul\":11269:11270   */\n      0x00\n        /* \"#utility.yul\":11286:11292   */\n      dup5\n        /* \"#utility.yul\":11283:11360   */\n      iszero\n      tag_203\n      jumpi\n        /* \"#utility.yul\":11335:11344   */\n      dup3\n        /* \"#utility.yul\":11330:11333   */\n      dup8\n        /* \"#utility.yul\":11326:11345   */\n      add\n        /* \"#utility.yul\":11320:11346   */\n      mload\n        /* \"#utility.yul\":11311:11346   */\n      swap1\n      pop\n        /* \"#utility.yul\":11283:11360   */\n    tag_203:\n        /* \"#utility.yul\":11386:11453   */\n      tag_204\n        /* \"#utility.yul\":11446:11452   */\n      dup6\n        /* \"#utility.yul\":11439:11444   */\n      dup3\n        /* \"#utility.yul\":11386:11453   */\n      tag_75\n      jump\t// in\n    tag_204:\n        /* \"#utility.yul\":11380:11384   */\n      dup7\n        /* \"#utility.yul\":11373:11454   */\n      sstore\n        /* \"#utility.yul\":11242:11464   */\n      pop\n        /* \"#utility.yul\":10577:11464   */\n      jump(tag_201)\n        /* \"#utility.yul\":10607:11225   */\n    tag_202:\n        /* \"#utility.yul\":10659:10663   */\n      0x1f\n        /* \"#utility.yul\":10655:10664   */\n      not\n        /* \"#utility.yul\":10647:10653   */\n      dup5\n        /* \"#utility.yul\":10643:10665   */\n      and\n        /* \"#utility.yul\":10693:10730   */\n      tag_205\n        /* \"#utility.yul\":10725:10729   */\n      dup7\n        /* \"#utility.yul\":10693:10730   */\n      tag_61\n      jump\t// in\n    tag_205:\n        /* \"#utility.yul\":10752:10753   */\n      0x00\n        /* \"#utility.yul\":10766:10974   */\n    tag_206:\n        /* \"#utility.yul\":10780:10787   */\n      dup3\n        /* \"#utility.yul\":10777:10778   */\n      dup2\n        /* \"#utility.yul\":10774:10788   */\n      lt\n        /* \"#utility.yul\":10766:10974   */\n      iszero\n      tag_208\n      jumpi\n        /* \"#utility.yul\":10859:10868   */\n      dup5\n        /* \"#utility.yul\":10854:10857   */\n      dup10\n        /* \"#utility.yul\":10850:10869   */\n      add\n        /* \"#utility.yul\":10844:10870   */\n      mload\n        /* \"#utility.yul\":10836:10842   */\n      dup3\n        /* \"#utility.yul\":10829:10871   */\n      sstore\n        /* \"#utility.yul\":10910:10911   */\n      0x01\n        /* \"#utility.yul\":10902:10908   */\n      dup3\n        /* \"#utility.yul\":10898:10912   */\n      add\n        /* \"#utility.yul\":10888:10912   */\n      swap2\n      pop\n        /* \"#utility.yul\":10957:10959   */\n      0x20\n        /* \"#utility.yul\":10946:10955   */\n      dup6\n        /* \"#utility.yul\":10942:10960   */\n      add\n        /* \"#utility.yul\":10929:10960   */\n      swap5\n      pop\n        /* \"#utility.yul\":10803:10807   */\n      0x20\n        /* \"#utility.yul\":10800:10801   */\n      dup2\n        /* \"#utility.yul\":10796:10808   */\n      add\n        /* \"#utility.yul\":10791:10808   */\n      swap1\n      pop\n        /* \"#utility.yul\":10766:10974   */\n      jump(tag_206)\n    tag_208:\n        /* \"#utility.yul\":11002:11008   */\n      dup7\n        /* \"#utility.yul\":10993:11000   */\n      dup4\n        /* \"#utility.yul\":10990:11009   */\n      lt\n        /* \"#utility.yul\":10987:11166   */\n      iszero\n      tag_209\n      jumpi\n        /* \"#utility.yul\":11060:11069   */\n      dup5\n        /* \"#utility.yul\":11055:11058   */\n      dup10\n        /* \"#utility.yul\":11051:11070   */\n      add\n        /* \"#utility.yul\":11045:11071   */\n      mload\n        /* \"#utility.yul\":11103:11151   */\n      tag_210\n        /* \"#utility.yul\":11145:11149   */\n      0x1f\n        /* \"#utility.yul\":11137:11143   */\n      dup10\n        /* \"#utility.yul\":11133:11150   */\n      and\n        /* \"#utility.yul\":11122:11131   */\n      dup3\n        /* \"#utility.yul\":11103:11151   */\n      tag_74\n      jump\t// in\n    tag_210:\n        /* \"#utility.yul\":11095:11101   */\n      dup4\n        /* \"#utility.yul\":11088:11152   */\n      sstore\n        /* \"#utility.yul\":11010:11166   */\n      pop\n        /* \"#utility.yul\":10987:11166   */\n    tag_209:\n        /* \"#utility.yul\":11212:11213   */\n      0x01\n        /* \"#utility.yul\":11208:11209   */\n      0x02\n        /* \"#utility.yul\":11200:11206   */\n      dup9\n        /* \"#utility.yul\":11196:11210   */\n      mul\n        /* \"#utility.yul\":11192:11214   */\n      add\n        /* \"#utility.yul\":11186:11190   */\n      dup9\n        /* \"#utility.yul\":11179:11215   */\n      sstore\n        /* \"#utility.yul\":10614:11225   */\n      pop\n      pop\n      pop\n        /* \"#utility.yul\":10577:11464   */\n    tag_201:\n      pop\n        /* \"#utility.yul\":10167:11470   */\n      pop\n      pop\n      pop\n        /* \"#utility.yul\":10075:11470   */\n      pop\n      pop\n      jump\t// out\n        /* \"#utility.yul\":11476:11624   */\n    tag_76:\n        /* \"#utility.yul\":11578:11589   */\n      0x00\n        /* \"#utility.yul\":11615:11618   */\n      dup2\n        /* \"#utility.yul\":11600:11618   */\n      swap1\n      pop\n        /* \"#utility.yul\":11476:11624   */\n      swap3\n      swap2\n      pop\n      pop\n      jump\t// out\n        /* \"#utility.yul\":11630:12020   */\n    tag_77:\n        /* \"#utility.yul\":11736:11739   */\n      0x00\n        /* \"#utility.yul\":11764:11803   */\n      tag_213\n        /* \"#utility.yul\":11797:11802   */\n      dup3\n        /* \"#utility.yul\":11764:11803   */\n      tag_53\n      jump\t// in\n    tag_213:\n        /* \"#utility.yul\":11819:11908   */\n      tag_214\n        /* \"#utility.yul\":11901:11907   */\n      dup2\n        /* \"#utility.yul\":11896:11899   */\n      dup6\n        /* \"#utility.yul\":11819:11908   */\n      tag_76\n      jump\t// in\n    tag_214:\n        /* \"#utility.yul\":11812:11908   */\n      swap4\n      pop\n        /* \"#utility.yul\":11917:11982   */\n      tag_215\n        /* \"#utility.yul\":11975:11981   */\n      dup2\n        /* \"#utility.yul\":11970:11973   */\n      dup6\n        /* \"#utility.yul\":11963:11967   */\n      0x20\n        /* \"#utility.yul\":11956:11961   */\n      dup7\n        /* \"#utility.yul\":11952:11968   */\n      add\n        /* \"#utility.yul\":11917:11982   */\n      tag_55\n      jump\t// in\n    tag_215:\n        /* \"#utility.yul\":12007:12013   */\n      dup1\n        /* \"#utility.yul\":12002:12005   */\n      dup5\n        /* \"#utility.yul\":11998:12014   */\n      add\n        /* \"#utility.yul\":11991:12014   */\n      swap2\n      pop\n        /* \"#utility.yul\":11740:12020   */\n      pop\n        /* \"#utility.yul\":11630:12020   */\n      swap3\n      swap2\n      pop\n      pop\n      jump\t// out\n        /* \"#utility.yul\":12026:12301   */\n    tag_27:\n        /* \"#utility.yul\":12158:12161   */\n      0x00\n        /* \"#utility.yul\":12180:12275   */\n      tag_217\n        /* \"#utility.yul\":12271:12274   */\n      dup3\n        /* \"#utility.yul\":12262:12268   */\n      dup5\n        /* \"#utility.yul\":12180:12275   */\n      tag_77\n      jump\t// in\n    tag_217:\n        /* \"#utility.yul\":12173:12275   */\n      swap2\n      pop\n        /* \"#utility.yul\":12292:12295   */\n      dup2\n        /* \"#utility.yul\":12285:12295   */\n      swap1\n      pop\n        /* \"#utility.yul\":12026:12301   */\n      swap3\n      swap2\n      pop\n      pop\n      jump\t// out\n\n    auxdata: 0xa2646970667358221220463e2cea699a9d62cb6268317843c1af7e48abfb1994beb82148e0a87a0c375e64736f6c634300081a0033\n}\n",
				"bytecode": {
					"linkReferences": {},
					"object": "608060405234801561000f575f80fd5b50600160405180606001604052806040518060400160405280600481526020017f66656d69000000000000000000000000000000000000000000000000000000008152508152602001601781526020013373ffffffffffffffffffffffffffffffffffffffff16815250908060018154018082558091505060019003905f5260205f2090600302015f909190919091505f820151815f0190816100b29190610344565b50602082015181600101556040820151816002015f6101000a81548173ffffffffffffffffffffffffffffffffffffffff021916908373ffffffffffffffffffffffffffffffffffffffff1602179055505050610413565b5f81519050919050565b7f4e487b71000000000000000000000000000000000000000000000000000000005f52604160045260245ffd5b7f4e487b71000000000000000000000000000000000000000000000000000000005f52602260045260245ffd5b5f600282049050600182168061018557607f821691505b60208210810361019857610197610141565b5b50919050565b5f819050815f5260205f209050919050565b5f6020601f8301049050919050565b5f82821b905092915050565b5f600883026101fa7fffffffffffffffffffffffffffffffffffffffffffffffffffffffffffffffff826101bf565b61020486836101bf565b95508019841693508086168417925050509392505050565b5f819050919050565b5f819050919050565b5f61024861024361023e8461021c565b610225565b61021c565b9050919050565b5f819050919050565b6102618361022e565b61027561026d8261024f565b8484546101cb565b825550505050565b5f90565b61028961027d565b610294818484610258565b505050565b5b818110156102b7576102ac5f82610281565b60018101905061029a565b5050565b601f8211156102fc576102cd8161019e565b6102d6846101b0565b810160208510156102e5578190505b6102f96102f1856101b0565b830182610299565b50505b505050565b5f82821c905092915050565b5f61031c5f1984600802610301565b1980831691505092915050565b5f610334838361030d565b9150826002028217905092915050565b61034d8261010a565b67ffffffffffffffff81111561036657610365610114565b5b610370825461016e565b61037b8282856102bb565b5f60209050601f8311600181146103ac575f841561039a578287015190505b6103a48582610329565b86555061040b565b601f1984166103ba8661019e565b5f5b828110156103e1578489015182556001820191506020850194506020810190506103bc565b868310156103fe57848901516103fa601f89168261030d565b8355505b6001600288020188555050505b505050505050565b61095d806104205f395ff3fe608060405234801561000f575f80fd5b506004361061003f575f3560e01c80630296926b146100435780633d960ae214610073578063db487f361461008f575b5f80fd5b61005d600480360381019061005891906103fa565b6100c1565b60405161006a9190610459565b60405180910390f35b61008d6004803603810190610088919061049c565b6100ed565b005b6100a960048036038101906100a49190610508565b6101d3565b6040516100b8939291906105d2565b60405180910390f35b5f818051602081018201805184825260208301602085012081835280955050505050505f915090505481565b600160405180606001604052808581526020018481526020013373ffffffffffffffffffffffffffffffffffffffff16815250908060018154018082558091505060019003905f5260205f2090600302015f909190919091505f820151815f0190816101599190610808565b50602082015181600101556040820151816002015f6101000a81548173ffffffffffffffffffffffffffffffffffffffff021916908373ffffffffffffffffffffffffffffffffffffffff1602179055505050805f846040516101bc9190610911565b908152602001604051809103902081905550505050565b600181815481106101e2575f80fd5b905f5260205f2090600302015f91509050805f0180546102019061063b565b80601f016020809104026020016040519081016040528092919081815260200182805461022d9061063b565b80156102785780601f1061024f57610100808354040283529160200191610278565b820191905f5260205f20905b81548152906001019060200180831161025b57829003601f168201915b505050505090806001015490806002015f9054906101000a900473ffffffffffffffffffffffffffffffffffffffff16905083565b5f604051905090565b5f80fd5b5f80fd5b5f80fd5b5f80fd5b5f601f19601f8301169050919050565b7f4e487b71000000000000000000000000000000000000000000000000000000005f52604160045260245ffd5b61030c826102c6565b810181811067ffffffffffffffff8211171561032b5761032a6102d6565b5b80604052505050565b5f61033d6102ad565b90506103498282610303565b919050565b5f67ffffffffffffffff821115610368576103676102d6565b5b610371826102c6565b9050602081019050919050565b828183375f83830152505050565b5f61039e6103998461034e565b610334565b9050828152602081018484840111156103ba576103b96102c2565b5b6103c584828561037e565b509392505050565b5f82601f8301126103e1576103e06102be565b5b81356103f184826020860161038c565b91505092915050565b5f6020828403121561040f5761040e6102b6565b5b5f82013567ffffffffffffffff81111561042c5761042b6102ba565b5b610438848285016103cd565b91505092915050565b5f819050919050565b61045381610441565b82525050565b5f60208201905061046c5f83018461044a565b92915050565b61047b81610441565b8114610485575f80fd5b50565b5f8135905061049681610472565b92915050565b5f805f606084860312156104b3576104b26102b6565b5b5f84013567ffffffffffffffff8111156104d0576104cf6102ba565b5b6104dc868287016103cd565b93505060206104ed86828701610488565b92505060406104fe86828701610488565b9150509250925092565b5f6020828403121561051d5761051c6102b6565b5b5f61052a84828501610488565b91505092915050565b5f81519050919050565b5f82825260208201905092915050565b8281835e5f83830152505050565b5f61056582610533565b61056f818561053d565b935061057f81856020860161054d565b610588816102c6565b840191505092915050565b5f73ffffffffffffffffffffffffffffffffffffffff82169050919050565b5f6105bc82610593565b9050919050565b6105cc816105b2565b82525050565b5f6060820190508181035f8301526105ea818661055b565b90506105f9602083018561044a565b61060660408301846105c3565b949350505050565b7f4e487b71000000000000000000000000000000000000000000000000000000005f52602260045260245ffd5b5f600282049050600182168061065257607f821691505b6020821081036106655761066461060e565b5b50919050565b5f819050815f5260205f209050919050565b5f6020601f8301049050919050565b5f82821b905092915050565b5f600883026106c77fffffffffffffffffffffffffffffffffffffffffffffffffffffffffffffffff8261068c565b6106d1868361068c565b95508019841693508086168417925050509392505050565b5f819050919050565b5f61070c61070761070284610441565b6106e9565b610441565b9050919050565b5f819050919050565b610725836106f2565b61073961073182610713565b848454610698565b825550505050565b5f90565b61074d610741565b61075881848461071c565b505050565b5b8181101561077b576107705f82610745565b60018101905061075e565b5050565b601f8211156107c0576107918161066b565b61079a8461067d565b810160208510156107a9578190505b6107bd6107b58561067d565b83018261075d565b50505b505050565b5f82821c905092915050565b5f6107e05f19846008026107c5565b1980831691505092915050565b5f6107f883836107d1565b9150826002028217905092915050565b61081182610533565b67ffffffffffffffff81111561082a576108296102d6565b5b610834825461063b565b61083f82828561077f565b5f60209050601f831160018114610870575f841561085e578287015190505b61086885826107ed565b8655506108cf565b601f19841661087e8661066b565b5f5b828110156108a557848901518255600182019150602085019450602081019050610880565b868310156108c257848901516108be601f8916826107d1565b8355505b6001600288020188555050505b505050505050565b5f81905092915050565b5f6108eb82610533565b6108f581856108d7565b935061090581856020860161054d565b80840191505092915050565b5f61091c82846108e1565b91508190509291505056fea2646970667358221220463e2cea699a9d62cb6268317843c1af7e48abfb1994beb82148e0a87a0c375e64736f6c634300081a0033",
					"opcodes": "PUSH1 0x80 PUSH1 0x40 MSTORE CALLVALUE DUP1 ISZERO PUSH2 0xF JUMPI PUSH0 DUP1 REVERT JUMPDEST POP PUSH1 0x1 PUSH1 0x40 MLOAD DUP1 PUSH1 0x60 ADD PUSH1 0x40 MSTORE DUP1 PUSH1 0x40 MLOAD DUP1 PUSH1 0x40 ADD PUSH1 0x40 MSTORE DUP1 PUSH1 0x4 DUP2 MSTORE PUSH1 0x20 ADD PUSH32 0x66656D6900000000000000000000000000000000000000000000000000000000 DUP2 MSTORE POP DUP2 MSTORE PUSH1 0x20 ADD PUSH1 0x17 DUP2 MSTORE PUSH1 0x20 ADD CALLER PUSH20 0xFFFFFFFFFFFFFFFFFFFFFFFFFFFFFFFFFFFFFFFF AND DUP2 MSTORE POP SWAP1 DUP1 PUSH1 0x1 DUP2 SLOAD ADD DUP1 DUP3 SSTORE DUP1 SWAP2 POP POP PUSH1 0x1 SWAP1 SUB SWAP1 PUSH0 MSTORE PUSH1 0x20 PUSH0 KECCAK256 SWAP1 PUSH1 0x3 MUL ADD PUSH0 SWAP1 SWAP2 SWAP1 SWAP2 SWAP1 SWAP2 POP PUSH0 DUP3 ADD MLOAD DUP2 PUSH0 ADD SWAP1 DUP2 PUSH2 0xB2 SWAP2 SWAP1 PUSH2 0x344 JUMP JUMPDEST POP PUSH1 0x20 DUP3 ADD MLOAD DUP2 PUSH1 0x1 ADD SSTORE PUSH1 0x40 DUP3 ADD MLOAD DUP2 PUSH1 0x2 ADD PUSH0 PUSH2 0x100 EXP DUP2 SLOAD DUP2 PUSH20 0xFFFFFFFFFFFFFFFFFFFFFFFFFFFFFFFFFFFFFFFF MUL NOT AND SWAP1 DUP4 PUSH20 0xFFFFFFFFFFFFFFFFFFFFFFFFFFFFFFFFFFFFFFFF AND MUL OR SWAP1 SSTORE POP POP POP PUSH2 0x413 JUMP JUMPDEST PUSH0 DUP2 MLOAD SWAP1 POP SWAP2 SWAP1 POP JUMP JUMPDEST PUSH32 0x4E487B7100000000000000000000000000000000000000000000000000000000 PUSH0 MSTORE PUSH1 0x41 PUSH1 0x4 MSTORE PUSH1 0x24 PUSH0 REVERT JUMPDEST PUSH32 0x4E487B7100000000000000000000000000000000000000000000000000000000 PUSH0 MSTORE PUSH1 0x22 PUSH1 0x4 MSTORE PUSH1 0x24 PUSH0 REVERT JUMPDEST PUSH0 PUSH1 0x2 DUP3 DIV SWAP1 POP PUSH1 0x1 DUP3 AND DUP1 PUSH2 0x185 JUMPI PUSH1 0x7F DUP3 AND SWAP2 POP JUMPDEST PUSH1 0x20 DUP3 LT DUP2 SUB PUSH2 0x198 JUMPI PUSH2 0x197 PUSH2 0x141 JUMP JUMPDEST JUMPDEST POP SWAP2 SWAP1 POP JUMP JUMPDEST PUSH0 DUP2 SWAP1 POP DUP2 PUSH0 MSTORE PUSH1 0x20 PUSH0 KECCAK256 SWAP1 POP SWAP2 SWAP1 POP JUMP JUMPDEST PUSH0 PUSH1 0x20 PUSH1 0x1F DUP4 ADD DIV SWAP1 POP SWAP2 SWAP1 POP JUMP JUMPDEST PUSH0 DUP3 DUP3 SHL SWAP1 POP SWAP3 SWAP2 POP POP JUMP JUMPDEST PUSH0 PUSH1 0x8 DUP4 MUL PUSH2 0x1FA PUSH32 0xFFFFFFFFFFFFFFFFFFFFFFFFFFFFFFFFFFFFFFFFFFFFFFFFFFFFFFFFFFFFFFFF DUP3 PUSH2 0x1BF JUMP JUMPDEST PUSH2 0x204 DUP7 DUP4 PUSH2 0x1BF JUMP JUMPDEST SWAP6 POP DUP1 NOT DUP5 AND SWAP4 POP DUP1 DUP7 AND DUP5 OR SWAP3 POP POP POP SWAP4 SWAP3 POP POP POP JUMP JUMPDEST PUSH0 DUP2 SWAP1 POP SWAP2 SWAP1 POP JUMP JUMPDEST PUSH0 DUP2 SWAP1 POP SWAP2 SWAP1 POP JUMP JUMPDEST PUSH0 PUSH2 0x248 PUSH2 0x243 PUSH2 0x23E DUP5 PUSH2 0x21C JUMP JUMPDEST PUSH2 0x225 JUMP JUMPDEST PUSH2 0x21C JUMP JUMPDEST SWAP1 POP SWAP2 SWAP1 POP JUMP JUMPDEST PUSH0 DUP2 SWAP1 POP SWAP2 SWAP1 POP JUMP JUMPDEST PUSH2 0x261 DUP4 PUSH2 0x22E JUMP JUMPDEST PUSH2 0x275 PUSH2 0x26D DUP3 PUSH2 0x24F JUMP JUMPDEST DUP5 DUP5 SLOAD PUSH2 0x1CB JUMP JUMPDEST DUP3 SSTORE POP POP POP POP JUMP JUMPDEST PUSH0 SWAP1 JUMP JUMPDEST PUSH2 0x289 PUSH2 0x27D JUMP JUMPDEST PUSH2 0x294 DUP2 DUP5 DUP5 PUSH2 0x258 JUMP JUMPDEST POP POP POP JUMP JUMPDEST JUMPDEST DUP2 DUP2 LT ISZERO PUSH2 0x2B7 JUMPI PUSH2 0x2AC PUSH0 DUP3 PUSH2 0x281 JUMP JUMPDEST PUSH1 0x1 DUP2 ADD SWAP1 POP PUSH2 0x29A JUMP JUMPDEST POP POP JUMP JUMPDEST PUSH1 0x1F DUP3 GT ISZERO PUSH2 0x2FC JUMPI PUSH2 0x2CD DUP2 PUSH2 0x19E JUMP JUMPDEST PUSH2 0x2D6 DUP5 PUSH2 0x1B0 JUMP JUMPDEST DUP2 ADD PUSH1 0x20 DUP6 LT ISZERO PUSH2 0x2E5 JUMPI DUP2 SWAP1 POP JUMPDEST PUSH2 0x2F9 PUSH2 0x2F1 DUP6 PUSH2 0x1B0 JUMP JUMPDEST DUP4 ADD DUP3 PUSH2 0x299 JUMP JUMPDEST POP POP JUMPDEST POP POP POP JUMP JUMPDEST PUSH0 DUP3 DUP3 SHR SWAP1 POP SWAP3 SWAP2 POP POP JUMP JUMPDEST PUSH0 PUSH2 0x31C PUSH0 NOT DUP5 PUSH1 0x8 MUL PUSH2 0x301 JUMP JUMPDEST NOT DUP1 DUP4 AND SWAP2 POP POP SWAP3 SWAP2 POP POP JUMP JUMPDEST PUSH0 PUSH2 0x334 DUP4 DUP4 PUSH2 0x30D JUMP JUMPDEST SWAP2 POP DUP3 PUSH1 0x2 MUL DUP3 OR SWAP1 POP SWAP3 SWAP2 POP POP JUMP JUMPDEST PUSH2 0x34D DUP3 PUSH2 0x10A JUMP JUMPDEST PUSH8 0xFFFFFFFFFFFFFFFF DUP2 GT ISZERO PUSH2 0x366 JUMPI PUSH2 0x365 PUSH2 0x114 JUMP JUMPDEST JUMPDEST PUSH2 0x370 DUP3 SLOAD PUSH2 0x16E JUMP JUMPDEST PUSH2 0x37B DUP3 DUP3 DUP6 PUSH2 0x2BB JUMP JUMPDEST PUSH0 PUSH1 0x20 SWAP1 POP PUSH1 0x1F DUP4 GT PUSH1 0x1 DUP2 EQ PUSH2 0x3AC JUMPI PUSH0 DUP5 ISZERO PUSH2 0x39A JUMPI DUP3 DUP8 ADD MLOAD SWAP1 POP JUMPDEST PUSH2 0x3A4 DUP6 DUP3 PUSH2 0x329 JUMP JUMPDEST DUP7 SSTORE POP PUSH2 0x40B JUMP JUMPDEST PUSH1 0x1F NOT DUP5 AND PUSH2 0x3BA DUP7 PUSH2 0x19E JUMP JUMPDEST PUSH0 JUMPDEST DUP3 DUP2 LT ISZERO PUSH2 0x3E1 JUMPI DUP5 DUP10 ADD MLOAD DUP3 SSTORE PUSH1 0x1 DUP3 ADD SWAP2 POP PUSH1 0x20 DUP6 ADD SWAP5 POP PUSH1 0x20 DUP2 ADD SWAP1 POP PUSH2 0x3BC JUMP JUMPDEST DUP7 DUP4 LT ISZERO PUSH2 0x3FE JUMPI DUP5 DUP10 ADD MLOAD PUSH2 0x3FA PUSH1 0x1F DUP10 AND DUP3 PUSH2 0x30D JUMP JUMPDEST DUP4 SSTORE POP JUMPDEST PUSH1 0x1 PUSH1 0x2 DUP9 MUL ADD DUP9 SSTORE POP POP POP JUMPDEST POP POP POP POP POP POP JUMP JUMPDEST PUSH2 0x95D DUP1 PUSH2 0x420 PUSH0 CODECOPY PUSH0 RETURN INVALID PUSH1 0x80 PUSH1 0x40 MSTORE CALLVALUE DUP1 ISZERO PUSH2 0xF JUMPI PUSH0 DUP1 REVERT JUMPDEST POP PUSH1 0x4 CALLDATASIZE LT PUSH2 0x3F JUMPI PUSH0 CALLDATALOAD PUSH1 0xE0 SHR DUP1 PUSH4 0x296926B EQ PUSH2 0x43 JUMPI DUP1 PUSH4 0x3D960AE2 EQ PUSH2 0x73 JUMPI DUP1 PUSH4 0xDB487F36 EQ PUSH2 0x8F JUMPI JUMPDEST PUSH0 DUP1 REVERT JUMPDEST PUSH2 0x5D PUSH1 0x4 DUP1 CALLDATASIZE SUB DUP2 ADD SWAP1 PUSH2 0x58 SWAP2 SWAP1 PUSH2 0x3FA JUMP JUMPDEST PUSH2 0xC1 JUMP JUMPDEST PUSH1 0x40 MLOAD PUSH2 0x6A SWAP2 SWAP1 PUSH2 0x459 JUMP JUMPDEST PUSH1 0x40 MLOAD DUP1 SWAP2 SUB SWAP1 RETURN JUMPDEST PUSH2 0x8D PUSH1 0x4 DUP1 CALLDATASIZE SUB DUP2 ADD SWAP1 PUSH2 0x88 SWAP2 SWAP1 PUSH2 0x49C JUMP JUMPDEST PUSH2 0xED JUMP JUMPDEST STOP JUMPDEST PUSH2 0xA9 PUSH1 0x4 DUP1 CALLDATASIZE SUB DUP2 ADD SWAP1 PUSH2 0xA4 SWAP2 SWAP1 PUSH2 0x508 JUMP JUMPDEST PUSH2 0x1D3 JUMP JUMPDEST PUSH1 0x40 MLOAD PUSH2 0xB8 SWAP4 SWAP3 SWAP2 SWAP1 PUSH2 0x5D2 JUMP JUMPDEST PUSH1 0x40 MLOAD DUP1 SWAP2 SUB SWAP1 RETURN JUMPDEST PUSH0 DUP2 DUP1 MLOAD PUSH1 0x20 DUP2 ADD DUP3 ADD DUP1 MLOAD DUP5 DUP3 MSTORE PUSH1 0x20 DUP4 ADD PUSH1 0x20 DUP6 ADD KECCAK256 DUP2 DUP4 MSTORE DUP1 SWAP6 POP POP POP POP POP POP PUSH0 SWAP2 POP SWAP1 POP SLOAD DUP2 JUMP JUMPDEST PUSH1 0x1 PUSH1 0x40 MLOAD DUP1 PUSH1 0x60 ADD PUSH1 0x40 MSTORE DUP1 DUP6 DUP2 MSTORE PUSH1 0x20 ADD DUP5 DUP2 MSTORE PUSH1 0x20 ADD CALLER PUSH20 0xFFFFFFFFFFFFFFFFFFFFFFFFFFFFFFFFFFFFFFFF AND DUP2 MSTORE POP SWAP1 DUP1 PUSH1 0x1 DUP2 SLOAD ADD DUP1 DUP3 SSTORE DUP1 SWAP2 POP POP PUSH1 0x1 SWAP1 SUB SWAP1 PUSH0 MSTORE PUSH1 0x20 PUSH0 KECCAK256 SWAP1 PUSH1 0x3 MUL ADD PUSH0 SWAP1 SWAP2 SWAP1 SWAP2 SWAP1 SWAP2 POP PUSH0 DUP3 ADD MLOAD DUP2 PUSH0 ADD SWAP1 DUP2 PUSH2 0x159 SWAP2 SWAP1 PUSH2 0x808 JUMP JUMPDEST POP PUSH1 0x20 DUP3 ADD MLOAD DUP2 PUSH1 0x1 ADD SSTORE PUSH1 0x40 DUP3 ADD MLOAD DUP2 PUSH1 0x2 ADD PUSH0 PUSH2 0x100 EXP DUP2 SLOAD DUP2 PUSH20 0xFFFFFFFFFFFFFFFFFFFFFFFFFFFFFFFFFFFFFFFF MUL NOT AND SWAP1 DUP4 PUSH20 0xFFFFFFFFFFFFFFFFFFFFFFFFFFFFFFFFFFFFFFFF AND MUL OR SWAP1 SSTORE POP POP POP DUP1 PUSH0 DUP5 PUSH1 0x40 MLOAD PUSH2 0x1BC SWAP2 SWAP1 PUSH2 0x911 JUMP JUMPDEST SWAP1 DUP2 MSTORE PUSH1 0x20 ADD PUSH1 0x40 MLOAD DUP1 SWAP2 SUB SWAP1 KECCAK256 DUP2 SWAP1 SSTORE POP POP POP POP JUMP JUMPDEST PUSH1 0x1 DUP2 DUP2 SLOAD DUP2 LT PUSH2 0x1E2 JUMPI PUSH0 DUP1 REVERT JUMPDEST SWAP1 PUSH0 MSTORE PUSH1 0x20 PUSH0 KECCAK256 SWAP1 PUSH1 0x3 MUL ADD PUSH0 SWAP2 POP SWAP1 POP DUP1 PUSH0 ADD DUP1 SLOAD PUSH2 0x201 SWAP1 PUSH2 0x63B JUMP JUMPDEST DUP1 PUSH1 0x1F ADD PUSH1 0x20 DUP1 SWAP2 DIV MUL PUSH1 0x20 ADD PUSH1 0x40 MLOAD SWAP1 DUP2 ADD PUSH1 0x40 MSTORE DUP1 SWAP3 SWAP2 SWAP1 DUP2 DUP2 MSTORE PUSH1 0x20 ADD DUP3 DUP1 SLOAD PUSH2 0x22D SWAP1 PUSH2 0x63B JUMP JUMPDEST DUP1 ISZERO PUSH2 0x278 JUMPI DUP1 PUSH1 0x1F LT PUSH2 0x24F JUMPI PUSH2 0x100 DUP1 DUP4 SLOAD DIV MUL DUP4 MSTORE SWAP2 PUSH1 0x20 ADD SWAP2 PUSH2 0x278 JUMP JUMPDEST DUP3 ADD SWAP2 SWAP1 PUSH0 MSTORE PUSH1 0x20 PUSH0 KECCAK256 SWAP1 JUMPDEST DUP2 SLOAD DUP2 MSTORE SWAP1 PUSH1 0x1 ADD SWAP1 PUSH1 0x20 ADD DUP1 DUP4 GT PUSH2 0x25B JUMPI DUP3 SWAP1 SUB PUSH1 0x1F AND DUP3 ADD SWAP2 JUMPDEST POP POP POP POP POP SWAP1 DUP1 PUSH1 0x1 ADD SLOAD SWAP1 DUP1 PUSH1 0x2 ADD PUSH0 SWAP1 SLOAD SWAP1 PUSH2 0x100 EXP SWAP1 DIV PUSH20 0xFFFFFFFFFFFFFFFFFFFFFFFFFFFFFFFFFFFFFFFF AND SWAP1 POP DUP4 JUMP JUMPDEST PUSH0 PUSH1 0x40 MLOAD SWAP1 POP SWAP1 JUMP JUMPDEST PUSH0 DUP1 REVERT JUMPDEST PUSH0 DUP1 REVERT JUMPDEST PUSH0 DUP1 REVERT JUMPDEST PUSH0 DUP1 REVERT JUMPDEST PUSH0 PUSH1 0x1F NOT PUSH1 0x1F DUP4 ADD AND SWAP1 POP SWAP2 SWAP1 POP JUMP JUMPDEST PUSH32 0x4E487B7100000000000000000000000000000000000000000000000000000000 PUSH0 MSTORE PUSH1 0x41 PUSH1 0x4 MSTORE PUSH1 0x24 PUSH0 REVERT JUMPDEST PUSH2 0x30C DUP3 PUSH2 0x2C6 JUMP JUMPDEST DUP2 ADD DUP2 DUP2 LT PUSH8 0xFFFFFFFFFFFFFFFF DUP3 GT OR ISZERO PUSH2 0x32B JUMPI PUSH2 0x32A PUSH2 0x2D6 JUMP JUMPDEST JUMPDEST DUP1 PUSH1 0x40 MSTORE POP POP POP JUMP JUMPDEST PUSH0 PUSH2 0x33D PUSH2 0x2AD JUMP JUMPDEST SWAP1 POP PUSH2 0x349 DUP3 DUP3 PUSH2 0x303 JUMP JUMPDEST SWAP2 SWAP1 POP JUMP JUMPDEST PUSH0 PUSH8 0xFFFFFFFFFFFFFFFF DUP3 GT ISZERO PUSH2 0x368 JUMPI PUSH2 0x367 PUSH2 0x2D6 JUMP JUMPDEST JUMPDEST PUSH2 0x371 DUP3 PUSH2 0x2C6 JUMP JUMPDEST SWAP1 POP PUSH1 0x20 DUP2 ADD SWAP1 POP SWAP2 SWAP1 POP JUMP JUMPDEST DUP3 DUP2 DUP4 CALLDATACOPY PUSH0 DUP4 DUP4 ADD MSTORE POP POP POP JUMP JUMPDEST PUSH0 PUSH2 0x39E PUSH2 0x399 DUP5 PUSH2 0x34E JUMP JUMPDEST PUSH2 0x334 JUMP JUMPDEST SWAP1 POP DUP3 DUP2 MSTORE PUSH1 0x20 DUP2 ADD DUP5 DUP5 DUP5 ADD GT ISZERO PUSH2 0x3BA JUMPI PUSH2 0x3B9 PUSH2 0x2C2 JUMP JUMPDEST JUMPDEST PUSH2 0x3C5 DUP5 DUP3 DUP6 PUSH2 0x37E JUMP JUMPDEST POP SWAP4 SWAP3 POP POP POP JUMP JUMPDEST PUSH0 DUP3 PUSH1 0x1F DUP4 ADD SLT PUSH2 0x3E1 JUMPI PUSH2 0x3E0 PUSH2 0x2BE JUMP JUMPDEST JUMPDEST DUP2 CALLDATALOAD PUSH2 0x3F1 DUP5 DUP3 PUSH1 0x20 DUP7 ADD PUSH2 0x38C JUMP JUMPDEST SWAP2 POP POP SWAP3 SWAP2 POP POP JUMP JUMPDEST PUSH0 PUSH1 0x20 DUP3 DUP5 SUB SLT ISZERO PUSH2 0x40F JUMPI PUSH2 0x40E PUSH2 0x2B6 JUMP JUMPDEST JUMPDEST PUSH0 DUP3 ADD CALLDATALOAD PUSH8 0xFFFFFFFFFFFFFFFF DUP2 GT ISZERO PUSH2 0x42C JUMPI PUSH2 0x42B PUSH2 0x2BA JUMP JUMPDEST JUMPDEST PUSH2 0x438 DUP5 DUP3 DUP6 ADD PUSH2 0x3CD JUMP JUMPDEST SWAP2 POP POP SWAP3 SWAP2 POP POP JUMP JUMPDEST PUSH0 DUP2 SWAP1 POP SWAP2 SWAP1 POP JUMP JUMPDEST PUSH2 0x453 DUP2 PUSH2 0x441 JUMP JUMPDEST DUP3 MSTORE POP POP JUMP JUMPDEST PUSH0 PUSH1 0x20 DUP3 ADD SWAP1 POP PUSH2 0x46C PUSH0 DUP4 ADD DUP5 PUSH2 0x44A JUMP JUMPDEST SWAP3 SWAP2 POP POP JUMP JUMPDEST PUSH2 0x47B DUP2 PUSH2 0x441 JUMP JUMPDEST DUP2 EQ PUSH2 0x485 JUMPI PUSH0 DUP1 REVERT JUMPDEST POP JUMP JUMPDEST PUSH0 DUP2 CALLDATALOAD SWAP1 POP PUSH2 0x496 DUP2 PUSH2 0x472 JUMP JUMPDEST SWAP3 SWAP2 POP POP JUMP JUMPDEST PUSH0 DUP1 PUSH0 PUSH1 0x60 DUP5 DUP7 SUB SLT ISZERO PUSH2 0x4B3 JUMPI PUSH2 0x4B2 PUSH2 0x2B6 JUMP JUMPDEST JUMPDEST PUSH0 DUP5 ADD CALLDATALOAD PUSH8 0xFFFFFFFFFFFFFFFF DUP2 GT ISZERO PUSH2 0x4D0 JUMPI PUSH2 0x4CF PUSH2 0x2BA JUMP JUMPDEST JUMPDEST PUSH2 0x4DC DUP7 DUP3 DUP8 ADD PUSH2 0x3CD JUMP JUMPDEST SWAP4 POP POP PUSH1 0x20 PUSH2 0x4ED DUP7 DUP3 DUP8 ADD PUSH2 0x488 JUMP JUMPDEST SWAP3 POP POP PUSH1 0x40 PUSH2 0x4FE DUP7 DUP3 DUP8 ADD PUSH2 0x488 JUMP JUMPDEST SWAP2 POP POP SWAP3 POP SWAP3 POP SWAP3 JUMP JUMPDEST PUSH0 PUSH1 0x20 DUP3 DUP5 SUB SLT ISZERO PUSH2 0x51D JUMPI PUSH2 0x51C PUSH2 0x2B6 JUMP JUMPDEST JUMPDEST PUSH0 PUSH2 0x52A DUP5 DUP3 DUP6 ADD PUSH2 0x488 JUMP JUMPDEST SWAP2 POP POP SWAP3 SWAP2 POP POP JUMP JUMPDEST PUSH0 DUP2 MLOAD SWAP1 POP SWAP2 SWAP1 POP JUMP JUMPDEST PUSH0 DUP3 DUP3 MSTORE PUSH1 0x20 DUP3 ADD SWAP1 POP SWAP3 SWAP2 POP POP JUMP JUMPDEST DUP3 DUP2 DUP4 MCOPY PUSH0 DUP4 DUP4 ADD MSTORE POP POP POP JUMP JUMPDEST PUSH0 PUSH2 0x565 DUP3 PUSH2 0x533 JUMP JUMPDEST PUSH2 0x56F DUP2 DUP6 PUSH2 0x53D JUMP JUMPDEST SWAP4 POP PUSH2 0x57F DUP2 DUP6 PUSH1 0x20 DUP7 ADD PUSH2 0x54D JUMP JUMPDEST PUSH2 0x588 DUP2 PUSH2 0x2C6 JUMP JUMPDEST DUP5 ADD SWAP2 POP POP SWAP3 SWAP2 POP POP JUMP JUMPDEST PUSH0 PUSH20 0xFFFFFFFFFFFFFFFFFFFFFFFFFFFFFFFFFFFFFFFF DUP3 AND SWAP1 POP SWAP2 SWAP1 POP JUMP JUMPDEST PUSH0 PUSH2 0x5BC DUP3 PUSH2 0x593 JUMP JUMPDEST SWAP1 POP SWAP2 SWAP1 POP JUMP JUMPDEST PUSH2 0x5CC DUP2 PUSH2 0x5B2 JUMP JUMPDEST DUP3 MSTORE POP POP JUMP JUMPDEST PUSH0 PUSH1 0x60 DUP3 ADD SWAP1 POP DUP2 DUP2 SUB PUSH0 DUP4 ADD MSTORE PUSH2 0x5EA DUP2 DUP7 PUSH2 0x55B JUMP JUMPDEST SWAP1 POP PUSH2 0x5F9 PUSH1 0x20 DUP4 ADD DUP6 PUSH2 0x44A JUMP JUMPDEST PUSH2 0x606 PUSH1 0x40 DUP4 ADD DUP5 PUSH2 0x5C3 JUMP JUMPDEST SWAP5 SWAP4 POP POP POP POP JUMP JUMPDEST PUSH32 0x4E487B7100000000000000000000000000000000000000000000000000000000 PUSH0 MSTORE PUSH1 0x22 PUSH1 0x4 MSTORE PUSH1 0x24 PUSH0 REVERT JUMPDEST PUSH0 PUSH1 0x2 DUP3 DIV SWAP1 POP PUSH1 0x1 DUP3 AND DUP1 PUSH2 0x652 JUMPI PUSH1 0x7F DUP3 AND SWAP2 POP JUMPDEST PUSH1 0x20 DUP3 LT DUP2 SUB PUSH2 0x665 JUMPI PUSH2 0x664 PUSH2 0x60E JUMP JUMPDEST JUMPDEST POP SWAP2 SWAP1 POP JUMP JUMPDEST PUSH0 DUP2 SWAP1 POP DUP2 PUSH0 MSTORE PUSH1 0x20 PUSH0 KECCAK256 SWAP1 POP SWAP2 SWAP1 POP JUMP JUMPDEST PUSH0 PUSH1 0x20 PUSH1 0x1F DUP4 ADD DIV SWAP1 POP SWAP2 SWAP1 POP JUMP JUMPDEST PUSH0 DUP3 DUP3 SHL SWAP1 POP SWAP3 SWAP2 POP POP JUMP JUMPDEST PUSH0 PUSH1 0x8 DUP4 MUL PUSH2 0x6C7 PUSH32 0xFFFFFFFFFFFFFFFFFFFFFFFFFFFFFFFFFFFFFFFFFFFFFFFFFFFFFFFFFFFFFFFF DUP3 PUSH2 0x68C JUMP JUMPDEST PUSH2 0x6D1 DUP7 DUP4 PUSH2 0x68C JUMP JUMPDEST SWAP6 POP DUP1 NOT DUP5 AND SWAP4 POP DUP1 DUP7 AND DUP5 OR SWAP3 POP POP POP SWAP4 SWAP3 POP POP POP JUMP JUMPDEST PUSH0 DUP2 SWAP1 POP SWAP2 SWAP1 POP JUMP JUMPDEST PUSH0 PUSH2 0x70C PUSH2 0x707 PUSH2 0x702 DUP5 PUSH2 0x441 JUMP JUMPDEST PUSH2 0x6E9 JUMP JUMPDEST PUSH2 0x441 JUMP JUMPDEST SWAP1 POP SWAP2 SWAP1 POP JUMP JUMPDEST PUSH0 DUP2 SWAP1 POP SWAP2 SWAP1 POP JUMP JUMPDEST PUSH2 0x725 DUP4 PUSH2 0x6F2 JUMP JUMPDEST PUSH2 0x739 PUSH2 0x731 DUP3 PUSH2 0x713 JUMP JUMPDEST DUP5 DUP5 SLOAD PUSH2 0x698 JUMP JUMPDEST DUP3 SSTORE POP POP POP POP JUMP JUMPDEST PUSH0 SWAP1 JUMP JUMPDEST PUSH2 0x74D PUSH2 0x741 JUMP JUMPDEST PUSH2 0x758 DUP2 DUP5 DUP5 PUSH2 0x71C JUMP JUMPDEST POP POP POP JUMP JUMPDEST JUMPDEST DUP2 DUP2 LT ISZERO PUSH2 0x77B JUMPI PUSH2 0x770 PUSH0 DUP3 PUSH2 0x745 JUMP JUMPDEST PUSH1 0x1 DUP2 ADD SWAP1 POP PUSH2 0x75E JUMP JUMPDEST POP POP JUMP JUMPDEST PUSH1 0x1F DUP3 GT ISZERO PUSH2 0x7C0 JUMPI PUSH2 0x791 DUP2 PUSH2 0x66B JUMP JUMPDEST PUSH2 0x79A DUP5 PUSH2 0x67D JUMP JUMPDEST DUP2 ADD PUSH1 0x20 DUP6 LT ISZERO PUSH2 0x7A9 JUMPI DUP2 SWAP1 POP JUMPDEST PUSH2 0x7BD PUSH2 0x7B5 DUP6 PUSH2 0x67D JUMP JUMPDEST DUP4 ADD DUP3 PUSH2 0x75D JUMP JUMPDEST POP POP JUMPDEST POP POP POP JUMP JUMPDEST PUSH0 DUP3 DUP3 SHR SWAP1 POP SWAP3 SWAP2 POP POP JUMP JUMPDEST PUSH0 PUSH2 0x7E0 PUSH0 NOT DUP5 PUSH1 0x8 MUL PUSH2 0x7C5 JUMP JUMPDEST NOT DUP1 DUP4 AND SWAP2 POP POP SWAP3 SWAP2 POP POP JUMP JUMPDEST PUSH0 PUSH2 0x7F8 DUP4 DUP4 PUSH2 0x7D1 JUMP JUMPDEST SWAP2 POP DUP3 PUSH1 0x2 MUL DUP3 OR SWAP1 POP SWAP3 SWAP2 POP POP JUMP JUMPDEST PUSH2 0x811 DUP3 PUSH2 0x533 JUMP JUMPDEST PUSH8 0xFFFFFFFFFFFFFFFF DUP2 GT ISZERO PUSH2 0x82A JUMPI PUSH2 0x829 PUSH2 0x2D6 JUMP JUMPDEST JUMPDEST PUSH2 0x834 DUP3 SLOAD PUSH2 0x63B JUMP JUMPDEST PUSH2 0x83F DUP3 DUP3 DUP6 PUSH2 0x77F JUMP JUMPDEST PUSH0 PUSH1 0x20 SWAP1 POP PUSH1 0x1F DUP4 GT PUSH1 0x1 DUP2 EQ PUSH2 0x870 JUMPI PUSH0 DUP5 ISZERO PUSH2 0x85E JUMPI DUP3 DUP8 ADD MLOAD SWAP1 POP JUMPDEST PUSH2 0x868 DUP6 DUP3 PUSH2 0x7ED JUMP JUMPDEST DUP7 SSTORE POP PUSH2 0x8CF JUMP JUMPDEST PUSH1 0x1F NOT DUP5 AND PUSH2 0x87E DUP7 PUSH2 0x66B JUMP JUMPDEST PUSH0 JUMPDEST DUP3 DUP2 LT ISZERO PUSH2 0x8A5 JUMPI DUP5 DUP10 ADD MLOAD DUP3 SSTORE PUSH1 0x1 DUP3 ADD SWAP2 POP PUSH1 0x20 DUP6 ADD SWAP5 POP PUSH1 0x20 DUP2 ADD SWAP1 POP PUSH2 0x880 JUMP JUMPDEST DUP7 DUP4 LT ISZERO PUSH2 0x8C2 JUMPI DUP5 DUP10 ADD MLOAD PUSH2 0x8BE PUSH1 0x1F DUP10 AND DUP3 PUSH2 0x7D1 JUMP JUMPDEST DUP4 SSTORE POP JUMPDEST PUSH1 0x1 PUSH1 0x2 DUP9 MUL ADD DUP9 SSTORE POP POP POP JUMPDEST POP POP POP POP POP POP JUMP JUMPDEST PUSH0 DUP2 SWAP1 POP SWAP3 SWAP2 POP POP JUMP JUMPDEST PUSH0 PUSH2 0x8EB DUP3 PUSH2 0x533 JUMP JUMPDEST PUSH2 0x8F5 DUP2 DUP6 PUSH2 0x8D7 JUMP JUMPDEST SWAP4 POP PUSH2 0x905 DUP2 DUP6 PUSH1 0x20 DUP7 ADD PUSH2 0x54D JUMP JUMPDEST DUP1 DUP5 ADD SWAP2 POP POP SWAP3 SWAP2 POP POP JUMP JUMPDEST PUSH0 PUSH2 0x91C DUP3 DUP5 PUSH2 0x8E1 JUMP JUMPDEST SWAP2 POP DUP2 SWAP1 POP SWAP3 SWAP2 POP POP JUMP INVALID LOG2 PUSH5 0x6970667358 0x22 SLT KECCAK256 CHAINID RETURNDATACOPY 0x2C 0xEA PUSH10 0x9A9D62CB6268317843C1 0xAF PUSH31 0x48ABFB1994BEB82148E0A87A0C375E64736F6C634300081A00330000000000 "
				},
				"gasEstimates": {
					"creation": {
						"codeDepositCost": "479400",
						"executionCost": "infinite",
						"totalCost": "infinite"
					},
					"external": {
						"detail(uint256)": "infinite",
						"nameToScore(string)": "infinite",
						"setTestScores(string,uint256,uint256)": "infinite"
					}
				},
				"methodIdentifiers": {
					"detail(uint256)": "db487f36",
					"nameToScore(string)": "0296926b",
					"setTestScores(string,uint256,uint256)": "3d960ae2"
				}
			},
			"storageLayout": {
				"storage": [
					{
						"astId": 27,
						"contract": "contracts/MySecondWork.sol:MySecondWork",
						"label": "nameToScore",
						"offset": 0,
						"slot": "0",
						"type": "t_mapping(t_string_memory_ptr,t_uint256)"
					},
					{
						"astId": 31,
						"contract": "contracts/MySecondWork.sol:MySecondWork",
						"label": "detail",
						"offset": 0,
						"slot": "1",
						"type": "t_array(t_struct(Details)8_storage)dyn_storage"
					}
				],
				"types": {
					"t_address": {
						"encoding": "inplace",
						"label": "address",
						"numberOfBytes": "20"
					},
					"t_array(t_struct(Details)8_storage)dyn_storage": {
						"base": "t_struct(Details)8_storage",
						"encoding": "dynamic_array",
						"label": "struct MySecondWork.Details[]",
						"numberOfBytes": "32"
					},
					"t_mapping(t_string_memory_ptr,t_uint256)": {
						"encoding": "mapping",
						"key": "t_string_memory_ptr",
						"label": "mapping(string => uint256)",
						"numberOfBytes": "32",
						"value": "t_uint256"
					},
					"t_string_memory_ptr": {
						"encoding": "bytes",
						"label": "string",
						"numberOfBytes": "32"
					},
					"t_string_storage": {
						"encoding": "bytes",
						"label": "string",
						"numberOfBytes": "32"
					},
					"t_struct(Details)8_storage": {
						"encoding": "inplace",
						"label": "struct MySecondWork.Details",
						"members": [
							{
								"astId": 3,
								"contract": "contracts/MySecondWork.sol:MySecondWork",
								"label": "name",
								"offset": 0,
								"slot": "0",
								"type": "t_string_storage"
							},
							{
								"astId": 5,
								"contract": "contracts/MySecondWork.sol:MySecondWork",
								"label": "age",
								"offset": 0,
								"slot": "1",
								"type": "t_uint256"
							},
							{
								"astId": 7,
								"contract": "contracts/MySecondWork.sol:MySecondWork",
								"label": "addy",
								"offset": 0,
								"slot": "2",
								"type": "t_address"
							}
						],
						"numberOfBytes": "96"
					},
					"t_uint256": {
						"encoding": "inplace",
						"label": "uint256",
						"numberOfBytes": "32"
					}
				}
			},
			"userdoc": {
				"kind": "user",
				"methods": {},
				"version": 1
			}
		}
	}
}