{
	"contracts/MySecondWork.sol": {
		"MySecondWork": {
			"abi": [
				{
					"inputs": [],
					"stateMutability": "nonpayable",
					"type": "constructor"
				},
				{
					"inputs": [
						{
							"internalType": "uint256",
							"name": "",
							"type": "uint256"
						}
					],
					"name": "detail",
					"outputs": [
						{
							"internalType": "string",
							"name": "name",
							"type": "string"
						},
						{
							"internalType": "uint256",
							"name": "age",
							"type": "uint256"
						},
						{
							"internalType": "address",
							"name": "addy",
							"type": "address"
						}
					],
					"stateMutability": "view",
					"type": "function"
				},
				{
					"inputs": [
						{
							"internalType": "string",
							"name": "_name",
							"type": "string"
						},
						{
							"internalType": "uint256",
							"name": "_age",
							"type": "uint256"
						},
						{
							"internalType": "address",
							"name": "_addy",
							"type": "address"
						}
					],
					"name": "setTestScores",
					"outputs": [],
					"stateMutability": "nonpayable",
					"type": "function"
				}
			],
			"devdoc": {
				"kind": "dev",
				"methods": {},
				"version": 1
			},
			"evm": {
				"assembly": "    /* \"contracts/MySecondWork.sol\":62:447  contract MySecondWork {... */\n  mstore(0x40, 0x80)\n    /* \"contracts/MySecondWork.sol\":189:266  constructor() {... */\n  callvalue\n  dup1\n  iszero\n  tag_1\n  jumpi\n  0x00\n  dup1\n  revert\ntag_1:\n  pop\n    /* \"contracts/MySecondWork.sol\":214:220  detail */\n  0x00\n    /* \"contracts/MySecondWork.sol\":226:257  Details(\"femi\", 23, msg.sender) */\n  mload(0x40)\n  dup1\n  0x60\n  add\n  0x40\n  mstore\n  dup1\n  mload(0x40)\n  dup1\n  0x40\n  add\n  0x40\n  mstore\n  dup1\n  0x04\n  dup2\n  mstore\n  0x20\n  add\n  0x66656d6900000000000000000000000000000000000000000000000000000000\n  dup2\n  mstore\n  pop\n  dup2\n  mstore\n  0x20\n  add\n    /* \"contracts/MySecondWork.sol\":242:244  23 */\n  0x17\n    /* \"contracts/MySecondWork.sol\":226:257  Details(\"femi\", 23, msg.sender) */\n  dup2\n  mstore\n  0x20\n  add\n    /* \"contracts/MySecondWork.sol\":246:256  msg.sender */\n  caller\n    /* \"contracts/MySecondWork.sol\":226:257  Details(\"femi\", 23, msg.sender) */\n  0xffffffffffffffffffffffffffffffffffffffff\n  and\n  dup2\n  mstore\n  pop\n    /* \"contracts/MySecondWork.sol\":214:258  detail.push(Details(\"femi\", 23, msg.sender)) */\n  swap1\n  dup1\n  0x01\n  dup2\n  sload\n  add\n  dup1\n  dup3\n  sstore\n  dup1\n  swap2\n  pop\n  pop\n  0x01\n  swap1\n  sub\n  swap1\n  0x00\n  mstore\n  keccak256(0x00, 0x20)\n  swap1\n  0x03\n  mul\n  add\n  0x00\n  swap1\n  swap2\n  swap1\n  swap2\n  swap1\n  swap2\n  pop\n  0x00\n  dup3\n  add\n  mload\n  dup2\n  0x00\n  add\n  swap1\n  dup2\n  tag_5\n  swap2\n  swap1\n  tag_6\n  jump\t// in\ntag_5:\n  pop\n  0x20\n  dup3\n  add\n  mload\n  dup2\n  0x01\n  add\n  sstore\n  0x40\n  dup3\n  add\n  mload\n  dup2\n  0x02\n  add\n  exp(0x0100, 0x00)\n  dup2\n  sload\n  dup2\n  0xffffffffffffffffffffffffffffffffffffffff\n  mul\n  not\n  and\n  swap1\n  dup4\n  0xffffffffffffffffffffffffffffffffffffffff\n  and\n  mul\n  or\n  swap1\n  sstore\n  pop\n  pop\n  pop\n    /* \"contracts/MySecondWork.sol\":62:447  contract MySecondWork {... */\n  jump(tag_7)\n    /* \"#utility.yul\":7:106   */\ntag_8:\n    /* \"#utility.yul\":59:65   */\n  0x00\n    /* \"#utility.yul\":93:98   */\n  dup2\n    /* \"#utility.yul\":87:99   */\n  mload\n    /* \"#utility.yul\":77:99   */\n  swap1\n  pop\n    /* \"#utility.yul\":7:106   */\n  swap2\n  swap1\n  pop\n  jump\t// out\n    /* \"#utility.yul\":112:292   */\ntag_9:\n    /* \"#utility.yul\":160:237   */\n  0x4e487b7100000000000000000000000000000000000000000000000000000000\n    /* \"#utility.yul\":157:158   */\n  0x00\n    /* \"#utility.yul\":150:238   */\n  mstore\n    /* \"#utility.yul\":257:261   */\n  0x41\n    /* \"#utility.yul\":254:255   */\n  0x04\n    /* \"#utility.yul\":247:262   */\n  mstore\n    /* \"#utility.yul\":281:285   */\n  0x24\n    /* \"#utility.yul\":278:279   */\n  0x00\n    /* \"#utility.yul\":271:286   */\n  revert\n    /* \"#utility.yul\":298:478   */\ntag_10:\n    /* \"#utility.yul\":346:423   */\n  0x4e487b7100000000000000000000000000000000000000000000000000000000\n    /* \"#utility.yul\":343:344   */\n  0x00\n    /* \"#utility.yul\":336:424   */\n  mstore\n    /* \"#utility.yul\":443:447   */\n  0x22\n    /* \"#utility.yul\":440:441   */\n  0x04\n    /* \"#utility.yul\":433:448   */\n  mstore\n    /* \"#utility.yul\":467:471   */\n  0x24\n    /* \"#utility.yul\":464:465   */\n  0x00\n    /* \"#utility.yul\":457:472   */\n  revert\n    /* \"#utility.yul\":484:804   */\ntag_11:\n    /* \"#utility.yul\":528:534   */\n  0x00\n    /* \"#utility.yul\":565:566   */\n  0x02\n    /* \"#utility.yul\":559:563   */\n  dup3\n    /* \"#utility.yul\":555:567   */\n  div\n    /* \"#utility.yul\":545:567   */\n  swap1\n  pop\n    /* \"#utility.yul\":612:613   */\n  0x01\n    /* \"#utility.yul\":606:610   */\n  dup3\n    /* \"#utility.yul\":602:614   */\n  and\n    /* \"#utility.yul\":633:651   */\n  dup1\n    /* \"#utility.yul\":623:704   */\n  tag_33\n  jumpi\n    /* \"#utility.yul\":689:693   */\n  0x7f\n    /* \"#utility.yul\":681:687   */\n  dup3\n    /* \"#utility.yul\":677:694   */\n  and\n    /* \"#utility.yul\":667:694   */\n  swap2\n  pop\n    /* \"#utility.yul\":623:704   */\ntag_33:\n    /* \"#utility.yul\":751:753   */\n  0x20\n    /* \"#utility.yul\":743:749   */\n  dup3\n    /* \"#utility.yul\":740:754   */\n  lt\n    /* \"#utility.yul\":720:738   */\n  dup2\n    /* \"#utility.yul\":717:755   */\n  sub\n    /* \"#utility.yul\":714:798   */\n  tag_34\n  jumpi\n    /* \"#utility.yul\":770:788   */\n  tag_35\n  tag_10\n  jump\t// in\ntag_35:\n    /* \"#utility.yul\":714:798   */\ntag_34:\n    /* \"#utility.yul\":535:804   */\n  pop\n    /* \"#utility.yul\":484:804   */\n  swap2\n  swap1\n  pop\n  jump\t// out\n    /* \"#utility.yul\":810:951   */\ntag_12:\n    /* \"#utility.yul\":859:863   */\n  0x00\n    /* \"#utility.yul\":882:885   */\n  dup2\n    /* \"#utility.yul\":874:885   */\n  swap1\n  pop\n    /* \"#utility.yul\":905:908   */\n  dup2\n    /* \"#utility.yul\":902:903   */\n  0x00\n    /* \"#utility.yul\":895:909   */\n  mstore\n    /* \"#utility.yul\":939:943   */\n  0x20\n    /* \"#utility.yul\":936:937   */\n  0x00\n    /* \"#utility.yul\":926:944   */\n  keccak256\n    /* \"#utility.yul\":918:944   */\n  swap1\n  pop\n    /* \"#utility.yul\":810:951   */\n  swap2\n  swap1\n  pop\n  jump\t// out\n    /* \"#utility.yul\":957:1050   */\ntag_13:\n    /* \"#utility.yul\":994:1000   */\n  0x00\n    /* \"#utility.yul\":1041:1043   */\n  0x20\n    /* \"#utility.yul\":1036:1038   */\n  0x1f\n    /* \"#utility.yul\":1029:1034   */\n  dup4\n    /* \"#utility.yul\":1025:1039   */\n  add\n    /* \"#utility.yul\":1021:1044   */\n  div\n    /* \"#utility.yul\":1011:1044   */\n  swap1\n  pop\n    /* \"#utility.yul\":957:1050   */\n  swap2\n  swap1\n  pop\n  jump\t// out\n    /* \"#utility.yul\":1056:1163   */\ntag_14:\n    /* \"#utility.yul\":1100:1108   */\n  0x00\n    /* \"#utility.yul\":1150:1155   */\n  dup3\n    /* \"#utility.yul\":1144:1148   */\n  dup3\n    /* \"#utility.yul\":1140:1156   */\n  shl\n    /* \"#utility.yul\":1119:1156   */\n  swap1\n  pop\n    /* \"#utility.yul\":1056:1163   */\n  swap3\n  swap2\n  pop\n  pop\n  jump\t// out\n    /* \"#utility.yul\":1169:1562   */\ntag_15:\n    /* \"#utility.yul\":1238:1244   */\n  0x00\n    /* \"#utility.yul\":1288:1289   */\n  0x08\n    /* \"#utility.yul\":1276:1286   */\n  dup4\n    /* \"#utility.yul\":1272:1290   */\n  mul\n    /* \"#utility.yul\":1311:1408   */\n  tag_40\n    /* \"#utility.yul\":1341:1407   */\n  0xffffffffffffffffffffffffffffffffffffffffffffffffffffffffffffffff\n    /* \"#utility.yul\":1330:1339   */\n  dup3\n    /* \"#utility.yul\":1311:1408   */\n  tag_14\n  jump\t// in\ntag_40:\n    /* \"#utility.yul\":1429:1468   */\n  tag_41\n    /* \"#utility.yul\":1459:1467   */\n  dup7\n    /* \"#utility.yul\":1448:1457   */\n  dup4\n    /* \"#utility.yul\":1429:1468   */\n  tag_14\n  jump\t// in\ntag_41:\n    /* \"#utility.yul\":1417:1468   */\n  swap6\n  pop\n    /* \"#utility.yul\":1501:1505   */\n  dup1\n    /* \"#utility.yul\":1497:1506   */\n  not\n    /* \"#utility.yul\":1490:1495   */\n  dup5\n    /* \"#utility.yul\":1486:1507   */\n  and\n    /* \"#utility.yul\":1477:1507   */\n  swap4\n  pop\n    /* \"#utility.yul\":1550:1554   */\n  dup1\n    /* \"#utility.yul\":1540:1548   */\n  dup7\n    /* \"#utility.yul\":1536:1555   */\n  and\n    /* \"#utility.yul\":1529:1534   */\n  dup5\n    /* \"#utility.yul\":1526:1556   */\n  or\n    /* \"#utility.yul\":1516:1556   */\n  swap3\n  pop\n    /* \"#utility.yul\":1245:1562   */\n  pop\n  pop\n    /* \"#utility.yul\":1169:1562   */\n  swap4\n  swap3\n  pop\n  pop\n  pop\n  jump\t// out\n    /* \"#utility.yul\":1568:1645   */\ntag_16:\n    /* \"#utility.yul\":1605:1612   */\n  0x00\n    /* \"#utility.yul\":1634:1639   */\n  dup2\n    /* \"#utility.yul\":1623:1639   */\n  swap1\n  pop\n    /* \"#utility.yul\":1568:1645   */\n  swap2\n  swap1\n  pop\n  jump\t// out\n    /* \"#utility.yul\":1651:1711   */\ntag_17:\n    /* \"#utility.yul\":1679:1682   */\n  0x00\n    /* \"#utility.yul\":1700:1705   */\n  dup2\n    /* \"#utility.yul\":1693:1705   */\n  swap1\n  pop\n    /* \"#utility.yul\":1651:1711   */\n  swap2\n  swap1\n  pop\n  jump\t// out\n    /* \"#utility.yul\":1717:1859   */\ntag_18:\n    /* \"#utility.yul\":1767:1776   */\n  0x00\n    /* \"#utility.yul\":1800:1853   */\n  tag_45\n    /* \"#utility.yul\":1818:1852   */\n  tag_46\n    /* \"#utility.yul\":1827:1851   */\n  tag_47\n    /* \"#utility.yul\":1845:1850   */\n  dup5\n    /* \"#utility.yul\":1827:1851   */\n  tag_16\n  jump\t// in\ntag_47:\n    /* \"#utility.yul\":1818:1852   */\n  tag_17\n  jump\t// in\ntag_46:\n    /* \"#utility.yul\":1800:1853   */\n  tag_16\n  jump\t// in\ntag_45:\n    /* \"#utility.yul\":1787:1853   */\n  swap1\n  pop\n    /* \"#utility.yul\":1717:1859   */\n  swap2\n  swap1\n  pop\n  jump\t// out\n    /* \"#utility.yul\":1865:1940   */\ntag_19:\n    /* \"#utility.yul\":1908:1911   */\n  0x00\n    /* \"#utility.yul\":1929:1934   */\n  dup2\n    /* \"#utility.yul\":1922:1934   */\n  swap1\n  pop\n    /* \"#utility.yul\":1865:1940   */\n  swap2\n  swap1\n  pop\n  jump\t// out\n    /* \"#utility.yul\":1946:2215   */\ntag_20:\n    /* \"#utility.yul\":2056:2095   */\n  tag_50\n    /* \"#utility.yul\":2087:2094   */\n  dup4\n    /* \"#utility.yul\":2056:2095   */\n  tag_18\n  jump\t// in\ntag_50:\n    /* \"#utility.yul\":2117:2208   */\n  tag_51\n    /* \"#utility.yul\":2166:2207   */\n  tag_52\n    /* \"#utility.yul\":2190:2206   */\n  dup3\n    /* \"#utility.yul\":2166:2207   */\n  tag_19\n  jump\t// in\ntag_52:\n    /* \"#utility.yul\":2158:2164   */\n  dup5\n    /* \"#utility.yul\":2151:2155   */\n  dup5\n    /* \"#utility.yul\":2145:2156   */\n  sload\n    /* \"#utility.yul\":2117:2208   */\n  tag_15\n  jump\t// in\ntag_51:\n    /* \"#utility.yul\":2111:2115   */\n  dup3\n    /* \"#utility.yul\":2104:2209   */\n  sstore\n    /* \"#utility.yul\":2022:2215   */\n  pop\n    /* \"#utility.yul\":1946:2215   */\n  pop\n  pop\n  pop\n  jump\t// out\n    /* \"#utility.yul\":2221:2294   */\ntag_21:\n    /* \"#utility.yul\":2266:2269   */\n  0x00\n    /* \"#utility.yul\":2221:2294   */\n  swap1\n  jump\t// out\n    /* \"#utility.yul\":2300:2489   */\ntag_22:\n    /* \"#utility.yul\":2377:2409   */\n  tag_55\n  tag_21\n  jump\t// in\ntag_55:\n    /* \"#utility.yul\":2418:2483   */\n  tag_56\n    /* \"#utility.yul\":2476:2482   */\n  dup2\n    /* \"#utility.yul\":2468:2474   */\n  dup5\n    /* \"#utility.yul\":2462:2466   */\n  dup5\n    /* \"#utility.yul\":2418:2483   */\n  tag_20\n  jump\t// in\ntag_56:\n    /* \"#utility.yul\":2353:2489   */\n  pop\n    /* \"#utility.yul\":2300:2489   */\n  pop\n  pop\n  jump\t// out\n    /* \"#utility.yul\":2495:2681   */\ntag_23:\n    /* \"#utility.yul\":2555:2675   */\ntag_58:\n    /* \"#utility.yul\":2572:2575   */\n  dup2\n    /* \"#utility.yul\":2565:2570   */\n  dup2\n    /* \"#utility.yul\":2562:2576   */\n  lt\n    /* \"#utility.yul\":2555:2675   */\n  iszero\n  tag_60\n  jumpi\n    /* \"#utility.yul\":2626:2665   */\n  tag_61\n    /* \"#utility.yul\":2663:2664   */\n  0x00\n    /* \"#utility.yul\":2656:2661   */\n  dup3\n    /* \"#utility.yul\":2626:2665   */\n  tag_22\n  jump\t// in\ntag_61:\n    /* \"#utility.yul\":2599:2600   */\n  0x01\n    /* \"#utility.yul\":2592:2597   */\n  dup2\n    /* \"#utility.yul\":2588:2601   */\n  add\n    /* \"#utility.yul\":2579:2601   */\n  swap1\n  pop\n    /* \"#utility.yul\":2555:2675   */\n  jump(tag_58)\ntag_60:\n    /* \"#utility.yul\":2495:2681   */\n  pop\n  pop\n  jump\t// out\n    /* \"#utility.yul\":2687:3230   */\ntag_24:\n    /* \"#utility.yul\":2788:2790   */\n  0x1f\n    /* \"#utility.yul\":2783:2786   */\n  dup3\n    /* \"#utility.yul\":2780:2791   */\n  gt\n    /* \"#utility.yul\":2777:3223   */\n  iszero\n  tag_63\n  jumpi\n    /* \"#utility.yul\":2822:2860   */\n  tag_64\n    /* \"#utility.yul\":2854:2859   */\n  dup2\n    /* \"#utility.yul\":2822:2860   */\n  tag_12\n  jump\t// in\ntag_64:\n    /* \"#utility.yul\":2906:2935   */\n  tag_65\n    /* \"#utility.yul\":2924:2934   */\n  dup5\n    /* \"#utility.yul\":2906:2935   */\n  tag_13\n  jump\t// in\ntag_65:\n    /* \"#utility.yul\":2896:2904   */\n  dup2\n    /* \"#utility.yul\":2892:2936   */\n  add\n    /* \"#utility.yul\":3089:3091   */\n  0x20\n    /* \"#utility.yul\":3077:3087   */\n  dup6\n    /* \"#utility.yul\":3074:3092   */\n  lt\n    /* \"#utility.yul\":3071:3120   */\n  iszero\n  tag_66\n  jumpi\n    /* \"#utility.yul\":3110:3118   */\n  dup2\n    /* \"#utility.yul\":3095:3118   */\n  swap1\n  pop\n    /* \"#utility.yul\":3071:3120   */\ntag_66:\n    /* \"#utility.yul\":3133:3213   */\n  tag_67\n    /* \"#utility.yul\":3189:3211   */\n  tag_68\n    /* \"#utility.yul\":3207:3210   */\n  dup6\n    /* \"#utility.yul\":3189:3211   */\n  tag_13\n  jump\t// in\ntag_68:\n    /* \"#utility.yul\":3179:3187   */\n  dup4\n    /* \"#utility.yul\":3175:3212   */\n  add\n    /* \"#utility.yul\":3162:3173   */\n  dup3\n    /* \"#utility.yul\":3133:3213   */\n  tag_23\n  jump\t// in\ntag_67:\n    /* \"#utility.yul\":2792:3223   */\n  pop\n  pop\n    /* \"#utility.yul\":2777:3223   */\ntag_63:\n    /* \"#utility.yul\":2687:3230   */\n  pop\n  pop\n  pop\n  jump\t// out\n    /* \"#utility.yul\":3236:3353   */\ntag_25:\n    /* \"#utility.yul\":3290:3298   */\n  0x00\n    /* \"#utility.yul\":3340:3345   */\n  dup3\n    /* \"#utility.yul\":3334:3338   */\n  dup3\n    /* \"#utility.yul\":3330:3346   */\n  shr\n    /* \"#utility.yul\":3309:3346   */\n  swap1\n  pop\n    /* \"#utility.yul\":3236:3353   */\n  swap3\n  swap2\n  pop\n  pop\n  jump\t// out\n    /* \"#utility.yul\":3359:3528   */\ntag_26:\n    /* \"#utility.yul\":3403:3409   */\n  0x00\n    /* \"#utility.yul\":3436:3487   */\n  tag_71\n    /* \"#utility.yul\":3484:3485   */\n  0x00\n    /* \"#utility.yul\":3480:3486   */\n  not\n    /* \"#utility.yul\":3472:3477   */\n  dup5\n    /* \"#utility.yul\":3469:3470   */\n  0x08\n    /* \"#utility.yul\":3465:3478   */\n  mul\n    /* \"#utility.yul\":3436:3487   */\n  tag_25\n  jump\t// in\ntag_71:\n    /* \"#utility.yul\":3432:3488   */\n  not\n    /* \"#utility.yul\":3517:3521   */\n  dup1\n    /* \"#utility.yul\":3511:3515   */\n  dup4\n    /* \"#utility.yul\":3507:3522   */\n  and\n    /* \"#utility.yul\":3497:3522   */\n  swap2\n  pop\n    /* \"#utility.yul\":3410:3528   */\n  pop\n    /* \"#utility.yul\":3359:3528   */\n  swap3\n  swap2\n  pop\n  pop\n  jump\t// out\n    /* \"#utility.yul\":3533:3828   */\ntag_27:\n    /* \"#utility.yul\":3609:3613   */\n  0x00\n    /* \"#utility.yul\":3755:3784   */\n  tag_73\n    /* \"#utility.yul\":3780:3783   */\n  dup4\n    /* \"#utility.yul\":3774:3778   */\n  dup4\n    /* \"#utility.yul\":3755:3784   */\n  tag_26\n  jump\t// in\ntag_73:\n    /* \"#utility.yul\":3747:3784   */\n  swap2\n  pop\n    /* \"#utility.yul\":3817:3820   */\n  dup3\n    /* \"#utility.yul\":3814:3815   */\n  0x02\n    /* \"#utility.yul\":3810:3821   */\n  mul\n    /* \"#utility.yul\":3804:3808   */\n  dup3\n    /* \"#utility.yul\":3801:3822   */\n  or\n    /* \"#utility.yul\":3793:3822   */\n  swap1\n  pop\n    /* \"#utility.yul\":3533:3828   */\n  swap3\n  swap2\n  pop\n  pop\n  jump\t// out\n    /* \"#utility.yul\":3833:5228   */\ntag_6:\n    /* \"#utility.yul\":3950:3987   */\n  tag_75\n    /* \"#utility.yul\":3983:3986   */\n  dup3\n    /* \"#utility.yul\":3950:3987   */\n  tag_8\n  jump\t// in\ntag_75:\n    /* \"#utility.yul\":4052:4070   */\n  0xffffffffffffffff\n    /* \"#utility.yul\":4044:4050   */\n  dup2\n    /* \"#utility.yul\":4041:4071   */\n  gt\n    /* \"#utility.yul\":4038:4094   */\n  iszero\n  tag_76\n  jumpi\n    /* \"#utility.yul\":4074:4092   */\n  tag_77\n  tag_9\n  jump\t// in\ntag_77:\n    /* \"#utility.yul\":4038:4094   */\ntag_76:\n    /* \"#utility.yul\":4118:4156   */\n  tag_78\n    /* \"#utility.yul\":4150:4154   */\n  dup3\n    /* \"#utility.yul\":4144:4155   */\n  sload\n    /* \"#utility.yul\":4118:4156   */\n  tag_11\n  jump\t// in\ntag_78:\n    /* \"#utility.yul\":4203:4270   */\n  tag_79\n    /* \"#utility.yul\":4263:4269   */\n  dup3\n    /* \"#utility.yul\":4255:4261   */\n  dup3\n    /* \"#utility.yul\":4249:4253   */\n  dup6\n    /* \"#utility.yul\":4203:4270   */\n  tag_24\n  jump\t// in\ntag_79:\n    /* \"#utility.yul\":4297:4298   */\n  0x00\n    /* \"#utility.yul\":4321:4325   */\n  0x20\n    /* \"#utility.yul\":4308:4325   */\n  swap1\n  pop\n    /* \"#utility.yul\":4353:4355   */\n  0x1f\n    /* \"#utility.yul\":4345:4351   */\n  dup4\n    /* \"#utility.yul\":4342:4356   */\n  gt\n    /* \"#utility.yul\":4370:4371   */\n  0x01\n    /* \"#utility.yul\":4365:4983   */\n  dup2\n  eq\n  tag_81\n  jumpi\n    /* \"#utility.yul\":5027:5028   */\n  0x00\n    /* \"#utility.yul\":5044:5050   */\n  dup5\n    /* \"#utility.yul\":5041:5118   */\n  iszero\n  tag_82\n  jumpi\n    /* \"#utility.yul\":5093:5102   */\n  dup3\n    /* \"#utility.yul\":5088:5091   */\n  dup8\n    /* \"#utility.yul\":5084:5103   */\n  add\n    /* \"#utility.yul\":5078:5104   */\n  mload\n    /* \"#utility.yul\":5069:5104   */\n  swap1\n  pop\n    /* \"#utility.yul\":5041:5118   */\ntag_82:\n    /* \"#utility.yul\":5144:5211   */\n  tag_83\n    /* \"#utility.yul\":5204:5210   */\n  dup6\n    /* \"#utility.yul\":5197:5202   */\n  dup3\n    /* \"#utility.yul\":5144:5211   */\n  tag_27\n  jump\t// in\ntag_83:\n    /* \"#utility.yul\":5138:5142   */\n  dup7\n    /* \"#utility.yul\":5131:5212   */\n  sstore\n    /* \"#utility.yul\":5000:5222   */\n  pop\n    /* \"#utility.yul\":4335:5222   */\n  jump(tag_80)\n    /* \"#utility.yul\":4365:4983   */\ntag_81:\n    /* \"#utility.yul\":4417:4421   */\n  0x1f\n    /* \"#utility.yul\":4413:4422   */\n  not\n    /* \"#utility.yul\":4405:4411   */\n  dup5\n    /* \"#utility.yul\":4401:4423   */\n  and\n    /* \"#utility.yul\":4451:4488   */\n  tag_84\n    /* \"#utility.yul\":4483:4487   */\n  dup7\n    /* \"#utility.yul\":4451:4488   */\n  tag_12\n  jump\t// in\ntag_84:\n    /* \"#utility.yul\":4510:4511   */\n  0x00\n    /* \"#utility.yul\":4524:4732   */\ntag_85:\n    /* \"#utility.yul\":4538:4545   */\n  dup3\n    /* \"#utility.yul\":4535:4536   */\n  dup2\n    /* \"#utility.yul\":4532:4546   */\n  lt\n    /* \"#utility.yul\":4524:4732   */\n  iszero\n  tag_87\n  jumpi\n    /* \"#utility.yul\":4617:4626   */\n  dup5\n    /* \"#utility.yul\":4612:4615   */\n  dup10\n    /* \"#utility.yul\":4608:4627   */\n  add\n    /* \"#utility.yul\":4602:4628   */\n  mload\n    /* \"#utility.yul\":4594:4600   */\n  dup3\n    /* \"#utility.yul\":4587:4629   */\n  sstore\n    /* \"#utility.yul\":4668:4669   */\n  0x01\n    /* \"#utility.yul\":4660:4666   */\n  dup3\n    /* \"#utility.yul\":4656:4670   */\n  add\n    /* \"#utility.yul\":4646:4670   */\n  swap2\n  pop\n    /* \"#utility.yul\":4715:4717   */\n  0x20\n    /* \"#utility.yul\":4704:4713   */\n  dup6\n    /* \"#utility.yul\":4700:4718   */\n  add\n    /* \"#utility.yul\":4687:4718   */\n  swap5\n  pop\n    /* \"#utility.yul\":4561:4565   */\n  0x20\n    /* \"#utility.yul\":4558:4559   */\n  dup2\n    /* \"#utility.yul\":4554:4566   */\n  add\n    /* \"#utility.yul\":4549:4566   */\n  swap1\n  pop\n    /* \"#utility.yul\":4524:4732   */\n  jump(tag_85)\ntag_87:\n    /* \"#utility.yul\":4760:4766   */\n  dup7\n    /* \"#utility.yul\":4751:4758   */\n  dup4\n    /* \"#utility.yul\":4748:4767   */\n  lt\n    /* \"#utility.yul\":4745:4924   */\n  iszero\n  tag_88\n  jumpi\n    /* \"#utility.yul\":4818:4827   */\n  dup5\n    /* \"#utility.yul\":4813:4816   */\n  dup10\n    /* \"#utility.yul\":4809:4828   */\n  add\n    /* \"#utility.yul\":4803:4829   */\n  mload\n    /* \"#utility.yul\":4861:4909   */\n  tag_89\n    /* \"#utility.yul\":4903:4907   */\n  0x1f\n    /* \"#utility.yul\":4895:4901   */\n  dup10\n    /* \"#utility.yul\":4891:4908   */\n  and\n    /* \"#utility.yul\":4880:4889   */\n  dup3\n    /* \"#utility.yul\":4861:4909   */\n  tag_26\n  jump\t// in\ntag_89:\n    /* \"#utility.yul\":4853:4859   */\n  dup4\n    /* \"#utility.yul\":4846:4910   */\n  sstore\n    /* \"#utility.yul\":4768:4924   */\n  pop\n    /* \"#utility.yul\":4745:4924   */\ntag_88:\n    /* \"#utility.yul\":4970:4971   */\n  0x01\n    /* \"#utility.yul\":4966:4967   */\n  0x02\n    /* \"#utility.yul\":4958:4964   */\n  dup9\n    /* \"#utility.yul\":4954:4968   */\n  mul\n    /* \"#utility.yul\":4950:4972   */\n  add\n    /* \"#utility.yul\":4944:4948   */\n  dup9\n    /* \"#utility.yul\":4937:4973   */\n  sstore\n    /* \"#utility.yul\":4372:4983   */\n  pop\n  pop\n  pop\n    /* \"#utility.yul\":4335:5222   */\ntag_80:\n  pop\n    /* \"#utility.yul\":3925:5228   */\n  pop\n  pop\n  pop\n    /* \"#utility.yul\":3833:5228   */\n  pop\n  pop\n  jump\t// out\n    /* \"contracts/MySecondWork.sol\":62:447  contract MySecondWork {... */\ntag_7:\n  dataSize(sub_0)\n  dup1\n  dataOffset(sub_0)\n  0x00\n  codecopy\n  0x00\n  return\nstop\n\nsub_0: assembly {\n        /* \"contracts/MySecondWork.sol\":62:447  contract MySecondWork {... */\n      mstore(0x40, 0x80)\n      callvalue\n      dup1\n      iszero\n      tag_1\n      jumpi\n      0x00\n      dup1\n      revert\n    tag_1:\n      pop\n      jumpi(tag_2, lt(calldatasize, 0x04))\n      shr(0xe0, calldataload(0x00))\n      dup1\n      0x2dd1ebf1\n      eq\n      tag_3\n      jumpi\n      dup1\n      0xdb487f36\n      eq\n      tag_4\n      jumpi\n    tag_2:\n      0x00\n      dup1\n      revert\n        /* \"contracts/MySecondWork.sol\":307:444  function setTestScores (string memory _name, uint _age, address _addy) public {... */\n    tag_3:\n      tag_5\n      0x04\n      dup1\n      calldatasize\n      sub\n      dup2\n      add\n      swap1\n      tag_6\n      swap2\n      swap1\n      tag_7\n      jump\t// in\n    tag_6:\n      tag_8\n      jump\t// in\n    tag_5:\n      stop\n        /* \"contracts/MySecondWork.sol\":274:298  Details[] public  detail */\n    tag_4:\n      tag_9\n      0x04\n      dup1\n      calldatasize\n      sub\n      dup2\n      add\n      swap1\n      tag_10\n      swap2\n      swap1\n      tag_11\n      jump\t// in\n    tag_10:\n      tag_12\n      jump\t// in\n    tag_9:\n      mload(0x40)\n      tag_13\n      swap4\n      swap3\n      swap2\n      swap1\n      tag_14\n      jump\t// in\n    tag_13:\n      mload(0x40)\n      dup1\n      swap2\n      sub\n      swap1\n      return\n        /* \"contracts/MySecondWork.sol\":307:444  function setTestScores (string memory _name, uint _age, address _addy) public {... */\n    tag_8:\n        /* \"contracts/MySecondWork.sol\":396:402  detail */\n      0x00\n        /* \"contracts/MySecondWork.sol\":408:435  Details(_name, _age, _addy) */\n      mload(0x40)\n      dup1\n      0x60\n      add\n      0x40\n      mstore\n      dup1\n        /* \"contracts/MySecondWork.sol\":416:421  _name */\n      dup6\n        /* \"contracts/MySecondWork.sol\":408:435  Details(_name, _age, _addy) */\n      dup2\n      mstore\n      0x20\n      add\n        /* \"contracts/MySecondWork.sol\":423:427  _age */\n      dup5\n        /* \"contracts/MySecondWork.sol\":408:435  Details(_name, _age, _addy) */\n      dup2\n      mstore\n      0x20\n      add\n        /* \"contracts/MySecondWork.sol\":429:434  _addy */\n      dup4\n        /* \"contracts/MySecondWork.sol\":408:435  Details(_name, _age, _addy) */\n      0xffffffffffffffffffffffffffffffffffffffff\n      and\n      dup2\n      mstore\n      pop\n        /* \"contracts/MySecondWork.sol\":396:436  detail.push(Details(_name, _age, _addy)) */\n      swap1\n      dup1\n      0x01\n      dup2\n      sload\n      add\n      dup1\n      dup3\n      sstore\n      dup1\n      swap2\n      pop\n      pop\n      0x01\n      swap1\n      sub\n      swap1\n      0x00\n      mstore\n      keccak256(0x00, 0x20)\n      swap1\n      0x03\n      mul\n      add\n      0x00\n      swap1\n      swap2\n      swap1\n      swap2\n      swap1\n      swap2\n      pop\n      0x00\n      dup3\n      add\n      mload\n      dup2\n      0x00\n      add\n      swap1\n      dup2\n      tag_17\n      swap2\n      swap1\n      tag_18\n      jump\t// in\n    tag_17:\n      pop\n      0x20\n      dup3\n      add\n      mload\n      dup2\n      0x01\n      add\n      sstore\n      0x40\n      dup3\n      add\n      mload\n      dup2\n      0x02\n      add\n      exp(0x0100, 0x00)\n      dup2\n      sload\n      dup2\n      0xffffffffffffffffffffffffffffffffffffffff\n      mul\n      not\n      and\n      swap1\n      dup4\n      0xffffffffffffffffffffffffffffffffffffffff\n      and\n      mul\n      or\n      swap1\n      sstore\n      pop\n      pop\n      pop\n        /* \"contracts/MySecondWork.sol\":307:444  function setTestScores (string memory _name, uint _age, address _addy) public {... */\n      pop\n      pop\n      pop\n      jump\t// out\n        /* \"contracts/MySecondWork.sol\":274:298  Details[] public  detail */\n    tag_12:\n      0x00\n      dup2\n      dup2\n      sload\n      dup2\n      lt\n      tag_19\n      jumpi\n      0x00\n      dup1\n      revert\n    tag_19:\n      swap1\n      0x00\n      mstore\n      keccak256(0x00, 0x20)\n      swap1\n      0x03\n      mul\n      add\n      0x00\n      swap2\n      pop\n      swap1\n      pop\n      dup1\n      0x00\n      add\n      dup1\n      sload\n      tag_21\n      swap1\n      tag_22\n      jump\t// in\n    tag_21:\n      dup1\n      0x1f\n      add\n      0x20\n      dup1\n      swap2\n      div\n      mul\n      0x20\n      add\n      mload(0x40)\n      swap1\n      dup2\n      add\n      0x40\n      mstore\n      dup1\n      swap3\n      swap2\n      swap1\n      dup2\n      dup2\n      mstore\n      0x20\n      add\n      dup3\n      dup1\n      sload\n      tag_23\n      swap1\n      tag_22\n      jump\t// in\n    tag_23:\n      dup1\n      iszero\n      tag_24\n      jumpi\n      dup1\n      0x1f\n      lt\n      tag_25\n      jumpi\n      0x0100\n      dup1\n      dup4\n      sload\n      div\n      mul\n      dup4\n      mstore\n      swap2\n      0x20\n      add\n      swap2\n      jump(tag_24)\n    tag_25:\n      dup3\n      add\n      swap2\n      swap1\n      0x00\n      mstore\n      keccak256(0x00, 0x20)\n      swap1\n    tag_26:\n      dup2\n      sload\n      dup2\n      mstore\n      swap1\n      0x01\n      add\n      swap1\n      0x20\n      add\n      dup1\n      dup4\n      gt\n      tag_26\n      jumpi\n      dup3\n      swap1\n      sub\n      0x1f\n      and\n      dup3\n      add\n      swap2\n    tag_24:\n      pop\n      pop\n      pop\n      pop\n      pop\n      swap1\n      dup1\n      0x01\n      add\n      sload\n      swap1\n      dup1\n      0x02\n      add\n      0x00\n      swap1\n      sload\n      swap1\n      0x0100\n      exp\n      swap1\n      div\n      0xffffffffffffffffffffffffffffffffffffffff\n      and\n      swap1\n      pop\n      dup4\n      jump\t// out\n        /* \"#utility.yul\":7:82   */\n    tag_27:\n        /* \"#utility.yul\":40:46   */\n      0x00\n        /* \"#utility.yul\":73:75   */\n      0x40\n        /* \"#utility.yul\":67:76   */\n      mload\n        /* \"#utility.yul\":57:76   */\n      swap1\n      pop\n        /* \"#utility.yul\":7:82   */\n      swap1\n      jump\t// out\n        /* \"#utility.yul\":88:205   */\n    tag_28:\n        /* \"#utility.yul\":197:198   */\n      0x00\n        /* \"#utility.yul\":194:195   */\n      dup1\n        /* \"#utility.yul\":187:199   */\n      revert\n        /* \"#utility.yul\":211:328   */\n    tag_29:\n        /* \"#utility.yul\":320:321   */\n      0x00\n        /* \"#utility.yul\":317:318   */\n      dup1\n        /* \"#utility.yul\":310:322   */\n      revert\n        /* \"#utility.yul\":334:451   */\n    tag_30:\n        /* \"#utility.yul\":443:444   */\n      0x00\n        /* \"#utility.yul\":440:441   */\n      dup1\n        /* \"#utility.yul\":433:445   */\n      revert\n        /* \"#utility.yul\":457:574   */\n    tag_31:\n        /* \"#utility.yul\":566:567   */\n      0x00\n        /* \"#utility.yul\":563:564   */\n      dup1\n        /* \"#utility.yul\":556:568   */\n      revert\n        /* \"#utility.yul\":580:682   */\n    tag_32:\n        /* \"#utility.yul\":621:627   */\n      0x00\n        /* \"#utility.yul\":672:674   */\n      0x1f\n        /* \"#utility.yul\":668:675   */\n      not\n        /* \"#utility.yul\":663:665   */\n      0x1f\n        /* \"#utility.yul\":656:661   */\n      dup4\n        /* \"#utility.yul\":652:666   */\n      add\n        /* \"#utility.yul\":648:676   */\n      and\n        /* \"#utility.yul\":638:676   */\n      swap1\n      pop\n        /* \"#utility.yul\":580:682   */\n      swap2\n      swap1\n      pop\n      jump\t// out\n        /* \"#utility.yul\":688:868   */\n    tag_33:\n        /* \"#utility.yul\":736:813   */\n      0x4e487b7100000000000000000000000000000000000000000000000000000000\n        /* \"#utility.yul\":733:734   */\n      0x00\n        /* \"#utility.yul\":726:814   */\n      mstore\n        /* \"#utility.yul\":833:837   */\n      0x41\n        /* \"#utility.yul\":830:831   */\n      0x04\n        /* \"#utility.yul\":823:838   */\n      mstore\n        /* \"#utility.yul\":857:861   */\n      0x24\n        /* \"#utility.yul\":854:855   */\n      0x00\n        /* \"#utility.yul\":847:862   */\n      revert\n        /* \"#utility.yul\":874:1155   */\n    tag_34:\n        /* \"#utility.yul\":957:984   */\n      tag_78\n        /* \"#utility.yul\":979:983   */\n      dup3\n        /* \"#utility.yul\":957:984   */\n      tag_32\n      jump\t// in\n    tag_78:\n        /* \"#utility.yul\":949:955   */\n      dup2\n        /* \"#utility.yul\":945:985   */\n      add\n        /* \"#utility.yul\":1087:1093   */\n      dup2\n        /* \"#utility.yul\":1075:1085   */\n      dup2\n        /* \"#utility.yul\":1072:1094   */\n      lt\n        /* \"#utility.yul\":1051:1069   */\n      0xffffffffffffffff\n        /* \"#utility.yul\":1039:1049   */\n      dup3\n        /* \"#utility.yul\":1036:1070   */\n      gt\n        /* \"#utility.yul\":1033:1095   */\n      or\n        /* \"#utility.yul\":1030:1118   */\n      iszero\n      tag_79\n      jumpi\n        /* \"#utility.yul\":1098:1116   */\n      tag_80\n      tag_33\n      jump\t// in\n    tag_80:\n        /* \"#utility.yul\":1030:1118   */\n    tag_79:\n        /* \"#utility.yul\":1138:1148   */\n      dup1\n        /* \"#utility.yul\":1134:1136   */\n      0x40\n        /* \"#utility.yul\":1127:1149   */\n      mstore\n        /* \"#utility.yul\":917:1155   */\n      pop\n        /* \"#utility.yul\":874:1155   */\n      pop\n      pop\n      jump\t// out\n        /* \"#utility.yul\":1161:1290   */\n    tag_35:\n        /* \"#utility.yul\":1195:1201   */\n      0x00\n        /* \"#utility.yul\":1222:1242   */\n      tag_82\n      tag_27\n      jump\t// in\n    tag_82:\n        /* \"#utility.yul\":1212:1242   */\n      swap1\n      pop\n        /* \"#utility.yul\":1251:1284   */\n      tag_83\n        /* \"#utility.yul\":1279:1283   */\n      dup3\n        /* \"#utility.yul\":1271:1277   */\n      dup3\n        /* \"#utility.yul\":1251:1284   */\n      tag_34\n      jump\t// in\n    tag_83:\n        /* \"#utility.yul\":1161:1290   */\n      swap2\n      swap1\n      pop\n      jump\t// out\n        /* \"#utility.yul\":1296:1604   */\n    tag_36:\n        /* \"#utility.yul\":1358:1362   */\n      0x00\n        /* \"#utility.yul\":1448:1466   */\n      0xffffffffffffffff\n        /* \"#utility.yul\":1440:1446   */\n      dup3\n        /* \"#utility.yul\":1437:1467   */\n      gt\n        /* \"#utility.yul\":1434:1490   */\n      iszero\n      tag_85\n      jumpi\n        /* \"#utility.yul\":1470:1488   */\n      tag_86\n      tag_33\n      jump\t// in\n    tag_86:\n        /* \"#utility.yul\":1434:1490   */\n    tag_85:\n        /* \"#utility.yul\":1508:1537   */\n      tag_87\n        /* \"#utility.yul\":1530:1536   */\n      dup3\n        /* \"#utility.yul\":1508:1537   */\n      tag_32\n      jump\t// in\n    tag_87:\n        /* \"#utility.yul\":1500:1537   */\n      swap1\n      pop\n        /* \"#utility.yul\":1592:1596   */\n      0x20\n        /* \"#utility.yul\":1586:1590   */\n      dup2\n        /* \"#utility.yul\":1582:1597   */\n      add\n        /* \"#utility.yul\":1574:1597   */\n      swap1\n      pop\n        /* \"#utility.yul\":1296:1604   */\n      swap2\n      swap1\n      pop\n      jump\t// out\n        /* \"#utility.yul\":1610:1758   */\n    tag_37:\n        /* \"#utility.yul\":1708:1714   */\n      dup3\n        /* \"#utility.yul\":1703:1706   */\n      dup2\n        /* \"#utility.yul\":1698:1701   */\n      dup4\n        /* \"#utility.yul\":1685:1715   */\n      calldatacopy\n        /* \"#utility.yul\":1749:1750   */\n      0x00\n        /* \"#utility.yul\":1740:1746   */\n      dup4\n        /* \"#utility.yul\":1735:1738   */\n      dup4\n        /* \"#utility.yul\":1731:1747   */\n      add\n        /* \"#utility.yul\":1724:1751   */\n      mstore\n        /* \"#utility.yul\":1610:1758   */\n      pop\n      pop\n      pop\n      jump\t// out\n        /* \"#utility.yul\":1764:2189   */\n    tag_38:\n        /* \"#utility.yul\":1842:1847   */\n      0x00\n        /* \"#utility.yul\":1867:1933   */\n      tag_90\n        /* \"#utility.yul\":1883:1932   */\n      tag_91\n        /* \"#utility.yul\":1925:1931   */\n      dup5\n        /* \"#utility.yul\":1883:1932   */\n      tag_36\n      jump\t// in\n    tag_91:\n        /* \"#utility.yul\":1867:1933   */\n      tag_35\n      jump\t// in\n    tag_90:\n        /* \"#utility.yul\":1858:1933   */\n      swap1\n      pop\n        /* \"#utility.yul\":1956:1962   */\n      dup3\n        /* \"#utility.yul\":1949:1954   */\n      dup2\n        /* \"#utility.yul\":1942:1963   */\n      mstore\n        /* \"#utility.yul\":1994:1998   */\n      0x20\n        /* \"#utility.yul\":1987:1992   */\n      dup2\n        /* \"#utility.yul\":1983:1999   */\n      add\n        /* \"#utility.yul\":2032:2035   */\n      dup5\n        /* \"#utility.yul\":2023:2029   */\n      dup5\n        /* \"#utility.yul\":2018:2021   */\n      dup5\n        /* \"#utility.yul\":2014:2030   */\n      add\n        /* \"#utility.yul\":2011:2036   */\n      gt\n        /* \"#utility.yul\":2008:2120   */\n      iszero\n      tag_92\n      jumpi\n        /* \"#utility.yul\":2039:2118   */\n      tag_93\n      tag_31\n      jump\t// in\n    tag_93:\n        /* \"#utility.yul\":2008:2120   */\n    tag_92:\n        /* \"#utility.yul\":2129:2183   */\n      tag_94\n        /* \"#utility.yul\":2176:2182   */\n      dup5\n        /* \"#utility.yul\":2171:2174   */\n      dup3\n        /* \"#utility.yul\":2166:2169   */\n      dup6\n        /* \"#utility.yul\":2129:2183   */\n      tag_37\n      jump\t// in\n    tag_94:\n        /* \"#utility.yul\":1848:2189   */\n      pop\n        /* \"#utility.yul\":1764:2189   */\n      swap4\n      swap3\n      pop\n      pop\n      pop\n      jump\t// out\n        /* \"#utility.yul\":2209:2549   */\n    tag_39:\n        /* \"#utility.yul\":2265:2270   */\n      0x00\n        /* \"#utility.yul\":2314:2317   */\n      dup3\n        /* \"#utility.yul\":2307:2311   */\n      0x1f\n        /* \"#utility.yul\":2299:2305   */\n      dup4\n        /* \"#utility.yul\":2295:2312   */\n      add\n        /* \"#utility.yul\":2291:2318   */\n      slt\n        /* \"#utility.yul\":2281:2403   */\n      tag_96\n      jumpi\n        /* \"#utility.yul\":2322:2401   */\n      tag_97\n      tag_30\n      jump\t// in\n    tag_97:\n        /* \"#utility.yul\":2281:2403   */\n    tag_96:\n        /* \"#utility.yul\":2439:2445   */\n      dup2\n        /* \"#utility.yul\":2426:2446   */\n      calldataload\n        /* \"#utility.yul\":2464:2543   */\n      tag_98\n        /* \"#utility.yul\":2539:2542   */\n      dup5\n        /* \"#utility.yul\":2531:2537   */\n      dup3\n        /* \"#utility.yul\":2524:2528   */\n      0x20\n        /* \"#utility.yul\":2516:2522   */\n      dup7\n        /* \"#utility.yul\":2512:2529   */\n      add\n        /* \"#utility.yul\":2464:2543   */\n      tag_38\n      jump\t// in\n    tag_98:\n        /* \"#utility.yul\":2455:2543   */\n      swap2\n      pop\n        /* \"#utility.yul\":2271:2549   */\n      pop\n        /* \"#utility.yul\":2209:2549   */\n      swap3\n      swap2\n      pop\n      pop\n      jump\t// out\n        /* \"#utility.yul\":2555:2632   */\n    tag_40:\n        /* \"#utility.yul\":2592:2599   */\n      0x00\n        /* \"#utility.yul\":2621:2626   */\n      dup2\n        /* \"#utility.yul\":2610:2626   */\n      swap1\n      pop\n        /* \"#utility.yul\":2555:2632   */\n      swap2\n      swap1\n      pop\n      jump\t// out\n        /* \"#utility.yul\":2638:2760   */\n    tag_41:\n        /* \"#utility.yul\":2711:2735   */\n      tag_101\n        /* \"#utility.yul\":2729:2734   */\n      dup2\n        /* \"#utility.yul\":2711:2735   */\n      tag_40\n      jump\t// in\n    tag_101:\n        /* \"#utility.yul\":2704:2709   */\n      dup2\n        /* \"#utility.yul\":2701:2736   */\n      eq\n        /* \"#utility.yul\":2691:2754   */\n      tag_102\n      jumpi\n        /* \"#utility.yul\":2750:2751   */\n      0x00\n        /* \"#utility.yul\":2747:2748   */\n      dup1\n        /* \"#utility.yul\":2740:2752   */\n      revert\n        /* \"#utility.yul\":2691:2754   */\n    tag_102:\n        /* \"#utility.yul\":2638:2760   */\n      pop\n      jump\t// out\n        /* \"#utility.yul\":2766:2905   */\n    tag_42:\n        /* \"#utility.yul\":2812:2817   */\n      0x00\n        /* \"#utility.yul\":2850:2856   */\n      dup2\n        /* \"#utility.yul\":2837:2857   */\n      calldataload\n        /* \"#utility.yul\":2828:2857   */\n      swap1\n      pop\n        /* \"#utility.yul\":2866:2899   */\n      tag_104\n        /* \"#utility.yul\":2893:2898   */\n      dup2\n        /* \"#utility.yul\":2866:2899   */\n      tag_41\n      jump\t// in\n    tag_104:\n        /* \"#utility.yul\":2766:2905   */\n      swap3\n      swap2\n      pop\n      pop\n      jump\t// out\n        /* \"#utility.yul\":2911:3037   */\n    tag_43:\n        /* \"#utility.yul\":2948:2955   */\n      0x00\n        /* \"#utility.yul\":2988:3030   */\n      0xffffffffffffffffffffffffffffffffffffffff\n        /* \"#utility.yul\":2981:2986   */\n      dup3\n        /* \"#utility.yul\":2977:3031   */\n      and\n        /* \"#utility.yul\":2966:3031   */\n      swap1\n      pop\n        /* \"#utility.yul\":2911:3037   */\n      swap2\n      swap1\n      pop\n      jump\t// out\n        /* \"#utility.yul\":3043:3139   */\n    tag_44:\n        /* \"#utility.yul\":3080:3087   */\n      0x00\n        /* \"#utility.yul\":3109:3133   */\n      tag_107\n        /* \"#utility.yul\":3127:3132   */\n      dup3\n        /* \"#utility.yul\":3109:3133   */\n      tag_43\n      jump\t// in\n    tag_107:\n        /* \"#utility.yul\":3098:3133   */\n      swap1\n      pop\n        /* \"#utility.yul\":3043:3139   */\n      swap2\n      swap1\n      pop\n      jump\t// out\n        /* \"#utility.yul\":3145:3267   */\n    tag_45:\n        /* \"#utility.yul\":3218:3242   */\n      tag_109\n        /* \"#utility.yul\":3236:3241   */\n      dup2\n        /* \"#utility.yul\":3218:3242   */\n      tag_44\n      jump\t// in\n    tag_109:\n        /* \"#utility.yul\":3211:3216   */\n      dup2\n        /* \"#utility.yul\":3208:3243   */\n      eq\n        /* \"#utility.yul\":3198:3261   */\n      tag_110\n      jumpi\n        /* \"#utility.yul\":3257:3258   */\n      0x00\n        /* \"#utility.yul\":3254:3255   */\n      dup1\n        /* \"#utility.yul\":3247:3259   */\n      revert\n        /* \"#utility.yul\":3198:3261   */\n    tag_110:\n        /* \"#utility.yul\":3145:3267   */\n      pop\n      jump\t// out\n        /* \"#utility.yul\":3273:3412   */\n    tag_46:\n        /* \"#utility.yul\":3319:3324   */\n      0x00\n        /* \"#utility.yul\":3357:3363   */\n      dup2\n        /* \"#utility.yul\":3344:3364   */\n      calldataload\n        /* \"#utility.yul\":3335:3364   */\n      swap1\n      pop\n        /* \"#utility.yul\":3373:3406   */\n      tag_112\n        /* \"#utility.yul\":3400:3405   */\n      dup2\n        /* \"#utility.yul\":3373:3406   */\n      tag_45\n      jump\t// in\n    tag_112:\n        /* \"#utility.yul\":3273:3412   */\n      swap3\n      swap2\n      pop\n      pop\n      jump\t// out\n        /* \"#utility.yul\":3418:4217   */\n    tag_7:\n        /* \"#utility.yul\":3505:3511   */\n      0x00\n        /* \"#utility.yul\":3513:3519   */\n      dup1\n        /* \"#utility.yul\":3521:3527   */\n      0x00\n        /* \"#utility.yul\":3570:3572   */\n      0x60\n        /* \"#utility.yul\":3558:3567   */\n      dup5\n        /* \"#utility.yul\":3549:3556   */\n      dup7\n        /* \"#utility.yul\":3545:3568   */\n      sub\n        /* \"#utility.yul\":3541:3573   */\n      slt\n        /* \"#utility.yul\":3538:3657   */\n      iszero\n      tag_114\n      jumpi\n        /* \"#utility.yul\":3576:3655   */\n      tag_115\n      tag_28\n      jump\t// in\n    tag_115:\n        /* \"#utility.yul\":3538:3657   */\n    tag_114:\n        /* \"#utility.yul\":3724:3725   */\n      0x00\n        /* \"#utility.yul\":3713:3722   */\n      dup5\n        /* \"#utility.yul\":3709:3726   */\n      add\n        /* \"#utility.yul\":3696:3727   */\n      calldataload\n        /* \"#utility.yul\":3754:3772   */\n      0xffffffffffffffff\n        /* \"#utility.yul\":3746:3752   */\n      dup2\n        /* \"#utility.yul\":3743:3773   */\n      gt\n        /* \"#utility.yul\":3740:3857   */\n      iszero\n      tag_116\n      jumpi\n        /* \"#utility.yul\":3776:3855   */\n      tag_117\n      tag_29\n      jump\t// in\n    tag_117:\n        /* \"#utility.yul\":3740:3857   */\n    tag_116:\n        /* \"#utility.yul\":3881:3944   */\n      tag_118\n        /* \"#utility.yul\":3936:3943   */\n      dup7\n        /* \"#utility.yul\":3927:3933   */\n      dup3\n        /* \"#utility.yul\":3916:3925   */\n      dup8\n        /* \"#utility.yul\":3912:3934   */\n      add\n        /* \"#utility.yul\":3881:3944   */\n      tag_39\n      jump\t// in\n    tag_118:\n        /* \"#utility.yul\":3871:3944   */\n      swap4\n      pop\n        /* \"#utility.yul\":3667:3954   */\n      pop\n        /* \"#utility.yul\":3993:3995   */\n      0x20\n        /* \"#utility.yul\":4019:4072   */\n      tag_119\n        /* \"#utility.yul\":4064:4071   */\n      dup7\n        /* \"#utility.yul\":4055:4061   */\n      dup3\n        /* \"#utility.yul\":4044:4053   */\n      dup8\n        /* \"#utility.yul\":4040:4062   */\n      add\n        /* \"#utility.yul\":4019:4072   */\n      tag_42\n      jump\t// in\n    tag_119:\n        /* \"#utility.yul\":4009:4072   */\n      swap3\n      pop\n        /* \"#utility.yul\":3964:4082   */\n      pop\n        /* \"#utility.yul\":4121:4123   */\n      0x40\n        /* \"#utility.yul\":4147:4200   */\n      tag_120\n        /* \"#utility.yul\":4192:4199   */\n      dup7\n        /* \"#utility.yul\":4183:4189   */\n      dup3\n        /* \"#utility.yul\":4172:4181   */\n      dup8\n        /* \"#utility.yul\":4168:4190   */\n      add\n        /* \"#utility.yul\":4147:4200   */\n      tag_46\n      jump\t// in\n    tag_120:\n        /* \"#utility.yul\":4137:4200   */\n      swap2\n      pop\n        /* \"#utility.yul\":4092:4210   */\n      pop\n        /* \"#utility.yul\":3418:4217   */\n      swap3\n      pop\n      swap3\n      pop\n      swap3\n      jump\t// out\n        /* \"#utility.yul\":4223:4552   */\n    tag_11:\n        /* \"#utility.yul\":4282:4288   */\n      0x00\n        /* \"#utility.yul\":4331:4333   */\n      0x20\n        /* \"#utility.yul\":4319:4328   */\n      dup3\n        /* \"#utility.yul\":4310:4317   */\n      dup5\n        /* \"#utility.yul\":4306:4329   */\n      sub\n        /* \"#utility.yul\":4302:4334   */\n      slt\n        /* \"#utility.yul\":4299:4418   */\n      iszero\n      tag_122\n      jumpi\n        /* \"#utility.yul\":4337:4416   */\n      tag_123\n      tag_28\n      jump\t// in\n    tag_123:\n        /* \"#utility.yul\":4299:4418   */\n    tag_122:\n        /* \"#utility.yul\":4457:4458   */\n      0x00\n        /* \"#utility.yul\":4482:4535   */\n      tag_124\n        /* \"#utility.yul\":4527:4534   */\n      dup5\n        /* \"#utility.yul\":4518:4524   */\n      dup3\n        /* \"#utility.yul\":4507:4516   */\n      dup6\n        /* \"#utility.yul\":4503:4525   */\n      add\n        /* \"#utility.yul\":4482:4535   */\n      tag_42\n      jump\t// in\n    tag_124:\n        /* \"#utility.yul\":4472:4535   */\n      swap2\n      pop\n        /* \"#utility.yul\":4428:4545   */\n      pop\n        /* \"#utility.yul\":4223:4552   */\n      swap3\n      swap2\n      pop\n      pop\n      jump\t// out\n        /* \"#utility.yul\":4558:4657   */\n    tag_47:\n        /* \"#utility.yul\":4610:4616   */\n      0x00\n        /* \"#utility.yul\":4644:4649   */\n      dup2\n        /* \"#utility.yul\":4638:4650   */\n      mload\n        /* \"#utility.yul\":4628:4650   */\n      swap1\n      pop\n        /* \"#utility.yul\":4558:4657   */\n      swap2\n      swap1\n      pop\n      jump\t// out\n        /* \"#utility.yul\":4663:4832   */\n    tag_48:\n        /* \"#utility.yul\":4747:4758   */\n      0x00\n        /* \"#utility.yul\":4781:4787   */\n      dup3\n        /* \"#utility.yul\":4776:4779   */\n      dup3\n        /* \"#utility.yul\":4769:4788   */\n      mstore\n        /* \"#utility.yul\":4821:4825   */\n      0x20\n        /* \"#utility.yul\":4816:4819   */\n      dup3\n        /* \"#utility.yul\":4812:4826   */\n      add\n        /* \"#utility.yul\":4797:4826   */\n      swap1\n      pop\n        /* \"#utility.yul\":4663:4832   */\n      swap3\n      swap2\n      pop\n      pop\n      jump\t// out\n        /* \"#utility.yul\":4838:4977   */\n    tag_49:\n        /* \"#utility.yul\":4927:4933   */\n      dup3\n        /* \"#utility.yul\":4922:4925   */\n      dup2\n        /* \"#utility.yul\":4917:4920   */\n      dup4\n        /* \"#utility.yul\":4911:4934   */\n      mcopy\n        /* \"#utility.yul\":4968:4969   */\n      0x00\n        /* \"#utility.yul\":4959:4965   */\n      dup4\n        /* \"#utility.yul\":4954:4957   */\n      dup4\n        /* \"#utility.yul\":4950:4966   */\n      add\n        /* \"#utility.yul\":4943:4970   */\n      mstore\n        /* \"#utility.yul\":4838:4977   */\n      pop\n      pop\n      pop\n      jump\t// out\n        /* \"#utility.yul\":4983:5360   */\n    tag_50:\n        /* \"#utility.yul\":5071:5074   */\n      0x00\n        /* \"#utility.yul\":5099:5138   */\n      tag_129\n        /* \"#utility.yul\":5132:5137   */\n      dup3\n        /* \"#utility.yul\":5099:5138   */\n      tag_47\n      jump\t// in\n    tag_129:\n        /* \"#utility.yul\":5154:5225   */\n      tag_130\n        /* \"#utility.yul\":5218:5224   */\n      dup2\n        /* \"#utility.yul\":5213:5216   */\n      dup6\n        /* \"#utility.yul\":5154:5225   */\n      tag_48\n      jump\t// in\n    tag_130:\n        /* \"#utility.yul\":5147:5225   */\n      swap4\n      pop\n        /* \"#utility.yul\":5234:5299   */\n      tag_131\n        /* \"#utility.yul\":5292:5298   */\n      dup2\n        /* \"#utility.yul\":5287:5290   */\n      dup6\n        /* \"#utility.yul\":5280:5284   */\n      0x20\n        /* \"#utility.yul\":5273:5278   */\n      dup7\n        /* \"#utility.yul\":5269:5285   */\n      add\n        /* \"#utility.yul\":5234:5299   */\n      tag_49\n      jump\t// in\n    tag_131:\n        /* \"#utility.yul\":5324:5353   */\n      tag_132\n        /* \"#utility.yul\":5346:5352   */\n      dup2\n        /* \"#utility.yul\":5324:5353   */\n      tag_32\n      jump\t// in\n    tag_132:\n        /* \"#utility.yul\":5319:5322   */\n      dup5\n        /* \"#utility.yul\":5315:5354   */\n      add\n        /* \"#utility.yul\":5308:5354   */\n      swap2\n      pop\n        /* \"#utility.yul\":5075:5360   */\n      pop\n        /* \"#utility.yul\":4983:5360   */\n      swap3\n      swap2\n      pop\n      pop\n      jump\t// out\n        /* \"#utility.yul\":5366:5484   */\n    tag_51:\n        /* \"#utility.yul\":5453:5477   */\n      tag_134\n        /* \"#utility.yul\":5471:5476   */\n      dup2\n        /* \"#utility.yul\":5453:5477   */\n      tag_40\n      jump\t// in\n    tag_134:\n        /* \"#utility.yul\":5448:5451   */\n      dup3\n        /* \"#utility.yul\":5441:5478   */\n      mstore\n        /* \"#utility.yul\":5366:5484   */\n      pop\n      pop\n      jump\t// out\n        /* \"#utility.yul\":5490:5608   */\n    tag_52:\n        /* \"#utility.yul\":5577:5601   */\n      tag_136\n        /* \"#utility.yul\":5595:5600   */\n      dup2\n        /* \"#utility.yul\":5577:5601   */\n      tag_44\n      jump\t// in\n    tag_136:\n        /* \"#utility.yul\":5572:5575   */\n      dup3\n        /* \"#utility.yul\":5565:5602   */\n      mstore\n        /* \"#utility.yul\":5490:5608   */\n      pop\n      pop\n      jump\t// out\n        /* \"#utility.yul\":5614:6147   */\n    tag_14:\n        /* \"#utility.yul\":5783:5787   */\n      0x00\n        /* \"#utility.yul\":5821:5823   */\n      0x60\n        /* \"#utility.yul\":5810:5819   */\n      dup3\n        /* \"#utility.yul\":5806:5824   */\n      add\n        /* \"#utility.yul\":5798:5824   */\n      swap1\n      pop\n        /* \"#utility.yul\":5870:5879   */\n      dup2\n        /* \"#utility.yul\":5864:5868   */\n      dup2\n        /* \"#utility.yul\":5860:5880   */\n      sub\n        /* \"#utility.yul\":5856:5857   */\n      0x00\n        /* \"#utility.yul\":5845:5854   */\n      dup4\n        /* \"#utility.yul\":5841:5858   */\n      add\n        /* \"#utility.yul\":5834:5881   */\n      mstore\n        /* \"#utility.yul\":5898:5976   */\n      tag_138\n        /* \"#utility.yul\":5971:5975   */\n      dup2\n        /* \"#utility.yul\":5962:5968   */\n      dup7\n        /* \"#utility.yul\":5898:5976   */\n      tag_50\n      jump\t// in\n    tag_138:\n        /* \"#utility.yul\":5890:5976   */\n      swap1\n      pop\n        /* \"#utility.yul\":5986:6058   */\n      tag_139\n        /* \"#utility.yul\":6054:6056   */\n      0x20\n        /* \"#utility.yul\":6043:6052   */\n      dup4\n        /* \"#utility.yul\":6039:6057   */\n      add\n        /* \"#utility.yul\":6030:6036   */\n      dup6\n        /* \"#utility.yul\":5986:6058   */\n      tag_51\n      jump\t// in\n    tag_139:\n        /* \"#utility.yul\":6068:6140   */\n      tag_140\n        /* \"#utility.yul\":6136:6138   */\n      0x40\n        /* \"#utility.yul\":6125:6134   */\n      dup4\n        /* \"#utility.yul\":6121:6139   */\n      add\n        /* \"#utility.yul\":6112:6118   */\n      dup5\n        /* \"#utility.yul\":6068:6140   */\n      tag_52\n      jump\t// in\n    tag_140:\n        /* \"#utility.yul\":5614:6147   */\n      swap5\n      swap4\n      pop\n      pop\n      pop\n      pop\n      jump\t// out\n        /* \"#utility.yul\":6153:6333   */\n    tag_53:\n        /* \"#utility.yul\":6201:6278   */\n      0x4e487b7100000000000000000000000000000000000000000000000000000000\n        /* \"#utility.yul\":6198:6199   */\n      0x00\n        /* \"#utility.yul\":6191:6279   */\n      mstore\n        /* \"#utility.yul\":6298:6302   */\n      0x22\n        /* \"#utility.yul\":6295:6296   */\n      0x04\n        /* \"#utility.yul\":6288:6303   */\n      mstore\n        /* \"#utility.yul\":6322:6326   */\n      0x24\n        /* \"#utility.yul\":6319:6320   */\n      0x00\n        /* \"#utility.yul\":6312:6327   */\n      revert\n        /* \"#utility.yul\":6339:6659   */\n    tag_22:\n        /* \"#utility.yul\":6383:6389   */\n      0x00\n        /* \"#utility.yul\":6420:6421   */\n      0x02\n        /* \"#utility.yul\":6414:6418   */\n      dup3\n        /* \"#utility.yul\":6410:6422   */\n      div\n        /* \"#utility.yul\":6400:6422   */\n      swap1\n      pop\n        /* \"#utility.yul\":6467:6468   */\n      0x01\n        /* \"#utility.yul\":6461:6465   */\n      dup3\n        /* \"#utility.yul\":6457:6469   */\n      and\n        /* \"#utility.yul\":6488:6506   */\n      dup1\n        /* \"#utility.yul\":6478:6559   */\n      tag_143\n      jumpi\n        /* \"#utility.yul\":6544:6548   */\n      0x7f\n        /* \"#utility.yul\":6536:6542   */\n      dup3\n        /* \"#utility.yul\":6532:6549   */\n      and\n        /* \"#utility.yul\":6522:6549   */\n      swap2\n      pop\n        /* \"#utility.yul\":6478:6559   */\n    tag_143:\n        /* \"#utility.yul\":6606:6608   */\n      0x20\n        /* \"#utility.yul\":6598:6604   */\n      dup3\n        /* \"#utility.yul\":6595:6609   */\n      lt\n        /* \"#utility.yul\":6575:6593   */\n      dup2\n        /* \"#utility.yul\":6572:6610   */\n      sub\n        /* \"#utility.yul\":6569:6653   */\n      tag_144\n      jumpi\n        /* \"#utility.yul\":6625:6643   */\n      tag_145\n      tag_53\n      jump\t// in\n    tag_145:\n        /* \"#utility.yul\":6569:6653   */\n    tag_144:\n        /* \"#utility.yul\":6390:6659   */\n      pop\n        /* \"#utility.yul\":6339:6659   */\n      swap2\n      swap1\n      pop\n      jump\t// out\n        /* \"#utility.yul\":6665:6806   */\n    tag_54:\n        /* \"#utility.yul\":6714:6718   */\n      0x00\n        /* \"#utility.yul\":6737:6740   */\n      dup2\n        /* \"#utility.yul\":6729:6740   */\n      swap1\n      pop\n        /* \"#utility.yul\":6760:6763   */\n      dup2\n        /* \"#utility.yul\":6757:6758   */\n      0x00\n        /* \"#utility.yul\":6750:6764   */\n      mstore\n        /* \"#utility.yul\":6794:6798   */\n      0x20\n        /* \"#utility.yul\":6791:6792   */\n      0x00\n        /* \"#utility.yul\":6781:6799   */\n      keccak256\n        /* \"#utility.yul\":6773:6799   */\n      swap1\n      pop\n        /* \"#utility.yul\":6665:6806   */\n      swap2\n      swap1\n      pop\n      jump\t// out\n        /* \"#utility.yul\":6812:6905   */\n    tag_55:\n        /* \"#utility.yul\":6849:6855   */\n      0x00\n        /* \"#utility.yul\":6896:6898   */\n      0x20\n        /* \"#utility.yul\":6891:6893   */\n      0x1f\n        /* \"#utility.yul\":6884:6889   */\n      dup4\n        /* \"#utility.yul\":6880:6894   */\n      add\n        /* \"#utility.yul\":6876:6899   */\n      div\n        /* \"#utility.yul\":6866:6899   */\n      swap1\n      pop\n        /* \"#utility.yul\":6812:6905   */\n      swap2\n      swap1\n      pop\n      jump\t// out\n        /* \"#utility.yul\":6911:7018   */\n    tag_56:\n        /* \"#utility.yul\":6955:6963   */\n      0x00\n        /* \"#utility.yul\":7005:7010   */\n      dup3\n        /* \"#utility.yul\":6999:7003   */\n      dup3\n        /* \"#utility.yul\":6995:7011   */\n      shl\n        /* \"#utility.yul\":6974:7011   */\n      swap1\n      pop\n        /* \"#utility.yul\":6911:7018   */\n      swap3\n      swap2\n      pop\n      pop\n      jump\t// out\n        /* \"#utility.yul\":7024:7417   */\n    tag_57:\n        /* \"#utility.yul\":7093:7099   */\n      0x00\n        /* \"#utility.yul\":7143:7144   */\n      0x08\n        /* \"#utility.yul\":7131:7141   */\n      dup4\n        /* \"#utility.yul\":7127:7145   */\n      mul\n        /* \"#utility.yul\":7166:7263   */\n      tag_150\n        /* \"#utility.yul\":7196:7262   */\n      0xffffffffffffffffffffffffffffffffffffffffffffffffffffffffffffffff\n        /* \"#utility.yul\":7185:7194   */\n      dup3\n        /* \"#utility.yul\":7166:7263   */\n      tag_56\n      jump\t// in\n    tag_150:\n        /* \"#utility.yul\":7284:7323   */\n      tag_151\n        /* \"#utility.yul\":7314:7322   */\n      dup7\n        /* \"#utility.yul\":7303:7312   */\n      dup4\n        /* \"#utility.yul\":7284:7323   */\n      tag_56\n      jump\t// in\n    tag_151:\n        /* \"#utility.yul\":7272:7323   */\n      swap6\n      pop\n        /* \"#utility.yul\":7356:7360   */\n      dup1\n        /* \"#utility.yul\":7352:7361   */\n      not\n        /* \"#utility.yul\":7345:7350   */\n      dup5\n        /* \"#utility.yul\":7341:7362   */\n      and\n        /* \"#utility.yul\":7332:7362   */\n      swap4\n      pop\n        /* \"#utility.yul\":7405:7409   */\n      dup1\n        /* \"#utility.yul\":7395:7403   */\n      dup7\n        /* \"#utility.yul\":7391:7410   */\n      and\n        /* \"#utility.yul\":7384:7389   */\n      dup5\n        /* \"#utility.yul\":7381:7411   */\n      or\n        /* \"#utility.yul\":7371:7411   */\n      swap3\n      pop\n        /* \"#utility.yul\":7100:7417   */\n      pop\n      pop\n        /* \"#utility.yul\":7024:7417   */\n      swap4\n      swap3\n      pop\n      pop\n      pop\n      jump\t// out\n        /* \"#utility.yul\":7423:7483   */\n    tag_58:\n        /* \"#utility.yul\":7451:7454   */\n      0x00\n        /* \"#utility.yul\":7472:7477   */\n      dup2\n        /* \"#utility.yul\":7465:7477   */\n      swap1\n      pop\n        /* \"#utility.yul\":7423:7483   */\n      swap2\n      swap1\n      pop\n      jump\t// out\n        /* \"#utility.yul\":7489:7631   */\n    tag_59:\n        /* \"#utility.yul\":7539:7548   */\n      0x00\n        /* \"#utility.yul\":7572:7625   */\n      tag_154\n        /* \"#utility.yul\":7590:7624   */\n      tag_155\n        /* \"#utility.yul\":7599:7623   */\n      tag_156\n        /* \"#utility.yul\":7617:7622   */\n      dup5\n        /* \"#utility.yul\":7599:7623   */\n      tag_40\n      jump\t// in\n    tag_156:\n        /* \"#utility.yul\":7590:7624   */\n      tag_58\n      jump\t// in\n    tag_155:\n        /* \"#utility.yul\":7572:7625   */\n      tag_40\n      jump\t// in\n    tag_154:\n        /* \"#utility.yul\":7559:7625   */\n      swap1\n      pop\n        /* \"#utility.yul\":7489:7631   */\n      swap2\n      swap1\n      pop\n      jump\t// out\n        /* \"#utility.yul\":7637:7712   */\n    tag_60:\n        /* \"#utility.yul\":7680:7683   */\n      0x00\n        /* \"#utility.yul\":7701:7706   */\n      dup2\n        /* \"#utility.yul\":7694:7706   */\n      swap1\n      pop\n        /* \"#utility.yul\":7637:7712   */\n      swap2\n      swap1\n      pop\n      jump\t// out\n        /* \"#utility.yul\":7718:7987   */\n    tag_61:\n        /* \"#utility.yul\":7828:7867   */\n      tag_159\n        /* \"#utility.yul\":7859:7866   */\n      dup4\n        /* \"#utility.yul\":7828:7867   */\n      tag_59\n      jump\t// in\n    tag_159:\n        /* \"#utility.yul\":7889:7980   */\n      tag_160\n        /* \"#utility.yul\":7938:7979   */\n      tag_161\n        /* \"#utility.yul\":7962:7978   */\n      dup3\n        /* \"#utility.yul\":7938:7979   */\n      tag_60\n      jump\t// in\n    tag_161:\n        /* \"#utility.yul\":7930:7936   */\n      dup5\n        /* \"#utility.yul\":7923:7927   */\n      dup5\n        /* \"#utility.yul\":7917:7928   */\n      sload\n        /* \"#utility.yul\":7889:7980   */\n      tag_57\n      jump\t// in\n    tag_160:\n        /* \"#utility.yul\":7883:7887   */\n      dup3\n        /* \"#utility.yul\":7876:7981   */\n      sstore\n        /* \"#utility.yul\":7794:7987   */\n      pop\n        /* \"#utility.yul\":7718:7987   */\n      pop\n      pop\n      pop\n      jump\t// out\n        /* \"#utility.yul\":7993:8066   */\n    tag_62:\n        /* \"#utility.yul\":8038:8041   */\n      0x00\n        /* \"#utility.yul\":7993:8066   */\n      swap1\n      jump\t// out\n        /* \"#utility.yul\":8072:8261   */\n    tag_63:\n        /* \"#utility.yul\":8149:8181   */\n      tag_164\n      tag_62\n      jump\t// in\n    tag_164:\n        /* \"#utility.yul\":8190:8255   */\n      tag_165\n        /* \"#utility.yul\":8248:8254   */\n      dup2\n        /* \"#utility.yul\":8240:8246   */\n      dup5\n        /* \"#utility.yul\":8234:8238   */\n      dup5\n        /* \"#utility.yul\":8190:8255   */\n      tag_61\n      jump\t// in\n    tag_165:\n        /* \"#utility.yul\":8125:8261   */\n      pop\n        /* \"#utility.yul\":8072:8261   */\n      pop\n      pop\n      jump\t// out\n        /* \"#utility.yul\":8267:8453   */\n    tag_64:\n        /* \"#utility.yul\":8327:8447   */\n    tag_167:\n        /* \"#utility.yul\":8344:8347   */\n      dup2\n        /* \"#utility.yul\":8337:8342   */\n      dup2\n        /* \"#utility.yul\":8334:8348   */\n      lt\n        /* \"#utility.yul\":8327:8447   */\n      iszero\n      tag_169\n      jumpi\n        /* \"#utility.yul\":8398:8437   */\n      tag_170\n        /* \"#utility.yul\":8435:8436   */\n      0x00\n        /* \"#utility.yul\":8428:8433   */\n      dup3\n        /* \"#utility.yul\":8398:8437   */\n      tag_63\n      jump\t// in\n    tag_170:\n        /* \"#utility.yul\":8371:8372   */\n      0x01\n        /* \"#utility.yul\":8364:8369   */\n      dup2\n        /* \"#utility.yul\":8360:8373   */\n      add\n        /* \"#utility.yul\":8351:8373   */\n      swap1\n      pop\n        /* \"#utility.yul\":8327:8447   */\n      jump(tag_167)\n    tag_169:\n        /* \"#utility.yul\":8267:8453   */\n      pop\n      pop\n      jump\t// out\n        /* \"#utility.yul\":8459:9002   */\n    tag_65:\n        /* \"#utility.yul\":8560:8562   */\n      0x1f\n        /* \"#utility.yul\":8555:8558   */\n      dup3\n        /* \"#utility.yul\":8552:8563   */\n      gt\n        /* \"#utility.yul\":8549:8995   */\n      iszero\n      tag_172\n      jumpi\n        /* \"#utility.yul\":8594:8632   */\n      tag_173\n        /* \"#utility.yul\":8626:8631   */\n      dup2\n        /* \"#utility.yul\":8594:8632   */\n      tag_54\n      jump\t// in\n    tag_173:\n        /* \"#utility.yul\":8678:8707   */\n      tag_174\n        /* \"#utility.yul\":8696:8706   */\n      dup5\n        /* \"#utility.yul\":8678:8707   */\n      tag_55\n      jump\t// in\n    tag_174:\n        /* \"#utility.yul\":8668:8676   */\n      dup2\n        /* \"#utility.yul\":8664:8708   */\n      add\n        /* \"#utility.yul\":8861:8863   */\n      0x20\n        /* \"#utility.yul\":8849:8859   */\n      dup6\n        /* \"#utility.yul\":8846:8864   */\n      lt\n        /* \"#utility.yul\":8843:8892   */\n      iszero\n      tag_175\n      jumpi\n        /* \"#utility.yul\":8882:8890   */\n      dup2\n        /* \"#utility.yul\":8867:8890   */\n      swap1\n      pop\n        /* \"#utility.yul\":8843:8892   */\n    tag_175:\n        /* \"#utility.yul\":8905:8985   */\n      tag_176\n        /* \"#utility.yul\":8961:8983   */\n      tag_177\n        /* \"#utility.yul\":8979:8982   */\n      dup6\n        /* \"#utility.yul\":8961:8983   */\n      tag_55\n      jump\t// in\n    tag_177:\n        /* \"#utility.yul\":8951:8959   */\n      dup4\n        /* \"#utility.yul\":8947:8984   */\n      add\n        /* \"#utility.yul\":8934:8945   */\n      dup3\n        /* \"#utility.yul\":8905:8985   */\n      tag_64\n      jump\t// in\n    tag_176:\n        /* \"#utility.yul\":8564:8995   */\n      pop\n      pop\n        /* \"#utility.yul\":8549:8995   */\n    tag_172:\n        /* \"#utility.yul\":8459:9002   */\n      pop\n      pop\n      pop\n      jump\t// out\n        /* \"#utility.yul\":9008:9125   */\n    tag_66:\n        /* \"#utility.yul\":9062:9070   */\n      0x00\n        /* \"#utility.yul\":9112:9117   */\n      dup3\n        /* \"#utility.yul\":9106:9110   */\n      dup3\n        /* \"#utility.yul\":9102:9118   */\n      shr\n        /* \"#utility.yul\":9081:9118   */\n      swap1\n      pop\n        /* \"#utility.yul\":9008:9125   */\n      swap3\n      swap2\n      pop\n      pop\n      jump\t// out\n        /* \"#utility.yul\":9131:9300   */\n    tag_67:\n        /* \"#utility.yul\":9175:9181   */\n      0x00\n        /* \"#utility.yul\":9208:9259   */\n      tag_180\n        /* \"#utility.yul\":9256:9257   */\n      0x00\n        /* \"#utility.yul\":9252:9258   */\n      not\n        /* \"#utility.yul\":9244:9249   */\n      dup5\n        /* \"#utility.yul\":9241:9242   */\n      0x08\n        /* \"#utility.yul\":9237:9250   */\n      mul\n        /* \"#utility.yul\":9208:9259   */\n      tag_66\n      jump\t// in\n    tag_180:\n        /* \"#utility.yul\":9204:9260   */\n      not\n        /* \"#utility.yul\":9289:9293   */\n      dup1\n        /* \"#utility.yul\":9283:9287   */\n      dup4\n        /* \"#utility.yul\":9279:9294   */\n      and\n        /* \"#utility.yul\":9269:9294   */\n      swap2\n      pop\n        /* \"#utility.yul\":9182:9300   */\n      pop\n        /* \"#utility.yul\":9131:9300   */\n      swap3\n      swap2\n      pop\n      pop\n      jump\t// out\n        /* \"#utility.yul\":9305:9600   */\n    tag_68:\n        /* \"#utility.yul\":9381:9385   */\n      0x00\n        /* \"#utility.yul\":9527:9556   */\n      tag_182\n        /* \"#utility.yul\":9552:9555   */\n      dup4\n        /* \"#utility.yul\":9546:9550   */\n      dup4\n        /* \"#utility.yul\":9527:9556   */\n      tag_67\n      jump\t// in\n    tag_182:\n        /* \"#utility.yul\":9519:9556   */\n      swap2\n      pop\n        /* \"#utility.yul\":9589:9592   */\n      dup3\n        /* \"#utility.yul\":9586:9587   */\n      0x02\n        /* \"#utility.yul\":9582:9593   */\n      mul\n        /* \"#utility.yul\":9576:9580   */\n      dup3\n        /* \"#utility.yul\":9573:9594   */\n      or\n        /* \"#utility.yul\":9565:9594   */\n      swap1\n      pop\n        /* \"#utility.yul\":9305:9600   */\n      swap3\n      swap2\n      pop\n      pop\n      jump\t// out\n        /* \"#utility.yul\":9605:11000   */\n    tag_18:\n        /* \"#utility.yul\":9722:9759   */\n      tag_184\n        /* \"#utility.yul\":9755:9758   */\n      dup3\n        /* \"#utility.yul\":9722:9759   */\n      tag_47\n      jump\t// in\n    tag_184:\n        /* \"#utility.yul\":9824:9842   */\n      0xffffffffffffffff\n        /* \"#utility.yul\":9816:9822   */\n      dup2\n        /* \"#utility.yul\":9813:9843   */\n      gt\n        /* \"#utility.yul\":9810:9866   */\n      iszero\n      tag_185\n      jumpi\n        /* \"#utility.yul\":9846:9864   */\n      tag_186\n      tag_33\n      jump\t// in\n    tag_186:\n        /* \"#utility.yul\":9810:9866   */\n    tag_185:\n        /* \"#utility.yul\":9890:9928   */\n      tag_187\n        /* \"#utility.yul\":9922:9926   */\n      dup3\n        /* \"#utility.yul\":9916:9927   */\n      sload\n        /* \"#utility.yul\":9890:9928   */\n      tag_22\n      jump\t// in\n    tag_187:\n        /* \"#utility.yul\":9975:10042   */\n      tag_188\n        /* \"#utility.yul\":10035:10041   */\n      dup3\n        /* \"#utility.yul\":10027:10033   */\n      dup3\n        /* \"#utility.yul\":10021:10025   */\n      dup6\n        /* \"#utility.yul\":9975:10042   */\n      tag_65\n      jump\t// in\n    tag_188:\n        /* \"#utility.yul\":10069:10070   */\n      0x00\n        /* \"#utility.yul\":10093:10097   */\n      0x20\n        /* \"#utility.yul\":10080:10097   */\n      swap1\n      pop\n        /* \"#utility.yul\":10125:10127   */\n      0x1f\n        /* \"#utility.yul\":10117:10123   */\n      dup4\n        /* \"#utility.yul\":10114:10128   */\n      gt\n        /* \"#utility.yul\":10142:10143   */\n      0x01\n        /* \"#utility.yul\":10137:10755   */\n      dup2\n      eq\n      tag_190\n      jumpi\n        /* \"#utility.yul\":10799:10800   */\n      0x00\n        /* \"#utility.yul\":10816:10822   */\n      dup5\n        /* \"#utility.yul\":10813:10890   */\n      iszero\n      tag_191\n      jumpi\n        /* \"#utility.yul\":10865:10874   */\n      dup3\n        /* \"#utility.yul\":10860:10863   */\n      dup8\n        /* \"#utility.yul\":10856:10875   */\n      add\n        /* \"#utility.yul\":10850:10876   */\n      mload\n        /* \"#utility.yul\":10841:10876   */\n      swap1\n      pop\n        /* \"#utility.yul\":10813:10890   */\n    tag_191:\n        /* \"#utility.yul\":10916:10983   */\n      tag_192\n        /* \"#utility.yul\":10976:10982   */\n      dup6\n        /* \"#utility.yul\":10969:10974   */\n      dup3\n        /* \"#utility.yul\":10916:10983   */\n      tag_68\n      jump\t// in\n    tag_192:\n        /* \"#utility.yul\":10910:10914   */\n      dup7\n        /* \"#utility.yul\":10903:10984   */\n      sstore\n        /* \"#utility.yul\":10772:10994   */\n      pop\n        /* \"#utility.yul\":10107:10994   */\n      jump(tag_189)\n        /* \"#utility.yul\":10137:10755   */\n    tag_190:\n        /* \"#utility.yul\":10189:10193   */\n      0x1f\n        /* \"#utility.yul\":10185:10194   */\n      not\n        /* \"#utility.yul\":10177:10183   */\n      dup5\n        /* \"#utility.yul\":10173:10195   */\n      and\n        /* \"#utility.yul\":10223:10260   */\n      tag_193\n        /* \"#utility.yul\":10255:10259   */\n      dup7\n        /* \"#utility.yul\":10223:10260   */\n      tag_54\n      jump\t// in\n    tag_193:\n        /* \"#utility.yul\":10282:10283   */\n      0x00\n        /* \"#utility.yul\":10296:10504   */\n    tag_194:\n        /* \"#utility.yul\":10310:10317   */\n      dup3\n        /* \"#utility.yul\":10307:10308   */\n      dup2\n        /* \"#utility.yul\":10304:10318   */\n      lt\n        /* \"#utility.yul\":10296:10504   */\n      iszero\n      tag_196\n      jumpi\n        /* \"#utility.yul\":10389:10398   */\n      dup5\n        /* \"#utility.yul\":10384:10387   */\n      dup10\n        /* \"#utility.yul\":10380:10399   */\n      add\n        /* \"#utility.yul\":10374:10400   */\n      mload\n        /* \"#utility.yul\":10366:10372   */\n      dup3\n        /* \"#utility.yul\":10359:10401   */\n      sstore\n        /* \"#utility.yul\":10440:10441   */\n      0x01\n        /* \"#utility.yul\":10432:10438   */\n      dup3\n        /* \"#utility.yul\":10428:10442   */\n      add\n        /* \"#utility.yul\":10418:10442   */\n      swap2\n      pop\n        /* \"#utility.yul\":10487:10489   */\n      0x20\n        /* \"#utility.yul\":10476:10485   */\n      dup6\n        /* \"#utility.yul\":10472:10490   */\n      add\n        /* \"#utility.yul\":10459:10490   */\n      swap5\n      pop\n        /* \"#utility.yul\":10333:10337   */\n      0x20\n        /* \"#utility.yul\":10330:10331   */\n      dup2\n        /* \"#utility.yul\":10326:10338   */\n      add\n        /* \"#utility.yul\":10321:10338   */\n      swap1\n      pop\n        /* \"#utility.yul\":10296:10504   */\n      jump(tag_194)\n    tag_196:\n        /* \"#utility.yul\":10532:10538   */\n      dup7\n        /* \"#utility.yul\":10523:10530   */\n      dup4\n        /* \"#utility.yul\":10520:10539   */\n      lt\n        /* \"#utility.yul\":10517:10696   */\n      iszero\n      tag_197\n      jumpi\n        /* \"#utility.yul\":10590:10599   */\n      dup5\n        /* \"#utility.yul\":10585:10588   */\n      dup10\n        /* \"#utility.yul\":10581:10600   */\n      add\n        /* \"#utility.yul\":10575:10601   */\n      mload\n        /* \"#utility.yul\":10633:10681   */\n      tag_198\n        /* \"#utility.yul\":10675:10679   */\n      0x1f\n        /* \"#utility.yul\":10667:10673   */\n      dup10\n        /* \"#utility.yul\":10663:10680   */\n      and\n        /* \"#utility.yul\":10652:10661   */\n      dup3\n        /* \"#utility.yul\":10633:10681   */\n      tag_67\n      jump\t// in\n    tag_198:\n        /* \"#utility.yul\":10625:10631   */\n      dup4\n        /* \"#utility.yul\":10618:10682   */\n      sstore\n        /* \"#utility.yul\":10540:10696   */\n      pop\n        /* \"#utility.yul\":10517:10696   */\n    tag_197:\n        /* \"#utility.yul\":10742:10743   */\n      0x01\n        /* \"#utility.yul\":10738:10739   */\n      0x02\n        /* \"#utility.yul\":10730:10736   */\n      dup9\n        /* \"#utility.yul\":10726:10740   */\n      mul\n        /* \"#utility.yul\":10722:10744   */\n      add\n        /* \"#utility.yul\":10716:10720   */\n      dup9\n        /* \"#utility.yul\":10709:10745   */\n      sstore\n        /* \"#utility.yul\":10144:10755   */\n      pop\n      pop\n      pop\n        /* \"#utility.yul\":10107:10994   */\n    tag_189:\n      pop\n        /* \"#utility.yul\":9697:11000   */\n      pop\n      pop\n      pop\n        /* \"#utility.yul\":9605:11000   */\n      pop\n      pop\n      jump\t// out\n\n    auxdata: 0xa2646970667358221220271e12f69336b795db77dd15ddc0964aa87f813ea3102ba389d05797f157378964736f6c634300081a0033\n}\n",
				"bytecode": {
					"linkReferences": {},
					"object": "608060405234801561000f575f80fd5b505f60405180606001604052806040518060400160405280600481526020017f66656d69000000000000000000000000000000000000000000000000000000008152508152602001601781526020013373ffffffffffffffffffffffffffffffffffffffff16815250908060018154018082558091505060019003905f5260205f2090600302015f909190919091505f820151815f0190816100b19190610343565b50602082015181600101556040820151816002015f6101000a81548173ffffffffffffffffffffffffffffffffffffffff021916908373ffffffffffffffffffffffffffffffffffffffff1602179055505050610412565b5f81519050919050565b7f4e487b71000000000000000000000000000000000000000000000000000000005f52604160045260245ffd5b7f4e487b71000000000000000000000000000000000000000000000000000000005f52602260045260245ffd5b5f600282049050600182168061018457607f821691505b60208210810361019757610196610140565b5b50919050565b5f819050815f5260205f209050919050565b5f6020601f8301049050919050565b5f82821b905092915050565b5f600883026101f97fffffffffffffffffffffffffffffffffffffffffffffffffffffffffffffffff826101be565b61020386836101be565b95508019841693508086168417925050509392505050565b5f819050919050565b5f819050919050565b5f61024761024261023d8461021b565b610224565b61021b565b9050919050565b5f819050919050565b6102608361022d565b61027461026c8261024e565b8484546101ca565b825550505050565b5f90565b61028861027c565b610293818484610257565b505050565b5b818110156102b6576102ab5f82610280565b600181019050610299565b5050565b601f8211156102fb576102cc8161019d565b6102d5846101af565b810160208510156102e4578190505b6102f86102f0856101af565b830182610298565b50505b505050565b5f82821c905092915050565b5f61031b5f1984600802610300565b1980831691505092915050565b5f610333838361030c565b9150826002028217905092915050565b61034c82610109565b67ffffffffffffffff81111561036557610364610113565b5b61036f825461016d565b61037a8282856102ba565b5f60209050601f8311600181146103ab575f8415610399578287015190505b6103a38582610328565b86555061040a565b601f1984166103b98661019d565b5f5b828110156103e0578489015182556001820191506020850194506020810190506103bb565b868310156103fd57848901516103f9601f89168261030c565b8355505b6001600288020188555050505b505050505050565b61084c8061041f5f395ff3fe608060405234801561000f575f80fd5b5060043610610034575f3560e01c80632dd1ebf114610038578063db487f3614610054575b5f80fd5b610052600480360381019061004d91906103fc565b610086565b005b61006e60048036038101906100699190610468565b610149565b60405161007d93929190610511565b60405180910390f35b5f60405180606001604052808581526020018481526020018373ffffffffffffffffffffffffffffffffffffffff16815250908060018154018082558091505060019003905f5260205f2090600302015f909190919091505f820151815f0190816100f19190610747565b50602082015181600101556040820151816002015f6101000a81548173ffffffffffffffffffffffffffffffffffffffff021916908373ffffffffffffffffffffffffffffffffffffffff1602179055505050505050565b5f8181548110610157575f80fd5b905f5260205f2090600302015f91509050805f0180546101769061057a565b80601f01602080910402602001604051908101604052809291908181526020018280546101a29061057a565b80156101ed5780601f106101c4576101008083540402835291602001916101ed565b820191905f5260205f20905b8154815290600101906020018083116101d057829003601f168201915b505050505090806001015490806002015f9054906101000a900473ffffffffffffffffffffffffffffffffffffffff16905083565b5f604051905090565b5f80fd5b5f80fd5b5f80fd5b5f80fd5b5f601f19601f8301169050919050565b7f4e487b71000000000000000000000000000000000000000000000000000000005f52604160045260245ffd5b6102818261023b565b810181811067ffffffffffffffff821117156102a05761029f61024b565b5b80604052505050565b5f6102b2610222565b90506102be8282610278565b919050565b5f67ffffffffffffffff8211156102dd576102dc61024b565b5b6102e68261023b565b9050602081019050919050565b828183375f83830152505050565b5f61031361030e846102c3565b6102a9565b90508281526020810184848401111561032f5761032e610237565b5b61033a8482856102f3565b509392505050565b5f82601f83011261035657610355610233565b5b8135610366848260208601610301565b91505092915050565b5f819050919050565b6103818161036f565b811461038b575f80fd5b50565b5f8135905061039c81610378565b92915050565b5f73ffffffffffffffffffffffffffffffffffffffff82169050919050565b5f6103cb826103a2565b9050919050565b6103db816103c1565b81146103e5575f80fd5b50565b5f813590506103f6816103d2565b92915050565b5f805f606084860312156104135761041261022b565b5b5f84013567ffffffffffffffff8111156104305761042f61022f565b5b61043c86828701610342565b935050602061044d8682870161038e565b925050604061045e868287016103e8565b9150509250925092565b5f6020828403121561047d5761047c61022b565b5b5f61048a8482850161038e565b91505092915050565b5f81519050919050565b5f82825260208201905092915050565b8281835e5f83830152505050565b5f6104c582610493565b6104cf818561049d565b93506104df8185602086016104ad565b6104e88161023b565b840191505092915050565b6104fc8161036f565b82525050565b61050b816103c1565b82525050565b5f6060820190508181035f83015261052981866104bb565b905061053860208301856104f3565b6105456040830184610502565b949350505050565b7f4e487b71000000000000000000000000000000000000000000000000000000005f52602260045260245ffd5b5f600282049050600182168061059157607f821691505b6020821081036105a4576105a361054d565b5b50919050565b5f819050815f5260205f209050919050565b5f6020601f8301049050919050565b5f82821b905092915050565b5f600883026106067fffffffffffffffffffffffffffffffffffffffffffffffffffffffffffffffff826105cb565b61061086836105cb565b95508019841693508086168417925050509392505050565b5f819050919050565b5f61064b6106466106418461036f565b610628565b61036f565b9050919050565b5f819050919050565b61066483610631565b61067861067082610652565b8484546105d7565b825550505050565b5f90565b61068c610680565b61069781848461065b565b505050565b5b818110156106ba576106af5f82610684565b60018101905061069d565b5050565b601f8211156106ff576106d0816105aa565b6106d9846105bc565b810160208510156106e8578190505b6106fc6106f4856105bc565b83018261069c565b50505b505050565b5f82821c905092915050565b5f61071f5f1984600802610704565b1980831691505092915050565b5f6107378383610710565b9150826002028217905092915050565b61075082610493565b67ffffffffffffffff8111156107695761076861024b565b5b610773825461057a565b61077e8282856106be565b5f60209050601f8311600181146107af575f841561079d578287015190505b6107a7858261072c565b86555061080e565b601f1984166107bd866105aa565b5f5b828110156107e4578489015182556001820191506020850194506020810190506107bf565b8683101561080157848901516107fd601f891682610710565b8355505b6001600288020188555050505b50505050505056fea2646970667358221220271e12f69336b795db77dd15ddc0964aa87f813ea3102ba389d05797f157378964736f6c634300081a0033",
					"opcodes": "PUSH1 0x80 PUSH1 0x40 MSTORE CALLVALUE DUP1 ISZERO PUSH2 0xF JUMPI PUSH0 DUP1 REVERT JUMPDEST POP PUSH0 PUSH1 0x40 MLOAD DUP1 PUSH1 0x60 ADD PUSH1 0x40 MSTORE DUP1 PUSH1 0x40 MLOAD DUP1 PUSH1 0x40 ADD PUSH1 0x40 MSTORE DUP1 PUSH1 0x4 DUP2 MSTORE PUSH1 0x20 ADD PUSH32 0x66656D6900000000000000000000000000000000000000000000000000000000 DUP2 MSTORE POP DUP2 MSTORE PUSH1 0x20 ADD PUSH1 0x17 DUP2 MSTORE PUSH1 0x20 ADD CALLER PUSH20 0xFFFFFFFFFFFFFFFFFFFFFFFFFFFFFFFFFFFFFFFF AND DUP2 MSTORE POP SWAP1 DUP1 PUSH1 0x1 DUP2 SLOAD ADD DUP1 DUP3 SSTORE DUP1 SWAP2 POP POP PUSH1 0x1 SWAP1 SUB SWAP1 PUSH0 MSTORE PUSH1 0x20 PUSH0 KECCAK256 SWAP1 PUSH1 0x3 MUL ADD PUSH0 SWAP1 SWAP2 SWAP1 SWAP2 SWAP1 SWAP2 POP PUSH0 DUP3 ADD MLOAD DUP2 PUSH0 ADD SWAP1 DUP2 PUSH2 0xB1 SWAP2 SWAP1 PUSH2 0x343 JUMP JUMPDEST POP PUSH1 0x20 DUP3 ADD MLOAD DUP2 PUSH1 0x1 ADD SSTORE PUSH1 0x40 DUP3 ADD MLOAD DUP2 PUSH1 0x2 ADD PUSH0 PUSH2 0x100 EXP DUP2 SLOAD DUP2 PUSH20 0xFFFFFFFFFFFFFFFFFFFFFFFFFFFFFFFFFFFFFFFF MUL NOT AND SWAP1 DUP4 PUSH20 0xFFFFFFFFFFFFFFFFFFFFFFFFFFFFFFFFFFFFFFFF AND MUL OR SWAP1 SSTORE POP POP POP PUSH2 0x412 JUMP JUMPDEST PUSH0 DUP2 MLOAD SWAP1 POP SWAP2 SWAP1 POP JUMP JUMPDEST PUSH32 0x4E487B7100000000000000000000000000000000000000000000000000000000 PUSH0 MSTORE PUSH1 0x41 PUSH1 0x4 MSTORE PUSH1 0x24 PUSH0 REVERT JUMPDEST PUSH32 0x4E487B7100000000000000000000000000000000000000000000000000000000 PUSH0 MSTORE PUSH1 0x22 PUSH1 0x4 MSTORE PUSH1 0x24 PUSH0 REVERT JUMPDEST PUSH0 PUSH1 0x2 DUP3 DIV SWAP1 POP PUSH1 0x1 DUP3 AND DUP1 PUSH2 0x184 JUMPI PUSH1 0x7F DUP3 AND SWAP2 POP JUMPDEST PUSH1 0x20 DUP3 LT DUP2 SUB PUSH2 0x197 JUMPI PUSH2 0x196 PUSH2 0x140 JUMP JUMPDEST JUMPDEST POP SWAP2 SWAP1 POP JUMP JUMPDEST PUSH0 DUP2 SWAP1 POP DUP2 PUSH0 MSTORE PUSH1 0x20 PUSH0 KECCAK256 SWAP1 POP SWAP2 SWAP1 POP JUMP JUMPDEST PUSH0 PUSH1 0x20 PUSH1 0x1F DUP4 ADD DIV SWAP1 POP SWAP2 SWAP1 POP JUMP JUMPDEST PUSH0 DUP3 DUP3 SHL SWAP1 POP SWAP3 SWAP2 POP POP JUMP JUMPDEST PUSH0 PUSH1 0x8 DUP4 MUL PUSH2 0x1F9 PUSH32 0xFFFFFFFFFFFFFFFFFFFFFFFFFFFFFFFFFFFFFFFFFFFFFFFFFFFFFFFFFFFFFFFF DUP3 PUSH2 0x1BE JUMP JUMPDEST PUSH2 0x203 DUP7 DUP4 PUSH2 0x1BE JUMP JUMPDEST SWAP6 POP DUP1 NOT DUP5 AND SWAP4 POP DUP1 DUP7 AND DUP5 OR SWAP3 POP POP POP SWAP4 SWAP3 POP POP POP JUMP JUMPDEST PUSH0 DUP2 SWAP1 POP SWAP2 SWAP1 POP JUMP JUMPDEST PUSH0 DUP2 SWAP1 POP SWAP2 SWAP1 POP JUMP JUMPDEST PUSH0 PUSH2 0x247 PUSH2 0x242 PUSH2 0x23D DUP5 PUSH2 0x21B JUMP JUMPDEST PUSH2 0x224 JUMP JUMPDEST PUSH2 0x21B JUMP JUMPDEST SWAP1 POP SWAP2 SWAP1 POP JUMP JUMPDEST PUSH0 DUP2 SWAP1 POP SWAP2 SWAP1 POP JUMP JUMPDEST PUSH2 0x260 DUP4 PUSH2 0x22D JUMP JUMPDEST PUSH2 0x274 PUSH2 0x26C DUP3 PUSH2 0x24E JUMP JUMPDEST DUP5 DUP5 SLOAD PUSH2 0x1CA JUMP JUMPDEST DUP3 SSTORE POP POP POP POP JUMP JUMPDEST PUSH0 SWAP1 JUMP JUMPDEST PUSH2 0x288 PUSH2 0x27C JUMP JUMPDEST PUSH2 0x293 DUP2 DUP5 DUP5 PUSH2 0x257 JUMP JUMPDEST POP POP POP JUMP JUMPDEST JUMPDEST DUP2 DUP2 LT ISZERO PUSH2 0x2B6 JUMPI PUSH2 0x2AB PUSH0 DUP3 PUSH2 0x280 JUMP JUMPDEST PUSH1 0x1 DUP2 ADD SWAP1 POP PUSH2 0x299 JUMP JUMPDEST POP POP JUMP JUMPDEST PUSH1 0x1F DUP3 GT ISZERO PUSH2 0x2FB JUMPI PUSH2 0x2CC DUP2 PUSH2 0x19D JUMP JUMPDEST PUSH2 0x2D5 DUP5 PUSH2 0x1AF JUMP JUMPDEST DUP2 ADD PUSH1 0x20 DUP6 LT ISZERO PUSH2 0x2E4 JUMPI DUP2 SWAP1 POP JUMPDEST PUSH2 0x2F8 PUSH2 0x2F0 DUP6 PUSH2 0x1AF JUMP JUMPDEST DUP4 ADD DUP3 PUSH2 0x298 JUMP JUMPDEST POP POP JUMPDEST POP POP POP JUMP JUMPDEST PUSH0 DUP3 DUP3 SHR SWAP1 POP SWAP3 SWAP2 POP POP JUMP JUMPDEST PUSH0 PUSH2 0x31B PUSH0 NOT DUP5 PUSH1 0x8 MUL PUSH2 0x300 JUMP JUMPDEST NOT DUP1 DUP4 AND SWAP2 POP POP SWAP3 SWAP2 POP POP JUMP JUMPDEST PUSH0 PUSH2 0x333 DUP4 DUP4 PUSH2 0x30C JUMP JUMPDEST SWAP2 POP DUP3 PUSH1 0x2 MUL DUP3 OR SWAP1 POP SWAP3 SWAP2 POP POP JUMP JUMPDEST PUSH2 0x34C DUP3 PUSH2 0x109 JUMP JUMPDEST PUSH8 0xFFFFFFFFFFFFFFFF DUP2 GT ISZERO PUSH2 0x365 JUMPI PUSH2 0x364 PUSH2 0x113 JUMP JUMPDEST JUMPDEST PUSH2 0x36F DUP3 SLOAD PUSH2 0x16D JUMP JUMPDEST PUSH2 0x37A DUP3 DUP3 DUP6 PUSH2 0x2BA JUMP JUMPDEST PUSH0 PUSH1 0x20 SWAP1 POP PUSH1 0x1F DUP4 GT PUSH1 0x1 DUP2 EQ PUSH2 0x3AB JUMPI PUSH0 DUP5 ISZERO PUSH2 0x399 JUMPI DUP3 DUP8 ADD MLOAD SWAP1 POP JUMPDEST PUSH2 0x3A3 DUP6 DUP3 PUSH2 0x328 JUMP JUMPDEST DUP7 SSTORE POP PUSH2 0x40A JUMP JUMPDEST PUSH1 0x1F NOT DUP5 AND PUSH2 0x3B9 DUP7 PUSH2 0x19D JUMP JUMPDEST PUSH0 JUMPDEST DUP3 DUP2 LT ISZERO PUSH2 0x3E0 JUMPI DUP5 DUP10 ADD MLOAD DUP3 SSTORE PUSH1 0x1 DUP3 ADD SWAP2 POP PUSH1 0x20 DUP6 ADD SWAP5 POP PUSH1 0x20 DUP2 ADD SWAP1 POP PUSH2 0x3BB JUMP JUMPDEST DUP7 DUP4 LT ISZERO PUSH2 0x3FD JUMPI DUP5 DUP10 ADD MLOAD PUSH2 0x3F9 PUSH1 0x1F DUP10 AND DUP3 PUSH2 0x30C JUMP JUMPDEST DUP4 SSTORE POP JUMPDEST PUSH1 0x1 PUSH1 0x2 DUP9 MUL ADD DUP9 SSTORE POP POP POP JUMPDEST POP POP POP POP POP POP JUMP JUMPDEST PUSH2 0x84C DUP1 PUSH2 0x41F PUSH0 CODECOPY PUSH0 RETURN INVALID PUSH1 0x80 PUSH1 0x40 MSTORE CALLVALUE DUP1 ISZERO PUSH2 0xF JUMPI PUSH0 DUP1 REVERT JUMPDEST POP PUSH1 0x4 CALLDATASIZE LT PUSH2 0x34 JUMPI PUSH0 CALLDATALOAD PUSH1 0xE0 SHR DUP1 PUSH4 0x2DD1EBF1 EQ PUSH2 0x38 JUMPI DUP1 PUSH4 0xDB487F36 EQ PUSH2 0x54 JUMPI JUMPDEST PUSH0 DUP1 REVERT JUMPDEST PUSH2 0x52 PUSH1 0x4 DUP1 CALLDATASIZE SUB DUP2 ADD SWAP1 PUSH2 0x4D SWAP2 SWAP1 PUSH2 0x3FC JUMP JUMPDEST PUSH2 0x86 JUMP JUMPDEST STOP JUMPDEST PUSH2 0x6E PUSH1 0x4 DUP1 CALLDATASIZE SUB DUP2 ADD SWAP1 PUSH2 0x69 SWAP2 SWAP1 PUSH2 0x468 JUMP JUMPDEST PUSH2 0x149 JUMP JUMPDEST PUSH1 0x40 MLOAD PUSH2 0x7D SWAP4 SWAP3 SWAP2 SWAP1 PUSH2 0x511 JUMP JUMPDEST PUSH1 0x40 MLOAD DUP1 SWAP2 SUB SWAP1 RETURN JUMPDEST PUSH0 PUSH1 0x40 MLOAD DUP1 PUSH1 0x60 ADD PUSH1 0x40 MSTORE DUP1 DUP6 DUP2 MSTORE PUSH1 0x20 ADD DUP5 DUP2 MSTORE PUSH1 0x20 ADD DUP4 PUSH20 0xFFFFFFFFFFFFFFFFFFFFFFFFFFFFFFFFFFFFFFFF AND DUP2 MSTORE POP SWAP1 DUP1 PUSH1 0x1 DUP2 SLOAD ADD DUP1 DUP3 SSTORE DUP1 SWAP2 POP POP PUSH1 0x1 SWAP1 SUB SWAP1 PUSH0 MSTORE PUSH1 0x20 PUSH0 KECCAK256 SWAP1 PUSH1 0x3 MUL ADD PUSH0 SWAP1 SWAP2 SWAP1 SWAP2 SWAP1 SWAP2 POP PUSH0 DUP3 ADD MLOAD DUP2 PUSH0 ADD SWAP1 DUP2 PUSH2 0xF1 SWAP2 SWAP1 PUSH2 0x747 JUMP JUMPDEST POP PUSH1 0x20 DUP3 ADD MLOAD DUP2 PUSH1 0x1 ADD SSTORE PUSH1 0x40 DUP3 ADD MLOAD DUP2 PUSH1 0x2 ADD PUSH0 PUSH2 0x100 EXP DUP2 SLOAD DUP2 PUSH20 0xFFFFFFFFFFFFFFFFFFFFFFFFFFFFFFFFFFFFFFFF MUL NOT AND SWAP1 DUP4 PUSH20 0xFFFFFFFFFFFFFFFFFFFFFFFFFFFFFFFFFFFFFFFF AND MUL OR SWAP1 SSTORE POP POP POP POP POP POP JUMP JUMPDEST PUSH0 DUP2 DUP2 SLOAD DUP2 LT PUSH2 0x157 JUMPI PUSH0 DUP1 REVERT JUMPDEST SWAP1 PUSH0 MSTORE PUSH1 0x20 PUSH0 KECCAK256 SWAP1 PUSH1 0x3 MUL ADD PUSH0 SWAP2 POP SWAP1 POP DUP1 PUSH0 ADD DUP1 SLOAD PUSH2 0x176 SWAP1 PUSH2 0x57A JUMP JUMPDEST DUP1 PUSH1 0x1F ADD PUSH1 0x20 DUP1 SWAP2 DIV MUL PUSH1 0x20 ADD PUSH1 0x40 MLOAD SWAP1 DUP2 ADD PUSH1 0x40 MSTORE DUP1 SWAP3 SWAP2 SWAP1 DUP2 DUP2 MSTORE PUSH1 0x20 ADD DUP3 DUP1 SLOAD PUSH2 0x1A2 SWAP1 PUSH2 0x57A JUMP JUMPDEST DUP1 ISZERO PUSH2 0x1ED JUMPI DUP1 PUSH1 0x1F LT PUSH2 0x1C4 JUMPI PUSH2 0x100 DUP1 DUP4 SLOAD DIV MUL DUP4 MSTORE SWAP2 PUSH1 0x20 ADD SWAP2 PUSH2 0x1ED JUMP JUMPDEST DUP3 ADD SWAP2 SWAP1 PUSH0 MSTORE PUSH1 0x20 PUSH0 KECCAK256 SWAP1 JUMPDEST DUP2 SLOAD DUP2 MSTORE SWAP1 PUSH1 0x1 ADD SWAP1 PUSH1 0x20 ADD DUP1 DUP4 GT PUSH2 0x1D0 JUMPI DUP3 SWAP1 SUB PUSH1 0x1F AND DUP3 ADD SWAP2 JUMPDEST POP POP POP POP POP SWAP1 DUP1 PUSH1 0x1 ADD SLOAD SWAP1 DUP1 PUSH1 0x2 ADD PUSH0 SWAP1 SLOAD SWAP1 PUSH2 0x100 EXP SWAP1 DIV PUSH20 0xFFFFFFFFFFFFFFFFFFFFFFFFFFFFFFFFFFFFFFFF AND SWAP1 POP DUP4 JUMP JUMPDEST PUSH0 PUSH1 0x40 MLOAD SWAP1 POP SWAP1 JUMP JUMPDEST PUSH0 DUP1 REVERT JUMPDEST PUSH0 DUP1 REVERT JUMPDEST PUSH0 DUP1 REVERT JUMPDEST PUSH0 DUP1 REVERT JUMPDEST PUSH0 PUSH1 0x1F NOT PUSH1 0x1F DUP4 ADD AND SWAP1 POP SWAP2 SWAP1 POP JUMP JUMPDEST PUSH32 0x4E487B7100000000000000000000000000000000000000000000000000000000 PUSH0 MSTORE PUSH1 0x41 PUSH1 0x4 MSTORE PUSH1 0x24 PUSH0 REVERT JUMPDEST PUSH2 0x281 DUP3 PUSH2 0x23B JUMP JUMPDEST DUP2 ADD DUP2 DUP2 LT PUSH8 0xFFFFFFFFFFFFFFFF DUP3 GT OR ISZERO PUSH2 0x2A0 JUMPI PUSH2 0x29F PUSH2 0x24B JUMP JUMPDEST JUMPDEST DUP1 PUSH1 0x40 MSTORE POP POP POP JUMP JUMPDEST PUSH0 PUSH2 0x2B2 PUSH2 0x222 JUMP JUMPDEST SWAP1 POP PUSH2 0x2BE DUP3 DUP3 PUSH2 0x278 JUMP JUMPDEST SWAP2 SWAP1 POP JUMP JUMPDEST PUSH0 PUSH8 0xFFFFFFFFFFFFFFFF DUP3 GT ISZERO PUSH2 0x2DD JUMPI PUSH2 0x2DC PUSH2 0x24B JUMP JUMPDEST JUMPDEST PUSH2 0x2E6 DUP3 PUSH2 0x23B JUMP JUMPDEST SWAP1 POP PUSH1 0x20 DUP2 ADD SWAP1 POP SWAP2 SWAP1 POP JUMP JUMPDEST DUP3 DUP2 DUP4 CALLDATACOPY PUSH0 DUP4 DUP4 ADD MSTORE POP POP POP JUMP JUMPDEST PUSH0 PUSH2 0x313 PUSH2 0x30E DUP5 PUSH2 0x2C3 JUMP JUMPDEST PUSH2 0x2A9 JUMP JUMPDEST SWAP1 POP DUP3 DUP2 MSTORE PUSH1 0x20 DUP2 ADD DUP5 DUP5 DUP5 ADD GT ISZERO PUSH2 0x32F JUMPI PUSH2 0x32E PUSH2 0x237 JUMP JUMPDEST JUMPDEST PUSH2 0x33A DUP5 DUP3 DUP6 PUSH2 0x2F3 JUMP JUMPDEST POP SWAP4 SWAP3 POP POP POP JUMP JUMPDEST PUSH0 DUP3 PUSH1 0x1F DUP4 ADD SLT PUSH2 0x356 JUMPI PUSH2 0x355 PUSH2 0x233 JUMP JUMPDEST JUMPDEST DUP2 CALLDATALOAD PUSH2 0x366 DUP5 DUP3 PUSH1 0x20 DUP7 ADD PUSH2 0x301 JUMP JUMPDEST SWAP2 POP POP SWAP3 SWAP2 POP POP JUMP JUMPDEST PUSH0 DUP2 SWAP1 POP SWAP2 SWAP1 POP JUMP JUMPDEST PUSH2 0x381 DUP2 PUSH2 0x36F JUMP JUMPDEST DUP2 EQ PUSH2 0x38B JUMPI PUSH0 DUP1 REVERT JUMPDEST POP JUMP JUMPDEST PUSH0 DUP2 CALLDATALOAD SWAP1 POP PUSH2 0x39C DUP2 PUSH2 0x378 JUMP JUMPDEST SWAP3 SWAP2 POP POP JUMP JUMPDEST PUSH0 PUSH20 0xFFFFFFFFFFFFFFFFFFFFFFFFFFFFFFFFFFFFFFFF DUP3 AND SWAP1 POP SWAP2 SWAP1 POP JUMP JUMPDEST PUSH0 PUSH2 0x3CB DUP3 PUSH2 0x3A2 JUMP JUMPDEST SWAP1 POP SWAP2 SWAP1 POP JUMP JUMPDEST PUSH2 0x3DB DUP2 PUSH2 0x3C1 JUMP JUMPDEST DUP2 EQ PUSH2 0x3E5 JUMPI PUSH0 DUP1 REVERT JUMPDEST POP JUMP JUMPDEST PUSH0 DUP2 CALLDATALOAD SWAP1 POP PUSH2 0x3F6 DUP2 PUSH2 0x3D2 JUMP JUMPDEST SWAP3 SWAP2 POP POP JUMP JUMPDEST PUSH0 DUP1 PUSH0 PUSH1 0x60 DUP5 DUP7 SUB SLT ISZERO PUSH2 0x413 JUMPI PUSH2 0x412 PUSH2 0x22B JUMP JUMPDEST JUMPDEST PUSH0 DUP5 ADD CALLDATALOAD PUSH8 0xFFFFFFFFFFFFFFFF DUP2 GT ISZERO PUSH2 0x430 JUMPI PUSH2 0x42F PUSH2 0x22F JUMP JUMPDEST JUMPDEST PUSH2 0x43C DUP7 DUP3 DUP8 ADD PUSH2 0x342 JUMP JUMPDEST SWAP4 POP POP PUSH1 0x20 PUSH2 0x44D DUP7 DUP3 DUP8 ADD PUSH2 0x38E JUMP JUMPDEST SWAP3 POP POP PUSH1 0x40 PUSH2 0x45E DUP7 DUP3 DUP8 ADD PUSH2 0x3E8 JUMP JUMPDEST SWAP2 POP POP SWAP3 POP SWAP3 POP SWAP3 JUMP JUMPDEST PUSH0 PUSH1 0x20 DUP3 DUP5 SUB SLT ISZERO PUSH2 0x47D JUMPI PUSH2 0x47C PUSH2 0x22B JUMP JUMPDEST JUMPDEST PUSH0 PUSH2 0x48A DUP5 DUP3 DUP6 ADD PUSH2 0x38E JUMP JUMPDEST SWAP2 POP POP SWAP3 SWAP2 POP POP JUMP JUMPDEST PUSH0 DUP2 MLOAD SWAP1 POP SWAP2 SWAP1 POP JUMP JUMPDEST PUSH0 DUP3 DUP3 MSTORE PUSH1 0x20 DUP3 ADD SWAP1 POP SWAP3 SWAP2 POP POP JUMP JUMPDEST DUP3 DUP2 DUP4 MCOPY PUSH0 DUP4 DUP4 ADD MSTORE POP POP POP JUMP JUMPDEST PUSH0 PUSH2 0x4C5 DUP3 PUSH2 0x493 JUMP JUMPDEST PUSH2 0x4CF DUP2 DUP6 PUSH2 0x49D JUMP JUMPDEST SWAP4 POP PUSH2 0x4DF DUP2 DUP6 PUSH1 0x20 DUP7 ADD PUSH2 0x4AD JUMP JUMPDEST PUSH2 0x4E8 DUP2 PUSH2 0x23B JUMP JUMPDEST DUP5 ADD SWAP2 POP POP SWAP3 SWAP2 POP POP JUMP JUMPDEST PUSH2 0x4FC DUP2 PUSH2 0x36F JUMP JUMPDEST DUP3 MSTORE POP POP JUMP JUMPDEST PUSH2 0x50B DUP2 PUSH2 0x3C1 JUMP JUMPDEST DUP3 MSTORE POP POP JUMP JUMPDEST PUSH0 PUSH1 0x60 DUP3 ADD SWAP1 POP DUP2 DUP2 SUB PUSH0 DUP4 ADD MSTORE PUSH2 0x529 DUP2 DUP7 PUSH2 0x4BB JUMP JUMPDEST SWAP1 POP PUSH2 0x538 PUSH1 0x20 DUP4 ADD DUP6 PUSH2 0x4F3 JUMP JUMPDEST PUSH2 0x545 PUSH1 0x40 DUP4 ADD DUP5 PUSH2 0x502 JUMP JUMPDEST SWAP5 SWAP4 POP POP POP POP JUMP JUMPDEST PUSH32 0x4E487B7100000000000000000000000000000000000000000000000000000000 PUSH0 MSTORE PUSH1 0x22 PUSH1 0x4 MSTORE PUSH1 0x24 PUSH0 REVERT JUMPDEST PUSH0 PUSH1 0x2 DUP3 DIV SWAP1 POP PUSH1 0x1 DUP3 AND DUP1 PUSH2 0x591 JUMPI PUSH1 0x7F DUP3 AND SWAP2 POP JUMPDEST PUSH1 0x20 DUP3 LT DUP2 SUB PUSH2 0x5A4 JUMPI PUSH2 0x5A3 PUSH2 0x54D JUMP JUMPDEST JUMPDEST POP SWAP2 SWAP1 POP JUMP JUMPDEST PUSH0 DUP2 SWAP1 POP DUP2 PUSH0 MSTORE PUSH1 0x20 PUSH0 KECCAK256 SWAP1 POP SWAP2 SWAP1 POP JUMP JUMPDEST PUSH0 PUSH1 0x20 PUSH1 0x1F DUP4 ADD DIV SWAP1 POP SWAP2 SWAP1 POP JUMP JUMPDEST PUSH0 DUP3 DUP3 SHL SWAP1 POP SWAP3 SWAP2 POP POP JUMP JUMPDEST PUSH0 PUSH1 0x8 DUP4 MUL PUSH2 0x606 PUSH32 0xFFFFFFFFFFFFFFFFFFFFFFFFFFFFFFFFFFFFFFFFFFFFFFFFFFFFFFFFFFFFFFFF DUP3 PUSH2 0x5CB JUMP JUMPDEST PUSH2 0x610 DUP7 DUP4 PUSH2 0x5CB JUMP JUMPDEST SWAP6 POP DUP1 NOT DUP5 AND SWAP4 POP DUP1 DUP7 AND DUP5 OR SWAP3 POP POP POP SWAP4 SWAP3 POP POP POP JUMP JUMPDEST PUSH0 DUP2 SWAP1 POP SWAP2 SWAP1 POP JUMP JUMPDEST PUSH0 PUSH2 0x64B PUSH2 0x646 PUSH2 0x641 DUP5 PUSH2 0x36F JUMP JUMPDEST PUSH2 0x628 JUMP JUMPDEST PUSH2 0x36F JUMP JUMPDEST SWAP1 POP SWAP2 SWAP1 POP JUMP JUMPDEST PUSH0 DUP2 SWAP1 POP SWAP2 SWAP1 POP JUMP JUMPDEST PUSH2 0x664 DUP4 PUSH2 0x631 JUMP JUMPDEST PUSH2 0x678 PUSH2 0x670 DUP3 PUSH2 0x652 JUMP JUMPDEST DUP5 DUP5 SLOAD PUSH2 0x5D7 JUMP JUMPDEST DUP3 SSTORE POP POP POP POP JUMP JUMPDEST PUSH0 SWAP1 JUMP JUMPDEST PUSH2 0x68C PUSH2 0x680 JUMP JUMPDEST PUSH2 0x697 DUP2 DUP5 DUP5 PUSH2 0x65B JUMP JUMPDEST POP POP POP JUMP JUMPDEST JUMPDEST DUP2 DUP2 LT ISZERO PUSH2 0x6BA JUMPI PUSH2 0x6AF PUSH0 DUP3 PUSH2 0x684 JUMP JUMPDEST PUSH1 0x1 DUP2 ADD SWAP1 POP PUSH2 0x69D JUMP JUMPDEST POP POP JUMP JUMPDEST PUSH1 0x1F DUP3 GT ISZERO PUSH2 0x6FF JUMPI PUSH2 0x6D0 DUP2 PUSH2 0x5AA JUMP JUMPDEST PUSH2 0x6D9 DUP5 PUSH2 0x5BC JUMP JUMPDEST DUP2 ADD PUSH1 0x20 DUP6 LT ISZERO PUSH2 0x6E8 JUMPI DUP2 SWAP1 POP JUMPDEST PUSH2 0x6FC PUSH2 0x6F4 DUP6 PUSH2 0x5BC JUMP JUMPDEST DUP4 ADD DUP3 PUSH2 0x69C JUMP JUMPDEST POP POP JUMPDEST POP POP POP JUMP JUMPDEST PUSH0 DUP3 DUP3 SHR SWAP1 POP SWAP3 SWAP2 POP POP JUMP JUMPDEST PUSH0 PUSH2 0x71F PUSH0 NOT DUP5 PUSH1 0x8 MUL PUSH2 0x704 JUMP JUMPDEST NOT DUP1 DUP4 AND SWAP2 POP POP SWAP3 SWAP2 POP POP JUMP JUMPDEST PUSH0 PUSH2 0x737 DUP4 DUP4 PUSH2 0x710 JUMP JUMPDEST SWAP2 POP DUP3 PUSH1 0x2 MUL DUP3 OR SWAP1 POP SWAP3 SWAP2 POP POP JUMP JUMPDEST PUSH2 0x750 DUP3 PUSH2 0x493 JUMP JUMPDEST PUSH8 0xFFFFFFFFFFFFFFFF DUP2 GT ISZERO PUSH2 0x769 JUMPI PUSH2 0x768 PUSH2 0x24B JUMP JUMPDEST JUMPDEST PUSH2 0x773 DUP3 SLOAD PUSH2 0x57A JUMP JUMPDEST PUSH2 0x77E DUP3 DUP3 DUP6 PUSH2 0x6BE JUMP JUMPDEST PUSH0 PUSH1 0x20 SWAP1 POP PUSH1 0x1F DUP4 GT PUSH1 0x1 DUP2 EQ PUSH2 0x7AF JUMPI PUSH0 DUP5 ISZERO PUSH2 0x79D JUMPI DUP3 DUP8 ADD MLOAD SWAP1 POP JUMPDEST PUSH2 0x7A7 DUP6 DUP3 PUSH2 0x72C JUMP JUMPDEST DUP7 SSTORE POP PUSH2 0x80E JUMP JUMPDEST PUSH1 0x1F NOT DUP5 AND PUSH2 0x7BD DUP7 PUSH2 0x5AA JUMP JUMPDEST PUSH0 JUMPDEST DUP3 DUP2 LT ISZERO PUSH2 0x7E4 JUMPI DUP5 DUP10 ADD MLOAD DUP3 SSTORE PUSH1 0x1 DUP3 ADD SWAP2 POP PUSH1 0x20 DUP6 ADD SWAP5 POP PUSH1 0x20 DUP2 ADD SWAP1 POP PUSH2 0x7BF JUMP JUMPDEST DUP7 DUP4 LT ISZERO PUSH2 0x801 JUMPI DUP5 DUP10 ADD MLOAD PUSH2 0x7FD PUSH1 0x1F DUP10 AND DUP3 PUSH2 0x710 JUMP JUMPDEST DUP4 SSTORE POP JUMPDEST PUSH1 0x1 PUSH1 0x2 DUP9 MUL ADD DUP9 SSTORE POP POP POP JUMPDEST POP POP POP POP POP POP JUMP INVALID LOG2 PUSH5 0x6970667358 0x22 SLT KECCAK256 0x27 0x1E SLT 0xF6 SWAP4 CALLDATASIZE 0xB7 SWAP6 0xDB PUSH24 0xDD15DDC0964AA87F813EA3102BA389D05797F15737896473 PUSH16 0x6C634300081A00330000000000000000 "
				},
				"gasEstimates": {
					"creation": {
						"codeDepositCost": "424800",
						"executionCost": "infinite",
						"totalCost": "infinite"
					},
					"external": {
						"detail(uint256)": "infinite",
						"setTestScores(string,uint256,address)": "infinite"
					}
				},
				"methodIdentifiers": {
					"detail(uint256)": "db487f36",
					"setTestScores(string,uint256,address)": "2dd1ebf1"
				}
			},
			"storageLayout": {
				"storage": [
					{
						"astId": 27,
						"contract": "contracts/MySecondWork.sol:MySecondWork",
						"label": "detail",
						"offset": 0,
						"slot": "0",
						"type": "t_array(t_struct(Details)8_storage)dyn_storage"
					}
				],
				"types": {
					"t_address": {
						"encoding": "inplace",
						"label": "address",
						"numberOfBytes": "20"
					},
					"t_array(t_struct(Details)8_storage)dyn_storage": {
						"base": "t_struct(Details)8_storage",
						"encoding": "dynamic_array",
						"label": "struct MySecondWork.Details[]",
						"numberOfBytes": "32"
					},
					"t_string_storage": {
						"encoding": "bytes",
						"label": "string",
						"numberOfBytes": "32"
					},
					"t_struct(Details)8_storage": {
						"encoding": "inplace",
						"label": "struct MySecondWork.Details",
						"members": [
							{
								"astId": 3,
								"contract": "contracts/MySecondWork.sol:MySecondWork",
								"label": "name",
								"offset": 0,
								"slot": "0",
								"type": "t_string_storage"
							},
							{
								"astId": 5,
								"contract": "contracts/MySecondWork.sol:MySecondWork",
								"label": "age",
								"offset": 0,
								"slot": "1",
								"type": "t_uint256"
							},
							{
								"astId": 7,
								"contract": "contracts/MySecondWork.sol:MySecondWork",
								"label": "addy",
								"offset": 0,
								"slot": "2",
								"type": "t_address"
							}
						],
						"numberOfBytes": "96"
					},
					"t_uint256": {
						"encoding": "inplace",
						"label": "uint256",
						"numberOfBytes": "32"
					}
				}
			},
			"userdoc": {
				"kind": "user",
				"methods": {},
				"version": 1
			}
		}
	}
}